:06FFFA00AA02AA02AA02FD
:2002AA00A2FF9A2050130900F0034CEF02A900A201A011F0069500E888D0FAA9008515A98F
:2002CA00008514A9138513A9918512A900A20220F212A9008514A9AA8513A9008512A900CF
:0B02EA00A20220241320A4124CF202F8
:2002F500A2F78E007FAD087F608D017FA2FC8E007FAD0B7F8515AD0A7F8514AD097F85138A
:20031500AD087F8512A515850FA514850EA613A51260A2FA8E007F608D00028E0102A20BBD
:200335008E017FA2008A186D00028512A9006D01028513A000B112C900F00C8D087FA0FBC8
:200355008C007FE84C3A03608D087FA2008E017FA2FB8E007F608D087FA2018E017FA2FB7C
:200375008E007F608D087FA2028E017FA2FB8E007F608D087FA2038E017FA2FB8E007F605A
:200395008E097F8D087FA2048E017FA2FB8E007F608E097F8D087FA2058E017FA2FB8E0056
:2003B5007F608E097F8D087FA2068E017FA2FB8E007F608E097F8D087FA2078E017FA2FBE1
:2003D5008E007F60AD05028D0B7FAD04028D0A7FAD03028D097FAD02028D087FA2088E0142
:2003F5007FA2FB8E007F60AD09028D0B7FAD08028D0A7FAD07028D097FAD06028D087FA28D
:20041500098E017FA2FB8E007F60AD0D028D0B7FAD0C028D0A7FAD0B028D097FAD0A028DED
:20043500087FA20A8E017FA2FB8E007F608D10028E1102A20B8E017FA2F88E007FAD097F85
:200455008D1302AD087F8D1202AD0E0238ED1202AD0F02ED1302B00CAD0E028D1202AD0F84
:20047500028D1302AD11020D1002F04DA20086128613A51238ED1202A513ED1302B024A2B4
:20049500F98E007FAD10021865128514AD110265138515AD087FA0009114E612D0D4E6137A
:2004B5004C8704AD1002186D12028514AD11026D13028515A900A89114AE1302AD120260A9
:2004D500A2008E017FA2F88E007FAD087F60A2018E017FA2F88E007FAD087F60A2028E01FD
:2004F5007FA2F88E007FAD087F60A2038E017FA2F88E007FAD087F60A2048E017FA2F88E63
:20051500007FAE097FAD087F60A2058E017FA2F88E007FAE097FAD087F60A2068E017FA2FF
:20053500F88E007FAE097FAD087F60A2078E017FA2F88E007FAE097FAD087F60A2088E0176
:200555007FA2F88E007FAD0B7F8515AD0A7F8514AD097F8513AD087F8512A515850FA51421
:20057500850EA613A51260A2098E017FA2F88E007FAD0B7F8515AD0A7F8514AD097F851336
:20059500AD087F8512A515850FA514850EA613A51260A20A8E017FA2F88E007FAD0B7F85F4
:2005B50015AD0A7F8514AD097F8513AD087F8512A515850FA514850EA613A512608E107F23
:2005D500AE14028E187FAE15028E207F8D017FA2008E027FAD16028D037FAD17028D047FC3
:2005F500AD18028D057FA20D8E007F608E107FAE19028E187FAE1A028E207F8D017FA20140
:200615008E027FAD1B028D037FAD1C028D047FAD1D028D057FA20D8E007F60AE1F028E119B
:200635007FAE1E028E107FAE21028E197FAE20028E187FAE23028E217FAE22028E207F8DC2
:20065500017FA2048E027FAD24028D037FAD25028D047FAD26028D057FA20D8E007F60AEDA
:2006750028028E117FAE27028E107FAE2A028E197FAE29028E187FAE2C028E217FAE2B0246
:200695008E207F8D017FA2058E027FAD2D028D037FAD2E028D047FAD2F028D057FA20D8E51
:2006B500007F60AE31028E117FAE30028E107FAE33028E197FAE32028E187FAE35028E21A6
:2006D5007FAE34028E207F8D017FA2068E027FAD36028D037FAD37028D047FAD38028D054E
:2006F5007FA20D8E007F60AE3A028E117FAE39028E107FAE3C028E197FAE3B028E187FAE6C
:200715003E028E217FAE3D028E207F8D017FA2078E027FAD3F028D037FAD40028D047FADCE
:2007350041028D057FA20D8E007F60AE45028E137FAE44028E127FAE43028E117FAE420209
:200755008E107FAE49028E1B7FAE48028E1A7FAE47028E197FAE46028E187FAE4D028E2341
:200775007FAE4C028E227FAE4B028E217FAE4A028E207F8D017FA2088E027FAD4E028D0317
:200795007FAD4F028D047FAD50028D057FA20D8E007F60AE54028E137FAE53028E127FAE97
:2007B50052028E117FAE51028E107FAE58028E1B7FAE57028E1A7FAE56028E197FAE550205
:2007D5008E187FAE5C028E237FAE5B028E227FAE5A028E217FAE59028E207F8D017FA20943
:2007F5008E027FAD5D028D037FAD5E028D047FAD5F028D057FA20D8E007F60AE63028E13AE
:200815007FAE62028E127FAE61028E117FAE60028E107FAE67028E1B7FAE66028E1A7FAE8D
:2008350065028E197FAE64028E187FAE6B028E237FAE6A028E227FAE69028E217FAE6802EA
:200855008E207F8D017FA20A8E027FAD6C028D037FAD6D028D047FAD6E028D057FA20D8ECD
:20087500007F608E107FAE6F028E187FA2008E017F8D027FA2F68E007FAD087F608E107F0F
:20089500AE70028E187FA2018E017F8D027FA2F68E007FAD087F60AE72028E117FAE7102A5
:2008B5008E107FAE74028E197FAE73028E187FA2048E017F8D027FA2F68E007FAE097FAD2A
:2008D500087F60AE76028E117FAE75028E107FAE78028E197FAE77028E187FA2058E017F47
:2008F5008D027FA2F68E007FAE097FAD087F60AE7A028E117FAE79028E107FAE7C028E1905
:200915007FAE7B028E187FA2068E017F8D027FA2F68E007FAE097FAD087F60AE7E028E11F3
:200935007FAE7D028E107FAE80028E197FAE7F028E187FA2078E017F8D027FA2F68E007FC5
:20095500AE097FAD087F60AE84028E137FAE83028E127FAE82028E117FAE81028E107FAEC6
:2009750088028E1B7FAE87028E1A7FAE86028E197FAE85028E187FA2088E017F8D027FA234
:20099500F68E007FAD0B7F8515AD0A7F8514AD097F8513AD087F8512A515850FA514850E6D
:2009B500A613A51260AE8C028E137FAE8B028E127FAE8A028E117FAE89028E107FAE9002AE
:2009D5008E1B7FAE8F028E1A7FAE8E028E197FAE8D028E187FA2098E017F8D027FA2F68EC1
:2009F500007FAD0B7F8515AD0A7F8514AD097F8513AD087F8512A515850FA514850EA613D8
:200A1500A51260AE94028E137FAE93028E127FAE92028E117FAE91028E107FAE98028E1B35
:200A35007FAE97028E1A7FAE96028E197FAE95028E187FA20A8E017F8D027FA2F68E007F71
:200A5500AD0B7F8515AD0A7F8514AD097F8513AD087F8512A515850FA514850EA613A5123F
:200A7500608D087FA2008E017FA2028E007F608D087FA2018E017FE88E007F608D087FA25C
:200A9500028E017F8E007F608D087FA2038E017FCA8E007F608E097F8D087FA2048E017FE8
:200AB500A2028E007F608E097F8D087FA2058E017FA2028E007F608E097F8D087FA2068EC0
:200AD500017FA2028E007F608E097F8D087FA2078E017FA2028E007F60AD9C028D0B7FAD6F
:200AF5009B028D0A7FAD9A028D097FAD99028D087FA2088E017FA2028E007F60ADA0028DCF
:200B15000B7FAD9F028D0A7FAD9E028D097FAD9D028D087FA2098E017FA2028E007F60AD99
:200B3500A4028D0B7FADA3028D0A7FADA2028D097FADA1028D087FA20A8E017FA2028E00C5
:200B55007F608DA5028EA602A20086018602ADA5021865018503ADA60265028504A000B196
:200B750003C900F00C209D0AE601D0E2E6024C630B608DA8028EA9028A38E90050041008AF
:200B950030023004A9008002A90185050900D009ADA802AEA9024CBC0BA90038EDA8024816
:200BB500A900EDA902AA6838E9648AE9005004100430071005A92020910AA505D009ADA8C5
:200BD50002AEA9024CEA0BA90038EDA80248A900EDA902AA6838E90A8AE90050041004301B
:200BF500071005A92020910AA505D005A92020910AAEA902ADA8024CAA0A4885068607BA73
:200C15008A1869EAAA9AA506A2018E007FA213A95320570BBABD170120760AA213A95E20ED
:200C3500570BBABD1B01AA8606BABD1A0108A6062820870BA213A96820570BBABD1D01AACD
:200C55008606BABD1C0108A6062820870BA213A97220570BBABD1F01AA8606BABD1E010814
:200C7500A6062820870BA213A97C20570BBABD2101AA8606BABD200108A6062820870BA2E6
:200C9500038E007FBABD1701F0034C1F10BD1E0138FD1A0148BD1F01FD1B01AA6885068AA1
:200CB500BA9D0801A5069D070109009D0501BD08019D0601BD080138E900500410043013C7
:200CD5001011BD07011869079D0501BD080169009D0601BABD05018506BD0601AAA5068674
:200CF50006E08066066AE08066066AE08066066AA60685068ABA9D1601A5069D1501BD20CD
:200D15000138FD1C0148BD2101FD1D01AA6885068ABA9D0601A5069D050109009D0701BDEB
:200D350006019D0801BD060138E9005004100430131011BD05011869079D0701BD06016923
:200D5500009D0801BABD07018506BD0801AAA5068606E08066066AE08066066AE0806606EF
:200D75006AA60685068ABA9D1401A5069D1301BD1A018506BD1B01AA38E9007004100430AC
:200D9500121010BABD1A019D0501BD1B019D06014CBA0DA90038BAFD1A019D0501A900FD4B
:200DB5001B019D0601BABD1E018506BD1F01AA38E9007004100430121010BABD1E019D0771
:200DD50001BD1F019D08014CF10DA90038BAFD1E019D0701A900FD1F019D0801BABD0501EB
:200DF500187D07019D1101BD06017D08019D1201BD1C018506BD1D01AA38E9007004100405
:200E150030121010BABD1C019D0501BD1D019D06014C3B0EA90038BAFD1C019D0501A9000F
:200E3500FD1D019D0601BABD20018506BD2101AA38E9007004100430121010BABD20019DF2
:200E55000701BD21019D08014C720EA90038BAFD20019D0701A900FD21019D0801BABD05DC
:200E750001187D07019D0F01BD06017D08019D1001BD0F0138FD1101BD1001FD12015004D4
:200E950010043011100FBD11019D0D01BD12019D0E014CB70EBABD0F019D0D01BD10019D25
:200EB5000E01ADA7028D017FA20C8E007FBABD1A01187D15019D0501BD1B017D16019D0600
:200ED50001BD1C01187D13019D0701BD1D017D14019D0801BD05018D1E02BD06018D1F02DF
:200EF500BD07018D2002BD08018D2102BD0D018D2202BD0E018D2302A2FF8E24028E2502EF
:200F15008E2602ADA702203006BABD200138FD13019D0301BD2101FD14019D0401BD050182
:200F35008D1E02BD06018D1F02BD03018D2002BD04018D2102BD0D018D2202BD0E018D23A3
:200F550002A2FF8E24028E25028E2602ADA702203006BABD1E0138FD15019D0101BD1F01B1
:200F7500FD16019D0201BD01018D1E02BD02018D1F02BD03018D2002BD04018D2102BD0D22
:200F9500018D2202BD0E018D2302A2FF8E24028E25028E2602ADA702203006BABD01018D9A
:200FB5001E02BD02018D1F02BD07018D2002BD08018D2102BD0D018D2202BD0E018D2302AA
:200FD500A2FF8E24028E25028E2602ADA702203006BABD05018D1E02BD06018D1F02BD0730
:200FF500018D2002BD08018D2102BD0D018D2202BD0E018D2302A2FF8E24028E25028E26FE
:2010150002ADA7022030064C1812BABD1E0138FD1A0148BD1F01FD1B01AA6885068ABA9DF5
:201035000201A5069D010109009D0301BD02019D0401BD020138E900500410043013101195
:20105500BD01011869019D0301BD020169009D0401BABD03018506BD0401AAA5068606E045
:201075008066066AA60685068ABA9D0201A5069D0101BD1A019D0301BD1B019D0401BD03EC
:2010950001187D010148BD04017D0201AA6885068ABA9D0C01A5069D0B01BD200138FD1C0B
:2010B5000148BD2101FD1D01AA6885068ABA9D0201A5069D010109009D0301BD02019D0402
:2010D50001BD020138E9005004100430131011BD01011869019D0301BD020169009D0401A0
:2010F500BABD03018506BD0401AAA5068606E08066066AA60685068ABA9D0201A5069D0198
:2011150001BD1C019D0301BD1D019D0401BD0301187D010148BD04017D0201AA6885068AB8
:20113500BA9D0A01A5069D0901BD1701A8885ABD0A0148BD090148BD0C0148BD0B0148BD88
:201155001D0148BD1C0148BD1B0148BD1A014898200F0C85068607BA8A186908AA9AA60708
:20117500A5067A5ABABD0B0148BD0A0148BD200148BD1F0148BD1E0148BD1D0148BD0D01A3
:2011950048BD0C014898200F0C85068607BA8A186908AA9AA607A5067A5ABABD220148BD19
:2011B500210148BD0D0148BD0C0148BD0B0148BD0A0148BD1C0148BD1B014898200F0C85CF
:2011D500068607BA8A186908AA9AA607A5067ABABD210148BD200148BD1F0148BD1E014834
:2011F500BD0A0148BD090148BD0C0148BD0B014898200F0C85068607BA8A186908AA9AA6F6
:2012150007A506A2018E007FA213A98620570BBABD170120760AA213A95E20570BBABD1BF2
:2012350001AA8606BABD1A0108A6062820870BA213A96820570BBABD1D01AA8606BABD1C9C
:201255000108A6062820870BA213A97220570BBABD1F01AA8606BABD1E0108A606282087B2
:201275000BA213A97C20570BBABD2101AA8606BABD200108A6062820870BA2038E007F85C6
:20129500068607BA8A186917AA9AA607A5066020F5028DA7028D017FA20A8E007FADA70265
:2012B5008D017FA2018E027FA20B8E007FA90048A98048A90048A98048A9FF48A98048A9D2
:1D12D500FF48A98048A904200F0C85068607BA8A186908AA9AA506A2FD8E007F607C
:2013530043616C6C20202020543D0020202020202058313D0020202020202059313D0020C0
:1E137300202020202058323D0020202020202059323D0052657475726E2020543D001C
:2012F2008506860785108611A000A615F013B1129110C8B1129110C8D0F4E613E611CAD094
:12131200EDA614F008B1129110C8CAD0F8A506A60760B4
:201324008506860785108611A000A512A614F00D9110C89110C8D0F8E611CAD0F3A613F090
:0C134400069110C8CAD0FAA506A60760E2
:03135000A9006091
:00000001FF
