:03000000020006F5
:03005F0002000399
:03000300021A3DA1
:20006200907F0075F00074F712319B907F08E0F58222E582908000F0E0FF907F0175F00076
:20008200EF12319B158274FC12319B907F08E0FCA3E0FDA3E0FEA3E08C828D838EF02290E7
:2000A2007F0075F00074FA02319BAFF0AE83E582908001F0EEA3F0EFA3F0907F0175F0006E
:2000C200740B12319B908001E0FDA3E0FEA3E0FF7C00EC2DF9E43EFA8F0389828A838BF001
:2000E2001233ADFB6013907F08EBF0907F0075F00074FB12319B0C80D922E582908004F0F9
:20010200E0907F08F0907F01E4F5F012319B1582F5F074FB02319BE582908005F0E0907F2B
:2001220008F0907F0175F000740112319B158274FB02319BE582908006F0E0907F08F09045
:200142007F0175F000740212319B158274FB02319BE582908007F0E0907F08F0907F0175B6
:20016200F000740312319B158274FB02319BAF83E582908008F0EFA3F0908008E0FEA3E0C8
:20018200FF907F08EEF0EFA3F0907F0175F000740412319B1582F402319BAF83E58290801A
:2001A2000AF0EFA3F090800AE0FEA3E0FF907F08EEF0EFA3F0907F0175F000740512319B04
:2001C200158274FB02319BAF83E58290800CF0EFA3F090800CE0FEA3E0FF907F08EEF0EFC2
:2001E200A3F0907F0175F000740612319B158274FB02319BAF83E58290800EF0EFA3F09010
:20020200800EE0FEA3E0FF907F08EEF0EFA3F0907F0175F000740712319B158274FB023170
:200222009BAF82AE83ADF0FC908010EFF0EEA3F0EDA3F0ECA3F0908010E0FCA3E0FDA3E0A8
:20024200FEA3E0FF907F08ECF0EDA3F0EEA3F0EFA3F0907F0175F000740812319B158274CC
:20026200FB02319BAF82AE83ADF0FC908014EFF0EEA3F0EDA3F0ECA3F0908014E0FCA3E0B2
:20028200FDA3E0FEA3E0FF907F08ECF0EDA3F0EEA3F0EFA3F0907F0175F000740912319B16
:2002A200158274FB02319BAF82AE83ADF0FC908018EFF0EEA3F0EDA3F0ECA3F0908018E0DE
:2002C200FCA3E0FDA3E0FEA3E0FF907F08ECF0EDA3F0EEA3F0EFA3F0907F0175F000740A34
:2002E20012319B158274FB02319BAFF0AE83E58290801EF0EEA3F0EFA3F0907F0175F0007D
:20030200740B12319B158274F812319B907F08E0FEA3E0FF908021EEF0EFA3F090801CE089
:20032200FCA3E0FDC3EC9EED9F5008908021ECF0EDA3F090801EE0FDA3E0FEA3E0FF908063
:200342001EE0F5F0A3E045F06064908021E0FBA3E0FC79007A00C3E99BEA9C5034C003C0EA
:2003620004907F0075F00074F912319BE92DF52FEA3EF5308F31907F08E0852F828530830C
:200382008531F012319B09B900010AD004D00380C590801EE0FDA3E0FEA3E0FFEB2DFBEC11
:2003A2003EFC8F028B828C838AF0E412319B908021E0FEA3E08E82F58322907F01E4F5F003
:2003C20012319B1582F5F074F812319B907F08E0F58222907F0175F000740112319B158288
:2003E20074F812319B907F08E0F58222907F0175F000740212319B158274F812319B907F68
:2004020008E0F58222907F0175F000740312319B158274F812319B907F08E0F58222907F0F
:200422000175F000740412319B158274F812319B907F08E0FEA3E08E82F58322907F017576
:20044200F000740512319B158274F812319B907F08E0FEA3E08E82F58322907F0175F000DB
:20046200740612319B158274F812319B907F08E0FEA3E08E82F58322907F0175F00074072F
:2004820012319B1582F412319B907F08E0FEA3E08E82F58322907F0175F000740812319B22
:2004A200158274F812319B907F08E0FCA3E0FDA3E0FEA3E08C828D838EF022907F0175F0AF
:2004C20000740912319B158274F812319B907F08E0FCA3E0FDA3E0FEA3E08C828D838EF0CB
:2004E20022907F0175F000740A12319B158274F812319B907F08E0FCA3E0FDA3E0FEA3E0AF
:200502008C828D838EF022E582908029F0908023E0907F10F0908024E0907F18F090802509
:20052200E0907F20F0908029E0FF907F0175F000EF12319BA3E412319B908026E0907F03D3
:2005420012319B908027E0907F0412319B908028E0907F0512319B907F00740D02319BE566
:2005620082908030F090802AE0907F10F090802BE0907F18F090802CE0907F20F0908030F1
:20058200E0FF907F0175F000EF12319BA3740112319B90802DE0907F0312319B90802EE017
:2005A200907F0412319B90802FE0907F0512319B907F00740D02319BE58290803AF0908028
:2005C20031E0FEA3E0FF907F10EEF0EFA3F0908033E0FEA3E0FF907F18EEF0EFA3F09080CF
:2005E20035E0FEA3E0FF907F20EEF0EFA3F090803AE0FF907F0175F000EF12319BA374044F
:2006020012319B908037E0907F0312319B908038E0907F0412319B908039E0907F0512314A
:200622009B907F00740D02319BE582908044F090803BE0FEA3E0FF907F10EEF0EFA3F0905A
:20064200803DE0FEA3E0FF907F18EEF0EFA3F090803FE0FEA3E0FF907F20EEF0EFA3F09026
:200662008044E0FF907F0175F000EF12319BA3740512319B908041E0907F0312319B908068
:2006820042E0907F0412319B908043E0907F0512319B907F00740D02319BE58290804EF00D
:2006A200908045E0FEA3E0FF907F10EEF0EFA3F0908047E0FEA3E0FF907F18EEF0EFA3F0C6
:2006C200908049E0FEA3E0FF907F20EEF0EFA3F090804EE0FF907F0175F000EF12319BA3AE
:2006E200740612319B90804BE0907F0312319B90804CE0907F0412319B90804DE0907F05F7
:2007020012319B907F00740D02319BE582908058F090804FE0FEA3E0FF907F10EEF0EFA38E
:20072200F0908051E0FEA3E0FF907F18EEF0EFA3F0908053E0FEA3E0FF907F20EEF0EFA31D
:20074200F0908058E0FF907F0175F000EF12319BA3740712319B908055E0907F0312319BED
:20076200908056E0907F0412319B908057E0907F0512319B907F00740D02319BE582908032
:2007820068F0908059E0FCA3E0FDA3E0FEA3E0FF907F10ECF0EDA3F0EEA3F0EFA3F09080A9
:2007A2005DE0FCA3E0FDA3E0FEA3E0FF907F18ECF0EDA3F0EEA3F0EFA3F0908061E0FCA305
:2007C200E0FDA3E0FEA3E0FF907F20ECF0EDA3F0EEA3F0EFA3F0908068E0FF907F0175F0DD
:2007E20000EF12319BA3740812319B908065E0907F0312319B908066E0907F0412319B9011
:200802008067E0907F0512319B907F00740D02319BE582908078F0908069E0FCA3E0FDA368
:20082200E0FEA3E0FF907F10ECF0EDA3F0EEA3F0EFA3F090806DE0FCA3E0FDA3E0FEA3E0FB
:20084200FF907F18ECF0EDA3F0EEA3F0EFA3F0908071E0FCA3E0FDA3E0FEA3E0FF907F2002
:20086200ECF0EDA3F0EEA3F0EFA3F0908078E0FF907F0175F000EF12319BA3740912319B70
:20088200908075E0907F0312319B908076E0907F0412319B908077E0907F0512319B907F42
:2008A20000740D02319BE582908088F0908079E0FCA3E0FDA3E0FEA3E0FF907F10ECF0ED28
:2008C200A3F0EEA3F0EFA3F090807DE0FCA3E0FDA3E0FEA3E0FF907F18ECF0EDA3F0EEA380
:2008E200F0EFA3F0908081E0FCA3E0FDA3E0FEA3E0FF907F20ECF0EDA3F0EEA3F0EFA3F006
:20090200908088E0FF907F0175F000EF12319BA3740A12319B908085E0907F0312319B9028
:200922008086E0907F0412319B908087E0907F0512319B907F00740D02319BE58290809010
:20094200F0E0FF907F0175F000EF12319B908089E0907F0212319B90808AE0907F0312314D
:200962009B90808BE0907F0412319B90808CE0907F0512319B90808DE0907F0612319B9000
:20098200808EE0907F0712319B90808FE0907F0812319B907F00740F02319BE58290809494
:2009A200F0908091E0907F10F0908092E0907F18F0908093E0907F20F0908094E0FF907FE8
:2009C2000175F000EF12319BA3E412319BF582F5F0741002319BE582908098F0908095E04B
:2009E200907F10F0908096E0907F18F0908097E0907F20F0908098E0FF907F0175F000EFB8
:200A020012319BA3740112319B907F00C402319BE58290809FF0908099E0FEA3E0FF907F41
:200A220010EEF0EFA3F090809BE0FEA3E0FF907F18EEF0EFA3F090809DE0FEA3E0FF907F96
:200A420020EEF0EFA3F090809FE0FF907F0175F000EF12319BA3740412319B907F007410B8
:200A620002319BE5829080A6F09080A0E0FEA3E0FF907F10EEF0EFA3F09080A2E0FEA3E0F7
:200A8200FF907F18EEF0EFA3F09080A4E0FEA3E0FF907F20EEF0EFA3F09080A6E0FF907F87
:200AA2000175F000EF12319BA3740512319B907F00741002319BE5829080ADF09080A7E0FB
:200AC200FEA3E0FF907F10EEF0EFA3F09080A9E0FEA3E0FF907F18EEF0EFA3F09080ABE0DA
:200AE200FEA3E0FF907F20EEF0EFA3F09080ADE0FF907F0175F000EF12319BA374061231A7
:200B02009B907F00741002319BE5829080B4F09080AEE0FEA3E0FF907F10EEF0EFA3F0908F
:200B220080B0E0FEA3E0FF907F18EEF0EFA3F09080B2E0FEA3E0FF907F20EEF0EFA3F0905B
:200B420080B4E0FF907F0175F000EF12319BA3740712319B907F00741002319BE58290806A
:200B6200C1F09080B5E0FCA3E0FDA3E0FEA3E0FF907F10ECF0EDA3F0EEA3F0EFA3F0908010
:200B8200B9E0FCA3E0FDA3E0FEA3E0FF907F18ECF0EDA3F0EEA3F0EFA3F09080BDE0FCA369
:200BA200E0FDA3E0FEA3E0FF907F20ECF0EDA3F0EEA3F0EFA3F09080C1E0FF907F0175F0A0
:200BC20000EF12319BA3740812319B907F002302319BE5829080CEF09080C2E0FCA3E0FDE6
:200BE200A3E0FEA3E0FF907F10ECF0EDA3F0EEA3F0EFA3F09080C6E0FCA3E0FDA3E0FEA31C
:200C0200E0FF907F18ECF0EDA3F0EEA3F0EFA3F09080CAE0FCA3E0FDA3E0FEA3E0FF907F25
:200C220020ECF0EDA3F0EEA3F0EFA3F09080CEE0FF907F0175F000EF12319BA374091231D1
:200C42009B907F00741002319BE5829080DBF09080CFE0FCA3E0FDA3E0FEA3E0FF907F10F7
:200C6200ECF0EDA3F0EEA3F0EFA3F09080D3E0FCA3E0FDA3E0FEA3E0FF907F18ECF0EDA33E
:200C8200F0EEA3F0EFA3F09080D7E0FCA3E0FDA3E0FEA3E0FF907F20ECF0EDA3F0EEA3F00D
:200CA200EFA3F09080DBE0FF907F0175F000EF12319BA3740A12319B907F00741002319B44
:200CC200E5829080DDF09080DCE0FF9080DDE0FE907F0175F000EE12319BA3E412319B9002
:200CE2007F08EFF0907F00741102319BE5829080DFF09080DEE0FF9080DFE0FE907F0175C5
:200D0200F000EE12319BA3740112319B907F08EFF0907F00741102319BE5829080E1F090EF
:200D220080E0E0FF9080E1E0FE907F0175F000EE12319BA3740212319B907F08EFF0907F66
:200D420000741102319BE5829080E3F09080E2E0FF9080E3E0FE907F0175F000EE12319B11
:200D6200A3740312319B907F08EFF0907F00741102319BE5829080E6F09080E4E0FEA3E07F
:200D8200FF9080E6E0FD907F0175F000ED12319BA3740412319B907F08EEF0EFA3F0907FC0
:200DA20000741102319BE5829080E9F09080E7E0FEA3E0FF9080E9E0FD907F0175F000EDFF
:200DC20012319BA3740512319B907F08EEF0EFA3F0907F00741102319BE5829080ECF0907D
:200DE20080EAE0FEA3E0FF9080ECE0FD907F0175F000ED12319BA3740612319B907F08EE0E
:200E0200F0EFA3F0907F00741102319BE5829080EFF09080EDE0FEA3E0FF9080EFE0FD90DD
:200E22007F0175F000ED12319BA3740712319B907F08EEF0EFA3F0907F00741102319BE546
:200E4200829080F4F09080F0E0FCA3E0FDA3E0FEA3E0FF9080F4E0FB907F0175F000EB126A
:200E6200319BA3740812319B907F08ECF0EDA3F0EEA3F0EFA3F0907F00741102319BE58268
:200E82009080F9F09080F5E0FCA3E0FDA3E0FEA3E0FF9080F9E0FB907F0175F000EB12316C
:200EA2009BA3740912319B907F08ECF0EDA3F0EEA3F0EFA3F0907F00741102319BE58290C8
:200EC20080FEF09080FAE0FCA3E0FDA3E0FEA3E0FF9080FEE0FB907F0175F000EB12319B12
:200EE200A3740A12319B907F08ECF0EDA3F0EEA3F0EFA3F0907F00741102319BE5829081A1
:200F020002F09080FFE0FDA3E0FEA3E0FF9080FFE0F5F0A3E045F06018C007C006C0051286
:200F220000A1D005D006D0078D828E838FF01200AC908102E0FF907F0175F000EF12319BFB
:200F4200A3740B12319B907F00741102319BE582908108F0E0FF907F0175F000EF12319B9C
:200F6200908103E0FEA3E0FF907F08EEF0EFA3F0908105E0FEA3E0FF907F10EEF0EFA3F08F
:200F8200908107E0907F0212319B907F00741202319BE58290810BF0908109E0907F10F089
:200FA20090810AE0907F18F0907F01E4F5F012319B90810BE0907F0212319B907F0074F602
:200FC20012319B907F08E0F58222E58290810EF090810CE0907F10F090810DE0907F18F00A
:200FE200907F0175F000740112319B90810EE0907F0212319B907F0074F612319B907F08CB
:20100200E0F58222E582908113F090810FE0FEA3E0FF907F10EEF0EFA3F0908111E0FEA338
:20102200E0FF907F18EEF0EFA3F0907F0175F000740412319B908113E0907F0212319B90FA
:201042007F0074F612319B907F08E0FEA3E08E82F58322E582908118F0908114E0FEA3E09F
:20106200FF907F10EEF0EFA3F0908116E0FEA3E0FF907F18EEF0EFA3F0907F0175F00074F9
:201082000512319B908118E0907F0212319B907F0074F612319B907F08E0FEA3E08E82F59F
:2010A2008322E58290811DF0908119E0FEA3E0FF907F10EEF0EFA3F090811BE0FEA3E0FF6F
:2010C200907F18EEF0EFA3F0907F0175F000740612319B90811DE0907F0212319B907F00AE
:2010E20074F612319B907F08E0FEA3E08E82F58322E582908122F090811EE0FEA3E0FF90DB
:201102007F10EEF0EFA3F0908120E0FEA3E0FF907F18EEF0EFA3F0907F0175F000740712C4
:20112200319B908122E0907F0212319B907F0074F612319B907F08E0FEA3E08E82F5832266
:20114200E58290812BF0908123E0FCA3E0FDA3E0FEA3E0FF907F10ECF0EDA3F0EEA3F0EF7C
:20116200A3F0908127E0FCA3E0FDA3E0FEA3E0FF907F18ECF0EDA3F0EEA3F0EFA3F0907FAE
:201182000175F000740812319B90812BE0907F0212319B907F0074F612319B907F08E0FC38
:2011A200A3E0FDA3E0FEA3E08C828D838EF022E582908134F090812CE0FCA3E0FDA3E0FE35
:2011C200A3E0FF907F10ECF0EDA3F0EEA3F0EFA3F0908130E0FCA3E0FDA3E0FEA3E0FF90DD
:2011E2007F18ECF0EDA3F0EEA3F0EFA3F0907F0175F000740912319B908134E0907F0212DF
:20120200319B907F0074F612319B907F08E0FCA3E0FDA3E0FEA3E08C828D838EF022E5820D
:2012220090813DF0908135E0FCA3E0FDA3E0FEA3E0FF907F10ECF0EDA3F0EEA3F0EFA3F04B
:20124200908139E0FCA3E0FDA3E0FEA3E0FF907F18ECF0EDA3F0EEA3F0EFA3F0907F0175D8
:20126200F000740A12319B90813DE0907F0212319B907F0074F612319B907F08E0FCA3E036
:20128200FDA3E0FEA3E08C828D838EF022E58290813EF0E0FF907F0175F000EF12319B15B1
:2012A20082740402319BE582908141F0E0FF907F0175F000EF12319B90813FE0907F021247
:2012C200319B908140E0907F0312319B907F00740502319BE582908143F0E0FF907F0175BA
:2012E200F000EF12319B908142E0907F0212319B907F00740602319BE582908147F09081F6
:2013020046E0FF908147E0FE907F0175F000EE12319B908144E0907F0212319B908145E0D5
:20132200907F0312319BA3E412319B907F08EFF0907F00740702319BE58290814BF0908144
:201342004AE0FF90814BE0FE907F0175F000EE12319B908148E0907F0212319B908149E085
:20136200907F0312319BA3740112319B907F08EFF0907F00740702319BE58290814FF090F0
:20138200814EE0FF90814FE0FE907F0175F000EE12319B90814CE0907F0212319B90814D94
:2013A200E0907F0312319BA3740212319B907F08EFF0907F00740702319BE582908153F05B
:2013C200908152E0FF908153E0FE907F0175F000EE12319B908150E0907F0212319B908105
:2013E20051E0907F0312319BA3740312319B907F08EFF0907F00740702319BE582908158B4
:20140200F0908156E0FEA3E0FF908158E0FD907F0175F000ED12319B908154E0907F021225
:20142200319B908155E0907F0312319BA3740412319B907F08EEF0EFA3F0907F00740702AC
:20144200319BE58290815DF090815BE0FEA3E0FF90815DE0FD907F0175F000ED12319B9012
:201462008159E0907F0212319B90815AE0907F0312319BA3740512319B907F08EEF0EFA305
:20148200F0907F00740702319BE582908162F0908160E0FEA3E0FF908162E0FD907F017592
:2014A200F000ED12319B90815EE0907F0212319B90815FE0907F0312319BA3740612319BF6
:2014C200907F08EEF0EFA3F0907F00740702319BE582908167F0908165E0FEA3E0FF908185
:2014E20067E0FD907F0175F000ED12319B908163E0907F0212319B908164E0907F03123179
:201502009BA3740712319B907F08EEF0EFA3F0907F00740702319BE58290816EF090816A12
:20152200E0FCA3E0FDA3E0FEA3E0FF90816EE0FB907F0175F000EB12319B908168E0907F4A
:201542000212319B908169E0907F0312319BA3740812319B907F08ECF0EDA3F0EEA3F0EF7F
:20156200A3F0907F00740702319BE582908175F0908171E0FCA3E0FDA3E0FEA3E0FF9081AF
:2015820075E0FB907F0175F000EB12319B90816FE0907F0212319B908170E0907F031231B6
:2015A2009BA3740912319B907F08ECF0EDA3F0EEA3F0EFA3F0907F00740702319BE58290CB
:2015C200817CF0908178E0FCA3E0FDA3E0FEA3E0FF90817CE0FB907F0175F000EB12319B8E
:2015E200908176E0907F0212319B908177E0907F0312319BA3740A12319B907F08ECF0ED5C
:20160200A3F0EEA3F0EFA3F0907F00740702319BE582908182F090817FE0FDA3E0FEA3E07F
:20162200FF90817FE0F5F0A3E045F06018C007C006C0051200A1D005D006D0078D828E837D
:201642008FF01200AC908182E0FF907F0175F000EF12319B90817DE0907F0212319B908129
:201662007EE0907F0312319BA3740B12319B907F00740702319BE582908185F0E0FF907FE7
:201682000175F000EF12319B908183E0907F0212319B908184E0907F0312319BA3E4123183
:2016A2009BF582F5F0740812319B907F08E0F58222E582908188F0E0FF907F0175F000EF14
:2016C20012319B908186E0907F0212319B908187E0907F0312319BA3740112319B907F0057
:2016E200740812319B907F08E0F58222E58290818BF0E0FF907F0175F000EF12319B9081D9
:2017020089E0907F0212319B90818AE0907F0312319BA3740212319B907F00740812319BA4
:20172200907F08E0F58222E58290818EF0E0FF907F0175F000EF12319B90818CE0907F0272
:2017420012319B90818DE0907F0312319BA3740312319B907F00740812319B907F08E0F5EE
:201762008222E582908191F0E0FF907F0175F000EF12319B90818FE0907F0212319B908129
:2017820090E0907F0312319BA3740412319B907F002312319B907F08E0FEA3E08E82F583DE
:2017A20022E582908194F0E0FF907F0175F000EF12319B908192E0907F0212319B908193D2
:2017C200E0907F0312319BA3740512319B907F00740812319B907F08E0FEA3E08E82F583D4
:2017E20022E582908197F0E0FF907F0175F000EF12319B908195E0907F0212319B90819689
:20180200E0907F0312319BA3740612319B907F00740812319B907F08E0FEA3E08E82F58392
:2018220022E58290819AF0E0FF907F0175F000EF12319B908198E0907F0212319B9081993F
:20184200E0907F0312319BA3740712319B907F000412319B907F08E0FEA3E08E82F58322A7
:20186200E58290819DF0E0FF907F0175F000EF12319B90819BE0907F0212319B90819CE038
:20188200907F0312319BA3740812319B907F0012319B907F08E0FCA3E0FDA3E0FEA3E08C69
:2018A200828D838EF022E5829081A0F0E0FF907F0175F000EF12319B90819EE0907F021219
:2018C200319B90819FE0907F0312319BA3740912319B907F001412319B907F08E0FCA3E045
:2018E200FDA3E0FEA3E08C828D838EF022E5829081A3F0E0FF907F0175F000EF12319B906B
:2019020081A1E0907F0212319B9081A2E0907F0312319BA3740A12319B907F007408123184
:201922009B907F08E0FCA3E0FDA3E0FEA3E08C828D838EF022E5829081ABF0E0FF907F01D3
:2019420075F000EF12319B9081A4E0907F0212319B9081A5E0907F0312319BA3740B1231E4
:201962009B907F00740812319B9081A6E0FDA3E0FEA3E0FF9081A9E0FBA3E0FC90801CEB9F
:20198200F0ECA3F08D828E838FF00202ECE5829081ADF0E0FF907F0175F000EF12319B9081
:2019A20081ACE0907F0212319B907F00740902319BAFF0AE83E5829081B1F0EEA3F0EFA3D3
:2019C200F09081B1E0FDA3E0FEA3E0FF9081AEE0FAA3E0FBA3E0FC7900C005C006C007E929
:2019E2002AF8E43BFE8C0788828E838FF01233ADF52FD007D006D005E52F6022C002C003C6
:201A0200C004E92DF8E43EFB8F0488828B838CF0E52F12319B09D004D003D00280BB9081EE
:201A2200B1E0FDA3E0FEA3E0FFE92DF9E43EFC8F0389828C838BF0E402319B120062AF8268
:201A42009081AE74B5F07434A3F07480A3F090820175F000C0071219B39081AE74B9F0747D
:201A620034A3F07480A3F090820B75F0001219B39081AE74C0F07434A3F07480A3F09082FF
:201A82001575F0001219B39081AE74C6F07434A3F07480A3F090821F75F0001219B39081BC
:201AA200AE74CBF07434A3F07480A3F090822975F0001219B39081AE74D0F07434A3F07465
:201AC20080A3F090823375F0001219B3D0079081B474FFF09081CDE4F09081E6F09081B50B
:201AE20014F09081CE7440F09081E7E4F09081B614F09081CF7480F09081E8E4F09081B76D
:201B020014F09081D074C0F09081E9E4F09081B814F09081D1F09081EAE4F09081B974C080
:201B2200F09081D274FFF09081EBE4F09081BA7480F09081D374FFF09081ECE4F09081BB0A
:201B42007440F09081D474FFF09081EDE4F09081BCF09081D514F09081EEE4F09081BDF08D
:201B62009081D614F09081EF7440F09081BEE4F09081D714F09081F07480F09081BFE4F0BC
:201B82009081D814F09081F174C0F09081C0E4F09081D914F09081F2F09081C1E4F09081F3
:201BA200DA74C0F09081F374FFF09081C2E4F09081DB7480F09081F474FFF09081C3E4F037
:201BC2009081DC7440F09081F574FFF09081C4E4F09081DDF09081F614F09081C57440F0FD
:201BE2009081DEE4F09081F714F09081C67480F09081DFE4F09081F814F09081C774C0F08C
:201C02009081E0E4F09081F914F09081C8F09081E1E4F09081FA14F09081C9F09081E2E4B0
:201C2200F09081FB74C0F09081CA74FFF09081E3E4F09081FC7480F09081CB74FFF090813B
:201C4200E4E4F09081FD7440F09081CC74FFF09081E5E4F09081FEF08F82C00712128FD0B4
:201C62000790813F7401F0908140E4F08F82C0071212A8D00790813F7402F0908140E4F02B
:201C82008F82C0071212A8D00790813F7403F0908140E4F08F82C0071212A8D00790813F20
:201CA2007404F0908140E4F08F82C0071212A8D00790813F7405F0908140E4F08F82C00764
:201CC2001212A8D00790815E7401F090815F747EF09081607411F0E4A3F08F82C0071214DE
:201CE2008BD00790815E7402F090815F747EF09081607411F0E4A3F08F82C00712148BD0A3
:201D02000790815E7403F090815F747EF09081607411F0E4A3F08F82C00712148BD0079045
:201D2200815E7404F090815F747EF09081607411F0E4A3F08F82C00712148BD00790815EDC
:201D42007405F090815F747EF09081607411F0E4A3F08F82C00712148BD00790815E740125
:201D6200F090815FF0908160F0E4A3F08F82C00712148BD00790815E7402F090815F14F090
:201D8200908160F0E4A3F08F82C00712148BD00790815E7403F090815F7401F0908160F0FD
:201DA200E4A3F08F82C00712148BD00790815E7404F090815F7401F0908160F0E4A3F08F37
:201DC20082C00712148BD00790815E7405F090815F7401F0908160F0E4A3F08F82C00712C1
:201DE200148BD00790813F7406F09081407401F08F82C0071212A8D00790813F7407F09035
:201E020081407401F08F82C0071212A8D00790815E7406F090815F747EF09081607432F0ED
:201E2200E4A3F08F82C00712148BD00790815E7407F090815F747EF09081607432F0E4A30F
:201E4200F08F82C00712148BD00790815E7406F090815F747FF09081607401F0E4A3F08F28
:201E620082C00712148BD00790815E7407F090815F747FF09081607404F0E4A3F08F82C041
:201E82000712148BD00790817D7406F090817EE4F090817F74D8F07434A3F07480A3F08F39
:201EA20082C007121612D00790815E7407F090815FE4F09081607464F0E4A3F08F82C00720
:201EC20012148BD00790813F7408F09081407402F08F82C0071212A8D00790813F7409F0CD
:201EE2009081407402F08F82C0071212A8D00790815E7408F090815F747EF090816074326A
:201F0200F0E4A3F08F82C00712148BD00790815E7409F090815F747EF09081607432F0E4DF
:201F2200A3F08F82C00712148BD00790815E7408F090815F747FF09081607401F0E4A3F031
:201F42008F82C00712148BD00790815E7409F090815F747FF09081607404F0E4A3F08F828F
:201F6200C00712148BD00790817D7408F090817EE4F090817F74E0F07434A3F07480A3F01D
:201F82008F82C007121612D00790815E7409F090815FE4F09081607496F0E4A3F08F82C083
:201FA2000712148BD00790813F740AF09081407403F08F82C0071212A8D00790813F740BD0
:201FC200F09081407403F08F82C0071212A8D00790813F7410F09081407403F08F82C00788
:201FE2001212A8D00790815E740AF090815F747EF09081607432F0E4A3F08F82C007121491
:202002008BD00790815E740AF090815F747FF09081607401F0E4A3F08F82C00712148BD086
:202022000790817D740AF090817EE4F090817F74F0F07434A3F07480A3F08F82C007121692
:2020420012D00790815E740BF090815F747EF09081607428F0E4A3F08F82C00712148BD098
:202062000790815E740BF090815F7401F0908160F0E4A3F08F82C00712148BD00790815EFD
:20208200740BF090815F747FF09081607405F0E4A3F08F82C00712148BD00790815E740BDD
:2020A200F090815F7402F0908160E4F0A3F08F82C00712148BD00790815E740BF090815FD2
:2020C2007403F090816074FFF0E4A3F08F82C00712148BD00790815E740BF090815FE4F0CA
:2020E2009081607480F0E4A3F08F82C00712148BD00790815E740BF090815F747DF0908172
:20210200607404F0E4A3F08F82C00712148BD00790815E7410F090815F747EF09081607404
:202122000AF0E4A3F08F82C00712148BD00790815E7410F090815F747FF09081607401F0C0
:20214200E4A3F08F82C00712148BD00790817D7410F090817EE4F090817F7400F07435A301
:20216200F07480A3F08F82C007121612D00790813F740CF09081407404F08F82C007121288
:20218200A8D00790813F740DF09081407404F08F82C0071212A8D00790813F7411F09081F3
:2021A200407404F08F82C0071212A8D00790815E740CF090815F747EF09081607432F0E4DE
:2021C200A3F08F82C00712148BD00790815E740CF090815F747FF09081607401F0E4A3F08B
:2021E2008F82C00712148BD00790817D740CF090817EE4F090817F7402F07435A3F07480F6
:20220200A3F08F82C007121612D00790815E740DF090815F747EF09081607428F0E4A3F09A
:202222008F82C00712148BD00790815E740DF090815F7401F0908160F0E4A3F08F82C007D7
:2022420012148BD00790815E740DF090815F747FF09081607405F0E4A3F08F82C007121472
:202262008BD00790815E740DF090815F7402F0908160E4F0A3F08F82C00712148BD007907C
:20228200815E740DF090815F7403F090816074FFF0E4A3F08F82C00712148BD00790815EFB
:2022A200740DF090815FE4F09081607480F0E4A3F08F82C00712148BD00790815E740DF05B
:2022C20090815F747DF09081607404F0E4A3F08F82C00712148BD00790815E7411F0908106
:2022E2005F747EF0908160740AF0E4A3F08F82C00712148BD00790815E7411F090815F741D
:202302007FF09081607401F0E4A3F08F82C00712148BD00790817D7411F090817EE4F090A9
:20232200817F7400F07435A3F07480A3F08F82C007121612D00790813F740EF09081407404
:2023420005F08F82C0071212A8D00790813F740FF09081407405F08F82C0071212A8D00713
:2023620090813F7412F09081407405F08F82C0071212A8D00790815E740EF090815F747E1D
:20238200F09081607432F0E4A3F08F82C00712148BD00790815E740EF090815F747FF090A9
:2023A20081607401F0E4A3F08F82C00712148BD00790817D740EF090817EE4F090817F7497
:2023C20012F07435A3F07480A3F08F82C007121612D00790815E740FF090815F747EF09089
:2023E20081607428F0E4A3F08F82C00712148BD00790815E740FF090815F7401F09081606F
:20240200F0E4A3F08F82C00712148BD00790815E740FF090815F747FF09081607405F0E400
:20242200A3F08F82C00712148BD00790815E740FF090815F7402F0908160E4F0A3F08F8206
:20244200C00712148BD00790815E740FF090815F7403F090816074FFF0E4A3F08F82C0074F
:2024620012148BD00790815E740FF090815FE4F09081607480F0E4A3F08F82C00712148B57
:20248200D00790815E740FF090815F747DF09081607404F0E4A3F08F82C00712148BD00780
:2024A20090815E7412F090815F747EF0908160740AF0E4A3F08F82C00712148BD00790811C
:2024C2005E7412F090815F747FF09081607401F0E4A3F08F82C00712148BD00790817D7424
:2024E20012F090817EE4F090817F7400F07435A3F07480A3F08F82C007121612D0079081C4
:202502003F7414F0908140E4F08F82C0071212A8D00790815E7414F090815F747EF0908118
:2025220060740FF0E4A3F08F82C00712148BD00790815E7414F090815F747FF090816074D0
:2025420002F0E4A3F08F82C00712148BD00790817D7414F090817EE4F090817F7422F074BD
:2025620035A3F07480A3F08F82C007121612D00790815E7414F090815F747DF09081607404
:2025820004F0E4A3F08F82C00712148BD007907F0175F000EF12319B1582740A12319B90A9
:2025A20081957407F0908196E4F08F82C0071217E312333785820F85831085F011F512D032
:2025C200079081957409F0908196E4F08F82C0071217E312333785820885830985F00AF570
:2025E2000BD007908195740BF0908196E4F08F82C0071217E3A982D007890E908195740DC3
:20260200F0908196E4F08F82C0071217E3A882D007880C908195740FF0908196E4F08F822F
:20262200C0071217E3A882D007880DA80E7A0090815E7410F090815FE4F0908160E8F0EAA5
:20264200A3F08F82C00712148BD007A80C7A0090815E7411F090815FE4F0908160E8F0EAFC
:20266200A3F08F82C00712148BD007A80D7A0090815E7412F090815FE4F0908160E8F0EADA
:20268200A3F08F82C00712148BD0079081FFE4F0A3F09081FFE0F8A3E0FA88828A83C0078B
:2026A200C002C000123337A982AC83ADF0FEC001C004C005C006900A9275F086743E122B0F
:2026C2003985821385831485F015F516E58124FCF5818513828514838515F0E516122C3DC2
:2026E200A982AC83ADF0FEC00FC010C011C01289828C838DF0EE122B3985821785831885E3
:20270200F019F51AE58124FCF5818513828514838515F0E516122C6CA982AC83ADF0FEC089
:202722000FC010C011C01289828C838DF0EE122B3985821385831485F015F516E58124FCC9
:20274200F581D000D002740128F51BE43AF51C851B82851C83C002C000123337AB82AC83E3
:20276200ADF0FEC003C004C005C006900A9275F086743E122B3985821D85831E85F01FF598
:2027820020E58124FCF581851D82851E83851FF0E520122C3DA982AC83ADF0FEC00FC01029
:2027A200C011C01289828C838DF0EE122B3985822185832285F023F524E58124FCF58185F5
:2027C2001D82851E83851FF0E520122C6CA982AC83ADF0FEC00FC010C011C01289828C839E
:2027E2008DF0EE122B39AB82AC83ADF0FEE58124FCF581D000D002D007E824B4F582EA3435
:2028020081F583E0F51DE824CDF582EA3481F583E0F525E824E6F582EA3481F583E0F99081
:202822008079E517F0E518A3F0E519A3F0E51AA3F090807DE513F0E514A3F0E515A3F0E58B
:2028420016A3F0908081E4F0A3F0A3F0A3F0908085E51DF0908086E525F0908087E9F08F99
:2028620082C007C006C005C004C003C002C0001208A8D000D002D003D004D005D006D007EC
:2028820008E83395E0FAE824B4F582EA3481F583E0F525E824CDF582EA3481F583E0F9E834
:2028A20024E6F582EA3481F583E0FA908079E521F0E522A3F0E523A3F0E524A3F090807DC7
:2028C200EBF0ECA3F0EDA3F0EEA3F0908081E4F0A3F0A3F0A3F0908085E525F0908086E96F
:2028E200F0908087EAF08F82C0071208A8D007908079E4F0A3F0A3F0A3F090807DF0A3F0DE
:20290200A3F0A3F0908081F0A3F0A3F0A3F0908085E50EF0908086E50CF0908087E50DF0ED
:202922008F82C0071208A8D007907F0175F000EF12319BA3E412319BF582F5F0740E12315C
:202942009B9081FFE51BF0E51CA3F09081FFE0FDA3E0FEC3ED9418EE64809480500302261B
:2029620094C007C008C009C00AC00B900000E4F5F01231B6AE82E58124FCF581D007EE7021
:2029820003022B2B7D007E008D828E83C007C006C005123337A982AA83ABF0FCC001C0027F
:2029A200C003C004900A9275F086743F122B3985822185832285F023F524E58124FCF5814F
:2029C2008521828522838523F0E524122C3DA882AA83ABF0FCC008C009C00AC00B88828ADF
:2029E200838BF0EC122B3985821D85831E85F01FF520E58124FCF58185218285228385238C
:202A0200F0E524122C6CA882AA83ABF0FCC008C009C00AC00B88828A838BF0EC122B398584
:202A2200822185832285F023F524E58124FCF581D005D006D0078D00E82825E0F83395E056
:202A4200FCE824B4F582EC3481F583E0FBE824CDF582EC3481F583E0FAE824E6F582EC3481
:202A620081F583E0FC9080897401F090808AE4F090808BF090808CF090808DEBF090808EE6
:202A8200EAF090808FECF08F82C007C006C00512093DD005D006D0079080CFE51DF0E51ECE
:202AA200A3F0E51FA3F0E520A3F09080D3E521F0E522A3F0E523A3F0E524A3F09080D7E4DD
:202AC200F0A3F0A3F0A3F08F82C007C006C005120C4BD005D006908250EDF0EEA3F0900084
:202AE2000AC006C0051231E6AB82AC83D005D006D007EB2401FBEC3482FC9080FFEBF0ECB9
:202B0200A3F0E4A3F08F82C007C006C005120EFED005D006D0070DBD00010EC3ED9406EE95
:172B220064809480500302298A907F0075F00074FE12319B02259021
:2034B5005245440059454C4C4F5700475245454E004359414E00424C5545004D4147454E14
:2034D5005441005261646975733A004C6162656C2064697374616E63653A004D6964646C31
:2034F5006520706F696E7420523A003F004D6964646C6520706F696E7420473A004D6964C9
:13351500646C6520706F696E7420423A004170706C790082
:202B3900122BDCBC0003023365EF60FA30D502B2D1E583B4FF0302337BE582B4FF03023317
:202B59007B258340072482400B023365248314500302337BF582EA8DF0A4A8F0EA8EF0A483
:202B790028F8E435F0F9EB8DF0A428E935F0F9E433CA8FF0A429F9EA35F0FAEBF88EF0A4AB
:202B990029F9EA35F0FAE433FBEC8DF0A429F9EA35F0FAE43BFBE88FF0A42AFAEB35F0FB53
:202BB900E433CCFD8EF0A42AFAEB35F0FBE43CFCED8FF0A42BFBEC35F0FC20E703122C0A1A
:032BD90002334480
:202BDC00AA82AB83A2F73392D1F5826002D2F7ACF0E58124F9F8E6FD08E6FE0886F008E65C
:0E2BFC00A2F73392D5F5836002D2F7AFF02234
:06003500E478FFF6D8FD9F
:202C0A007804EC7011E58224F8500AF582E4C9CACBFCD8EF22EC7820058220E713D58201C9
:132C2A0022C3E933F9EA33FAEB33FBEC33FCD8EA158222D7
:202C3D00AC82AD83AEF0FF8CF0ED42F0EE42F0EF547F45F0700990000075F080743F229077
:0F2C5D00823D7401F08C828D838EF0EF022C98F3
:200013007900E94400601B7A00903528785475A082E493F2A308B8000205A0D9F4DAF27561
:02003300A0FF2C
:202C6C00AC82AD83AEF0FF8CF0ED42F0EE42F0EF547F45F07007900000E4F5F02290823D5A
:0C2C8C00E4F08C828D838EF0EF022C9817
:202C9800AF82AE83ADF0FC90823EEFF0EEA3F0EDA3F0ECA3F090823DE0FFE0605D90823E57
:202CB800E0FBA3E0FCA3E0FDA3E08B828C838DF0C00712325FAB82AC83ADF0FE74DBC0E0B6
:202CD800740FC0E074C9C0E0743FC0E08B828C838DF0EE123206AB82AC83ADF0FEE5812437
:202CF800FCF581D007908242EBF0ECA3F0EDA3F0EEA3F090824EE4F0806B90823EE0FBA3D7
:202D1800E0FCA3E0FDA3E0FEC007C006C005C004C003E4C0E0C0E0C0E0C0E08B828C838DD8
:202D3800F0EE1231B6AA82E58124FCF581D003D004D005D006D007EA6018908242EBF0ECD6
:202D5800A3F0EDA3F0EEB2E7A3F090824E7401F08013908242EBF0ECA3F0EDA3F0EEA3F027
:202D780090824EE4F0908242E0FBA3E0FCA3E0FDA3E0FEC007C006C005C004C003C003C0FC
:202D980004C005C006900C0075F04974461231B6AA82E58124FCF581D003D004D005D00615
:202DB800D007EA600F9082527422F0E4A3F0900000F5F022C007C003C004C005C00690F971
:202DD8008375F0A2743E122B39AB82AC83ADF0FEE58124FCF581E4C0E0C0E0C0E0743FC0FF
:202DF800E08B828C838DF0EE123206AB82AC83ADF0FEE58124FCF5818B828C838DF0EE127E
:202E18003303AD82AE83D007ED30E00A90824EE0B40100E433F08D828E83C007123337AB1C
:202E380082AC83ADF0FED00790824AEBF0ECA3F0EDA3F0EEA3F0EF6030E4C0E0C0E0C0E05D
:202E5800743FC0E08B828C838DF0EE1233F6AC82AD83AEF0FFE58124FCF58190824AECF016
:202E7800EDA3F0EEA3F0EFA3F090823EE0FCA3E0FDA3E0FEA3E08C828D838EF012325FAC1C
:202E980082AD83AEF0FFC007C006C005C004123303123337A882A983AAF0FBD004D005D08D
:202EB80006D007C003C002C001C000C000C001C002C0038C828D838EF0EF1233F68582261E
:202ED80085832785F028F529E58124FCF58190824AE0F52AA3E0F52BA3E0F52CA3E0F52DAD
:202EF800C02AC02BC02CC02D90000075F0497440122B39AC82AD83AEF0FFE58124FCF581AD
:202F1800D000D001D002D003C004C005C006C007888289838AF0EB1233F6AC82AD83AEF08B
:202F3800FFE58124FCF581C026C027C028C0298C828D838EF0EF123206AC82AD83AEF0FF10
:202F5800E58124FCF581C007C006C005C004C02AC02BC02CC02D90AA2275F07D743A122B70
:202F780039A882A983AAF0FBE58124FCF581D004D005D006D007C000C001C002C0038C82AF
:202F98008D838EF0EF1233F6AC82AD83AEF0FFE58124FCF581908246ECF0EDA3F0EEA3F035
:202FB800EFA3F0C007C006C005C004C004C005C006C0078C828D838EF0EF122B3985822A19
:202FD80085832B85F02CF52DE58124FCF581C02AC02BC02CC02D90FFF375F07F74331231E9
:202FF800B6AB82E58124FCF581D004D005D006D007EB700302316DC007C006C005C004C0B0
:203018002AC02BC02CC02D909C5B75F02E7436122B39A882A983AAF0FBE58124FCF5817415
:2030380022C0E074B2C0E0744FC0E074B9C0E0888289838AF0EB123206A882A983AAF0FB10
:20305800E58124FCF581C02AC02BC02CC02D888289838AF0EB122B39A882A983AAF0FBE5ED
:203078008124FCF581743EC0E07487C0E07408C0E0743CC0E0888289838AF0EB123206A85B
:2030980082A983AAF0FBE58124FCF581C02AC02BC02CC02D888289838AF0EB122B39A88210
:2030B800A983AAF0FBE58124FCF58174A4C0E074AAC0E0742AC0E074BEC0E0888289838A15
:2030D800F0EB123206A882A983AAF0FBE58124FCF581C02AC02BC02CC02D888289838AF08E
:2030F800EB122B39A882A983AAF0FBE58124FCF581D004D005D006D007C007C006C005C008
:2031180004C000C001C002C0038C828D838EF0EF122B39A882A983AAF0FBE58124FCF581A5
:20313800D004D005D006D007C000C001C002C0038C828D838EF0EF123206AC82AD83AEF04A
:20315800FFE58124FCF581908246ECF0EDA3F0EEA3F0EFA3F090824EE06012908246E0FCBF
:20317800A3E0FDA3E0FEA3E0B2E7FF800E908246E0FCA3E0FDA3E0FEA3E0FF8C828D838E2A
:03319800F0EF2233
:1B319B0020F71130F6138883A88220F509F6A8837583002280FEF280F5F02233
:2031B600FFA88118181232D8D2D133E6400730E70B7582002220E70675820122C2D1123249
:1031D600BAE97003F5822220D101B3E433F58222E5
:2031E600AA83AB828BF0908250E0A4F8A9F08AF0E0A429F98BF0A3E0A429F58388822222CC
:20320600122BDC7900E583B58202800D5003123393E583C39582123401E5D0C465D020E185
:2032260017EA2DFAEB3EFBEC3FFC50097401123401EC4480FC023344C3EA9DFAEB9EFBEC27
:193246009FFC500FC3E499F9E49AFAE49BFBE49CFCB2D1122C0A0233448A
:20003B007800E84400600A790075A080E4F309D8FC7854E84402600C7903908000E4F0A36C
:04005B00D8FCD9FAFA
:20325F00C02E85812EAC82AD83AEF0FFE5812404F581E52E04F8A60408A60508A60608A660
:20327F0007A92E09870409870509870609870719191953077FA70409A70509A70609A7070A
:1B329F00A92E0987040987050987060987078C828D838EF0EF852E81D02E2208
:2032BA007901AA82E68F82B5821318E6B5F00E18E6B5830918E68A82B58202790022B4800B
:2032DA000FE5F0700AE5837006E58270027F00EFB6801518B6001018B6000B18B600060873
:0932FA00080876002208080822E9
:20330300123444700AE582458345F0700122E430D112F4700BE5F0F47006E58330E7012268
:1433230090800022700AE5F07006E58320E70122907FFF22DD
:0D333700AC83AB827A007900748E0233D231
:20334400B98003EA13B34010EA2401FAE43BFBE43CFC50047C800582BC000EBB000BBA00CD
:2033640008E4F5F0F583F58222A2D1E582138CF092F78B838A8222E4F583F58275F080F48D
:0F338400A2D11322E4F583F58275F0C0747F2285
:1A339300E582C583F582A2D133A2D592D11392D5ECCFFCEBCEFBEACDFA22C2
:0D0006007581311234B1E582600302000300
:1C33AD0020F71430F6148883A88220F507E6A88375830022E280F7E49322E0222F
:2033C900FCABF0AA83A982749EF582C2D1EC30E716D2D1E9F42401F9EAF43400FAEBF43403
:0D33E90000FBECF43400FC122C0A0233440B
:0B33F600A8811818C6B2E7C602320614
:203401006040F82582500274FFF582E824F8501ECCCBCAF9E4CC24F85014CBCAF9E4CB24D3
:20342100F8500BCAF9E4CA24F8500379002224086010F8C3EC13FCEB13FBEA13FAE913F986
:03344100D8F1229D
:2034440012349FC3749E95824039790012340130D126E9F42401F582EAF43400F583EBF455
:203464003400F5F0ECF43400700AE582458345F0700122E430E70F22EC20E71489828A835F
:1B3484008BF02230D10AE4F582F583F5F074802274FFF582F583F5F0747F225B
:12349F00AA82AB83A2F73392D1F5826002D2F7ACF02232
:0434B10075820022FE
:00000001FF
