:03000000020006F5
:03005F0002000399
:03000300020C38B4
:20006200907F0075F00074F712492B907F08E0F58222E582908000F0E0FF907F0175F000CE
:20008200EF12492B158274FC12492B907F08E0FCA3E0FDA3E0FEA3E08C828D838EF0229097
:2000A2007F0075F00074FA02492BAFF0AE83E582908001F0EEA3F0EFA3F0907F0175F000C6
:2000C200740B12492B908001E0FDA3E0FEA3E0FF7C00EC2DF9E43EFA8F0389828A838BF059
:2000E200124B1DFB6013907F08EBF0907F0075F00074FB12492B0C80D922E582908004F0C9
:20010200E0907F08F0907F01E4F5F012492B1582F5F074FB02492BE582908005F0E0907FDB
:2001220008F0907F0175F000740112492B158274FB02492BE582908006F0E0907F08F090F5
:200142007F0175F000740212492B158274FB02492BE582908007F0E0907F08F0907F017566
:20016200F000740312492B158274FB02492BAF83E582908008F0EFA3F0908008E0FEA3E078
:20018200FF907F08EEF0EFA3F0907F0175F000740412492B1582F402492BAF83E5829080CA
:2001A2000AF0EFA3F090800AE0FEA3E0FF907F08EEF0EFA3F0907F0175F000740512492B5C
:2001C200158274FB02492BAF83E58290800CF0EFA3F090800CE0FEA3E0FF907F08EEF0EF1A
:2001E200A3F0907F0175F000740612492B158274FB02492BAF83E58290800EF0EFA3F090C0
:20020200800EE0FEA3E0FF907F08EEF0EFA3F0907F0175F000740712492B158274FB0249B0
:200222002BAF82AE83ADF0FC908010EFF0EEA3F0EDA3F0ECA3F0908010E0FCA3E0FDA3E018
:20024200FEA3E0FF907F08ECF0EDA3F0EEA3F0EFA3F0907F0175F000740812492B15827424
:20026200FB02492BAF82AE83ADF0FC908014EFF0EEA3F0EDA3F0ECA3F0908014E0FCA3E00A
:20028200FDA3E0FEA3E0FF907F08ECF0EDA3F0EEA3F0EFA3F0907F0175F000740912492B6E
:2002A200158274FB02492BAF82AE83ADF0FC908018EFF0EEA3F0EDA3F0ECA3F0908018E036
:2002C200FCA3E0FDA3E0FEA3E0FF907F08ECF0EDA3F0EEA3F0EFA3F0907F0175F000740A34
:2002E20012492B158274FB02492BAFF0AE83E58290801EF0EEA3F0EFA3F0907F0175F0002D
:20030200740B12492B158274F812492B907F08E0FEA3E0FF908021EEF0EFA3F090801CE039
:20032200FCA3E0FDC3EC9EED9F5008908021ECF0EDA3F090801EE0FDA3E0FEA3E0FF908063
:200342001EE0F5F0A3E045F06064908021E0FBA3E0FC79007A00C3E99BEA9C5034C003C0EA
:2003620004907F0075F00074F912492BE92DF559EA3EF55A8F5B907F08E0855982855A8392
:20038200855BF012492B09B900010AD004D00380C590801EE0FDA3E0FEA3E0FFEB2DFBEC3F
:2003A2003EFC8F028B828C838AF0E412492B908021E0FEA3E08E82F58322907F01E4F5F05B
:2003C20012492B1582F5F074F812492B907F08E0F58222907F0175F000740112492B158290
:2003E20074F812492B907F08E0F58222907F0175F000740212492B158274F812492B907F70
:2004020008E0F58222907F0175F000740312492B158274F812492B907F08E0F58222907FBF
:200422000175F000740412492B158274F812492B907F08E0FEA3E08E82F58322907F017526
:20044200F000740512492B158274F812492B907F08E0FEA3E08E82F58322907F0175F0008B
:20046200740612492B158274F812492B907F08E0FEA3E08E82F58322907F0175F0007407DF
:2004820012492B1582F412492B907F08E0FEA3E08E82F58322907F0175F000740812492B2A
:2004A200158274F812492B907F08E0FCA3E0FDA3E0FEA3E08C828D838EF022907F0175F007
:2004C20000740912492B158274F812492B907F08E0FCA3E0FDA3E0FEA3E08C828D838EF07B
:2004E20022907F0175F000740A12492B158274F812492B907F08E0FCA3E0FDA3E0FEA3E05F
:200502008C828D838EF022E582908029F0908023E0907F10F0908024E0907F18F090802509
:20052200E0907F20F0908029E0FF907F0175F000EF12492BA3E412492B908026E0907F0383
:2005420012492B908027E0907F0412492B908028E0907F0512492B907F00740D02492BE5C6
:2005620082908030F090802AE0907F10F090802BE0907F18F090802CE0907F20F0908030F1
:20058200E0FF907F0175F000EF12492BA3740112492B90802DE0907F0312492B90802EE01F
:2005A200907F0412492B90802FE0907F0512492B907F00740D02492BE58290803AF0908030
:2005C20031E0FEA3E0FF907F10EEF0EFA3F0908033E0FEA3E0FF907F18EEF0EFA3F09080CF
:2005E20035E0FEA3E0FF907F20EEF0EFA3F090803AE0FF907F0175F000EF12492BA37404A7
:2006020012492B908037E0907F0312492B908038E0907F0412492B908039E0907F0512493A
:200622002B907F00740D02492BE582908044F090803BE0FEA3E0FF907F10EEF0EFA3F09022
:20064200803DE0FEA3E0FF907F18EEF0EFA3F090803FE0FEA3E0FF907F20EEF0EFA3F09026
:200662008044E0FF907F0175F000EF12492BA3740512492B908041E0907F0312492B908070
:2006820042E0907F0412492B908043E0907F0512492B907F00740D02492BE58290804EF015
:2006A200908045E0FEA3E0FF907F10EEF0EFA3F0908047E0FEA3E0FF907F18EEF0EFA3F0C6
:2006C200908049E0FEA3E0FF907F20EEF0EFA3F090804EE0FF907F0175F000EF12492BA306
:2006E200740612492B90804BE0907F0312492B90804CE0907F0412492B90804DE0907F05FF
:2007020012492B907F00740D02492BE582908058F090804FE0FEA3E0FF907F10EEF0EFA33E
:20072200F0908051E0FEA3E0FF907F18EEF0EFA3F0908053E0FEA3E0FF907F20EEF0EFA31D
:20074200F0908058E0FF907F0175F000EF12492BA3740712492B908055E0907F0312492BF5
:20076200908056E0907F0412492B908057E0907F0512492B907F00740D02492BE58290803A
:2007820068F0908059E0FCA3E0FDA3E0FEA3E0FF907F10ECF0EDA3F0EEA3F0EFA3F09080A9
:2007A2005DE0FCA3E0FDA3E0FEA3E0FF907F18ECF0EDA3F0EEA3F0EFA3F0908061E0FCA305
:2007C200E0FDA3E0FEA3E0FF907F20ECF0EDA3F0EEA3F0EFA3F0908068E0FF907F0175F0DD
:2007E20000EF12492BA3740812492B908065E0907F0312492B908066E0907F0412492B9071
:200802008067E0907F0512492B907F00740D02492BE582908078F0908069E0FCA3E0FDA318
:20082200E0FEA3E0FF907F10ECF0EDA3F0EEA3F0EFA3F090806DE0FCA3E0FDA3E0FEA3E0FB
:20084200FF907F18ECF0EDA3F0EEA3F0EFA3F0908071E0FCA3E0FDA3E0FEA3E0FF907F2002
:20086200ECF0EDA3F0EEA3F0EFA3F0908078E0FF907F0175F000EF12492BA3740912492B20
:20088200908075E0907F0312492B908076E0907F0412492B908077E0907F0512492B907F4A
:2008A20000740D02492BE582908088F0908079E0FCA3E0FDA3E0FEA3E0FF907F10ECF0ED80
:2008C200A3F0EEA3F0EFA3F090807DE0FCA3E0FDA3E0FEA3E0FF907F18ECF0EDA3F0EEA380
:2008E200F0EFA3F0908081E0FCA3E0FDA3E0FEA3E0FF907F20ECF0EDA3F0EEA3F0EFA3F006
:20090200908088E0FF907F0175F000EF12492BA3740A12492B908085E0907F0312492B9030
:200922008086E0907F0412492B908087E0907F0512492B907F00740D02492BE58290808B1D
:20094200F0908089E0907F10F090808AE0907F18F0907F01E4F5F012492B90808BE0907FA3
:200962000212492B907F0074F612492B907F08E0F58222E58290808EF090808CE0907F10CE
:20098200F090808DE0907F18F0907F0175F000740112492B90808EE0907F0212492B907F3D
:2009A2000074F612492B907F08E0F58222E582908093F090808FE0FEA3E0FF907F10EEF0BF
:2009C200EFA3F0908091E0FEA3E0FF907F18EEF0EFA3F0907F0175F000740412492B908088
:2009E20093E0907F0212492B907F0074F612492B907F08E0FEA3E08E82F58322E582908053
:200A020098F0908094E0FEA3E0FF907F10EEF0EFA3F0908096E0FEA3E0FF907F18EEF0EFCF
:200A2200A3F0907F0175F000740512492B908098E0907F0212492B907F0074F612492B90FF
:200A42007F08E0FEA3E08E82F58322E58290809DF0908099E0FEA3E0FF907F10EEF0EFA366
:200A6200F090809BE0FEA3E0FF907F18EEF0EFA3F0907F0175F000740612492B90809DE0F0
:200A8200907F0212492B907F0074F612492B907F08E0FEA3E08E82F58322E5829080A2F093
:200AA20090809EE0FEA3E0FF907F10EEF0EFA3F09080A0E0FEA3E0FF907F18EEF0EFA3F010
:200AC200907F0175F000740712492B9080A2E0907F0212492B907F0074F612492B907F085F
:200AE200E0FEA3E08E82F58322E5829080ABF09080A3E0FCA3E0FDA3E0FEA3E0FF907F10A6
:200B0200ECF0EDA3F0EEA3F0EFA3F09080A7E0FCA3E0FDA3E0FEA3E0FF907F18ECF0EDA3CB
:200B2200F0EEA3F0EFA3F0907F0175F000740812492B9080ABE0907F0212492B907F007494
:200B4200F612492B907F08E0FCA3E0FDA3E0FEA3E08C828D838EF022E5829080B4F09080B7
:200B6200ACE0FCA3E0FDA3E0FEA3E0FF907F10ECF0EDA3F0EEA3F0EFA3F09080B0E0FCA3AB
:200B8200E0FDA3E0FEA3E0FF907F18ECF0EDA3F0EEA3F0EFA3F0907F0175F00074091249A0
:200BA2002B9080B4E0907F0212492B907F0074F612492B907F08E0FCA3E0FDA3E0FEA3E057
:200BC2008C828D838EF022E5829080BDF09080B5E0FCA3E0FDA3E0FEA3E0FF907F10ECF012
:200BE200EDA3F0EEA3F0EFA3F09080B9E0FCA3E0FDA3E0FEA3E0FF907F18ECF0EDA3F0EED7
:200C0200A3F0EFA3F0907F0175F000740A12492B9080BDE0907F0212492B907F0074F61275
:200C2200492B907F08E0FCA3E0FDA3E0FEA3E08C828D838EF022120062AF828F06EE04FDE0
:200C420053050F0E0E53060F907F0175F000EF12492B1582740A12492BA3ED12492B158275
:200C6200740A12492BA3EE12492B1582740A12492B908045749CF074FFA3F0908047749CFA
:200C8200F074FFA3F0908049749CF074FFA3F090804BE4F090804CF090804DF08F82C0075D
:200CA200C006C00512069CD005D006D0079080457464F0E4A3F0908047749CF074FFA3F080
:200CC200908049749CF074FFA3F090804BF090804CE4F090804DF08F82C007C006C0051276
:200CE200069CD005D006D007908045749CF074FFA3F09080477464F0E4A3F0908049749C74
:200D0200F074FFA3F090804BE4F090804C14F090804DE4F08F82C007C006C00512069CD034
:200D220005D006D007907F0175F000EF12492BA3E412492BF582F5F0740E12492B9080454F
:200D42007464F0E4A3F09080477464F0E4A3F0908049749CF074FFA3F090804BF090804CB6
:200D6200F090804DE4F08F82C007C006C00512069CD005D006D007907F0175F000EF1249F8
:200D82002BA3E412492BF582F5F0740E12492B908045749CF074FFA3F0908047749CF0748F
:200DA200FFA3F0908049749CF074FFA3F090804BE4F090804CF090804DF08F82C007C006DA
:200DC200C00512069CD005D006D007908045749CF074FFA3F0908047749CF074FFA3F090CE
:200DE20080497464F0E4A3F090804BF090804CF090804D14F08F82C007C006C00512069CDA
:200E0200D005D006D007908045749CF074FFA3F09080477464F0E4A3F0908049749CF07490
:200E2200FFA3F090804BE4F090804C14F090804DE4F08F82C007C006C00512069CD005D0A2
:200E420006D007907F0175F000EF12492BA3E412492BF582F5F0740E12492B908045749CF3
:200E6200F074FFA3F09080477464F0E4A3F09080497464F0E4A3F090804BF090804C14F0A1
:200E820090804DF08F82C007C006C00512069CD005D006D007907F0175F000EF12492BA3DD
:200EA200E412492BF582F5F0740E12492B908045749CF074FFA3F0908047749CF074FFA39A
:200EC200F0908049749CF074FFA3F090804BE4F090804CF090804DF08F82C007C006C00596
:200EE20012069CD005D006D007908045749CF074FFA3F0908047749CF074FFA3F0908049A9
:200F02007464F0E4A3F090804BF090804CF090804D14F08F82C007C006C00512069CD005AC
:200F2200D006D0079080457464F0E4A3F0908047749CF074FFA3F0908049749CF074FFA3A2
:200F4200F090804BF090804CE4F090804DF08F82C007C006C00512069CD005D006D00790AE
:200F62007F0175F000EF12492BA3E412492BF582F5F0740E12492B9080457464F0E4A3F010
:200F8200908047749CF074FFA3F09080497464F0E4A3F090804B14F090804CE4F090804D6E
:200FA20014F08F82C007C006C00512069CD005D006D007907F0175F000EF12492BA3E4120F
:200FC200492BF582F5F0740E12492B9080457464F0E4A3F09080477464F0E4A3F0908049B4
:200FE2007464F0E4A3F090804B14F090804CF090804DF08F82C007C006C00512069CD005CC
:20100200D006D007908045749CF074FFA3F09080477464F0E4A3F09080497464F0E4A3F098
:2010220090804BF090804C14F090804DF08F82C007C006C00512069CD005D006D00790800D
:20104200457464F0E4A3F0908047749CF074FFA3F09080497464F0E4A3F090804B14F09026
:20106200804CE4F090804D14F08F82C007C006C00512069CD005D006D007907F0175F0005F
:20108200EF12492BA3E412492BF582F5F0740E12492B908045749CF074FFA3F09080477442
:2010A2009CF074FFA3F09080497464F0E4A3F090804BF090804CF090804D14F08F82C00734
:2010C200C006C00512069CD005D006D007907F0175F000EF12492BA3E412492BF582F5F0FA
:2010E200740E12492B9080457464F0E4A3F09080477464F0E4A3F09080497464F0E4A3F024
:2011020090804B14F090804CF090804DF08F82C007C006C00512069CD005D006D00790802C
:20112200457464F0E4A3F09080477464F0E4A3F0908049749CF074FFA3F090804BF09080D9
:201142004CF090804DE4F08F82C007C006C00512069CD005D006D0079080457464F0E4A3E3
:20116200F0908047749CF074FFA3F09080497464F0E4A3F090804B14F090804CE4F09080E9
:201182004D14F08F82C007C006C00512069CD005D006D007907F0175F000EF12492BA3E4F2
:2011A20012492BF582F5F0740E12492B9080457464F0E4A3F0908047749CF074FFA3F090C2
:2011C2008049749CF074FFA3F090804BF090804CE4F090804DF08F82C007C006C0051206FB
:2011E2009CD005D006D007907F0175F000EF12492BA3E412492BF582F5F0740E12492B90E4
:2012020080457464F0E4A3F09080477464F0E4A3F09080497464F0E4A3F090804B14F090AB
:20122200804CF090804DF08F82C007C006C00512069CD005D006D0079080457464F0E4A366
:20124200F09080477464F0E4A3F0908049749CF074FFA3F090804BF090804CF090804DE4CF
:20126200F08F82C007C006C00512069CD005D006D007908045749CF074FFA3F090804774BD
:2012820064F0E4A3F09080497464F0E4A3F090804BF090804C14F090804DF08F82C007C059
:2012A20006C00512069CD005D006D007907F0175F000EF12492BA3E412492BF582F5F07464
:2012C2000E12492B908045749CF074FFA3F09080477464F0E4A3F0908049749CF074FFA318
:2012E200F090804BE4F090804C14F090804DE4F08F82C007C006C00512069CD005D006D0AA
:2013020007907F0175F000EF12492BA3E412492BF582F5F0740E12492B908045E4F0A3F0AD
:20132200908047F0A3F09080497464F0E4A3F090804BF090804CF090804D14F08D82C0066C
:20134200C00512069CD0059080457464F0E4A3F0908047F0A3F0908049F0A3F090804B1484
:20136200F090804CE4F090804DF08D82C00512069CD005908045E4F0A3F09080477464F0C6
:20138200E4A3F0908049F0A3F090804BF090804C14F090804DE4F08D82C00512069CD005BF
:2013A200907F0175F000ED12492BA3E412492BF582F5F0740E12492B908045E4F0A3F09086
:2013C2008047F0A3F0908049749CF074FFA3F090804BF090804CF090804DE4F08D82C005C6
:2013E20012069CD005907F0175F000ED12492BA3E412492BF582F5F0740E12492B908045B4
:20140200E4F0A3F0908047F0A3F09080497464F0E4A3F090804BF090804CF090804D14F0F9
:201422008D82C00512069CD005908045749CF074FFA3F0908047E4F0A3F0908049F0A3F058
:2014420090804BF090804C14F090804DF08D82C00512069CD005908045E4F0A3F090804722
:201462007464F0E4A3F0908049F0A3F090804BF090804C14F090804DE4F08D82C005120687
:201482009CD005907F0175F000ED12492BA3E412492BF582F5F0740E12492B908045E4F057
:2014A200A3F0908047F0A3F0908049749CF074FFA3F090804BF090804CF090804DE4F08D09
:2014C20082C00512069CD005907F0175F000ED12492BA3E412492BF582F5F0740E12492BE1
:2014E200908045E4F0A3F0908047F0A3F09080497464F0E4A3F090804BF090804CF0908015
:201502004D14F08D82C00512069CD0059080457464F0E4A3F0908047F0A3F0908049F0A3C1
:20152200F090804B14F090804CE4F090804DF08D82C00512069CD005908045E4F0A3F09034
:201542008047749CF074FFA3F0908049E4F0A3F090804B14F090804CE4F090804D14F08D7F
:2015620082C00512069CD005907F0175F000ED12492BA3E412492BF582F5F0740E12492B40
:20158200908045E4F0A3F0908047F0A3F0908049749CF074FFA3F090804BF090804CF0902D
:2015A200804DE4F08D82C00512069CD005907F0175F000ED12492BA3E412492BF582F5F0DA
:2015C200740E12492B908045E4F0A3F0908047F0A3F09080497464F0E4A3F090804BF090F8
:2015E200804CF090804D14F08D82C00512069CD005908045749CF074FFA3F0908047E4F0E9
:20160200A3F0908049F0A3F090804BF090804C14F090804DF08D82C00512069CD0059080F4
:2016220045E4F0A3F0908047749CF074FFA3F0908049E4F0A3F090804B14F090804CE4F050
:2016420090804D14F08D82C00512069CD005907F0175F000ED12492BA3E412492BF582F569
:20166200F0740E12492B908045E4F0A3F0908047F0A3F0908049749CF074FFA3F090804B20
:20168200F090804CF090804DE4F08D82C00512069CD005907F0175F000ED12492BA3E412FD
:2016A200492BF582F5F0740E12492B900A9275F086743E1243CDAB82AC83ADF0FFE4C0E0E9
:2016C200C0E074C8C0E07442C0E08B828C838DF0EF1242C9AB82AC83ADF0FFE58124FCF51E
:2016E200818B828C838DF0EF124A73858208858309900A9275F086743E1243FCA982AA837E
:20170200ABF0FCE4C0E0C0E074C8C0E07442C0E089828A838BF0EC1242C9A982AA83ABF04B
:20172200FCE58124FCF58189828A838BF0EC124A73858230858331900A9275F006743F1295
:2017420043CDA882A983AAF0FFE4C0E0C0E074C8C0E07442C0E0888289838AF0EF1242C996
:20176200A982AA83ADF0FFE58124FCF58189828A838DF0EF124A7385820A85830B900A92D4
:2017820075F006743F1243FCA882A983AAF0FFE4C0E0C0E074C8C0E07442C0E0888289837D
:2017A2008AF0EF1242C9A982AA83ADF0FFE58124FCF58189828A838DF0EF124A7385820C4B
:2017C20085830D900FDB75F049743F1243CDA882A983AAF0FFE4C0E0C0E074C8C0E0744250
:2017E200C0E0888289838AF0EF1242C9A982AA83ADF0FFE58124FCF58189828A838DF0EF37
:20180200124A7385820E85830F900FDB75F049743F1243FCA882A983AAF0FFE4C0E0C0E08C
:2018220074C8C0E07442C0E0888289838AF0EF1242C9A982AA83ADF0FFE58124FCF581895F
:20184200828A838DF0EF124A73858210858311900A9275F086743F1243CDA882A983AAF0B0
:20186200FFE4C0E0C0E074C8C0E07442C0E0888289838AF0EF1242C9A982AA83ADF0FFE59C
:201882008124FCF58189828A838DF0EF124A73858212858313900A9275F086743F1243FC8D
:2018A200A882A983AAF0FFE4C0E0C0E074C8C0E07442C0E0888289838AF0EF1242C9A9821A
:2018C200AA83ADF0FFE58124FCF58189828A838DF0EF124A73858214858315908D3675F0FE
:2018E200A7743F1243CDA882A983AAF0FFE4C0E0C0E074C8C0E07442C0E0888289838AF095
:20190200EF1242C9A982AA83ADF0FFE58124FCF58189828A838DF0EF124A73858216858351
:2019220017908D3675F0A7743F1243FCA882A983AAF0FFE4C0E0C0E074C8C0E07442C0E0E6
:20194200888289838AF0EF1242C9A982AA83ADF0FFE58124FCF58189828A838DF0EF124A19
:2019620073858218858319900A9275F08674BE1243CDA882A983AAF0FFE4C0E0C0E074C8F8
:20198200C0E07442C0E0888289838AF0EF1242C9A982AA83ADF0FFE58124FCF58189828A2E
:2019A200838DF0EF124A7385821A85831B900A9275F08674BE1243FCA882A983AAF0FFE4B6
:2019C200C0E0C0E074C8C0E07442C0E0888289838AF0EF1242C9A982AA83ADF0FFE5812479
:2019E200FCF58189828A838DF0EF124A7385821C85831D900A9275F00674BF1243CDA882C2
:201A0200A983AAF0FFE4C0E0C0E074C8C0E07442C0E0888289838AF0EF1242C9A982AA83B5
:201A2200ADF0FFE58124FCF58189828A838DF0EF124A7385821E85831F900A9275F0067462
:201A4200BF1243FCA882A983AAF0FFE4C0E0C0E074C8C0E07442C0E0888289838AF0EF129E
:201A620042C9A982AA83ADF0FFE58124FCF58189828A838DF0EF124A738582208583219036
:201A82000FDB75F04974BF1243CDA882A983AAF0FFE4C0E0C0E074C8C0E07442C0E0888208
:201AA20089838AF0EF1242C9A982AA83ADF0FFE58124FCF58189828A838DF0EF124A7385CA
:201AC2008222858323900FDB75F04974BF1243FCA882A983AAF0FFE4C0E0C0E074C8C0E09A
:201AE2007442C0E0888289838AF0EF1242C9A982AA83ADF0FFE58124FCF58189828A838D5D
:201B0200F0EF124A73858224858325900A9275F08674BF1243CDA882A983AAF0FFE4C0E0DE
:201B2200C0E074C8C0E07442C0E0888289838AF0EF1242C9A982AA83ADF0FFE58124FCF5C6
:201B42008189828A838DF0EF124A73858226858327900A9275F08674BF1243FCA882A98362
:201B6200AAF0FFE4C0E0C0E074C8C0E07442C0E0888289838AF0EF1242C9A982AA83ADF0E3
:201B8200FFE58124FCF58189828A838DF0EF124A73858228858329908D3675F0A774BF12F1
:201BA20043CDA882A983AAF0FFE4C0E0C0E074C8C0E07442C0E0888289838AF0EF1242C932
:201BC200A982AA83ADF0FFE58124FCF58189828A838DF0EF124A7385822A85832B908D3609
:201BE20075F0A774BF1243FCA882A983AAF0FFE4C0E0C0E074C8C0E07442C0E088828983F8
:201C02008AF0EF1242C9A982AA83ADF0FFE58124FCF58189828A838DF0EF124A7385822EC4
:201C220085832FD006907F0175F000EE12492B1582740A12492B9080BEE4F0A3F09080BE0E
:201C4200E0F52CA3E0F52D852C82852D83C006124AA7A882A983AAF0FFC000C001C002C0B9
:201C62000790FA3575F08E743C1242C985823285833385F034F535E58124FCF581740A25F6
:201C82002CF8E4352DFC88828C83124AA7A882AB83ACF0FFC000C003C004C00790FA35758B
:201CA200F08E743C1242C985823885833985F03AF53BE58124FCF5817414252CF536E4355F
:201CC2002DF537853682853783124AA7A882A983AAF0FFC000C001C002C00790FA3575F00D
:201CE2008E743C1242C985823C85833D85F03EF53FE58124FCF581741E252CF9E4352DFA00
:201D020089828A83124AA7A882A983AAF0FFC000C001C002C00790FA3575F08E743C1242F7
:201D2200C985824085834185F042F543E58124FCF581D006908045E4F0A3F090804774649C
:201D4200F0E4A3F0908049F0A3F090804B7480F090804CE4F090804DF08E82C00612069CF8
:201D62008532828533838534F0E5351243CD85824485834585F046F547851682851783122B
:201D82004AA785824885834985F04AF54BC048C049C04AC04B8544828545838546F0E5470C
:201DA2001242C9A882A983AAF0FFE58124FCF581888289838AF0EF124A73AD82AF83D00694
:201DC2008532828533838534F0E535C007C006C0051243FCA982AA83ABF0FCC048C049C067
:201DE2004AC04B89828A838BF0EC1242C9A982AA83ABF0FCE58124FCF58189828A838BF072
:201E0200EC124A73AB82AC83D005D006D007908045EDF0EFA3F0908047E518F0E519A3F09E
:201E2200908049EBF0ECA3F090804B74FFF090804CE4F090804DF08E82C00612069C853C67
:201E420082853D83853EF0E53F1243CDAB82AC83ADF0FFC048C049C04AC04B8B828C838DF9
:201E6200F0EF1242C9AB82AC83ADF0FFE58124FCF5818B828C838DF0EF124A73AD82AF83B8
:201E8200D006853C82853D83853EF0E53FC007C006C0051243FCA982AA83ABF0FCC048C0B1
:201EA20049C04AC04B89828A838BF0EC1242C9A982AA83ABF0FCE58124FCF58189828A8323
:201EC2008BF0EC124A73AB82AC83D005D006D007908045EDF0EFA3F0908047E518F0E519F6
:201EE200A3F0908049EBF0ECA3F090804B74FFF090804CE4F090804DF08E82C00612069CD5
:201F0200D006907F0175F000EE12492BA3E412492BF582F5F0740E12492B908045E4F0A3C3
:201F2200F0908047749CF074FFA3F0908049E4F0A3F090804B7480F090804CE4F090804DC6
:201F42007480F08E82C00612069C8532828533838534F0E5351243CD85824485834585F0AB
:201F620046F547852A82852B83124AA785824C85834D85F04EF54FC04CC04DC04EC04F850C
:201F820044828545838546F0E5471242C9AB82AC83ADF0FFE58124FCF5818B828C838DF09B
:201FA200EF124A73AD82AF83D0068532828533838534F0E535C007C006C0051243FCA98225
:201FC200AA83ABF0FCC04CC04DC04EC04F89828A838BF0EC1242C9A982AA83ABF0FCE58114
:201FE20024FCF58189828A838BF0EC124A73AB82AC83D005D006D007908045EDF0EFA3F069
:20200200908047E52EF0E52FA3F0908049EBF0ECA3F090804B74FFF090804CE4F090804DBF
:2020220014F08E82C00612069C853C82853D83853EF0E53F1243CDAB82AC83ADF0FFC04C8B
:20204200C04DC04EC04F8B828C838DF0EF1242C9AB82AC83ADF0FFE58124FCF5818B828C22
:20206200838DF0EF124A73AD82AF83D006853C82853D83853EF0E53FC007C006C005124363
:20208200FCA982AA83ABF0FCC04CC04DC04EC04F89828A838BF0EC1242C9A982AA83ABF08E
:2020A200FCE58124FCF58189828A838BF0EC124A73AB82AC83D005D006D007908045EDF0C8
:2020C200EFA3F0908047E52EF0E52FA3F0908049EBF0ECA3F090804B74FFF090804CE4F0DA
:2020E20090804D14F08E82C00612069CD006907F0175F000EE12492BA3E412492BF582F5BB
:20210200F0740E12492B8532828533838534F0E535C0061243CDAB82AC83ADF0FFC048C0E6
:2021220049C04AC04B8B828C838DF0EF1242C9AB82AC83ADF0FFE58124FCF5818B828C838A
:202142008DF0EF124A73AD82AF83D0068532828533838534F0E535C007C006C0051243FC31
:20216200A982AA83ABF0FCC048C049C04AC04B89828A838BF0EC1242C9A982AA83ABF0FCBD
:20218200E58124FCF58189828A838BF0EC124A73AB82AC83D005D006D007908045EDF0EFF4
:2021A200A3F0908047E518F0E519A3F0908049EBF0ECA3F090804B74FFF090804CE4F09084
:2021C200804DF08E82C00612069C853C82853D83853EF0E53F1243CDAB82AC83ADF0FFC07D
:2021E20048C049C04AC04B8B828C838DF0EF1242C9AB82AC83ADF0FFE58124FCF5818B82D1
:202202008C838DF0EF124A73AD82AF83D006853C82853D83853EF0E53FC007C006C0051278
:2022220043FCA982AA83ABF0FCC048C049C04AC04B89828A838BF0EC1242C9A982AA83ABA9
:20224200F0FCE58124FCF58189828A838BF0EC124A73AB82AC83D005D006D007908045ED26
:20226200F0EFA3F0908047E518F0E519A3F0908049EBF0ECA3F090804B74FFF090804CE464
:20228200F090804DF08E82C00612069C853882853983853AF0E53B1243CD85824885834964
:2022A20085F04AF54B851282851383124AA785824485834585F046F547C044C045C046C088
:2022C20047854882854983854AF0E54B1242C9AB82AC83ADF0FFE58124FCF5818B828C83F9
:2022E2008DF0EF124A73AD82AF83D006853882853983853AF0E53BC007C006C0051243FC78
:20230200A982AA83ABF0FCC044C045C046C04789828A838BF0EC1242C9A982AA83ABF0FC2B
:20232200E58124FCF58189828A838BF0EC124A73AB82AC83D005D006D007908045EDF0EF52
:20234200A3F0908047E514F0E515A3F0908049EBF0ECA3F090804B74FFF090804C7480F06A
:2023620090804DE4F08E82C00612069CD006907F0175F000EE12492BA3E412492BF582F568
:20238200F0740E12492B8540828541838542F0E543C0061243CDAB82AC83ADF0FFC044C030
:2023A20045C046C0478B828C838DF0EF1242C9AB82AC83ADF0FFE58124FCF5818B828C8314
:2023C2008DF0EF124A73AD82AF83D0068540828541838542F0E543C007C006C0051243FC77
:2023E200A982AA83ABF0FCC044C045C046C04789828A838BF0EC1242C9A982AA83ABF0FC4B
:20240200E58124FCF58189828A838BF0EC124A73AB82AC83D005D006D007908045EDF0EF71
:20242200A3F0908047E514F0E515A3F0908049EBF0ECA3F090804B74FFF090804C7480F089
:2024420090804DE4F08E82C00612069CD006907F0175F000EE12492BA3E412492BF582F587
:20246200F0740E12492B8532828533838534F0E535C0061243CDAB82AC83ADF0FFC04CC07F
:202482004DC04EC04F8B828C838DF0EF1242C9AB82AC83ADF0FFE58124FCF5818B828C831B
:2024A2008DF0EF124A73AD82AF83D0068532828533838534F0E535C007C006C0051243FCCE
:2024C200A982AA83ABF0FCC04CC04DC04EC04F89828A838BF0EC1242C9A982AA83ABF0FC4A
:2024E200E58124FCF58189828A838BF0EC124A73AB82AC83D005D006D007908045EDF0EF91
:20250200A3F0908047E52EF0E52FA3F0908049EBF0ECA3F090804B74FFF090804CE4F090F4
:20252200804D14F08E82C00612069C853C82853D83853EF0E53F1243CDAB82AC83ADF0FFC5
:20254200C04CC04DC04EC04F8B828C838DF0EF1242C9AB82AC83ADF0FFE58124FCF5818B1F
:20256200828C838DF0EF124A73AD82AF83D006853C82853D83853EF0E53FC007C006C005A5
:202582001243FCA982AA83ABF0FCC04CC04DC04EC04F89828A838BF0EC1242C9A982AA83CF
:2025A200ABF0FCE58124FCF58189828A838BF0EC124A73AB82AC83D005D006D00790804505
:2025C200EDF0EFA3F0908047E52EF0E52FA3F0908049EBF0ECA3F090804B74FFF090804CCC
:2025E200E4F090804D14F08E82C00612069C853882853983853AF0E53B1243CD85824C85D1
:20260200834D85F04EF54F852682852783124AA785824885834985F04AF54BC048C049C012
:202622004AC04B854C82854D83854EF0E54F1242C9AB82AC83ADF0FFE58124FCF5818B8286
:202642008C838DF0EF124A73AD82AF83D006853882853983853AF0E53BC007C006C0051244
:2026620043FCA982AA83ABF0FCC048C049C04AC04B89828A838BF0EC1242C9A982AA83AB65
:20268200F0FCE58124FCF58189828A838BF0EC124A73AB82AC83D005D006D007908045EDE2
:2026A200F0EFA3F0908047E528F0E529A3F0908049EBF0ECA3F090804B7480F090804CE47F
:2026C200F090804D14F08E82C00612069CD006907F0175F000EE12492BA3E412492BF582DA
:2026E200F5F0740E12492B8540828541838542F0E543C0061243CDAB82AC83ADF0FFC04894
:20270200C049C04AC04B8B828C838DF0EF1242C9AB82AC83ADF0FFE58124FCF5818B828C67
:20272200838DF0EF124A73AD82AF83D0068540828541838542F0E543C007C006C00512438C
:20274200FCA982AA83ABF0FCC048C049C04AC04B89828A838BF0EC1242C9A982AA83ABF0D7
:20276200FCE58124FCF58189828A838BF0EC124A73AB82AC83D005D006D007908045EDF001
:20278200EFA3F0908047E528F0E529A3F0908049EBF0ECA3F090804B7480F090804CE4F09E
:2027A20090804D14F08E82C00612069CD006907F0175F000EE12492BA3E412492BF582F5F4
:2027C200F0740E12492B8540828541838542F0E543C0061243CDAB82AC83ADF0FFC044C0EC
:2027E20045C046C0478B828C838DF0EF1242C9AB82AC83ADF0FFE58124FCF5818B828C83D0
:202802008DF0EF124A73AD82AF83D0068540828541838542F0E543C007C006C0051243FC32
:20282200A982AA83ABF0FCC044C045C046C04789828A838BF0EC1242C9A982AA83ABF0FC06
:20284200E58124FCF58189828A838BF0EC124A73AB82AC83D005D006D007908045EDF0EF2D
:20286200A3F0908047E514F0E515A3F0908049EBF0ECA3F090804B74FFF090804C7480F045
:2028820090804DE4F08E82C00612069C853882853983853AF0E53B1243CDAB82AC83ADF011
:2028A200FFC044C045C046C0478B828C838DF0EF1242C9AB82AC83ADF0FFE58124FCF58168
:2028C2008B828C838DF0EF124A73AD82AF83D006853882853983853AF0E53BC007C006C0CC
:2028E200051243FCA982AA83ABF0FCC044C045C046C04789828A838BF0EC1242C9A982AA0A
:2029020083ABF0FCE58124FCF58189828A838BF0EC124A73AB82AC83D005D006D007908063
:2029220045EDF0EFA3F0908047E514F0E515A3F0908049EBF0ECA3F090804B74FFF09080A3
:202942004C7480F090804DE4F08E82C00612069C853C82853D83853EF0E53F1243CD858202
:202962004C85834D85F04EF54F850E82850F83124AA785824485834585F046F547C044C02B
:2029820045C046C047854C82854D83854EF0E54F1242C9AB82AC83ADF0FFE58124FCF58133
:2029A2008B828C838DF0EF124A73AD82AF83D006853C82853D83853EF0E53FC007C006C0DB
:2029C200051243FCA982AA83ABF0FCC044C045C046C04789828A838BF0EC1242C9A982AA29
:2029E20083ABF0FCE58124FCF58189828A838BF0EC124A73AB82AC83D005D006D007908083
:202A020045EDF0EFA3F0908047E510F0E511A3F0908049EBF0ECA3F090804B74FFF09080CA
:202A22004CF090804DE4F08E82C00612069CD006907F0175F000EE12492BA3E412492BF5DC
:202A420082F5F0740E12492B8532828533838534F0E535C0061243CDAB82AC83ADF0FFC02E
:202A620044C045C046C0478B828C838DF0EF1242C9AB82AC83ADF0FFE58124FCF5818B8258
:202A82008C838DF0EF124A73AD82AF83D0068532828533838534F0E535C007C006C0051218
:202AA20043FCA982AA83ABF0FCC044C045C046C04789828A838BF0EC1242C9A982AA83AB31
:202AC200F0FCE58124FCF58189828A838BF0EC124A73AB82AC83D005D006D007908045ED9E
:202AE200F0EFA3F0908047E510F0E511A3F0908049EBF0ECA3F090804B74FFF090804CF0E0
:202B020090804DE4F08E82C00612069CD006907F0175F000EE12492BA3E412492BF582F5C0
:202B2200F0740E12492B8540828541838542F0E543C0061243CDAB82AC83ADF0FFC048C084
:202B420049C04AC04B8B828C838DF0EF1242C9AB82AC83ADF0FFE58124FCF5818B828C8360
:202B62008DF0EF124A73AD82AF83D0068540828541838542F0E543C007C006C0051243FCCF
:202B8200A982AA83ABF0FCC048C049C04AC04B89828A838BF0EC1242C9A982AA83ABF0FC93
:202BA200E58124FCF58189828A838BF0EC124A73AB82AC83D005D006D007908045EDF0EFCA
:202BC200A3F0908047E528F0E529A3F0908049EBF0ECA3F090804B7480F090804CE4F090B9
:202BE200804D14F08E82C00612069C853882853983853AF0E53B1243CDAB82AC83ADF0FF0F
:202C0200C048C049C04AC04B8B828C838DF0EF1242C9AB82AC83ADF0FFE58124FCF5818B68
:202C2200828C838DF0EF124A73AD82AF83D006853882853983853AF0E53BC007C006C005EE
:202C42001243FCA982AA83ABF0FCC048C049C04AC04B89828A838BF0EC1242C9A982AA8318
:202C6200ABF0FCE58124FCF58189828A838BF0EC124A73AB82AC83D005D006D0079080453E
:202C8200EDF0EFA3F0908047E528F0E529A3F0908049EBF0ECA3F090804B7480F090804C90
:202CA200E4F090804D14F08E82C00612069C853C82853D83853EF0E53F1243CD85824C85FA
:202CC200834D85F04EF54F852282852383124AA785824885834985F04AF54BC048C049C054
:202CE2004AC04B854C82854D83854EF0E54F1242C9AB82AC83ADF0FFE58124FCF5818B82C0
:202D02008C838DF0EF124A73AD82AF83D006853C82853D83853EF0E53FC007C006C005126D
:202D220043FCA982AA83ABF0FCC048C049C04AC04B89828A838BF0EC1242C9A982AA83AB9E
:202D4200F0FCE58124FCF58189828A838BF0EC124A73AB82AC83D005D006D007908045ED1B
:202D6200F0EFA3F0908047E524F0E525A3F0908049EBF0ECA3F090804BE4F090804CF09034
:202D8200804D14F08E82C00612069CD006907F0175F000EE12492BA3E412492BF582F5F0AE
:202DA200740E12492B8532828533838534F0E535C0061243CDAB82AC83ADF0FFC048C049E1
:202DC200C04AC04B8B828C838DF0EF1242C9AB82AC83ADF0FFE58124FCF5818B828C838D9A
:202DE200F0EF124A73AD82AF83D0068532828533838534F0E535C007C006C0051243FCA969
:202E020082AA83ABF0FCC048C049C04AC04B89828A838BF0EC1242C9A982AA83ABF0FCE5D4
:202E22008124FCF58189828A838BF0EC124A73AB82AC83D005D006D007908045EDF0EFA389
:202E4200F0908047E524F0E525A3F0908049EBF0ECA3F090804BE4F090804CF090804D14F4
:202E6200F08E82C00612069CD006907F0175F000EE12492BA3E412492BF582F5F0740E121A
:202E8200492B8532828533838534F0E535C0061243CDAB82AC83ADF0FFC044C045C046C0D6
:202EA200478B828C838DF0EF1242C9AB82AC83ADF0FFE58124FCF5818B828C838DF0EF1296
:202EC2004A73AD82AF83D0068532828533838534F0E535C007C006C0051243FCA982AA83CA
:202EE200ABF0FCC044C045C046C04789828A838BF0EC1242C9A982AA83ABF0FCE58124FC12
:202F0200F58189828A838BF0EC124A73AB82AC83D005D006D007908045EDF0EFA3F0908049
:202F220047E510F0E511A3F0908049EBF0ECA3F090804B74FFF090804CF090804DE4F08E5E
:202F420082C00612069C853C82853D83853EF0E53F1243CDAB82AC83ADF0FFC044C045C031
:202F620046C0478B828C838DF0EF1242C9AB82AC83ADF0FFE58124FCF5818B828C838DF0D0
:202F8200EF124A73AD82AF83D006853C82853D83853EF0E53FC007C006C0051243FCA9820D
:202FA200AA83ABF0FCC044C045C046C04789828A838BF0EC1242C9A982AA83ABF0FCE58144
:202FC20024FCF58189828A838BF0EC124A73AB82AC83D005D006D007908045EDF0EFA3F079
:202FE200908047E510F0E511A3F0908049EBF0ECA3F090804B74FFF090804CF090804DE40C
:20300200F08E82C00612069C853882853983853AF0E53B1243CD85824C85834D85F04EF563
:203022004F850A82850B83124AA785824485834585F046F547C044C045C046C047854C8220
:20304200854D83854EF0E54F1242C9AB82AC83ADF0FFE58124FCF5818B828C838DF0EF1277
:203062004A73AD82AF83D006853882853983853AF0E53BC007C006C0051243FCA982AA8310
:20308200ABF0FCC044C045C046C04789828A838BF0EC1242C9A982AA83ABF0FCE58124FC70
:2030A200F58189828A838BF0EC124A73AB82AC83D005D006D007908045EDF0EFA3F09080A8
:2030C20047E50CF0E50DA3F0908049EBF0ECA3F090804B7480F090804C74FFF090804DE44F
:2030E200F08E82C00612069CD006907F0175F000EE12492BA3E412492BF582F5F0740E1298
:20310200492B8540828541838542F0E543C0061243CDAB82AC83ADF0FFC044C045C046C01B
:20312200478B828C838DF0EF1242C9AB82AC83ADF0FFE58124FCF5818B828C838DF0EF1213
:203142004A73AD82AF83D0068540828541838542F0E543C007C006C0051243FCA982AA830F
:20316200ABF0FCC044C045C046C04789828A838BF0EC1242C9A982AA83ABF0FCE58124FC8F
:20318200F58189828A838BF0EC124A73AB82AC83D005D006D007908045EDF0EFA3F09080C7
:2031A20047E50CF0E50DA3F0908049EBF0ECA3F090804B7480F090804C74FFF090804DE46E
:2031C200F08E82C00612069CD006907F0175F000EE12492BA3E412492BF582F5F0740E12B7
:2031E200492B8532828533838534F0E535C0061243CDAB82AC83ADF0FFC048C049C04AC067
:203202004B8B828C838DF0EF1242C9AB82AC83ADF0FFE58124FCF5818B828C838DF0EF122E
:203222004A73AD82AF83D0068532828533838534F0E535C007C006C0051243FCA982AA8366
:20324200ABF0FCC048C049C04AC04B89828A838BF0EC1242C9A982AA83ABF0FCE58124FC9E
:20326200F58189828A838BF0EC124A73AB82AC83D005D006D007908045EDF0EFA3F09080E6
:2032820047E524F0E525A3F0908049EBF0ECA3F090804BE4F090804CF090804D14F08E82B0
:2032A200C00612069C853C82853D83853EF0E53F1243CDAB82AC83ADF0FFC048C049C04AFE
:2032C200C04B8B828C838DF0EF1242C9AB82AC83ADF0FFE58124FCF5818B828C838DF0EFC0
:2032E200124A73AD82AF83D006853C82853D83853EF0E53FC007C006C0051243FCA982AAEF
:2033020083ABF0FCC048C049C04AC04B89828A838BF0EC1242C9A982AA83ABF0FCE5812456
:20332200FCF58189828A838BF0EC124A73AB82AC83D005D006D007908045EDF0EFA3F090A9
:203342008047E524F0E525A3F0908049EBF0ECA3F090804BE4F090804CF090804D14F08EF1
:2033620082C00612069C853882853983853AF0E53B1243CD85824C85834D85F04EF54F85AA
:203382001E82851F83124AA785824885834985F04AF54BC048C049C04AC04B854C82854D77
:2033A20083854EF0E54F1242C9AB82AC83ADF0FFE58124FCF5818B828C838DF0EF124A7329
:2033C200AD82AF83D006853882853983853AF0E53BC007C006C0051243FCA982AA83ABF0CF
:2033E200FCC048C049C04AC04B89828A838BF0EC1242C9A982AA83ABF0FCE58124FCF58122
:2034020089828A838BF0EC124A73AB82AC83D005D006D007908045EDF0EFA3F0908047E58E
:2034220020F0E521A3F0908049EBF0ECA3F090804BE4F090804C7480F090804D74FFF08E71
:2034420082C00612069CD006907F0175F000EE12492BA3E412492BF582F5F0740E12492B3E
:203462008540828541838542F0E543C0061243CDAB82AC83ADF0FFC048C049C04AC04B8B4A
:20348200828C838DF0EF1242C9AB82AC83ADF0FFE58124FCF5818B828C838DF0EF124A73C5
:2034A200AD82AF83D0068540828541838542F0E543C007C006C0051243FCA982AA83ABF0CE
:2034C200FCC048C049C04AC04B89828A838BF0EC1242C9A982AA83ABF0FCE58124FCF58141
:2034E20089828A838BF0EC124A73AB82AC83D005D006D007908045EDF0EFA3F0908047E5AE
:2035020020F0E521A3F0908049EBF0ECA3F090804BE4F090804C7480F090804D74FFF08E90
:2035220082C00612069CD006907F0175F000EE12492BA3E412492BF582F5F0740E12492B5D
:203542008540828541838542F0E543C0061243CDAB82AC83ADF0FFC044C045C046C0478B79
:20356200828C838DF0EF1242C9AB82AC83ADF0FFE58124FCF5818B828C838DF0EF124A73E4
:20358200AD82AF83D0068540828541838542F0E543C007C006C0051243FCA982AA83ABF0ED
:2035A200FCC044C045C046C04789828A838BF0EC1242C9A982AA83ABF0FCE58124FCF58170
:2035C20089828A838BF0EC124A73AB82AC83D005D006D007908045EDF0EFA3F0908047E5CD
:2035E2000CF0E50DA3F0908049EBF0ECA3F090804B7480F090804C74FFF090804DE4F08ED8
:2036020082C00612069C853882853983853AF0E53B1243CDAB82AC83ADF0FFC044C045C07A
:2036220046C0478B828C838DF0EF1242C9AB82AC83ADF0FFE58124FCF5818B828C838DF009
:20364200EF124A73AD82AF83D006853882853983853AF0E53BC007C006C0051243FCA98256
:20366200AA83ABF0FCC044C045C046C04789828A838BF0EC1242C9A982AA83ABF0FCE5817D
:2036820024FCF58189828A838BF0EC124A73AB82AC83D005D006D007908045EDF0EFA3F0B2
:2036A200908047E50CF0E50DA3F0908049EBF0ECA3F090804B7480F090804C74FFF090808A
:2036C2004DE4F08E82C00612069C853C82853D83853EF0E53F1243CD85824C85834D85F09F
:2036E2004EF54F850882850983124AA785824485834585F046F547C044C045C046C04785E9
:203702004C82854D83854EF0E54F1242C9AB82AC83ADF0FFE58124FCF5818B828C838DF0E3
:20372200EF124A73AD82AF83D006853C82853D83853EF0E53FC007C006C0051243FCA98265
:20374200AA83ABF0FCC044C045C046C04789828A838BF0EC1242C9A982AA83ABF0FCE5819C
:2037620024FCF58189828A838BF0EC124A73AB82AC83D005D006D007908045EDF0EFA3F0D1
:20378200908047E530F0E531A3F0908049EBF0ECA3F090804BE4F090804C14F090804DE49F
:2037A200F08E82C00612069CD006907F0175F000EE12492BA3E412492BF582F5F0740E12D1
:2037C200492B8532828533838534F0E535C0061243CDAB82AC83ADF0FFC044C045C046C08D
:2037E200478B828C838DF0EF1242C9AB82AC83ADF0FFE58124FCF5818B828C838DF0EF124D
:203802004A73AD82AF83D0068532828533838534F0E535C007C006C0051243FCA982AA8380
:20382200ABF0FCC044C045C046C04789828A838BF0EC1242C9A982AA83ABF0FCE58124FCC8
:20384200F58189828A838BF0EC124A73AB82AC83D005D006D007908045EDF0EFA3F0908000
:2038620047E530F0E531A3F0908049EBF0ECA3F090804BE4F090804C14F090804DE4F08E50
:2038820082C00612069CD006907F0175F000EE12492BA3E412492BF582F5F0740E12492BFA
:2038A2008540828541838542F0E543C0061243CDAB82AC83ADF0FFC048C049C04AC04B8B06
:2038C200828C838DF0EF1242C9AB82AC83ADF0FFE58124FCF5818B828C838DF0EF124A7381
:2038E200AD82AF83D0068540828541838542F0E543C007C006C0051243FCA982AA83ABF08A
:20390200FCC048C049C04AC04B89828A838BF0EC1242C9A982AA83ABF0FCE58124FCF581FC
:2039220089828A838BF0EC124A73AB82AC83D005D006D007908045EDF0EFA3F0908047E569
:2039420020F0E521A3F0908049EBF0ECA3F090804BE4F090804C7480F090804D74FFF08E4C
:2039620082C00612069C853882853983853AF0E53B1243CDAB82AC83ADF0FFC048C049C00F
:203982004AC04B8B828C838DF0EF1242C9AB82AC83ADF0FFE58124FCF5818B828C838DF09E
:2039A200EF124A73AD82AF83D006853882853983853AF0E53BC007C006C0051243FCA982F3
:2039C200AA83ABF0FCC048C049C04AC04B89828A838BF0EC1242C9A982AA83ABF0FCE5810A
:2039E20024FCF58189828A838BF0EC124A73AB82AC83D005D006D007908045EDF0EFA3F04F
:203A0200908047E520F0E521A3F0908049EBF0ECA3F090804BE4F090804C7480F090804D40
:203A220074FFF08E82C00612069C853C82853D83853EF0E53F1243CD85824C85834D85F0F9
:203A42004EF54F851A82851B83124AA785824885834985F04AF54BC048C049C04AC04B8541
:203A62004C82854D83854EF0E54F1242C9AB82AC83ADF0FFE58124FCF5818B828C838DF080
:203A8200EF124A73AD82AF83D006853C82853D83853EF0E53FC007C006C0051243FCA98202
:203AA200AA83ABF0FCC048C049C04AC04B89828A838BF0EC1242C9A982AA83ABF0FCE58129
:203AC20024FCF58189828A838BF0EC124A73AB82AC83D005D006D007908045EDF0EFA3F06E
:203AE200908047E51CF0E51DA3F0908049EBF0ECA3F090804BE4F090804C14F090804DF058
:203B02008E82C00612069CD006907F0175F000EE12492BA3E412492BF582F5F0740E124914
:203B22002B8532828533838534F0E535C0061243CDAB82AC83ADF0FFC048C049C04AC04B1B
:203B42008B828C838DF0EF1242C9AB82AC83ADF0FFE58124FCF5818B828C838DF0EF124AE6
:203B620073AD82AF83D0068532828533838534F0E535C007C006C0051243FCA982AA83ABBC
:203B8200F0FCC048C049C04AC04B89828A838BF0EC1242C9A982AA83ABF0FCE58124FCF50B
:203BA2008189828A838BF0EC124A73AB82AC83D005D006D007908045EDF0EFA3F09080474B
:203BC200E51CF0E51DA3F0908049EBF0ECA3F090804BE4F090804C14F090804DF08E82C0FE
:203BE2000612069CD006907F0175F000EE12492BA3E412492BF582F5F0740E12492B853222
:203C0200828533838534F0E535C0061243CDAB82AC83ADF0FFC044C045C046C0478B828C93
:203C2200838DF0EF1242C9AB82AC83ADF0FFE58124FCF5818B828C838DF0EF124A73AD82FC
:203C4200AF83D0068532828533838534F0E535C007C006C0051243FCA982AA83ABF0FCC0D1
:203C620044C045C046C04789828A838BF0EC1242C9A982AA83ABF0FCE58124FCF58189825A
:203C82008A838BF0EC124A73AB82AC83D005D006D007908045EDF0EFA3F0908047E530F0F1
:203CA200E531A3F0908049EBF0ECA3F090804BE4F090804C14F090804DE4F08E82C00612FE
:203CC200069C853C82853D83853EF0E53F1243CDAB82AC83ADF0FFC044C045C046C0478B26
:203CE200828C838DF0EF1242C9AB82AC83ADF0FFE58124FCF5818B828C838DF0EF124A735D
:203D0200AD82AF83D006853C82853D83853EF0E53FC007C006C0051243FCA982AA83ABF075
:203D2200FCC044C045C046C04789828A838BF0EC1242C9A982AA83ABF0FCE58124FCF581E8
:203D420089828A838BF0EC124A73AB82AC83D005D006D007908045EDF0EFA3F0908047E545
:203D620030F0E531A3F0908049EBF0ECA3F090804BE4F090804C14F090804DE4F08E82C035
:203D82000612069C853882853983853AF0E53B1243CDAB82AC83ADF0FFE4C0E0C0E074C89E
:203DA200C0E07442C0E08B828C838DF0EF1242C9AB82AC83ADF0FFE58124FCF5818B828CD9
:203DC200838DF0EF124A73AD82AF83D006853882853983853AF0E53BC007C006C0051243F6
:203DE200FCA982AA83ABF0FCE4C0E0C0E074C8C0E07442C0E089828A838BF0EC1242C9A93B
:203E020082AA83ABF0FCE58124FCF58189828A838BF0EC124A73AB82AC83D005D006D00732
:203E2200908045EDF0EFA3F0908047E4F0A3F0908049EBF0ECA3F090804BE4F090804C14BC
:203E4200F090804D7480F08E82C00612069CD006907F0175F000EE12492BA3E412492BF5E4
:203E620082F5F0740E12492B8540828541838542F0E543C0061243CDAB82AC83ADF0FFE49E
:203E8200C0E0C0E074C8C0E07442C0E08B828C838DF0EF1242C9AB82AC83ADF0FFE5812487
:203EA200FCF5818B828C838DF0EF124A73AD82AF83D0068540828541838542F0E543C007CA
:203EC200C006C0051243FCA982AA83ABF0FCE4C0E0C0E074C8C0E07442C0E089828A838B1C
:203EE200F0EC1242C9A982AA83ABF0FCE58124FCF58189828A838BF0EC124A73AB82AC8332
:203F0200D005D006D007908045EDF0EFA3F0908047E4F0A3F0908049EBF0ECA3F090804B9D
:203F2200E4F090804C14F090804D7480F08E82C00612069CD006907F0175F000EE12492BC1
:203F4200A3E412492BF582F5F0740E12492B8532828533838534F0E535C0061243CDAB82A2
:203F6200AC83ADF0FFC048C049C04AC04B8B828C838DF0EF1242C9AB82AC83ADF0FFE5814B
:203F820024FCF5818B828C838DF0EF124A73AD82AF83D0068532828533838534F0E535C004
:203FA20007C006C0051243FCA982AA83ABF0FCC048C049C04AC04B89828A838BF0EC124234
:203FC200C9A982AA83ABF0FCE58124FCF58189828A838BF0EC124A73AB82AC83D005D006D6
:203FE200D007908045EDF0EFA3F0908047E51CF0E51DA3F0908049EBF0ECA3F090804BE465
:20400200F090804C14F090804DF08E82C00612069C853C82853D83853EF0E53F1243CDAB4B
:2040220082AC83ADF0FFC048C049C04AC04B8B828C838DF0EF1242C9AB82AC83ADF0FFE589
:204042008124FCF5818B828C838DF0EF124A73AD82AF83D006853C82853D83853EF0E53F5A
:20406200C007C006C0051243FCA982AA83ABF0FCC048C049C04AC04B89828A838BF0EC12F5
:2040820042C9A982AA83ABF0FCE58124FCF58189828A838BF0EC124A73AB82AC83D005D0D9
:2040A20006D007908045EDF0EFA3F0908047E51CF0E51DA3F0908049EBF0ECA3F090804B82
:2040C200E4F090804C14F090804DF08E82C00612069C853882853983853AF0E53B1243CD62
:2040E200AB82AC83ADF0FFE4C0E0C0E074C8C0E07442C0E08B828C838DF0EF1242C9AB829E
:20410200AC83ADF0FFE58124FCF5818B828C838DF0EF124A73AD82AF83D00685388285394B
:2041220083853AF0E53BC007C006C0051243FCA982AA83ABF0FCE4C0E0C0E074C8C0E07425
:2041420042C0E089828A838BF0EC1242C9A982AA83ABF0FCE58124FCF58189828A838BF061
:20416200EC124A73AB82AC83D005D006D007908045EDF0EFA3F0908047E4F0A3F0908049D9
:20418200EBF0ECA3F090804BE4F090804C14F090804D7480F08E82C00612069CD006907F84
:2041A2000175F000EE12492BA3E412492BF582F5F0740E12492B8540828541838542F0E586
:2041C20043C0061243CDAB82AC83ADF0FFE4C0E0C0E074C8C0E07442C0E08B828C838DF0CB
:2041E200EF1242C9AB82AC83ADF0FFE58124FCF5818B828C838DF0EF124A73AD82AF83D035
:20420200068540828541838542F0E543C007C006C0051243FCA982AA83ABF0FCE4C0E0C051
:20422200E074C8C0E07442C0E089828A838BF0EC1242C9A982AA83ABF0FCE58124FCF581E3
:2042420089828A838BF0EC124A73AB82AC83D005D006D007908045EDF0EFA3F0908047E441
:20426200F0A3F0908049EBF0ECA3F090804BE4F090804C14F090804D7480F08E82C006124E
:20428200069CD006907F0175F000EE12492BA3E412492BF582F5F0740E12492B9080BEE597
:2042A20036F0E537A3F09080BEE0FDA3E0FFC3ED9468EF648094815003021C3F907F007532
:0742C200F00074FD02492B1E
:2042C90012436CBC0003024AD5EF60FA30D502B2D1E583B4FF03024AEBE582B4FF03024AA3
:2042E900EB258340072482400B024AD52483145003024AEBF582EA8DF0A4A8F0EA8EF0A45E
:2043090028F8E435F0F9EB8DF0A428E935F0F9E433CA8FF0A429F9EA35F0FAEBF88EF0A403
:2043290029F9EA35F0FAE433FBEC8DF0A429F9EA35F0FAE43BFBE88FF0A42AFAEB35F0FBAB
:20434900E433CCFD8EF0A42AFAEB35F0FBE43CFCED8FF0A42BFBEC35F0FC20E70312439ACB
:03436900024AB451
:20436C00AA82AB83A2F73392D1F5826002D2F7ACF0E58124F9F8E6FD08E6FE0886F008E6B4
:0E438C00A2F73392D5F5836002D2F7AFF0228C
:06003500E478FFF6D8FD9F
:20439A007804EC7011E58224F8500AF582E4C9CACBFCD8EF22EC7820058220E713D5820122
:1343BA0022C3E933F9EA33FAEB33FBEC33FCD8EA15822230
:2043CD00AC82AD83AEF0FF8CF0ED42F0EE42F0EF547F45F0700990000075F080743F2290D0
:0F43ED0080C07401F08C828D838EF0EF02442823
:200013007900E94400601B7A00904C2578D575A080E493F2A308B8000205A0D9F4DAF275CE
:02003300A0FF2C
:2043FC00AC82AD83AEF0FF8CF0ED42F0EE42F0EF547F45F07007900000E4F5F0229080C032
:0C441C00E4F08C828D838EF0EF024428C7
:20442800AF82AE83ADF0FC9080C1EFF0EEA3F0EDA3F0ECA3F09080C0E0FFE0605D9080C12C
:20444800E0FBA3E0FCA3E0FDA3E08B828C838DF0C0071249CFAB82AC83ADF0FE74DBC0E087
:20446800740FC0E074C9C0E0743FC0E08B828C838DF0EE124976AB82AC83ADF0FEE5812408
:20448800FCF581D0079080C5EBF0ECA3F0EDA3F0EEA3F09080D1E4F0806B9080C1E0FBA3AC
:2044A800E0FCA3E0FDA3E0FEC007C006C005C004C003E4C0E0C0E0C0E0C0E08B828C838D31
:2044C800F0EE124946AA82E58124FCF581D003D004D005D006D007EA60189080C5EBF0EC06
:2044E800A3F0EDA3F0EEB2E7A3F09080D17401F080139080C5EBF0ECA3F0EDA3F0EEA3F07E
:204508009080D1E4F09080C5E0FBA3E0FCA3E0FDA3E0FEC007C006C005C004C003C003C052
:2045280004C005C006900C0075F0497446124946AA82E58124FCF581D003D004D005D006C5
:20454800D007EA600F9080D37422F0E4A3F0900000F5F022C007C003C004C005C00690F94A
:204568008375F0A2743E1242C9AB82AC83ADF0FEE58124FCF581E4C0E0C0E0C0E0743FC0B0
:20458800E08B828C838DF0EE124976AB82AC83ADF0FEE58124FCF5818B828C838DF0EE124F
:2045A8004A73AD82AE83D007ED30E00A9080D1E0B40100E433F08D828E83C007124AA7ABE6
:2045C80082AC83ADF0FED0079080CDEBF0ECA3F0EDA3F0EEA3F0EF6030E4C0E0C0E0C0E035
:2045E800743FC0E08B828C838DF0EE124B66AC82AD83AEF0FFE58124FCF5819080CDECF066
:20460800EDA3F0EEA3F0EFA3F09080C1E0FCA3E0FDA3E0FEA3E08C828D838EF01249CFAC6C
:2046280082AD83AEF0FFC007C006C005C004124A73124AA7A882A983AAF0FBD004D005D0D7
:2046480006D007C003C002C001C000C000C001C002C0038C828D838EF0EF124B66858250C4
:2046680085835185F052F553E58124FCF5819080CDE0F554A3E0F555A3E0F556A3E0F5575E
:20468800C054C055C056C05790000075F04974401242C9AC82AD83AEF0FFE58124FCF581B6
:2046A800D000D001D002D003C004C005C006C007888289838AF0EB124B66AC82AD83AEF05C
:2046C800FFE58124FCF581C050C051C052C0538C828D838EF0EF124976AC82AD83AEF0FF3A
:2046E800E58124FCF581C007C006C005C004C054C055C056C05790AA2275F07D743A12420A
:20470800C9A882A983AAF0FBE58124FCF581D004D005D006D007C000C001C002C0038C8277
:204728008D838EF0EF124B66AC82AD83AEF0FFE58124FCF5819080C9ECF0EDA3F0EEA3F084
:20474800EFA3F0C007C006C005C004C004C005C006C0078C828D838EF0EF1242C9858254A0
:2047680085835585F056F557E58124FCF581C054C055C056C05790FFF375F07F7433124903
:2047880046AB82E58124FCF581D004D005D006D007EB70030248FDC007C006C005C004C0D1
:2047A80054C055C056C057909C5B75F02E74361242C9A882A983AAF0FBE58124FCF581741F
:2047C80022C0E074B2C0E0744FC0E074B9C0E0888289838AF0EB124976A882A983AAF0FBE2
:2047E800E58124FCF581C054C055C056C057888289838AF0EB1242C9A882A983AAF0FBE5F7
:204808008124FCF581743EC0E07487C0E07408C0E0743CC0E0888289838AF0EB124976A82C
:2048280082A983AAF0FBE58124FCF581C054C055C056C057888289838AF0EB1242C9A88219
:20484800A983AAF0FBE58124FCF58174A4C0E074AAC0E0742AC0E074BEC0E0888289838A6D
:20486800F0EB124976A882A983AAF0FBE58124FCF581C054C055C056C057888289838AF0B7
:20488800EB1242C9A882A983AAF0FBE58124FCF581D004D005D006D007C007C006C005C0B9
:2048A80004C000C001C002C0038C828D838EF0EF1242C9A882A983AAF0FBE58124FCF58157
:2048C800D004D005D006D007C000C001C002C0038C828D838EF0EF124976AC82AD83AEF01C
:2048E800FFE58124FCF5819080C9ECF0EDA3F0EEA3F0EFA3F09080D1E060129080C9E0FC95
:20490800A3E0FDA3E0FEA3E0B2E7FF800E9080C9E0FCA3E0FDA3E0FEA3E0FF8C828D838E01
:03492800F0EF228B
:1B492B0020F71130F6138883A88220F509F6A8837583002280FEF280F5F0228B
:20494600FFA8811818124A48D2D133E6400730E70B7582002220E70675820122C2D1124A01
:104966002AE97003F5822220D101B3E433F58222CD
:2049760012436C7900E583B58202800D5003124B03E583C39582124B71E5D0C465D020E147
:2049960017EA2DFAEB3EFBEC3FFC50097401124B71EC4480FC024AB4C3EA9DFAEB9EFBEC92
:1949B6009FFC500FC3E499F9E49AFAE49BFBE49CFCB2D112439A024AB4D5
:20003B007800E84400600A790075A080E4F309D8FC78D5E84400600C7901908000E4F0A3EF
:04005B00D8FCD9FAFA
:2049CF00C058858158AC82AD83AEF0FFE5812404F581E55804F8A60408A60508A60608A65B
:2049EF0007A95809870409870509870609870719191953077FA70409A70509A70609A70759
:1B4A0F00A9580987040987050987060987078C828D838EF0EF855881D0582202
:204A2A007901AA82E68F82B5821318E6B5F00E18E6B5830918E68A82B58202790022B48083
:204A4A000FE5F0700AE5837006E58270027F00EFB6801518B6001018B6000B18B6000608EB
:094A6A0008087600220808082261
:204A7300124BB4700AE582458345F0700122E430D112F4700BE5F0F47006E58330E701225A
:144A930090800022700AE5F07006E58320E70122907FFF2256
:0D4AA700AC83AB827A007900748E024B4222
:204AB400B98003EA13B34010EA2401FAE43BFBE43CFC50047C800582BC000EBB000BBA0046
:204AD40008E4F5F0F583F58222A2D1E582138CF092F78B838A8222E4F583F58275F080F406
:0F4AF400A2D11322E4F583F58275F0C0747F22FE
:1A4B0300E582C583F582A2D133A2D592D11392D5ECCFFCEBCEFBEACDFA223A
:0D00060075815B124C21E58260030200034E
:1C4B1D0020F71430F6148883A88220F507E6A88375830022E280F7E49322E022A7
:204B3900FCABF0AA83A982749EF582C2D1EC30E716D2D1E9F42401F9EAF43400FAEBF4347B
:0D4B590000FBECF43400FC12439A024AB455
:0B4B6600A8811818C6B2E7C602497605
:204B71006040F82582500274FFF582E824F8501ECCCBCAF9E4CC24F85014CBCAF9E4CB244C
:204B9100F8500BCAF9E4CA24F8500379002224086010F8C3EC13FCEB13FBEA13FAE913F9FF
:034BB100D8F12216
:204BB400124C0FC3749E958240397900124B7130D126E9F42401F582EAF43400F583EBF4BF
:204BD4003400F5F0ECF43400700AE582458345F0700122E430E70F22EC20E71489828A83D8
:1B4BF4008BF02230D10AE4F582F583F5F074802274FFF582F583F5F0747F22D4
:124C0F00AA82AB83A2F73392D1F5826002D2F7ACF022AA
:044C21007582002276
:00000001FF
