:03000000020006F5
:03005F0002000399
:03000300020F9455
:20006200907F0075F00074F7121770907F08E0F58222E582908000F0E0FF907F0175F000BB
:20008200EF121770158274FC121770907F08E0FCA3E0FDA3E0FEA3E08C828D838EF0229071
:2000A2007F0075F00074FA021770AFF0AE83E582908001F0EEA3F0EFA3F0907F0175F000B3
:2000C200740B121770908001E0FDA3E0FEA3E0FF7C00EC2DF9E43EFA8F0389828A838BF046
:2000E2001217ABFB6013907F08EBF0907F0075F00074FB1217700C80D922E582908004F05C
:20010200E0907F08F0907F01E4F5F01217701582F5F074FB021770E582908005F0E0907FB5
:2001220008F0907F0175F0007401121770158274FB021770E582908006F0E0907F08F090CF
:200142007F0175F0007402121770158274FB021770E582908007F0E0907F08F0907F017540
:20016200F0007403121770158274FB021770AF83E582908008F0EFA3F0908008E0FEA3E052
:20018200FF907F08EEF0EFA3F0907F0175F00074041217701582F4021770AF83E5829080A4
:2001A2000AF0EFA3F090800AE0FEA3E0FF907F08EEF0EFA3F0907F0175F000740512177049
:2001C200158274FB021770AF83E58290800CF0EFA3F090800CE0FEA3E0FF907F08EEF0EF07
:2001E200A3F0907F0175F0007406121770158274FB021770AF83E58290800EF0EFA3F0909A
:20020200800EE0FEA3E0FF907F08EEF0EFA3F0907F0175F0007407121770158274FB0217CF
:2002220070AF82AE83ADF0FC908010EFF0EEA3F0EDA3F0ECA3F0908010E0FCA3E0FDA3E0D3
:20024200FEA3E0FF907F08ECF0EDA3F0EEA3F0EFA3F0907F0175F000740812177015827411
:20026200FB021770AF82AE83ADF0FC908014EFF0EEA3F0EDA3F0ECA3F0908014E0FCA3E0F7
:20028200FDA3E0FEA3E0FF907F08ECF0EDA3F0EEA3F0EFA3F0907F0175F00074091217705B
:2002A200158274FB021770AF82AE83ADF0FC908018EFF0EEA3F0EDA3F0ECA3F0908018E023
:2002C200FCA3E0FDA3E0FEA3E0FF907F08ECF0EDA3F0EEA3F0EFA3F0907F0175F000740A34
:2002E200121770158274FB021770AFF0AE83E58290801EF0EEA3F0EFA3F0907F0175F00007
:20030200740B121770158274F8121770907F08E0FEA3E0FF908021EEF0EFA3F090801CE013
:20032200FCA3E0FDC3EC9EED9F5008908021ECF0EDA3F090801EE0FDA3E0FEA3E0FF908063
:200342001EE0F5F0A3E045F06064908021E0FBA3E0FC79007A00C3E99BEA9C5034C003C0EA
:2003620004907F0075F00074F9121770E92DF511EA3EF5128F13907F08E0851182851283E7
:200382008513F012177009B900010AD004D00380C590801EE0FDA3E0FEA3E0FFEB2DFBEC74
:2003A2003EFC8F028B828C838AF0E4121770908021E0FEA3E08E82F58322907F01E4F5F048
:2003C2001217701582F5F074F8121770907F08E0F58222907F0175F0007401121770158257
:2003E20074F8121770907F08E0F58222907F0175F0007402121770158274F8121770907F37
:2004020008E0F58222907F0175F0007403121770158274F8121770907F08E0F58222907F99
:200422000175F0007404121770158274F8121770907F08E0FEA3E08E82F58322907F017500
:20044200F0007405121770158274F8121770907F08E0FEA3E08E82F58322907F0175F00065
:200462007406121770158274F8121770907F08E0FEA3E08E82F58322907F0175F0007407B9
:200482001217701582F4121770907F08E0FEA3E08E82F58322907F0175F0007408121770F1
:2004A200158274F8121770907F08E0FCA3E0FDA3E0FEA3E08C828D838EF022907F0175F0F4
:2004C200007409121770158274F8121770907F08E0FCA3E0FDA3E0FEA3E08C828D838EF055
:2004E20022907F0175F000740A121770158274F8121770907F08E0FCA3E0FDA3E0FEA3E039
:200502008C828D838EF022E582908029F0908023E0907F10F0908024E0907F18F090802509
:20052200E0907F20F0908029E0FF907F0175F000EF121770A3E4121770908026E0907F035D
:20054200121770908027E0907F04121770908028E0907F05121770907F00740D021770E57A
:2005620082908030F090802AE0907F10F090802BE0907F18F090802CE0907F20F0908030F1
:20058200E0FF907F0175F000EF121770A3740112177090802DE0907F0312177090802EE0E6
:2005A200907F0412177090802FE0907F05121770907F00740D021770E58290803AF09080F7
:2005C20031E0FEA3E0FF907F10EEF0EFA3F0908033E0FEA3E0FF907F18EEF0EFA3F09080CF
:2005E20035E0FEA3E0FF907F20EEF0EFA3F090803AE0FF907F0175F000EF121770A3740494
:20060200121770908037E0907F03121770908038E0907F04121770908039E0907F05121733
:2006220070907F00740D021770E582908044F090803BE0FEA3E0FF907F10EEF0EFA3F090CA
:20064200803DE0FEA3E0FF907F18EEF0EFA3F090803FE0FEA3E0FF907F20EEF0EFA3F09026
:200662008044E0FF907F0175F000EF121770A37405121770908041E0907F03121770908037
:2006820042E0907F04121770908043E0907F05121770907F00740D021770E58290804EF0DC
:2006A200908045E0FEA3E0FF907F10EEF0EFA3F0908047E0FEA3E0FF907F18EEF0EFA3F0C6
:2006C200908049E0FEA3E0FF907F20EEF0EFA3F090804EE0FF907F0175F000EF121770A3F3
:2006E200740612177090804BE0907F0312177090804CE0907F0412177090804DE0907F05C6
:20070200121770907F00740D021770E582908058F090804FE0FEA3E0FF907F10EEF0EFA318
:20072200F0908051E0FEA3E0FF907F18EEF0EFA3F0908053E0FEA3E0FF907F20EEF0EFA31D
:20074200F0908058E0FF907F0175F000EF121770A37407121770908055E0907F03121770BC
:20076200908056E0907F04121770908057E0907F05121770907F00740D021770E582908001
:2007820068F0908059E0FCA3E0FDA3E0FEA3E0FF907F10ECF0EDA3F0EEA3F0EFA3F09080A9
:2007A2005DE0FCA3E0FDA3E0FEA3E0FF907F18ECF0EDA3F0EEA3F0EFA3F0908061E0FCA305
:2007C200E0FDA3E0FEA3E0FF907F20ECF0EDA3F0EEA3F0EFA3F0908068E0FF907F0175F0DD
:2007E20000EF121770A37408121770908065E0907F03121770908066E0907F041217709025
:200802008067E0907F05121770907F00740D021770E582908078F0908069E0FCA3E0FDA3F2
:20082200E0FEA3E0FF907F10ECF0EDA3F0EEA3F0EFA3F090806DE0FCA3E0FDA3E0FEA3E0FB
:20084200FF907F18ECF0EDA3F0EEA3F0EFA3F0908071E0FCA3E0FDA3E0FEA3E0FF907F2002
:20086200ECF0EDA3F0EEA3F0EFA3F0908078E0FF907F0175F000EF121770A37409121770FA
:20088200908075E0907F03121770908076E0907F04121770908077E0907F05121770907F11
:2008A20000740D021770E582908088F0908079E0FCA3E0FDA3E0FEA3E0FF907F10ECF0ED6D
:2008C200A3F0EEA3F0EFA3F090807DE0FCA3E0FDA3E0FEA3E0FF907F18ECF0EDA3F0EEA380
:2008E200F0EFA3F0908081E0FCA3E0FDA3E0FEA3E0FF907F20ECF0EDA3F0EEA3F0EFA3F006
:20090200908088E0FF907F0175F000EF121770A3740A121770908085E0907F0312177090F7
:200922008086E0907F04121770908087E0907F05121770907F00740D021770E582908090DF
:20094200F0E0FF907F0175F000EF121770908089E0907F0212177090808AE0907F031217F1
:200962007090808BE0907F0412177090808CE0907F0512177090808DE0907F0612177090FA
:20098200808EE0907F0712177090808FE0907F08121770907F00740F021770E58290809463
:2009A200F0908091E0907F10F0908092E0907F18F0908093E0907F20F0908094E0FF907FE8
:2009C2000175F000EF121770A3E4121770F582F5F07410021770E582908098F0908095E01A
:2009E200907F10F0908096E0907F18F0908097E0907F20F0908098E0FF907F0175F000EFB8
:200A0200121770A37401121770907F00C4021770E58290809FF0908099E0FEA3E0FF907F10
:200A220010EEF0EFA3F090809BE0FEA3E0FF907F18EEF0EFA3F090809DE0FEA3E0FF907F96
:200A420020EEF0EFA3F090809FE0FF907F0175F000EF121770A37404121770907F00741042
:200A6200021770E5829080A6F09080A0E0FEA3E0FF907F10EEF0EFA3F09080A2E0FEA3E03C
:200A8200FF907F18EEF0EFA3F09080A4E0FEA3E0FF907F20EEF0EFA3F09080A6E0FF907F87
:200AA2000175F000EF121770A37405121770907F007410021770E5829080ADF09080A7E0CA
:200AC200FEA3E0FF907F10EEF0EFA3F09080A9E0FEA3E0FF907F18EEF0EFA3F09080ABE0DA
:200AE200FEA3E0FF907F20EEF0EFA3F09080ADE0FF907F0175F000EF121770A37406121706
:200B020070907F007410021770E5829080B4F09080AEE0FEA3E0FF907F10EEF0EFA3F090FF
:200B220080B0E0FEA3E0FF907F18EEF0EFA3F09080B2E0FEA3E0FF907F20EEF0EFA3F0905B
:200B420080B4E0FF907F0175F000EF121770A37407121770907F007410021770E582908039
:200B6200C1F09080B5E0FCA3E0FDA3E0FEA3E0FF907F10ECF0EDA3F0EEA3F0EFA3F0908010
:200B8200B9E0FCA3E0FDA3E0FEA3E0FF907F18ECF0EDA3F0EEA3F0EFA3F09080BDE0FCA369
:200BA200E0FDA3E0FEA3E0FF907F20ECF0EDA3F0EEA3F0EFA3F09080C1E0FF907F0175F0A0
:200BC20000EF121770A37408121770907F0023021770E5829080CEF09080C2E0FCA3E0FDB5
:200BE200A3E0FEA3E0FF907F10ECF0EDA3F0EEA3F0EFA3F09080C6E0FCA3E0FDA3E0FEA31C
:200C0200E0FF907F18ECF0EDA3F0EEA3F0EFA3F09080CAE0FCA3E0FDA3E0FEA3E0FF907F25
:200C220020ECF0EDA3F0EEA3F0EFA3F09080CEE0FF907F0175F000EF121770A37409121730
:200C420070907F007410021770E5829080DBF09080CFE0FCA3E0FDA3E0FEA3E0FF907F1067
:200C6200ECF0EDA3F0EEA3F0EFA3F09080D3E0FCA3E0FDA3E0FEA3E0FF907F18ECF0EDA33E
:200C8200F0EEA3F0EFA3F09080D7E0FCA3E0FDA3E0FEA3E0FF907F20ECF0EDA3F0EEA3F00D
:200CA200EFA3F09080DBE0FF907F0175F000EF121770A3740A121770907F00741002177013
:200CC200E5829080DDF09080DCE0FF9080DDE0FE907F0175F000EE121770A3E4121770908C
:200CE2007F08EFF0907F007411021770E5829080DFF09080DEE0FF9080DFE0FE907F01750A
:200D0200F000EE121770A37401121770907F08EFF0907F007411021770E5829080E1F090BE
:200D220080E0E0FF9080E1E0FE907F0175F000EE121770A37402121770907F08EFF0907FF0
:200D4200007411021770E5829080E3F09080E2E0FF9080E3E0FE907F0175F000EE1217709B
:200D6200A37403121770907F08EFF0907F007411021770E5829080E6F09080E4E0FEA3E009
:200D8200FF9080E6E0FD907F0175F000ED121770A37404121770907F08EEF0EFA3F0907F4A
:200DA200007411021770E5829080E9F09080E7E0FEA3E0FF9080E9E0FD907F0175F000ED44
:200DC200121770A37405121770907F08EEF0EFA3F0907F007411021770E5829080ECF0904C
:200DE20080EAE0FEA3E0FF9080ECE0FD907F0175F000ED121770A37406121770907F08EE98
:200E0200F0EFA3F0907F007411021770E5829080EFF09080EDE0FEA3E0FF9080EFE0FD9022
:200E22007F0175F000ED121770A37407121770907F08EEF0EFA3F0907F007411021770E515
:200E4200829080F4F09080F0E0FCA3E0FDA3E0FEA3E0FF9080F4E0FB907F0175F000EB126A
:200E62001770A37408121770907F08ECF0EDA3F0EEA3F0EFA3F0907F007411021770E58237
:200E82009080F9F09080F5E0FCA3E0FDA3E0FEA3E0FF9080F9E0FB907F0175F000EB121786
:200EA20070A37409121770907F08ECF0EDA3F0EEA3F0EFA3F0907F007411021770E582907D
:200EC20080FEF09080FAE0FCA3E0FDA3E0FEA3E0FF9080FEE0FB907F0175F000EB12177057
:200EE200A3740A121770907F08ECF0EDA3F0EEA3F0EFA3F0907F007411021770E58290812B
:200F020002F09080FFE0FDA3E0FEA3E0FF9080FFE0F5F0A3E045F06018C007C006C0051286
:200F220000A1D005D006D0078D828E838FF01200AC908102E0FF907F0175F000EF12177040
:200F4200A3740B121770907F007411021770E582908108F0E0FF907F0175F000EF1217706B
:200F6200908103E0FEA3E0FF907F08EEF0EFA3F0908105E0FEA3E0FF907F10EEF0EFA3F08F
:200F8200908107E0907F02121770907F007412021770120062AF82907F0175F000EF12175D
:200FA200701582740A1217709080897401F090808AE4F090808BF090808CF090808D14F0ED
:200FC20090808EF090808FF08F82C00712093DD0077D007E00C3ED940AEE64809480400379
:200FE20002120DED2DFBEE33FCEB2BFBEC33FCEB24EEF50FEC34FFF510EB24F0F508EC342F
:20100200FFF509C3E49D74808EF063F08095F0E433F50EE4F50AF50BC3E50A940AE50B6422
:201022008094804003021205C003C004908172E50AF0E50BA3F0900006C007C006C005C0AA
:2010420004C00312178B85820C85830DD003D004D005D006D007E50C24E8FBE50D34FFFCA9
:20106200908103EBF0ECA3F0908105E50FF0E510A3F0908107E4F08F82C007C006C005C06F
:2010820004C003120F50D003D004D005D006D0079080FF74CBF07417A3F07480A3F08F82F9
:2010A200C007C006C005C004C003120EFED003D004D005D006D007E50C24E4FBE50D34FFF5
:2010C200FC908103EBF0ECA3F0AB08AC09908105EBF0ECA3F0908107E4F08F82C007C00642
:2010E200C005C004C003120F50D003D004D005D006D0079080FF74CFF07417A3F07480A311
:20110200F08F82C007C006C005C004C003120EFED003D004D005D006D007E50C24E6F8E5D4
:201122000D34FFFA908103E8F0EAA3F0908105EBF0ECA3F0908107E4F08F82C007C006C050
:2011420005C004C003120F50D003D004D005D006D0079080FF74CFF07417A3F07480A3F080
:201162008F82C007C006C005C004C003120EFED003D004D005D006D007D004D003E50E6042
:2011820077C3E4950A7480850BF063F08095F05067E50C24E2F9E50D34FFFA908103E9F011
:2011A200EAA3F0EB24ECF9EC34FFFA908105E9F0EAA3F0908107E4F08F82C007C006C005E8
:2011C200C004C003120F50D003D004D005D006D0079080FF74D3F07417A3F07480A3F08F72
:2011E20082C007C006C005C004C003120EFED003D004D005D006D007050AE4B50A02050B87
:2012020002101A0DBD00010E020FD77D007E00C3ED940AEE64809480400302134E90817287
:20122200EDF0EEA3F0900006C007C006C00512178BAB82AC83D005D006D007EB24E4F9ECFC
:2012420034FFFA908103E9F0EAA3F090810574ECF074FFA3F0908107E4F08F82C007C006FF
:20126200C005C004C003120F50D003D004D005D006D0079080FF74CFF07417A3F07480A38F
:20128200F08F82C007C006C005C004C003120EFED003D004D005D006D007EB24E6FBEC341B
:2012A200FFFC908103EBF0ECA3F090810574ECF074FFA3F0908107E4F08F82C007C006C00D
:2012C20005120F50D005D006D0079080FF74CFF07417A3F07480A3F08F82C007C006C005CA
:2012E200120EFED005D006D007ED2DFBEE33FCEB2BFBEC33FCEB24EEFBEC34FFFC908103C7
:2013020074E2F074FFA3F0908105EBF0ECA3F0908107E4F08F82C007C006C005120F50D07F
:2013220005D006D0079080FF74CBF07417A3F07480A3F08F82C007C006C005120EFED005C0
:20134200D006D0070DBD00010E0212117D007E00C3ED9409EE6480948040030214DC90816C
:2013620072EDF0EEA3F0900006C007C006C00512178BE5828583F0D005D006D00724E8FB17
:20138200E5F034FFFC908103EBF0ECA3F090810574ECF074FFA3F0908107E4F08F82C007A9
:2013A200C006C005C004C003120F50D003D004D005D006D0079080FF74D7F07417A3F074A3
:2013C20080A3F08F82C007C006C005C004C003120EFED003D004D005D006D007908103EBC8
:2013E200F0ECA3F09081057414F0E4A3F0908107F08F82C007C006C005120F50D005D006F0
:20140200D0079080FF74DBF07417A3F07480A3F08F82C007C006C005120EFED005D006D004
:2014220007ED2DFBEE33FCEB2BFBEC33FCEB24F0FBEC34FFFC90810374E2F074FFA3F09040
:201442008105EBF0ECA3F0908107E4F08F82C007C006C005C004C003120F50D003D004D0EC
:2014620005D006D0079080FF74DFF07417A3F07480A3F08F82C007C006C005C004C00312C5
:201482000EFED003D004D005D006D007908103741EF0E4A3F0908105EBF0ECA3F090810780
:2014A200E4F08F82C007C006C005120F50D005D006D0079080FF74E3F07417A3F07480A3F5
:2014C200F08F82C007C006C005120EFED005D006D0070DBD00010E021352908103741EF041
:2014E200E4A3F090810574ECF074FFA3F0908107E4F08F82C007120F50D0079080FF74E791
:20150200F07417A3F07480A3F08F82C007120EFED007908103741EF0E4A3F09081057414BC
:20152200F0E4A3F0908107F08F82C007120F50D0079080FF74EBF07417A3F07480A3F08F88
:2015420082C007120EFED00790810374E2F074FFA3F090810574ECF074FFA3F0908107E483
:20156200F08F82C007120F50D0079080FF74EFF07417A3F07480A3F08F82C007120EFED08C
:201582000790810374E2F074FFA3F09081057414F0E4A3F0908107F08F82C007120F50D0BC
:2015A200079080FF74F3F07417A3F07480A3F08F82C007120EFED00790810AE4F07D02FEDE
:2015C200C374649D74808EF063F08095F04014ED2409F582EE3481F5837401F00DBD00E0F8
:2015E2000E80DD7D027E00C3740A9D74808EF063F08095F04048ED2DFBEE33FC90816FEBB4
:20160200F0ECA3F08D038E0490816FE0F9A3E0FAC374649974808AF063F08095F04018E926
:201622002409F582EA3481F583E4F090816FEB29F0EC3AA3F080D10DBD00AC0E80A99081CD
:201642000374E5F074FFA3F090810574EEF074FFA3F0908107E4F08F82C007120F50D007BC
:201662007D007E00C3ED940AEE648094804003021765908172EDF0EEA3F090000AC007C076
:2016820006C00512178BAB82AC83D005D006D00779007A00C3E9940AEA6480948040030287
:2016A2001734C005C006E92BF8EA3CFE740128F50FE43EF510E50F2409FDE5103481FE8D07
:2016C200828E83E0D006D005602B9080EAE50FF0E510A3F08F82C007C006C005C004C0030F
:2016E200C002C001120DDBD001D002D003D004D005D006D0079081037406F0E4A3F0908199
:2017020005F0A3F090810704F08F82C007C006C005C004C003C002C001120F50D001D002B2
:20172200D003D004D005D006D00709B900010A02169690810374C4F074FFA3F09081057437
:2017420004F0E4A3F090810704F08F82C007C006C005120F50D005D006D0070DBD00010EE1
:0E176200021666907F0075F00074FD0217708D
:2017CB00E2948200E2948000E294BC00E294AC00E294B400E2949C00E294A400E294900060
:0C17EB00E2949800E2948C00E2949400D8
:06003500E478FFF6D8FD9F
:200013007900E94400601B7A009017F7787475A081E493F2A308B8000205A0D9F4DAF27591
:02003300A0FF2C
:1B17700020F71130F6138883A88220F509F6A8837583002280FEF280F5F02278
:20178B00AA83AB828BF0908172E0A4F8A9F08AF0E0A429F98BF0A3E0A429F5838882222220
:20003B007800E84400600A790075A080E4F309D8FC7874E84401600C7902908000E4F0A34E
:04005B00D8FCD9FAFA
:0D0006007581131217C7E582600302000325
:1C17AB0020F71430F6148883A88220F507E6A88375830022E280F7E49322E0224D
:0417C7007582002205
:00000001FF
