:03000000020006F5
:03005F0002000399
:03000300021CDFFD
:20006200907F0075F00074F7126A80907F08E0F58222E582908000F0E0FF907F0175F00058
:20008200EF126A80158274FC126A80907F08E0FCA3E0FDA3E0FEA3E08C828D838EF02290AB
:2000A2007F0075F00074FA026A80AFF0AE83E582908001F0EEA3F0EFA3F0907F0175F00050
:2000C200740B126A80908001E0FDA3E0FEA3E0FF7C00EC2DF9E43EFA8F0389828A838BF0E3
:2000E200126D25FB6013907F08EBF0907F0075F00074FB126A800C80D922E582908004F029
:20010200E0907F08F0907F01E4F5F0126A801582F5F074FB026A80E582908005F0E0907FEF
:2001220008F0907F0175F0007401126A80158274FB026A80E582908006F0E0907F08F09009
:200142007F0175F0007402126A80158274FB026A80E582908007F0E0907F08F0907F01757A
:20016200F0007403126A80158274FB026A80AF83E582908008F0EFA3F0908008E0FEA3E08C
:20018200FF907F08EEF0EFA3F0907F0175F0007404126A801582F4026A80AF83E5829080DE
:2001A2000AF0EFA3F090800AE0FEA3E0FF907F08EEF0EFA3F0907F0175F0007405126A80E6
:2001C200158274FB026A80AF83E58290800CF0EFA3F090800CE0FEA3E0FF907F08EEF0EFA4
:2001E200A3F0907F0175F0007406126A80158274FB026A80AF83E58290800EF0EFA3F090D4
:20020200800EE0FEA3E0FF907F08EEF0EFA3F0907F0175F0007407126A80158274FB026A19
:2002220080AF82AE83ADF0FC908010EFF0EEA3F0EDA3F0ECA3F0908010E0FCA3E0FDA3E0C3
:20024200FEA3E0FF907F08ECF0EDA3F0EEA3F0EFA3F0907F0175F0007408126A80158274AE
:20026200FB026A80AF82AE83ADF0FC908014EFF0EEA3F0EDA3F0ECA3F0908014E0FCA3E094
:20028200FDA3E0FEA3E0FF907F08ECF0EDA3F0EEA3F0EFA3F0907F0175F0007409126A80F8
:2002A200158274FB026A80AF82AE83ADF0FC908018EFF0EEA3F0EDA3F0ECA3F0908018E0C0
:2002C200FCA3E0FDA3E0FEA3E0FF907F08ECF0EDA3F0EEA3F0EFA3F0907F0175F000740A34
:2002E200126A80158274FB026A80AFF0AE83E58290801EF0EEA3F0EFA3F0907F0175F00041
:20030200740B126A80158274F8126A80907F08E0FEA3E0FF908021EEF0EFA3F090801CE04D
:20032200FCA3E0FDC3EC9EED9F5008908021ECF0EDA3F090801EE0FDA3E0FEA3E0FF908063
:200342001EE0F5F0A3E045F06064908021E0FBA3E0FC79007A00C3E99BEA9C5034C003C0EA
:2003620004907F0075F00074F9126A80E92DF50DEA3EF50E8F0F907F08E0850D82850E8398
:20038200850FF0126A8009B900010AD004D00380C590801EE0FDA3E0FEA3E0FFEB2DFBEC15
:2003A2003EFC8F028B828C838AF0E4126A80908021E0FEA3E08E82F58322907F01E4F5F0E5
:2003C200126A801582F5F074F8126A80907F08E0F58222907F0175F0007401126A8015822E
:2003E20074F8126A80907F08E0F58222907F0175F0007402126A80158274F8126A80907F0E
:2004020008E0F58222907F0175F0007403126A80158274F8126A80907F08E0F58222907FD3
:200422000175F0007404126A80158274F8126A80907F08E0FEA3E08E82F58322907F01753A
:20044200F0007405126A80158274F8126A80907F08E0FEA3E08E82F58322907F0175F0009F
:200462007406126A80158274F8126A80907F08E0FEA3E08E82F58322907F0175F0007407F3
:20048200126A801582F4126A80907F08E0FEA3E08E82F58322907F0175F0007408126A80C8
:2004A200158274F8126A80907F08E0FCA3E0FDA3E0FEA3E08C828D838EF022907F0175F091
:2004C200007409126A80158274F8126A80907F08E0FCA3E0FDA3E0FEA3E08C828D838EF08F
:2004E20022907F0175F000740A126A80158274F8126A80907F08E0FCA3E0FDA3E0FEA3E073
:200502008C828D838EF022E582908023F0E0FF907F0175F000EF126A8015827404026A8057
:20052200E582908026F0E0FF907F0175F000EF126A80908024E0907F02126A80908025E0B7
:20054200907F03126A80907F007405026A80E582908028F0E0FF907F0175F000EF126A8049
:20056200908027E0907F02126A80907F007406026A80E58290802CF090802BE0FF90802CF7
:20058200E0FE907F0175F000EE126A80908029E0907F02126A8090802AE0907F03126A80CE
:2005A200A3E4126A80907F08EFF0907F007407026A80E582908030F090802FE0FF90803055
:2005C200E0FE907F0175F000EE126A8090802DE0907F02126A8090802EE0907F03126A8086
:2005E200A37401126A80907F08EFF0907F007407026A80E582908034F0908033E0FF9080AC
:2006020034E0FE907F0175F000EE126A80908031E0907F02126A80908032E0907F03126A89
:2006220080A37402126A80907F08EFF0907F007407026A80E582908038F0908037E0FF9062
:200642008038E0FE907F0175F000EE126A80908035E0907F02126A80908036E0907F031227
:200662006A80A37403126A80907F08EFF0907F007407026A80E58290803DF090803BE0FE3F
:20068200A3E0FF90803DE0FD907F0175F000ED126A80908039E0907F02126A8090803AE0EE
:2006A200907F03126A80A37404126A80907F08EEF0EFA3F0907F007407026A80E5829080AF
:2006C20042F0908040E0FEA3E0FF908042E0FD907F0175F000ED126A8090803EE0907F026A
:2006E200126A8090803FE0907F03126A80A37405126A80907F08EEF0EFA3F0907F007407A6
:20070200026A80E582908047F0908045E0FEA3E0FF908047E0FD907F0175F000ED126A80F6
:20072200908043E0907F02126A80908044E0907F03126A80A37406126A80907F08EEF0EF38
:20074200A3F0907F007407026A80E58290804CF090804AE0FEA3E0FF90804CE0FD907F01D8
:2007620075F000ED126A80908048E0907F02126A80908049E0907F03126A80A37407126A03
:2007820080907F08EEF0EFA3F0907F007407026A80E582908053F090804FE0FCA3E0FDA3D2
:2007A200E0FEA3E0FF908053E0FB907F0175F000EB126A8090804DE0907F02126A809080E3
:2007C2004EE0907F03126A80A37408126A80907F08ECF0EDA3F0EEA3F0EFA3F0907F0074C7
:2007E20007026A80E58290805AF0908056E0FCA3E0FDA3E0FEA3E0FF90805AE0FB907F0129
:2008020075F000EB126A80908054E0907F02126A80908055E0907F03126A80A37409126A4A
:2008220080907F08ECF0EDA3F0EEA3F0EFA3F0907F007407026A80E582908061F090805D15
:20084200E0FCA3E0FDA3E0FEA3E0FF908061E0FB907F0175F000EB126A8090805BE0907F35
:2008620002126A8090805CE0907F03126A80A3740A126A80907F08ECF0EDA3F0EEA3F0EF1E
:20088200A3F0907F007407026A80E582908067F0908064E0FDA3E0FEA3E0FF908064E0F5E2
:2008A200F0A3E045F06018C007C006C0051200A1D005D006D0078D828E838FF01200AC90A2
:2008C2008067E0FF907F0175F000EF126A80908062E0907F02126A80908063E0907F03121A
:2008E2006A80A3740B126A80907F007407026A80E58290806AF0E0FF907F0175F000EF1252
:200902006A80908068E0907F02126A80908069E0907F03126A80A3E4126A80F582F5F074CC
:2009220008126A80907F08E0F58222E58290806DF0E0FF907F0175F000EF126A8090806B93
:20094200E0907F02126A8090806CE0907F03126A80A37401126A80907F007408126A809013
:200962007F08E0F58222E582908070F0E0FF907F0175F000EF126A8090806EE0907F0212DE
:200982006A8090806FE0907F03126A80A37402126A80907F007408126A80907F08E0F582F4
:2009A20022E582908073F0E0FF907F0175F000EF126A80908071E0907F02126A809080720A
:2009C200E0907F03126A80A37403126A80907F007408126A80907F08E0F58222E582908083
:2009E20076F0E0FF907F0175F000EF126A80908074E0907F02126A80908075E0907F031256
:200A02006A80A37404126A80907F0023126A80907F08E0FEA3E08E82F58322E58290807993
:200A2200F0E0FF907F0175F000EF126A80908077E0907F02126A80908078E0907F03126A1B
:200A420080A37405126A80907F007408126A80907F08E0FEA3E08E82F58322E58290807C60
:200A6200F0E0FF907F0175F000EF126A8090807AE0907F02126A8090807BE0907F03126AD5
:200A820080A37406126A80907F007408126A80907F08E0FEA3E08E82F58322E58290807F1C
:200AA200F0E0FF907F0175F000EF126A8090807DE0907F02126A8090807EE0907F03126A8F
:200AC20080A37407126A80907F0004126A80907F08E0FEA3E08E82F58322E582908082F060
:200AE200E0FF907F0175F000EF126A80908080E0907F02126A80908081E0907F03126A80B9
:200B0200A37408126A80907F00126A80907F08E0FCA3E0FDA3E0FEA3E08C828D838EF02278
:200B2200E582908085F0E0FF907F0175F000EF126A80908083E0907F02126A80908084E094
:200B4200907F03126A80A37409126A80907F0014126A80907F08E0FCA3E0FDA3E0FEA3E0D3
:200B62008C828D838EF022E582908088F0E0FF907F0175F000EF126A80908086E0907F0200
:200B8200126A80908087E0907F03126A80A3740A126A80907F007408126A80907F08E0FC3B
:200BA200A3E0FDA3E0FEA3E08C828D838EF022E582908090F0E0FF907F0175F000EF126A3B
:200BC20080908089E0907F02126A8090808AE0907F03126A80A3740B126A80907F007408DC
:200BE200126A8090808BE0FDA3E0FEA3E0FF90808EE0FBA3E0FC90801CEBF0ECA3F08D82EF
:200C02008E838FF00202ECE582908092F0E0FF907F0175F000EF126A80908091E0907F0288
:200C2200126A80907F007409026A80E582908099F0908093E0907F10F0908094E0907F1801
:200C4200F0908095E0907F20F0908099E0FF907F0175F000EF126A80A3E4126A80908096ED
:200C6200E0907F03126A80908097E0907F04126A80908098E0907F05126A80907F00740DC6
:200C8200026A80E5829080A0F090809AE0907F10F090809BE0907F18F090809CE0907F2069
:200CA200F09080A0E0FF907F0175F000EF126A80A37401126A8090809DE0907F03126A80A4
:200CC20090809EE0907F04126A8090809FE0907F05126A80907F00740D026A80E5829080E3
:200CE200AAF09080A1E0FEA3E0FF907F10EEF0EFA3F09080A3E0FEA3E0FF907F18EEF0EFC1
:200D0200A3F09080A5E0FEA3E0FF907F20EEF0EFA3F09080AAE0FF907F0175F000EF126A21
:200D220080A37404126A809080A7E0907F03126A809080A8E0907F04126A809080A9E090A5
:200D42007F05126A80907F00740D026A80E5829080B4F09080ABE0FEA3E0FF907F10EEF062
:200D6200EFA3F09080ADE0FEA3E0FF907F18EEF0EFA3F09080AFE0FEA3E0FF907F20EEF01F
:200D8200EFA3F09080B4E0FF907F0175F000EF126A80A37405126A809080B1E0907F0312EF
:200DA2006A809080B2E0907F04126A809080B3E0907F05126A80907F00740D026A80E58200
:200DC2009080BEF09080B5E0FEA3E0FF907F10EEF0EFA3F09080B7E0FEA3E0FF907F18EE73
:200DE200F0EFA3F09080B9E0FEA3E0FF907F20EEF0EFA3F09080BEE0FF907F0175F000EFB6
:200E0200126A80A37406126A809080BBE0907F03126A809080BCE0907F04126A809080BD7A
:200E2200E0907F05126A80907F00740D026A80E5829080C8F09080BFE0FEA3E0FF907F10C7
:200E4200EEF0EFA3F09080C1E0FEA3E0FF907F18EEF0EFA3F09080C3E0FEA3E0FF907F2016
:200E6200EEF0EFA3F09080C8E0FF907F0175F000EF126A80A37407126A809080C5E0907F1B
:200E820003126A809080C6E0907F04126A809080C7E0907F05126A80907F00740D026A8049
:200EA200E5829080D8F09080C9E0FCA3E0FDA3E0FEA3E0FF907F10ECF0EDA3F0EEA3F0EFCE
:200EC200A3F09080CDE0FCA3E0FDA3E0FEA3E0FF907F18ECF0EDA3F0EEA3F0EFA3F09080AB
:200EE200D1E0FCA3E0FDA3E0FEA3E0FF907F20ECF0EDA3F0EEA3F0EFA3F09080D8E0FF90DB
:200F02007F0175F000EF126A80A37408126A809080D5E0907F03126A809080D6E0907F0438
:200F2200126A809080D7E0907F05126A80907F00740D026A80E5829080E8F09080D9E0FC4C
:200F4200A3E0FDA3E0FEA3E0FF907F10ECF0EDA3F0EEA3F0EFA3F09080DDE0FCA3E0FDA3A2
:200F6200E0FEA3E0FF907F18ECF0EDA3F0EEA3F0EFA3F09080E1E0FCA3E0FDA3E0FEA3E038
:200F8200FF907F20ECF0EDA3F0EEA3F0EFA3F09080E8E0FF907F0175F000EF126A80A37474
:200FA20009126A809080E5E0907F03126A809080E6E0907F04126A809080E7E0907F051265
:200FC2006A80907F00740D026A80E5829080F8F09080E9E0FCA3E0FDA3E0FEA3E0FF907FE3
:200FE20010ECF0EDA3F0EEA3F0EFA3F09080EDE0FCA3E0FDA3E0FEA3E0FF907F18ECF0ED34
:20100200A3F0EEA3F0EFA3F09080F1E0FCA3E0FDA3E0FEA3E0FF907F20ECF0EDA3F0EEA3BC
:20102200F0EFA3F09080F8E0FF907F0175F000EF126A80A3740A126A809080F5E0907F03E1
:20104200126A809080F6E0907F04126A809080F7E0907F05126A80907F00740D026A80E545
:20106200829080FBF09080F9E0907F10F09080FAE0907F18F0907F01E4F5F0126A80908013
:20108200FBE0907F02126A80907F0074F6126A80907F08E0F58222E5829080FEF09080FCF0
:2010A200E0907F10F09080FDE0907F18F0907F0175F0007401126A809080FEE0907F021244
:2010C2006A80907F0074F6126A80907F08E0F58222E582908103F09080FFE0FEA3E0FF90B5
:2010E2007F10EEF0EFA3F0908101E0FEA3E0FF907F18EEF0EFA3F0907F0175F00074041207
:201102006A80908103E0907F02126A80907F0074F6126A80907F08E0FEA3E08E82F583224B
:20112200E582908108F0908104E0FEA3E0FF907F10EEF0EFA3F0908106E0FEA3E0FF907FC3
:2011420018EEF0EFA3F0907F0175F0007405126A80908108E0907F02126A80907F0074F6AC
:20116200126A80907F08E0FEA3E08E82F58322E58290810DF0908109E0FEA3E0FF907F1041
:20118200EEF0EFA3F090810BE0FEA3E0FF907F18EEF0EFA3F0907F0175F0007406126A80FF
:2011A20090810DE0907F02126A80907F0074F6126A80907F08E0FEA3E08E82F58322E58224
:2011C200908112F090810EE0FEA3E0FF907F10EEF0EFA3F0908110E0FEA3E0FF907F18EE66
:2011E200F0EFA3F0907F0175F0007407126A80908112E0907F02126A80907F0074F6126A8A
:2012020080907F08E0FEA3E08E82F58322E58290811BF0908113E0FCA3E0FDA3E0FEA3E023
:20122200FF907F10ECF0EDA3F0EEA3F0EFA3F0908117E0FCA3E0FDA3E0FEA3E0FF907F1881
:20124200ECF0EDA3F0EEA3F0EFA3F0907F0175F0007408126A8090811BE0907F02126A8027
:20126200907F0074F6126A80907F08E0FCA3E0FDA3E0FEA3E08C828D838EF022E58290814A
:2012820024F090811CE0FCA3E0FDA3E0FEA3E0FF907F10ECF0EDA3F0EEA3F0EFA3F090811D
:2012A20020E0FCA3E0FDA3E0FEA3E0FF907F18ECF0EDA3F0EEA3F0EFA3F0907F0175F000B2
:2012C2007409126A80908124E0907F02126A80907F0074F6126A80907F08E0FCA3E0FDA3E6
:2012E200E0FEA3E08C828D838EF022E58290812DF0908125E0FCA3E0FDA3E0FEA3E0FF9013
:201302007F10ECF0EDA3F0EEA3F0EFA3F0908129E0FCA3E0FDA3E0FEA3E0FF907F18ECF041
:20132200EDA3F0EEA3F0EFA3F0907F0175F000740A126A8090812DE0907F02126A80907FFF
:201342000074F6126A80907F08E0FCA3E0FDA3E0FEA3E08C828D838EF022E582908132F056
:2013620090812EE0FCA3E0FDA3E0FEA3E0FF907F10ECF0EDA3F0EEA3F0EFA3F0908132E02C
:20138200FF907F0175F000EF126A80A37401126A80907F007415126A80907F08E0F58222B4
:2013A200E582908137F0908133E0FCA3E0FDA3E0FEA3E0FF907F10ECF0EDA3F0EEA3F0EFFE
:2013C200A3F0908137E0FF907F0175F000EF126A80A37401126A80907F007415126A8090B9
:2013E2007F08E0F58222E58290813CF0908138E0FCA3E0FDA3E0FEA3E0FF907F10ECF0EDB7
:20140200A3F0EEA3F0EFA3F090813CE0FF907F0175F000EF126A80A37402126A80907F0084
:201422007415126A80907F08E0FEA3E08E82F58322E582908141F090813DE0FCA3E0FDA30D
:20144200E0FEA3E0FF907F10ECF0EDA3F0EEA3F0EFA3F0908141E0FF907F0175F000EF1205
:201462006A80A37402126A80907F007415126A80907F08E0FEA3E08E82F58322E58290813D
:2014820046F0908142E0FCA3E0FDA3E0FEA3E0FF907F10ECF0EDA3F0EEA3F0EFA3F09081D3
:2014A20046E0FF907F0175F000EF126A80A37402126A80907F007415126A80907F08E0FE07
:2014C200A3E08E82F58322E58290814BF0908147E0FCA3E0FDA3E0FEA3E0FF907F10ECF078
:2014E200EDA3F0EEA3F0EFA3F090814BE0FF907F0175F000EF126A80A37402126A80907FA8
:20150200007415126A80907F08E0FEA3E08E82F58322E582908150F090814CE0FCA3E0FDB1
:20152200A3E0FEA3E0FF907F10ECF0EDA3F0EEA3F0EFA3F0908150E0FF907F0175F000EF84
:20154200126A80A37404126A80907F007415126A80907F08E0FCA3E0FDA3E0FEA3E08C825D
:201562008D838EF022E582908155F0908151E0FCA3E0FDA3E0FEA3E0FF907F10ECF0EDA3B0
:20158200F0EEA3F0EFA3F0908155E0FF907F0175F000EF126A80A37404126A80907F007417
:2015A20015126A80907F08E0FCA3E0FDA3E0FEA3E08C828D838EF022E58290815AF0908110
:2015C20056E0FCA3E0FDA3E0FEA3E0FF907F10ECF0EDA3F0EEA3F0EFA3F090815AE0FF90FC
:2015E2007F0175F000EF126A80A37404126A80907F007415126A80907F08E0FCA3E0FDA358
:20160200E0FEA3E08C828D838EF022E582908160F090815FE0907F08F090815BE0FCA3E0BF
:20162200FDA3E0FEA3E0FF907F10ECF0EDA3F0EEA3F0EFA3F0908160E0FF907F0175F00065
:20164200EF126A80A37401126A80907F007416026A80E582908166F0908165E0907F08F0D9
:20166200908161E0FCA3E0FDA3E0FEA3E0FF907F10ECF0EDA3F0EEA3F0EFA3F0908166E0C2
:20168200FF907F0175F000EF126A80A37401126A80907F007416026A80E58290816DF090EB
:2016A200816BE0FEA3E0FF907F08EEF0EFA3F0908167E0FCA3E0FDA3E0FEA3E0FF907F106F
:2016C200ECF0EDA3F0EEA3F0EFA3F090816DE0FF907F0175F000EF126A80A37402126A80D7
:2016E200907F007416026A80E582908174F0908172E0FEA3E0FF907F08EEF0EFA3F090811C
:201702006EE0FCA3E0FDA3E0FEA3E0FF907F10ECF0EDA3F0EEA3F0EFA3F0908174E0FF9088
:201722007F0175F000EF126A80A37402126A80907F007416026A80E58290817BF0908179D0
:20174200E0FEA3E0FF907F08EEF0EFA3F0908175E0FCA3E0FDA3E0FEA3E0FF907F10ECF0D0
:20176200EDA3F0EEA3F0EFA3F090817BE0FF907F0175F000EF126A80A37402126A80907FF5
:20178200007416026A80E582908182F0908180E0FEA3E0FF907F08EEF0EFA3F090817CE012
:2017A200FCA3E0FDA3E0FEA3E0FF907F10ECF0EDA3F0EEA3F0EFA3F0908182E0FF907F01A8
:2017C20075F000EF126A80A37402126A80907F007416026A80E58290818BF0908187E0FCB6
:2017E200A3E0FDA3E0FEA3E0FF907F08ECF0EDA3F0EEA3F0EFA3F0908183E0FCA3E0FDA35B
:20180200E0FEA3E0FF907F10ECF0EDA3F0EEA3F0EFA3F090818BE0FF907F0175F000EF12F7
:201822006A80A37404126A80907F007416026A80E582908194F0908190E0FCA3E0FDA3E0A4
:20184200FEA3E0FF907F08ECF0EDA3F0EEA3F0EFA3F090818CE0FCA3E0FDA3E0FEA3E0FF94
:20186200907F10ECF0EDA3F0EEA3F0EFA3F0908194E0FF907F0175F000EF126A80A37404E9
:20188200126A80907F007416026A80E58290819DF0908199E0FCA3E0FDA3E0FEA3E0FF9027
:2018A2007F08ECF0EDA3F0EEA3F0EFA3F0908195E0FCA3E0FDA3E0FEA3E0FF907F10ECF040
:2018C200EDA3F0EEA3F0EFA3F090819DE0FF907F0175F000EF126A80A37404126A80907F70
:2018E200007416026A80AF83E58290819EF0EFA3F090819EE0FEA3E0FF9082B7EEF0EFA36E
:20190200F090002A126ACBAE82AF83EE24BDFEEF3482FF8E828F83E0FCA3E0FD90804374BC
:2019220014F0908044E4F0908045ECF0EDA3F0758200C007C006120705D006D0078E828FDA
:2019420083A3A3E0FCA3E0FD9080437415F0908044E4F0908045ECF0EDA3F0758200C007FD
:20196200C006120705D006D0078E828F83A3A3A3A3E0FCA3E0FD9080437416F0908044E4C5
:20198200F0908045ECF0EDA3F0758200C007C006120705D006D00774062EF582E43FF5839B
:2019A200E0FCA3E0FD9080437417F0908044E4F0908045ECF0EDA3F0758200C007C006128C
:2019C2000705D006D00774082EF582E43FF583E0FCA3E0FD9080437418F0908044E4F090AD
:2019E2008045ECF0EDA3F0758200C007C006120705D006D007740A2EF582E43FF583E0FCDB
:201A0200A3E0FD9080437419F0908044E4F0908045ECF0EDA3F0758200C007C006120705F9
:201A2200D006D007740C2EF582E43FF583E0FCA3E0FD908043741AF0908044E4F09080458D
:201A4200ECF0EDA3F0758200C007C006120705D006D007740E2EF582E43FF583E0FCA3E0B8
:201A6200FD908043741BF0908044E4F0908045ECF0EDA3F0758200C007C006120705D00644
:201A8200D00774102EF582E43FF583E0FCA3E0FD908043741CF0908044E4F0908045ECF021
:201AA200EDA3F0758200C007C006120705D006D00774122EF582E43FF583E0FCA3E0FD90A3
:201AC2008043741DF0908044E4F0908045ECF0EDA3F0758200C007C006120705D006D00798
:201AE20074142EF582E43FF583E0FCA3E0FD908043741EF0908044E4F0908045ECF0EDA302
:201B0200F0758200C007C006120705D006D00774162EF582E43FF583E0FCA3E0FD9080430B
:201B2200741FF0908044E4F0908045ECF0EDA3F0758200C007C006120705D006D00774186C
:201B42002EF582E43FF583E0FCA3E0FD9080437420F0908044E4F0908045ECF0EDA3F075C2
:201B62008200C007C006120705D006D007741A2EF582E43FF583E0FCA3E0FD908043742177
:201B8200F0908044E4F0908045ECF0EDA3F0758200C007C006120705D006D007741C2EF578
:201BA20082E43FF583E0FCA3E0FD9080437422F0908044E4F0908045ECF0EDA3F075820001
:201BC200C007C006120705D006D007741E2EF582E43FF583E0FCA3E0FD9080437423F09013
:201BE2008044E4F0908045ECF0EDA3F0758200C007C006120705D006D00774202EF582E42E
:201C02003FF583E0FCA3E0FD9080437424F0908044E4F0908045ECF0EDA3F0758200C0073D
:201C2200C006120705D006D00774222EF582E43FF583E0FCA3E0FD9080437425F0908044AF
:201C4200E4F0908045ECF0EDA3F0758200C007C006120705D006D00774242EF582E43FF559
:201C620083E0FCA3E0FD9080437426F0908044E4F0908045ECF0EDA3F0758200C007C00649
:201C8200120705D006D00774262EF582E43FF583E0FCA3E0FD9080437427F0908044E4F03B
:201CA200908045ECF0EDA3F0758200C007C006120705D006D00774282EF582E43FF583E066
:201CC200FEA3E0FF9080437408F0908044E4F0908045EEF0EFA3F0758200020705907F01D1
:201CE20075F0007480126A80A323126A80907F007414126A80120062AF827E009081B1EF64
:201D0200F0EEA3F09081B3F0A3F09081B57438F074FFA3F0A3F0A3F09081B974C8F0E4A3FE
:201D2200F0A3F0A3F09081BD7438F074FFA3F0A3F0A3F09081C174C8F0E4A3F0A3F0A3F05A
:201D42009081CD7402F0E4A3F0A3F0A3F09081D17402F0E4A3F0A3F0A3F0EF4E6003022DEC
:201D6200DD758200120509908043E4F090804404F0908045E4F0A3F075820012070590801D
:201D82002474FFF0908025E4F075820012052290804374FFF09080447401F0908045F0E4E9
:201DA200A3F075820012070590804374FFF0908044747EF09080457450F0E4A3F075820016
:201DC2001207059080247401F090802574FFF07582001205229080437401F0908044747E84
:201DE200F09080457420F0E4A3F07582001207059080437401F0908044F0908045E4F0A3C4
:201E0200F07582001207059080247402F090802574FFF07582001205229080437402F09010
:201E22008044747EF09080457422F0E4A3F07582001207059080437402F090804414F090F2
:201E42008045E4F0A3F07582001207059080247403F090802574FFF07582001205229080CC
:201E6200437403F0908044747EF09080457422F0E4A3F07582001207059080437403F090CF
:201E820080447401F0908045E4F0A3F07582001207059080247404F09080257401F0758219
:201EA200001205229080437404F0908044747EF0908045740AF0E4A3F07582001207059017
:201EC20080437404F0908044747FF09080457401F0E4A3F0758200120705908024740AF0B6
:201EE2009080257401F0758200120522908043740AF0908044747EF09080457408F0E4A3D7
:201F0200F0758200120705908043740AF0908044747FF09080457401F0E4A3F07582001288
:201F22000705908062740AF0908063E4F09080647488F0746DA3F07480A3F0758200120800
:201F42008C908024740BF09080257401F0758200120522908043740BF0908044747EF090FE
:201F620080457408F0E4A3F0758200120705908043740BF0908044747FF09080457401F0EF
:201F8200E4A3F0758200120705908062740BF0908063E4F0908064748CF0746DA3F07480BF
:201FA200A3F075820012088C908024740CF09080257401F0758200120522908043740CF0BE
:201FC200908044747EF09080457408F0E4A3F0758200120705908043740CF0908044747F72
:201FE200F09080457401F0E4A3F0758200120705908062740CF0908063E4F0908064749008
:20200200F0746DA3F07480A3F075820012088C908024740DF09080257401F07582001205E9
:2020220022908043740DF0908044747EF09080457408F0E4A3F0758200120705908043746E
:202042000DF0908044747FF09080457401F0E4A3F0758200120705908062740DF0908063AE
:20206200E4F09080647494F0746DA3F07480A3F075820012088C908024740EF09080257437
:2020820001F0758200120522908043740EF0908044747EF09080457408F0E4A3F0758200F3
:2020A200120705908043740EF0908044747FF09080457401F0E4A3F07582001207059080AE
:2020C20062740EF0908063E4F09080647498F0746DA3F07480A3F075820012088C908024A7
:2020E200740FF09080257401F0758200120522908043740FF0908044747EF09080457408D4
:20210200F0E4A3F0758200120705908043740FF0908044747FF09080457401F0E4A3F0759E
:202122008200120705908062740FF0908063E4F0908064749BF0746DA3F07480A3F075826C
:202142000012088C9080247410F0908025C4F07582001205229080437410F0908044747E09
:20216200F09080457408F0E4A3F07582001207059080437410F0908044747FF09080457459
:2021820001F0E4A3F07582001207059080627410F0908063E4F0908064749EF0746DA3F0A9
:2021A2007480A3F075820012088C9080247411F09080257401F075820012052290804374BF
:2021C20011F0908044747EF09080457408F0E4A3F07582001207059080437411F09080445D
:2021E200747FF09080457401F0E4A3F07582001207059080627411F0908063E4F090806412
:2022020074A1F0746DA3F07480A3F075820012088C9080247412F09080257401F0758200E4
:202222001205229080437412F0908044747EF09080457408F0E4A3F0758200120705908007
:20224200437412F0908044747FF09080457401F0E4A3F07582001207059080627412F090CE
:202262008063E4F090806474A3F0746DA3F07480A3F075820012088C9080247413F09080D7
:20228200257401F07582001205229080437413F0908044747EF09080457408F0E4A3F075D5
:2022A20082001207059080437413F0908044747FF09080457401F0E4A3F075820012070535
:2022C2009080627413F0908063E4F090806474A5F0746DA3F07480A3F075820012088C9027
:2022E20080247407F09080257401F07582001205229080437407F0908044747EF0908045BA
:20230200740AF0E4A3F07582001207059080437407F0908044747FF09080457401F0E4A38B
:20232200F07582001207059080627407F0908063E4F090806474ABF0746DA3F07480A3F0F4
:2023420075820012088C9080247405F09080257402F07582001205229080437405F09080AA
:2023620044747EF0908045740AF0E4A3F07582001207059080437405F0908044747FF09063
:2023820080457401F0E4A3F07582001207059080627405F0908063E4F090806474B5F07462
:2023A2006DA3F07480A3F075820012088C9080247414F09080257402F075820012052290F0
:2023C20080437414F0908044747EF09080457408F0E4A3F07582001207059080437414F072
:2023E200908044747FF09080457404F0E4A3F07582001207059080247415F0908025740203
:20240200F07582001205229080437415F0908044747EF09080457408F0E4A3F07582001257
:2024220007059080437415F0908044747FF09080457404F0E4A3F07582001207059080240E
:202442007416F09080257402F07582001205229080437416F0908044747EF0908045740861
:20246200F0E4A3F07582001207059080437416F0908044747FF09080457404F0E4A3F07531
:2024820082001207059080247417F09080257402F07582001205229080437417F0908044FE
:2024A200747EF09080457408F0E4A3F07582001207059080437417F0908044747FF09080D6
:2024C200457404F0E4A3F07582001207059080247418F09080257402F075820012052290B6
:2024E20080437418F0908044747EF09080457408F0E4A3F07582001207059080437418F049
:20250200908044747FF09080457404F0E4A3F07582001207059080247419F09080257402DD
:20252200F07582001205229080437419F0908044747EF09080457408F0E4A3F07582001232
:2025420007059080437419F0908044747FF09080457404F0E4A3F0758200120705908024E9
:20256200741AF09080257402F0758200120522908043741AF0908044747EF0908045740838
:20258200F0E4A3F0758200120705908043741AF0908044747FF09080457404F0E4A3F0750C
:2025A2008200120705908024741BF09080257402F0758200120522908043741BF0908044D5
:2025C200747EF09080457408F0E4A3F0758200120705908043741BF0908044747FF09080B1
:2025E200457404F0E4A3F0758200120705908024741CF09080257402F07582001205229091
:202602008043741CF0908044747EF09080457408F0E4A3F0758200120705908043741CF01F
:20262200908044747FF09080457404F0E4A3F0758200120705908024741DF09080257402B8
:20264200F0758200120522908043741DF0908044747EF09080457408F0E4A3F0758200120D
:202662000705908043741DF0908044747FF09080457404F0E4A3F0758200120705908024C4
:202682007408F09080257402F07582001205229080437408F0908044747EF0908045740A39
:2026A200F0E4A3F07582001207059080437408F0908044747FF09080457404F0E4A3F075FD
:2026C20082001207059080247406F090802503F07582001205229080437406F090804474DD
:2026E2007EF0908045740AF0E4A3F07582001207059080437406F0908044747FF0908045D2
:202702007401F0E4A3F07582001207059080627406F0908063E4F090806474BFF0746DA388
:20272200F07480A3F075820012088C908024741EF09080257403F0758200120522908043AE
:20274200741EF0908044747EF09080457408F0E4A3F0758200120705908043741EF090808D
:2027620044747FF09080457404F0E4A3F0758200120705908024741FF09080257403F0751F
:202782008200120522908043741FF0908044747EF09080457408F0E4A3F075820012070523
:2027A200908043741FF0908044747FF09080457404F0E4A3F07582001207059080247420F9
:2027C200F09080257403F07582001205229080437420F0908044747EF09080457408F0E489
:2027E200A3F07582001207059080437420F0908044747FF09080457404F0E4A3F0758200F6
:202802001207059080247421F09080257403F07582001205229080437421F0908044747EF5
:20282200F09080457408F0E4A3F07582001207059080437421F0908044747FF09080457481
:2028420004F0E4A3F07582001207059080247422F09080257403F07582001205229080431D
:202862007422F0908044747EF09080457408F0E4A3F07582001207059080437422F0908064
:2028820044747FF09080457404F0E4A3F07582001207059080247423F09080257403F075FA
:2028A20082001205229080437423F0908044747EF09080457408F0E4A3F0758200120705FE
:2028C2009080437423F0908044747FF09080457404F0E4A3F07582001207059080247424D0
:2028E200F09080257403F07582001205229080437424F0908044747EF09080457408F0E464
:20290200A3F07582001207059080437424F0908044747FF09080457404F0E4A3F0758200D0
:202922001207059080247425F09080257403F07582001205229080437425F0908044747ECC
:20294200F09080457408F0E4A3F07582001207059080437425F0908044747FF0908045745C
:2029620004F0E4A3F07582001207059080247426F09080257403F0758200120522908043F8
:202982007426F0908044747EF09080457408F0E4A3F07582001207059080437426F090803B
:2029A20044747FF09080457404F0E4A3F07582001207059080247427F09080257403F075D5
:2029C20082001205229080437427F0908044747EF09080457408F0E4A3F0758200120705D9
:2029E2009080437427F0908044747FF09080457404F0E4A3F07582001207059080247409C6
:202A0200F09080257402F07582001205229080437409F0908044747EF0908045740AF0E45C
:202A2200A3F07582001207059080437409F0908044747FF09080457401F0E4A3F0758200CD
:202A4200120705908024742AF0908025E4F0758200120522908043742AF0908044747EF044
:202A6200908045740AF0E4A3F0758200120705908043742AF09080447401F0908045F0E442
:202A8200A3F0758200120705908024742BF090802514F0758200120522908043742BF090EE
:202AA2008044747EF09080457419F0E4A3F0758200120705908043742BF0908044747FF0F7
:202AC2009080457402F0E4A3F0758200120705908062742BF0908063E4F090806474CBF0C2
:202AE200746DA3F07480A3F075820012088C908043742BF0908044747DF09080457404F068
:202B0200E4A3F0758200120705908024742CF0908025742AF0758200120522908043742C7D
:202B2200F0908044747EF09080457419F0E4A3F0758200120705908043742CF09080447464
:202B42007FF09080457402F0E4A3F0758200120705908062742CF0908063E4F0908064748C
:202B6200D0F0746DA3F07480A3F075820012088C908043742CF0908044747DF0908045741A
:202B820004F0E4A3F0758200120705908024742DF0908025742AF0758200120522908043A8
:202BA200742DF0908044747EF09080457419F0E4A3F0758200120705908043742DF09080FA
:202BC20044747FF09080457402F0E4A3F0758200120705908062742DF0908063E4F090802B
:202BE2006474D9F0746DA3F07480A3F075820012088C908043742DF0908044747DF0908071
:202C0200457404F0E4A3F0758200120705908024742EF0908025742AF07582001205229030
:202C22008043742EF0908044747EF09080457419F0E4A3F0758200120705908043742EF0C4
:202C4200908044747FF09080457402F0E4A3F0758200120705908062742EF0908063E4F0A9
:202C620090806474E3F0746DA3F07480A3F075820012088C908043742EF0908044747DF0E5
:202C82009080457404F0E4A3F0758200120705908024742FF0908025E4F0758200120522E9
:202CA200908043742FF0908044747EF0908045740AF0E4A3F0758200120705908043742FB1
:202CC200F09080447401F0908045F0E4A3F07582001207059080247430F090802514F07502
:202CE20082001205229080437430F0908044747EF09080457432F0E4A3F075820012070583
:202D02009080437430F0908044747FF09080457402F0E4A3F0758200120705908062743036
:202D2200F0908063E4F0908064748FF07483A3F0E4A3F075820012088C9080437430F090DE
:202D42008044747DF09080457404F0E4A3F07582001207059080247431F0908025742FF0F2
:202D62007582001205229080437431F0908044747EF09080457432F0E4A3F0758200120791
:202D8200059080437431F0908044747FF09080457402F0E4A3F075820012070590806274E0
:202DA20031F0908063E4F090806474A5F07483A3F0E4A3F075820012088C9080437431F0A6
:202DC200908044747DF09080457404F0E4A3F07582001207059000021218E89081B1E0F538
:202DE200F0A3E045F06003023CC1758201120509908043E4F090804404F0908045E4F0A374
:202E0200F075820112070590802474FFF0908025E4F075820112052290804374FFF0908013
:202E2200447401F0908045F0E4A3F075820112070590804374FFF0908044747EF0908045D4
:202E42007450F0E4A3F07582011207059080247401F090802574FFF07582011205229080BD
:202E6200437401F0908044747EF09080457419F0E4A3F07582011207059080437401F090CB
:202E82008044F0908045E4F0A3F07582011207059080247402F090802574FFF0758201126E
:202EA20005229080437402F0908044747EF09080457419F0E4A3F075820112070590804348
:202EC2007402F090804414F0908045E4F0A3F07582011207059080247403F090802574FF1D
:202EE200F07582011205229080437403F0908044747EF09080457419F0E4A3F0758201126C
:202F020007059080437403F09080447401F0908045E4F0A3F07582011207059080247404B2
:202F2200F090802574FFF07582011205229080437404F0908044747EF09080457419F0E42F
:202F4200A3F07582011207059080437404F09080447401F0908045E4F0A3F0758201120785
:202F6200059080247405F09080257401F07582011205229080437405F0908044747EF09060
:202F82008045740FF0E4A3F07582011207059080437405F0908044747FF09080457401F0BD
:202FA200E4A3F0758201120705908024740AF09080257401F0758201120522908043740A44
:202FC200F0908044747EF0908045740EF0E4A3F0758201120705908043740AF090804474EC
:202FE2007FF09080457401F0E4A3F0758201120705908062740AF0908063E4F0908064740A
:20300200A1F0746DA3F07480A3F075820112088C908024740BF09080257401F0758201123D
:203022000522908043740BF0908044747EF0908045740EF0E4A3F0758201120705908043C8
:20304200740BF0908044747FF09080457401F0E4A3F0758201120705908062740BF0908090
:2030620063E4F090806474A3F0746DA3F07480A3F075820112088C908024740CF09080252A
:203082007401F0758201120522908043740CF0908044747EF0908045740FF0E4A3F0758269
:2030A20001120705908043740CF0908044747FF09080457401F0E4A3F0758201120705901E
:2030C2008024740DF09080257401F0758201120522908043740DF0908044747EF0908045BF
:2030E200740EF0E4A3F0758201120705908043740DF0908044747FF09080457401F0E4A393
:20310200F0758201120705908062740DF0908063E4F090806474EAF0746DA3F07480A3F0C0
:2031220075820112088C908024740EF09080257401F0758201120522908043740EF09080A9
:2031420044747EF0908045740EF0E4A3F0758201120705908043740EF0908044747FF09067
:2031620080457401F0E4A3F0758201120705908062740EF0908063E4F090806474EFF07430
:203182006DA3F07480A3F075820112088C908024740FF09080257401F07582011205229006
:2031A2008043740FF0908044747EF0908045740EF0E4A3F0758201120705908043740FF087
:2031C200908044747FF09080457401F0E4A3F0758201120705908062740FF0908063E4F043
:2031E20090806474F5F0746DA3F07480A3F075820112088C9080247406F09080257402F02E
:203202007582011205229080437406F0908044747EF0908045740FF0E4A3F0758201120738
:20322200059080437406F0908044747FF09080457401F0E4A3F07582011207059080627466
:2032420006F0908063E4F090806474FBF0746DA3F07480A3F075820112088C908024741407
:20326200F09080257402F07582011205229080437414F0908044747EF0908045740EF0E4E4
:20328200A3F07582011207059080437414F0908044747FF09080457404F0E4A3F075820155
:2032A2001207059080627414F0908063E4F090806474FFF0746DA3F07480A3F075820112E1
:2032C200088C9080247415F09080257402F07582011205229080437415F0908044747EF0DD
:2032E200908045740EF0E4A3F07582011207059080437415F0908044747FF09080457404A8
:20330200F0E4A3F07582011207059080627415F0908063E4F090806474FFF0746DA3F0743D
:2033220080A3F075820112088C9080247416F09080257402F0758201120522908043741683
:20334200F0908044747EF0908045740FF0E4A3F07582011207059080437416F0908044745B
:203362007FF09080457401F0E4A3F07582011207059080627416F0908063E4F0908064747A
:2033820004F0746EA3F07480A3F075820112088C9080247417F09080257402F07582011249
:2033A20005229080437417F0908044747EF0908045740EF0E4A3F075820112070590804339
:2033C2007417F0908044747FF09080457404F0E4A3F07582011207059080627417F09080F2
:2033E20063E4F09080647408F0746EA3F07480A3F075820112088C9080247418F090802535
:203402007402F07582011205229080437418F0908044747EF0908045740EF0E4A3F07582D9
:20342200011207059080437418F0908044747FF09080457404F0E4A3F0758201120705908B
:2034420080627418F0908063E4F0908064740CF0746EA3F07480A3F075820112088C908037
:20346200247419F09080257402F07582011205229080437419F0908044747EF0908045740E
:203482000EF0E4A3F07582011207059080437419F0908044747FF09080457404F0E4A3F064
:2034A2007582011207059080627419F0908063E4F0908064740FF0746EA3F07480A3F07566
:2034C200820112088C9080247407F09080257403F07582011205229080437407F090804443
:2034E200747EF0908045740FF0E4A3F07582011207059080437407F0908044747FF090808E
:20350200457401F0E4A3F07582011207059080627407F0908063E4F09080647411F0746E83
:20352200A3F07480A3F075820112088C908024741EF09080257403F075820112052290803E
:2035420043741EF0908044747EF0908045740EF0E4A3F0758201120705908043741EF090B5
:203562008044747FF09080457404F0E4A3F0758201120705908062741EF0908063E4F0908D
:2035820080647415F0746EA3F07480A3F075820112088C908024741FF09080257403F0756A
:2035A2008201120522908043741FF0908044747EF0908045740EF0E4A3F0758201120705ED
:2035C200908043741FF0908044747FF09080457404F0E4A3F0758201120705908062741F8D
:2035E200F0908063E4F09080647415F0746EA3F07480A3F075820112088C9080247420F053
:203602009080257403F07582011205229080437420F0908044747EF0908045740FF0E4A37F
:20362200F07582011207059080437420F0908044747FF09080457401F0E4A3F07582011239
:2036420007059080627420F0908063E4F09080647419F0746EA3F07480A3F0758201120820
:203662008C9080247421F09080257403F07582011205229080437421F0908044747EF09098
:203682008045740EF0E4A3F07582011207059080437421F0908044747FF09080457404F098
:2036A200E4A3F07582011207059080627421F0908063E4F09080647408F0746EA3F07480F4
:2036C200A3F075820112088C9080247422F09080257403F07582011205229080437422F057
:2036E200908044747EF0908045740EF0E4A3F07582011207059080437422F0908044747F1E
:20370200F09080457404F0E4A3F07582011207059080627422F0908063E4F0908064740C3A
:20372200F0746EA3F07480A3F075820112088C9080247423F09080257403F0758201120597
:20374200229080437423F0908044747EF0908045740EF0E4A3F0758201120705908043741A
:2037620023F0908044747FF09080457404F0E4A3F07582011207059080627423F090806347
:20378200E4F0908064740FF0746EA3F07480A3F075820112088C9080247408F090802503FA
:2037A200F07582011205229080437408F0908044747EF0908045740FF0E4A3F075820112A8
:2037C20007059080437408F0908044747FF09080457401F0E4A3F07582011207059080622C
:2037E2007408F0908063E4F0908064741FF0746EA3F07480A3F075820112088C90802474DB
:2038020028F09080257404F07582011205229080437428F0908044747EF0908045740EF0E4
:20382200E4A3F07582011207059080437428F0908044747FF09080457404F0E4A3F07582B8
:20384200011207059080627428F0908063E4F09080647424F0746EA3F07480A3F075820112
:2038620012088C9080247429F09080257404F07582011205229080437429F0908044747EEB
:20388200F0908045740EF0E4A3F07582011207059080437429F0908044747FF09080457402
:2038A20004F0E4A3F07582011207059080627429F0908063E4F09080647424F0746EA3F0CE
:2038C2007480A3F075820112088C908024742AF09080257404F0758201120522908043746A
:2038E2002AF0908044747EF0908045740FF0E4A3F0758201120705908043742AF0908044EC
:20390200747FF09080457401F0E4A3F0758201120705908062742AF0908063E4F0908064C0
:203922007426F0746EA3F07480A3F075820112088C908024742BF09080257404F075820109
:20394200120522908043742BF0908044747EF0908045740EF0E4A3F07582011207059080B0
:2039620043742BF0908044747FF09080457404F0E4A3F0758201120705908062742BF09061
:203982008063E4F09080647408F0746EA3F07480A3F075820112088C908024742CF0908020
:2039A200257404F0758201120522908043742CF0908044747EF0908045740EF0E4A3F0757B
:2039C2008201120705908043742CF0908044747FF09080457404F0E4A3F0758201120705E0
:2039E200908062742CF0908063E4F0908064740CF0746EA3F07480A3F075820112088C906E
:203A02008024742DF09080257404F0758201120522908043742DF0908044747EF090804532
:203A2200740EF0E4A3F0758201120705908043742DF0908044747FF09080457404F0E4A326
:203A4200F0758201120705908062742DF0908063E4F0908064740FF0746EA3F07480A3F031
:203A620075820112088C9080247438F0908025E4F07582011205229080437438F090804459
:203A8200747EF0908045740AF0E4A3F07582011207059080437438F09080447401F090803A
:203AA20045F0E4A3F07582011207059080247436F09080257438F07582011205229080431F
:203AC2007436F0908044747EF09080457432F0E4A3F07582011207059080437436F090809F
:203AE20044747FF09080457401F0E4A3F07582011207059080627436F0908063E4F09080F3
:203B020064742BF0746EA3F07480A3F075820112088C9080247437F090802504F075820126
:203B22001205229080437437F0908044747EF09080457432F0E4A3F075820112070590809E
:203B4200437437F0908044747FF09080457404F0E4A3F07582011207059080627437F09067
:203B62008063E4F0908064743BF0746EA3F07480A3F075820112088C9080247409F090802E
:203B820025E4F07582011205229080437409F0908044747EF0908045740AF0E4A3F07582D2
:203BA200011207059080437409F09080447401F0908045F0E4A3F075820112070590802465
:203BC2007434F09080257409F07582011205229080437434F0908044747EF090804574325C
:203BE200F0E4A3F07582011207059080437434F0908044747FF09080457402F0E4A3F0757D
:203C020082011207059080627434F0908063E4F0908064748FF07483A3F0E4A3F075820150
:203C220012088C9080437434F0908044747DF09080457404F0E4A3F0758201120705908062
:203C4200247435F09080257409F07582011205229080437435F0908044747EF090804574E7
:203C620032F0E4A3F07582011207059080437435F0908044747FF09080457402F0E4A3F03E
:203C82007582011207059080627435F0908063E4F090806474A5F07483A3F0E4A3F0758245
:203CA2000112088C9080437435F0908044747DF09080457404F0E4A3F07582011207059060
:203CC20081B1E0F5F0A3E045F06003023DEE7E017F00C374089E74808FF063F08095F050AD
:203CE20003023DEE8E05743C2DFD908024F09080257409F0758201C007C006C005120522DC
:203D0200D005908043EDF0908044747EF0908045740AF0E4A3F0758201C005120705D0057C
:203D2200908043EDF0908044747FF09080457402F0E4A3F0758201C005120705D005D00662
:203D4200D007908043EDF0908044E4F0908045EEF0EFA3F0758201C007C006C00512070515
:203D6200D005908062EDF09080637402F0908064743DF0746EA3F07480A3F0758201C00576
:203D820012088CD005908043EDF0908044747BF0908045E4F0A3F0758201C005120705D0DC
:203DA20005D006D007908043EDF0908044747CF0908045EEF0EFA3F0758201C007C006C0F1
:203DC20005120705D005908043EDF0908044747DF09080457404F0E4A3F07582011207053A
:203DE200D006D0070EBE00010F023CD490829FE4F0907F00F5F074FE126A809081B1E0F5A8
:203E0200F0A3E045F0705F907FFEF5F0126D25FFBF2B028023BF2C028026BF2D028029BF1C
:203E22002E02802CBF3002802FBF31028032BF34028025BF353080289000001218E88026B2
:203E42009000011218E8801E9000021218E880169000031218E8800E90829F7401F0800616
:203E620090829F7402F09081B1E0FEA3E0FFC3E49E74808FF063F08095F0500690829F747C
:203E820001F090829FE07003023DEE90806B7437F090806CE4F075820112092DAF827E00A9
:203EA2009081B3EFF0EEA3F0C3EF9401EE6480948050099081B37401F0E4A3F09081B3E012
:203EC200FEA3E0FFC374089E74808FF063F08095F050099081B37408F0E4A3F09081B1E016
:203EE200F5F0A3E045F060030241BF907F01E4F5F0126A801582F5F0740A126A8090808063
:203F020023F0908081E4F0758201120ADCAC82AD83AEF0FF9081B5ECF0EDA3F0EEA3F0EFAA
:203F2200A3F09080807415F0908081E4F0758201120ADCAC82AD83AEF0FF9081BDECF0EDFC
:203F4200A3F0EEA3F0EFA3F0908080741EF0908081E4F0758201120ADCAC82AD83AEF0FF67
:203F62009081B9ECF0EDA3F0EEA3F0EFA3F0908080741FF0908081E4F0758201120ADCAC02
:203F820082AD83AEF0FF9081C1ECF0EDA3F0EEA3F0EFA3F09080807428F0908081E4F075A9
:203FA2008201120ADCAC82AD83AEF0FF9081CDECF0EDA3F0EEA3F0EFA3F09080807429F02F
:203FC200908081E4F0758201120ADCAC82AD83AEF0FF9081D1ECF0EDA3F0EEA3F0EFA3F04E
:203FE20090829FE0FF7E007D007C00908183E4F0A3F0A3F0A3F0908187EFF0EEA3F0EDA30F
:20400200F0ECA3F07582001217D79081B5E0FCA3E0FDA3E0FEA3E0FF9081837401F0E4A393
:20402200F0A3F0A3F0908187ECF0EDA3F0EEA3F0EFA3F07582001217D79081B9E0FCA3E051
:20404200FDA3E0FEA3E0FF9081837402F0E4A3F0A3F0A3F0908187ECF0EDA3F0EEA3F0EF63
:20406200A3F07582001217D79081CDE0FCA3E0FDA3E0FEA3E0FF9081837403F0E4A3F0A362
:20408200F0A3F0908187ECF0EDA3F0EEA3F0EFA3F07582001217D79081BDE0FCA3E0FDA3E0
:2040A200E0FEA3E0FF9081837404F0E4A3F0A3F0A3F0908187ECF0EDA3F0EEA3F0EFA3F00E
:2040C2007582001217D79081C1E0FCA3E0FDA3E0FEA3E0FF9081837405F0E4A3F0A3F0A30C
:2040E200F0908187ECF0EDA3F0EEA3F0EFA3F07582001217D79081D1E0FCA3E0FDA3E0FE21
:20410200A3E0FF9081837406F0E4A3F0A3F0A3F0908187ECF0EDA3F0EEA3F0EFA3F0758292
:20412200001217D790815B740AF0E4A3F0A3F0A3F090815F04F075820112160D90815B7495
:204142000BF0E4A3F0A3F0A3F090815F04F075820112160D90815B740CF0E4A3F0A3F0A3AB
:20416200F090815F04F075820112160D90815B740DF0E4A3F0A3F0A3F090815F04F07582E7
:204182000112160D7E017F009081B3E0FCA3E0FDC3EE9CEF64808DF063F08095F0501E8ED8
:2041A20005908091743C2DF0758201C007C006120C09D006D0070EBE00CE0F80CB90814CE0
:2041C200E4F0A3F0A3F0A3F0758200121514AC828C2190814C7401F0E4A3F0A3F0A3F0756F
:2041E2008200121514AB82AD83AEF0FF9081B5EBF0EDA3F0EEA3F0EFA3F090814C7402F01F
:20420200E4A3F0A3F0A3F0758200121514AB82AD83AEF0FF9081B9EBF0EDA3F0EEA3F0EF3E
:20422200A3F090814C7403F0E4A3F0A3F0A3F0758200121514AB82AD83AEF0FF9081CDEB93
:20424200F0EDA3F0EEA3F0EFA3F090814C7404F0E4A3F0A3F0A3F0758200121514AB82AD7B
:2042620083AEF0FF9081BDEBF0EDA3F0EEA3F0EFA3F090814C7405F0E4A3F0A3F0A3F07518
:204282008200121514AB82AD83AEF0FF9081C1EBF0EDA3F0EEA3F0EFA3F090814C7406F06E
:2042A200E4A3F0A3F0A3F0758200121514AB82AD83AEF0FF9081D1EBF0EDA3F0EEA3F0EF86
:2042C200A3F090806B7417F090806CE4F075820112092DE5829081A8F090806B7421F09023
:2042E200806CE4F075820112092DE5829081A9F090806B742BF090806CE4F075820112093E
:204302002DE5829081AAF090806B7418F090806CE4F075820112092DE5829081ABF09080B2
:204322006B7422F090806CE4F075820112092DE5829081ACF090806B742CF090806CE4F08B
:2043420075820112092DE5829081ADF090806B7419F090806CE4F075820112092DE5829087
:2043620081AEF090806B7423F090806CE4F075820112092DE5829081AFF090806B742DF067
:2043820090806CE4F075820112092DE5829081B0F09080867408F0908087E4F075820012FD
:2043A2000B69AB82AD83AEF0FF908297EBF0EDA3F0EEA3F0EFA3F090829BEBF0EDA3F0EE90
:2043C200A3F0EFB2E7A3F09080867414F0908087E4F0758200120B69AB82AD83AEF0FF90AD
:2043E20081F3EBF0EDA3F0EEA3F0EFA3F09080867415F0908087E4F0758200120B69AB82C5
:20440200AD83AEF0FF9081F7EBF0EDA3F0EEA3F0EFA3F09080867416F0908087E4F07582F5
:2044220000120B69AB82AD83AEF0FF9081FBEBF0EDA3F0EEA3F0EFA3F09080867417F090EF
:204442008087E4F0758200120B69AB82AD83AEF0FF9081FFEBF0EDA3F0EEA3F0EFA3F0900A
:2044620080867418F0908087E4F0758200120B69AB82AD83AEF0FF908203EBF0EDA3F0EE78
:20448200A3F0EFA3F09080867419F0908087E4F0758200120B69AB82AD83AEF0FF908207F7
:2044A200EBF0EDA3F0EEA3F0EFA3F0908086741AF0908087E4F0758200120B69AB82AD8343
:2044C200AEF0FF90820BEBF0EDA3F0EEA3F0EFA3F0908086741BF0908087E4F07582001239
:2044E2000B69AB82AD83AEF0FF90820FEBF0EDA3F0EEA3F0EFA3F0908086741CF090808720
:20450200E4F0758200120B69AB82AD83AEF0FF908213EBF0EDA3F0EEA3F0EFA3F090808635
:20452200741DF0908087E4F0758200120B69AB82AD83AEF0FF908217EBF0EDA3F0EEA3F011
:20454200EFA3F0908086741EF0908087E4F0758200120B69AB82AD83AEF0FF90821BEBF0D5
:20456200EDA3F0EEA3F0EFA3F0908086741FF0908087E4F0758200120B69AB82AD83AEF0BA
:20458200FF90821FEBF0EDA3F0EEA3F0EFA3F09080867420F0908087E4F0758200120B6989
:2045A200AB82AD83AEF0FF908223EBF0EDA3F0EEA3F0EFA3F09080867421F0908087E4F0E6
:2045C200758200120B69AB82AD83AEF0FF908227EBF0EDA3F0EEA3F0EFA3F090808674229F
:2045E200F0908087E4F0758200120B69AB82AD83AEF0FF90822BEBF0EDA3F0EEA3F0EFA33C
:20460200F09080867423F0908087E4F0758200120B69AB82AD83AEF0FF90822FEBF0EDA3FD
:20462200F0EEA3F0EFA3F09080867424F0908087E4F0758200120B69AB82AD83AEF0FF90F5
:204642008233EBF0EDA3F0EEA3F0EFA3F09080867425F0908087E4F0758200120B69AB8211
:20466200AD83AEF0FF908237EBF0EDA3F0EEA3F0EFA3F09080867426F0908087E4F0758242
:2046820000120B69AB82AD83AEF0FF90823BEBF0EDA3F0EEA3F0EFA3F09080867427F0903C
:2046A2008087E4F0758200120B69AB82AD83AEF0FF90823FEBF0EDA3F0EEA3F0EFA3F09067
:2046C20081BDE0F526A3E0F527A3E0F528A3E0F5299081C1E0F8A3E0F9A3E0FAA3E0FCE8B5
:2046E200C39526F522E99527F523EA9528F524EC9529F5259081D1E0F8A3E0F9A3E0FAA38C
:20470200E0FCE828FBE933FDEA33FEEC33FF9082A1EBF0EDA3F0EEA3F0EFA3F0852282859F
:2047220023838524F0E525C004C002C001C00012679FAB82AD83C3E49BFBE49DFD9081B135
:20474200E0F52AA3E0F52B9081D7E52A2BF0E52B3DA3F09081B5E0F52CA3E0F52DA3E0F5DF
:204762002EA3E0F52F9081B9E0FBA3E0FDA3E0FEA3E0FFEBC3952CF52CED952DF52DEE9556
:204782002EF52EEF952FF52F9081CDE0FBA3E0FDA3E0FEA3E0FFEB2BFBED33FDEE33FEEF77
:2047A20033FF9082A1EBF0EDA3F0EEA3F0EFA3F0852C82852D83852EF0E52F12679FAB8250
:2047C200AD83D000D001D002D0049081D9C3E49BF0E49DA3F09082A1E8F0E9A3F0EAA3F0AC
:2047E200ECA3F08522828523838524F0E525C004C002C001C00012679F85822C85832D8535
:20480200F02EF52F9081B3E0FEA3E08E22F5233395E0F524F5259082A1E522F0E523A3F047
:20482200E524A3F0E525A3F0852C82852D83852EF0E52F12679FAB82AD83AEF0FFD000D06C
:2048420001D002D0049081A4EBF0EDA3F0EEA3F0EFA3F09081A0E4F0A3F0A3F0A3F0AB2A89
:20486200E52BFD3395E0FEFF9082B9E8F0E9A3F0EAA3F0ECA3F08B828D838EF0EFC004C05B
:2048820002C001C000126AEBAB82AD83AEF0FFD000D001D002D0049081BDEB2526F0ED35D5
:2048A20027A3F0EE3528A3F0EF3529A3F09082B9E522F0E523A3F0E524A3F0E525A3F08860
:2048C2008289838AF0EC126AEBAC82AD83AEF0FF9081D1ECF0EDA3F0EEA3F0EFA3F07402C9
:2048E200B5210280030259E79081BDE0FCA3E0FDA3E0FEA3E0FF9081C9ECF0EDA3F0EEA325
:20490200F0EFA3F09081C9E0FCA3E0FDA3E0FEA3E0FF9081C1E0F8A3E0F9A3E0FAA3E0FBC9
:20492200C3E89CE99DEA9EEB64808FF063F08095F050030266149081B1E0F5F0A3E045F06C
:2049420060030249F69081A0E02401F0A3E03400F0A3E03400F0A3E03400F01200A1908152
:20496200A0E0FCA3E0FDA3E0FEA3E08C828D838EF012022375822F1201369081A4E0FCA3BF
:20498200E0FDA3E0FEA3E08C828D838EF01202239080627430F0908063E4F0908064F0A30D
:2049A200F0A3F075820012088C9080627431F0908063E4F0908064F0A3F0A3F075820012F4
:2049C200088C9080627434F0908063E4F0908064F0A3F0A3F075820112088C9080627435AD
:2049E200F0908063E4F0908064F0A3F0A3F075820112088C9081C9E0FCA3E0FDA3E0FEA3FC
:204A0200E08C828D838EF0126A53AC82AD83AEF0FF9081DFECF0EDA3F0EEA3F0EFA3F0906F
:204A22008125ECF0EDA3F0EEA3F0EFA3F0908129ECF0EDA3F0EEA3F0EFA3F07582031212B8
:204A4200EDAC82AD83AEF0FF9081E7ECF0EDA3F0EEA3F0EFA3F09081DFE0F8A3E0F9A3E04E
:204A6200FAA3E0FB908125ECF0EDA3F0EEA3F0EFA3F0908129E8F0E9A3F0EAA3F0EBA3F09E
:204A82007582031212EDAC82AD83AEF0FF9081EFECF0EDA3F0EEA3F0EFA3F09081D9E0FEE7
:204AA200A3E0FF9081D5EEF0EFA3F09081B5E0FCA3E0FDA3E0FEA3E0FF9081C5ECF0EDA3C5
:204AC200F0EEA3F0EFA3F09081C5E0FCA3E0FDA3E0FEA3E0FF9081B9E0F8A3E0F9A3E0FA11
:204AE200A3E0FBC3E89CE99DEA9EEB64808FF063F08095F0500302599C8C828D838EF0EF66
:204B0200126A53AC82AD83AEF0FF9081DBECF0EDA3F0EEA3F0EFA3F0908125ECF0EDA3F0EC
:204B2200EEA3F0EFA3F0908129ECF0EDA3F0EEA3F0EFA3F07582031212EDAC82AD83AEF0D0
:204B4200FF9081E3ECF0EDA3F0EEA3F0EFA3F09081DBE0F8A3E0F9A3E0FAA3E0FB90812590
:204B6200ECF0EDA3F0EEA3F0EFA3F0908129E8F0E9A3F0EAA3F0EBA3F07582031212EDAC94
:204B820082AD83AEF0FF9081EBECF0EDA3F0EEA3F0EFA3F090821BE0F8A3E0F9A3E0FAA3C8
:204BA200E0FB908125E8F0E9A3F0EAA3F0EBA3F0908129ECF0EDA3F0EEA3F0EFA3F0758203
:204BC200031212EDAC82AD83AEF0FF908273ECF0EDA3F0EEA3F0EFA3F090821FE0FCA3E050
:204BE200FDA3E0FEA3E0FF9081E3E0F8A3E0F9A3E0FAA3E0FB908125ECF0EDA3F0EEA3F05D
:204C0200EFA3F0908129E8F0E9A3F0EAA3F0EBA3F07582031212EDAC82AD83AEF0FF908170
:204C2200DFE0F8A3E0F9A3E0FAA3E0FB908125ECF0EDA3F0EEA3F0EFA3F0908129E8F0E9B4
:204C4200A3F0EAA3F0EBA3F07582031212EDAC82AD83AEF0FF908277ECF0EDA3F0EEA3F058
:204C6200EFA3F0908223E0FCA3E0FDA3E0FEA3E0FF9081DBE0F8A3E0F9A3E0FAA3E0FB9051
:204C82008125ECF0EDA3F0EEA3F0EFA3F0908129E8F0E9A3F0EAA3F0EBA3F0758203121266
:204CA200EDAC82AD83AEF0FF9081E7E0F8A3E0F9A3E0FAA3E0FB908125ECF0EDA3F0EEA3A0
:204CC200F0EFA3F0908129E8F0E9A3F0EAA3F0EBA3F07582031212EDAC82AD83AEF0FF9041
:204CE200827BECF0EDA3F0EEA3F0EFA3F0908227E0FCA3E0FDA3E0FEA3E0FF9081EFE0F8E6
:204D0200A3E0F9A3E0FAA3E0FB908125ECF0EDA3F0EEA3F0EFA3F0908129E8F0E9A3F0EA0D
:204D2200A3F0EBA3F07582031212EDAC82AD83AEF0FF90827FECF0EDA3F0EEA3F0EFA3F06A
:204D420090822BE0FCA3E0FDA3E0FEA3E0FF9081E3E0F8A3E0F9A3E0FAA3E0FB908125EC50
:204D6200F0EDA3F0EEA3F0EFA3F0908129E8F0E9A3F0EAA3F0EBA3F07582031212EDAC82FC
:204D8200AD83AEF0FF908283ECF0EDA3F0EEA3F0EFA3F090822FE0FCA3E0FDA3E0FEA3E0AF
:204DA200FF9081DBE0F8A3E0F9A3E0FAA3E0FB908125ECF0EDA3F0EEA3F0EFA3F0908129E8
:204DC200E8F0E9A3F0EAA3F0EBA3F07582031212EDAC82AD83AEF0FF9081DFE0F8A3E0F938
:204DE200A3E0FAA3E0FB908125ECF0EDA3F0EEA3F0EFA3F0908129E8F0E9A3F0EAA3F0EB2B
:204E0200A3F07582031212EDAC82AD83AEF0FF908287ECF0EDA3F0EEA3F0EFA3F0908233BA
:204E2200E0FCA3E0FDA3E0FEA3E0FF9081E7E0F8A3E0F9A3E0FAA3E0FB908125ECF0EDA328
:204E4200F0EEA3F0EFA3F0908129E8F0E9A3F0EAA3F0EBA3F07582031212EDAC82AD83AEBD
:204E6200F0FF90828BECF0EDA3F0EEA3F0EFA3F0908237E0FCA3E0FDA3E0FEA3E0FF90818C
:204E8200DBE0F8A3E0F9A3E0FAA3E0FB908125ECF0EDA3F0EEA3F0EFA3F0908129E8F0E956
:204EA200A3F0EAA3F0EBA3F07582031212EDAC82AD83AEF0FF90828FECF0EDA3F0EEA3F0DE
:204EC200EFA3F090823BE0FCA3E0FDA3E0FEA3E0FF9081DFE0F8A3E0F9A3E0FAA3E0FB90D3
:204EE2008125ECF0EDA3F0EEA3F0EFA3F0908129E8F0E9A3F0EAA3F0EBA3F0758203121204
:204F0200EDAC82AD83AEF0FF908293ECF0EDA3F0EEA3F0EFA3F090823FE0FCA3E0FDA3E073
:204F2200FEA3E0FF90824BECF0EDA3F0EEA3F0EFA3F0908273E0F8A3E0F9A3E0FAA3E0FB5F
:204F4200908125ECF0EDA3F0EEA3F0EFA3F0908129E8F0E9A3F0EAA3F0EBA3F07582011227
:204F620012EDAC82AD83AEF0FF90824BECF0EDA3F0EEA3F0EFA3F0908277E0F8A3E0F9A3F9
:204F8200E0FAA3E0FB908125ECF0EDA3F0EEA3F0EFA3F0908129E8F0E9A3F0EAA3F0EBA389
:204FA200F07582011212EDAC82AD83AEF0FF90824BECF0EDA3F0EEA3F0EFA3F090827BE0D2
:204FC200F8A3E0F9A3E0FAA3E0FB908125ECF0EDA3F0EEA3F0EFA3F0908129E8F0E9A3F03D
:204FE200EAA3F0EBA3F07582011212EDAC82AD83AEF0FF90824BECF0EDA3F0EEA3F0EFA3E4
:20500200F090827FE0F8A3E0F9A3E0FAA3E0FB908125ECF0EDA3F0EEA3F0EFA3F0908129EF
:20502200E8F0E9A3F0EAA3F0EBA3F07582011212EDAC82AD83AEF0FF90824BECF0EDA3F062
:20504200EEA3F0EFA3F0908283E0F8A3E0F9A3E0FAA3E0FB908125ECF0EDA3F0EEA3F0EF65
:20506200A3F0908129E8F0E9A3F0EAA3F0EBA3F07582011212EDAC82AD83AEF0FF90824BB1
:20508200ECF0EDA3F0EEA3F0EFA3F0908287E0F8A3E0F9A3E0FAA3E0FB908125ECF0EDA325
:2050A200F0EEA3F0EFA3F0908129E8F0E9A3F0EAA3F0EBA3F07582011212EDAC82AD83AE5D
:2050C200F0FF90824BECF0EDA3F0EEA3F0EFA3F090828BE0F8A3E0F9A3E0FAA3E0FB908126
:2050E20025ECF0EDA3F0EEA3F0EFA3F0908129E8F0E9A3F0EAA3F0EBA3F07582011212ED98
:20510200AC82AD83AEF0FF90824BECF0EDA3F0EEA3F0EFA3F090828FE0F8A3E0F9A3E0FA64
:20512200A3E0FB908125ECF0EDA3F0EEA3F0EFA3F0908129E8F0E9A3F0EAA3F0EBA3F0755C
:2051420082011212EDAC82AD83AEF0FF90824BECF0EDA3F0EEA3F0EFA3F0908293E0F8A3E2
:20516200E0F9A3E0FAA3E0FB908125ECF0EDA3F0EEA3F0EFA3F0908129E8F0E9A3F0EAA3A9
:20518200F0EBA3F07582011212EDAC82AD83AEF0FF90824BECF0EDA3F0EEA3F0EFA3F08C53
:2051A200F0ED42F0EE42F0EF547F45F070030259149081F3E0FCA3E0FDA3E0FEA3E0FF90F2
:2051C20081EBE0F8A3E0F9A3E0FAA3E0FB908125ECF0EDA3F0EEA3F0EFA3F0908129E8F06B
:2051E200E9A3F0EAA3F0EBA3F07582031212EDAC82AD83AEF0FF90824FECF0EDA3F0EEA3E2
:20520200F0EFA3F09081F7E0FCA3E0FDA3E0FEA3E0FF9081E3E0F8A3E0F9A3E0FAA3E0FB70
:20522200908125ECF0EDA3F0EEA3F0EFA3F0908129E8F0E9A3F0EAA3F0EBA3F07582031242
:2052420012EDAC82AD83AEF0FF9081DFE0F8A3E0F9A3E0FAA3E0FB908125ECF0EDA3F0EE93
:20526200A3F0EFA3F0908129E8F0E9A3F0EAA3F0EBA3F07582031212EDAC82AD83AEF0FF88
:20528200908253ECF0EDA3F0EEA3F0EFA3F09081FBE0FCA3E0FDA3E0FEA3E0FF9081DBE011
:2052A200F8A3E0F9A3E0FAA3E0FB908125ECF0EDA3F0EEA3F0EFA3F0908129E8F0E9A3F05A
:2052C200EAA3F0EBA3F07582031212EDAC82AD83AEF0FF9081E7E0F8A3E0F9A3E0FAA3E07F
:2052E200FB908125ECF0EDA3F0EEA3F0EFA3F0908129E8F0E9A3F0EAA3F0EBA3F075820399
:205302001212EDAC82AD83AEF0FF908257ECF0EDA3F0EEA3F0EFA3F09081FFE0FCA3E0FD4B
:20532200A3E0FEA3E0FF9081EFE0F8A3E0F9A3E0FAA3E0FB908125ECF0EDA3F0EEA3F0EF17
:20534200A3F0908129E8F0E9A3F0EAA3F0EBA3F07582031212EDAC82AD83AEF0FF90825BBC
:20536200ECF0EDA3F0EEA3F0EFA3F0908203E0FCA3E0FDA3E0FEA3E0FF9081E3E0F8A3E009
:20538200F9A3E0FAA3E0FB908125ECF0EDA3F0EEA3F0EFA3F0908129E8F0E9A3F0EAA3F077
:2053A200EBA3F07582031212EDAC82AD83AEF0FF90825FECF0EDA3F0EEA3F0EFA3F0908285
:2053C20007E0FCA3E0FDA3E0FEA3E0FF9081DBE0F8A3E0F9A3E0FAA3E0FB908125ECF0ED2B
:2053E200A3F0EEA3F0EFA3F0908129E8F0E9A3F0EAA3F0EBA3F07582031212EDAC82AD8323
:20540200AEF0FF9081DFE0F8A3E0F9A3E0FAA3E0FB908125ECF0EDA3F0EEA3F0EFA3F09089
:205422008129E8F0E9A3F0EAA3F0EBA3F07582031212EDAC82AD83AEF0FF908263ECF0ED2D
:20544200A3F0EEA3F0EFA3F090820BE0FCA3E0FDA3E0FEA3E0FF9081E7E0F8A3E0F9A3E069
:20546200FAA3E0FB908125ECF0EDA3F0EEA3F0EFA3F0908129E8F0E9A3F0EAA3F0EBA3F094
:205482007582031212EDAC82AD83AEF0FF908267ECF0EDA3F0EEA3F0EFA3F090820FE0FC2F
:2054A200A3E0FDA3E0FEA3E0FF9081DBE0F8A3E0F9A3E0FAA3E0FB908125ECF0EDA3F0EEAC
:2054C200A3F0EFA3F0908129E8F0E9A3F0EAA3F0EBA3F07582031212EDAC82AD83AEF0FF26
:2054E20090826BECF0EDA3F0EEA3F0EFA3F0908213E0FCA3E0FDA3E0FEA3E0FF9081DFE07A
:20550200F8A3E0F9A3E0FAA3E0FB908125ECF0EDA3F0EEA3F0EFA3F0908129E8F0E9A3F0F7
:20552200EAA3F0EBA3F07582031212EDAC82AD83AEF0FF90826FECF0EDA3F0EEA3F0EFA378
:20554200F0908217E0FCA3E0FDA3E0FEA3E0FF908247ECF0EDA3F0EEA3F0EFA3F090824FB8
:20556200E0F8A3E0F9A3E0FAA3E0FB908125ECF0EDA3F0EEA3F0EFA3F0908129E8F0E9A3A7
:20558200F0EAA3F0EBA3F07582011212EDAC82AD83AEF0FF908247ECF0EDA3F0EEA3F0EFF5
:2055A200A3F0908253E0F8A3E0F9A3E0FAA3E0FB908125ECF0EDA3F0EEA3F0EFA3F09081FC
:2055C20029E8F0E9A3F0EAA3F0EBA3F07582011212EDAC82AD83AEF0FF908247ECF0EDA388
:2055E200F0EEA3F0EFA3F0908257E0F8A3E0F9A3E0FAA3E0FB908125ECF0EDA3F0EEA3F0EB
:20560200EFA3F0908129E8F0E9A3F0EAA3F0EBA3F07582011212EDAC82AD83AEF0FF908267
:2056220047ECF0EDA3F0EEA3F0EFA3F090825BE0F8A3E0F9A3E0FAA3E0FB908125ECF0ED07
:20564200A3F0EEA3F0EFA3F0908129E8F0E9A3F0EAA3F0EBA3F07582011212EDAC82AD83C2
:20566200AEF0FF908247ECF0EDA3F0EEA3F0EFA3F090825FE0F8A3E0F9A3E0FAA3E0FB9083
:205682008125ECF0EDA3F0EEA3F0EFA3F0908129E8F0E9A3F0EAA3F0EBA3F075820112125E
:2056A200EDAC82AD83AEF0FF908247ECF0EDA3F0EEA3F0EFA3F0908263E0F8A3E0F9A3E0FC
:2056C200FAA3E0FB908125ECF0EDA3F0EEA3F0EFA3F0908129E8F0E9A3F0EAA3F0EBA3F032
:2056E2007582011212EDAC82AD83AEF0FF908247ECF0EDA3F0EEA3F0EFA3F0908267E0F89B
:20570200A3E0F9A3E0FAA3E0FB908125ECF0EDA3F0EEA3F0EFA3F0908129E8F0E9A3F0EA03
:20572200A3F0EBA3F07582011212EDAC82AD83AEF0FF908247ECF0EDA3F0EEA3F0EFA3F09A
:2057420090826BE0F8A3E0F9A3E0FAA3E0FB908125ECF0EDA3F0EEA3F0EFA3F0908129E8C4
:20576200F0E9A3F0EAA3F0EBA3F07582011212EDAC82AD83AEF0FF908247ECF0EDA3F0EE19
:20578200A3F0EFA3F090826FE0F8A3E0F9A3E0FAA3E0FB908125ECF0EDA3F0EEA3F0EFA37D
:2057A200F0908129E8F0E9A3F0EAA3F0EBA3F07582011212EDAC82AD83AEF0FF908247EC25
:2057C200F0EDA3F0EEA3F0EFA3F090824BE0F8A3E0F9A3E0FAA3E0FB908125ECF0EDA3F016
:2057E200EEA3F0EFA3F0908129E8F0E9A3F0EAA3F0EBA3F07582041212EDAC82AD83AEF013
:20580200FF908243ECF0EDA3F0EEA3F0EFA3F0C007C006C005C00490829BE0C0E0A3E0C04D
:20582200E0A3E0C0E0A3E0C0E08C828D838EF0EF126A9BE58124FCF581D004D005D006D053
:2058420007E58224FF9200407C908297E0F8A3E0F9A3E0FAA3E0FBC004C005C006C00788D1
:205862008289838AF0EB126A9BE58124FCF581E58224FF9200404E9081D5E0FEA3E0FF90A0
:2058820081D7E0FCA3E0FD9081A8E0FB9081A9E0FA9081AAE0F99080B5EEF0EFA3F0908061
:2058A200B7ECF0EDA3F09080B9E4F0A3F09080BBEBF09080BCEAF09080BDE9F075820012A8
:2058C2000DC002595F9081D5E0FEA3E0FF9081D7E0FCA3E0FD9081ABE0FB9081ACE0FA90F7
:2058E20081ADE0F99080B5EEF0EFA3F09080B7ECF0EDA3F09080B9E4F0A3F09080BBEBF081
:205902009080BCEAF09080BDE9F0758200120DC0804B9081D5E0FEA3E0FF9081D7E0FCA3EB
:20592200E0FD9081AEE0FB9081AFE0FA9081B0E0F99080B5EEF0EFA3F09080B7ECF0EDA362
:20594200F09080B9E4F0A3F09080BBEBF09080BCEAF09080BDE9F0758200120DC09081D577
:20596200E02401F0A3E03400F09081CDE0FCA3E0FDA3E0FEA3E0FF9081C5E0F8A3E0F9A37F
:20598200E0FAA3E0FB9081C5EC28F0ED39A3F0EE3AA3F0EF3BA3F0024AC99081B3E0FEA348
:2059A200E0FF9081D7E0FCA3E0FD9081D7EE2CF0EF3DA3F09081D1E0FCA3E0FDA3E0FEA3AF
:2059C200E0FF9081C9E0F8A3E0F9A3E0FAA3E0FB9081C9EC28F0ED39A3F0EE3AA3F0EF3B41
:2059E200A3F00249069081BDE0FCA3E0FDA3E0FEA3E0FF9081C9ECF0EDA3F0EEA3F0EFA34B
:205A0200F09081C9E0FCA3E0FDA3E0FEA3E0FF9081C1E0F8A3E0F9A3E0FAA3E0FBC3E89CF3
:205A2200E99DEA9EEB64808FF063F08095F050030266149081B1E0F5F0A3E045F06003023D
:205A42005AF39081A0E02401F0A3E03400F0A3E03400F0A3E03400F01200A19081A0E0FC1C
:205A6200A3E0FDA3E0FEA3E08C828D838EF012022375822F1201369081A4E0FCA3E0FDA3AA
:205A8200E0FEA3E08C828D838EF01202239080627430F0908063E4F0908064F0A3F0A3F0F9
:205AA20075820012088C9080627431F0908063E4F0908064F0A3F0A3F075820012088C9042
:205AC20080627434F0908063E4F0908064F0A3F0A3F075820112088C9080627435F09080C0
:205AE20063E4F0908064F0A3F0A3F075820112088C9081C9E0FCA3E0FDA3E0FEA3E08C82FD
:205B02008D838EF0126A53AC82AD83AEF0FF9081DFECF0EDA3F0EEA3F0EFA3F0C007C0064F
:205B2200C005C004C004C005C006C0078C828D838EF0EF12685BA882A983AAF0FBE58124EF
:205B4200FCF581D004D005D006D0079081E7E8F0E9A3F0EAA3F0EBA3F0C004C005C006C025
:205B620007888289838AF0EB12685BAC82AD83AEF0FFE58124FCF5819081EFECF0EDA3F079
:205B8200EEA3F0EFA3F09081D9E0FEA3E0FF9081D5EEF0EFA3F09081B5E0FCA3E0FDA3E0CB
:205BA200FEA3E0FF9081C5ECF0EDA3F0EEA3F0EFA3F09081C5E0FCA3E0FDA3E0FEA3E0FFF9
:205BC2009081B9E0F8A3E0F9A3E0FAA3E0FBC3E89CE99DEA9EEB64808FF063F08095F0505F
:205BE200030265C98C828D838EF0EF126A53AC82AD83AEF0FF9081DBECF0EDA3F0EEA3F052
:205C0200EFA3F0C007C006C005C004C004C005C006C0078C828D838EF0EF12685B85822647
:205C220085832785F028F529E58124FCF581D004D005D006D0079081E3E526F0E527A3F098
:205C4200E528A3F0E529A3F0C007C006C005C004C004C005C006C0078526828527838528CC
:205C6200F0E52912685B85822C85832D85F02EF52FE58124FCF5819081EBE52CF0E52DA372
:205C8200F0E52EA3F0E52FA3F090821BE0F8A3E0F9A3E0FAA3E0FBC02CC02DC02EC02F880B
:205CA2008289838AF0EB12685B85822285832385F024F525E58124FCF58190821FE0F8A36B
:205CC200E0F9A3E0FAA3E0FBC026C027C028C029888289838AF0EB12685BA882A983AAF010
:205CE200FBE58124FCF5819081DFE0F530A3E0F531A3E0F532A3E0F533C030C031C032C025
:205D020033888289838AF0EB12685BA882A983AAF0FBE58124FCF581C000C001C002C00311
:205D22008522828523838524F0E525126B5785822285832385F024F525E58124FCF581D0C3
:205D420004D005D006D007908223E0F8A3E0F9A3E0FAA3E0FBC007C006C005C004C004C09D
:205D620005C006C007888289838AF0EB12685BA882A983AAF0FBE58124FCF5819081E7E080
:205D8200F534A3E0F535A3E0F536A3E0F537C034C035C036C037888289838AF0EB12685BA8
:205DA200A882A983AAF0FBE58124FCF581C000C001C002C0038522828523838524F0E525FD
:205DC200126B5785823885833985F03AF53BE58124FCF5819081EFE0F522A3E0F523A3E07D
:205DE200F524A3E0F525908227E0F8A3E0F9A3E0FAA3E0FBC022C023C024C02588828983BF
:205E02008AF0EB12685BA882A983AAF0FBE58124FCF581C000C001C002C00385388285395C
:205E220083853AF0E53B126B5785823885833985F03AF53BE58124FCF58190822BE0F8A327
:205E4200E0F9A3E0FAA3E0FBC026C027C028C029888289838AF0EB12685BA882A983AAF08E
:205E6200FBE58124FCF581C000C001C002C003853882853983853AF0E53B126B57858238C1
:205E820085833985F03AF53BE58124FCF581D004D005D006D00790822FE0F8A3E0F9A3E076
:205EA200FAA3E0FBC007C006C005C004C004C005C006C007888289838AF0EB12685BA882C2
:205EC200A983AAF0FBE58124FCF581C030C031C032C033888289838AF0EB12685BA882A91A
:205EE20083AAF0FBE58124FCF581C000C001C002C003853882853983853AF0E53B126B5763
:205F020085823885833985F03AF53BE58124FCF581908233E0F8A3E0F9A3E0FAA3E0FBC0D0
:205F220034C035C036C037888289838AF0EB12685BA882A983AAF0FBE58124FCF581C00052
:205F4200C001C002C003853882853983853AF0E53B126B5785823885833985F03AF53BE592
:205F62008124FCF581D004D005D006D007908237E0F8A3E0F9A3E0FAA3E0FBC007C006C0CD
:205F820005C004C004C005C006C007888289838AF0EB12685BA882A983AAF0FBE58124FC5F
:205FA200F581C000C001C002C003853882853983853AF0E53B126B5785823885833985F04B
:205FC2003AF53BE58124FCF58190823BE0F8A3E0F9A3E0FAA3E0FBC030C031C032C033886F
:205FE2008289838AF0EB12685BA882A983AAF0FBE58124FCF581C000C001C002C00385382D
:2060020082853983853AF0E53B126B57A882A983AAF0FBE58124FCF58190823FE0C0E0A3BD
:20602200E0C0E0A3E0C0E0A3E0C0E0888289838AF0EB126B5785823885833985F03AF53BEA
:20604200E58124FCF581D004D005D006D00790824BE538F0E539A3F0E53AA3F0E53BA3F06C
:206062008538F0E53942F0E53A42F0E53B547F45F070030265419081F3E0F8A3E0F9A3E0B2
:20608200FAA3E0FBC007C006C005C004C02CC02DC02EC02F888289838AF0EB12685B858263
:2060A2002C85832D85F02EF52FE58124FCF5819081F7E0F8A3E0F9A3E0FAA3E0FBC026C0BD
:2060C20027C028C029888289838AF0EB12685BA882A983AAF0FBE58124FCF581C030C031AE
:2060E200C032C033888289838AF0EB12685BA882A983AAF0FBE58124FCF581C000C001C041
:2061020002C003852C82852D83852EF0E52F126B5785822C85832D85F02EF52FE58124FC10
:20612200F581D004D005D006D0079081FBE0F8A3E0F9A3E0FAA3E0FBC007C006C005C00420
:20614200C004C005C006C007888289838AF0EB12685BA882A983AAF0FBE58124FCF581C030
:2061620034C035C036C037888289838AF0EB12685BA882A983AAF0FBE58124FCF581C00010
:20618200C001C002C003852C82852D83852EF0E52F126B5785822C85832D85F02EF52FE5B0
:2061A2008124FCF5819081FFE0F8A3E0F9A3E0FAA3E0FBC022C023C024C025888289838A39
:2061C200F0EB12685BA882A983AAF0FBE58124FCF581C000C001C002C003852C82852D83B8
:2061E200852EF0E52F126B5785822C85832D85F02EF52FE58124FCF581908203E0F8A3E077
:20620200F9A3E0FAA3E0FBC026C027C028C029888289838AF0EB12685BA882A983AAF0FBAF
:20622200E58124FCF581C000C001C002C003852C82852D83852EF0E52F126B5785822C85AF
:20624200832D85F02EF52FE58124FCF581D004D005D006D007908207E0F8A3E0F9A3E0FA89
:20626200A3E0FBC007C006C005C004C004C005C006C007888289838AF0EB12685BA882A94F
:2062820083AAF0FBE58124FCF581C030C031C032C033888289838AF0EB12685BA882A9837C
:2062A200AAF0FBE58124FCF581C000C001C002C003852C82852D83852EF0E52F126B5785CD
:2062C200822C85832D85F02EF52FE58124FCF58190820BE0F8A3E0F9A3E0FAA3E0FBC034B6
:2062E200C035C036C037888289838AF0EB12685BA882A983AAF0FBE58124FCF581C000C003
:2063020001C002C003852C82852D83852EF0E52F126B5785823485833585F036F537E5814D
:2063220024FCF581D004D005D006D00790820FE0F8A3E0F9A3E0FAA3E0FBC004C005C006B0
:20634200C007888289838AF0EB12685BAC82AD83AEF0FFE58124FCF581C004C005C006C01E
:20636200078534828535838536F0E537126B57AC82AD83AEF0FFE58124FCF581908213E005
:20638200F8A3E0F9A3E0FAA3E0FBC007C006C005C004C030C031C032C033888289838AF020
:2063A200EB12685BA882A983AAF0FBE58124FCF581D004D005D006D007C000C001C002C0DB
:2063C200038C828D838EF0EF126B57AC82AD83AEF0FFE58124FCF581908217E0C0E0A3E036
:2063E200C0E0A3E0C0E0A3E0C0E08C828D838EF0EF126B57AC82AD83AEF0FFE58124FCF5E0
:2064020081908247ECF0EDA3F0EEA3F0EFA3F0C038C039C03AC03B8C828D838EF0EF126C52
:2064220062AC82AD83AEF0FFE58124FCF581908243ECF0EDA3F0EEA3F0EFA3F0C007C006C0
:20644200C005C00490829BE0C0E0A3E0C0E0A3E0C0E0A3E0C0E08C828D838EF0EF126A9B79
:20646200E58124FCF581D004D005D006D007E58224FF9200407C908297E0F8A3E0F9A3E070
:20648200FAA3E0FBC004C005C006C007888289838AF0EB126A9BE58124FCF581E58224FF54
:2064A2009200404E9081D5E0FEA3E0FF9081D7E0FCA3E0FD9081A8E0FB9081A9E0FA9081F7
:2064C200AAE0F99080B5EEF0EFA3F09080B7ECF0EDA3F09080B9E4F0A3F09080BBEBF09089
:2064E20080BCEAF09080BDE9F0758200120DC002658C9081D5E0FEA3E0FF9081D7E0FCA368
:20650200E0FD9081ABE0FB9081ACE0FA9081ADE0F99080B5EEF0EFA3F09080B7ECF0EDA37F
:20652200F09080B9E4F0A3F09080BBEBF09080BCEAF09080BDE9F0758200120DC0804B9016
:2065420081D5E0FEA3E0FF9081D7E0FCA3E0FD9081AEE0FB9081AFE0FA9081B0E0F9908061
:20656200B5EEF0EFA3F09080B7ECF0EDA3F09080B9E4F0A3F09080BBEBF09080BCEAF090D5
:2065820080BDE9F0758200120DC09081D5E02401F0A3E03400F09081CDE0FCA3E0FDA3E0CE
:2065A200FEA3E0FF9081C5E0F8A3E0F9A3E0FAA3E0FB9081C5EC28F0ED39A3F0EE3AA3F0E6
:2065C200EF3BA3F0025BB49081B3E0FEA3E0FF9081D7E0FCA3E0FD9081D7EE2CF0EF3DA3C2
:2065E200F09081D1E0FCA3E0FDA3E0FEA3E0FF9081C9E0F8A3E0F9A3E0FAA3E0FB9081C965
:20660200EC28F0ED39A3F0EE3AA3F0EF3BA3F0025A039081B1E0F5F0A3E045F060030267D9
:20662200729080627430F0908063E4F090806474B9F07483A3F0E4A3F075820012088C90DA
:2066420080627431F0908063E4F090806474B9F07483A3F0E4A3F075820012088C908062D9
:206662007434F0908063E4F090806474B9F07483A3F0E4A3F075820112088C9080627435EE
:20668200F0908063E4F090806474B9F07483A3F0E4A3F075820112088C9082A07401F090EA
:2066A20082A0E060539082A0E4F07E01FF9081B3E0FCA3E0FDC3EE9CEF64808DF063F0808F
:2066C20095F050DB740A2EFCE43FFD90812EECF0EDA3F0ED3395E0A3F0A3F0758201C0072B
:2066E200C00612135CAD82D006D0079082A0E02DF00EBE00B80F80B59080627430F09080E8
:2067020063E4F0908064748FF07483A3F0E4A3F075820012088C9080627431F0908063E4DD
:20672200F090806474A5F07483A3F0E4A3F075820012088C9080627434F0908063E4F0906B
:206742008064748FF07483A3F0E4A3F075820112088C9080627435F0908063E4F0908064FB
:2067620074A5F07483A3F0E4A3F075820112088C9081B1E0FEA3E0FF740A2EFEE43FFF90F1
:1D678200815BEEF0EFA3F0EF3395E0A3F0A3F090815FE4F075820112160D023DEE63
:206D88005858580058585900585959005959590058580058590059590058005900436F6EE1
:206DA800737400546F6C6572616E6365004E756D657261746F720044656E6F6D696E6174EB
:206DC8006F72004C696E650050617261626F6C61004879706572626F6C6100436972636C8D
:206DE8006500547275650046616C7365004469762030004D696E002D32303000526564002A
:206E08003235350036340030004D61780032303000477265656E0053746570003200426C0F
:206E280075650054687265616473202831202D2038290031005468720000000000000000FF
:206E4800000000000000000100FFFF0000000000000000000000000000000000000000012A
:206E680000020000000000000000000100000000000000F6FF000000000000000000000012
:206E88000000000000000000000100140000000000000000000000FFFF000000000000E8EF
:206EA8000300000000000000000000000000000100010000000200000000000000000001C2
:206EC800000000010000000000F0D800000000000000000000000000000000000001009050
:206EE800010100020003000400050006000700080009000A000B000C000D000E000F001001
:206F0800001100120013001400150044726177206368617274202D207374616E646172648C
:1D6F28000044726177206368617274202D20656E67696E650057616974696E6700D6
:20679F00AF82AE83ADF0FC9082A5EFF0EEA3F0EDA3F0ECA3F09082A5E0FCA3E0FDA3E0FE35
