:03000000020006F5
:03005F0002000399
:03000300021A07D7
:20006200907F0075F00074F7121C0F907F08E0F58222E582908000F0E0FF907F0175F00017
:20008200EF121C0F158274FC121C0F907F08E0FCA3E0FDA3E0FEA3E08C828D838EF0229029
:2000A2007F0075F00074FA021C0FAFF0AE83E582908001F0EEA3F0EFA3F0907F0175F0000F
:2000C200740B121C0F908001E0FDA3E0FEA3E0FF7C00EC2DF9E43EFA8F0389828A838BF0A2
:2000E200121C96FB6013907F08EBF0907F0075F00074FB121C0F0C80D922E582908004F0C8
:20010200E0907F08F0907F01E4F5F0121C0F1582F5F074FB021C0FE582908005F0E0907F6D
:2001220008F0907F0175F0007401121C0F158274FB021C0FE582908006F0E0907F08F09087
:200142007F0175F0007402121C0F158274FB021C0FE582908007F0E0907F08F0907F0175F8
:20016200F0007403121C0F158274FB021C0FAF83E582908008F0EFA3F0908008E0FEA3E00A
:20018200FF907F08EEF0EFA3F0907F0175F0007404121C0F1582F4021C0FAF83E58290805C
:2001A2000AF0EFA3F090800AE0FEA3E0FF907F08EEF0EFA3F0907F0175F0007405121C0FA5
:2001C200158274FB021C0FAF83E58290800CF0EFA3F090800CE0FEA3E0FF907F08EEF0EF63
:2001E200A3F0907F0175F0007406121C0F158274FB021C0FAF83E58290800EF0EFA3F09052
:20020200800EE0FEA3E0FF907F08EEF0EFA3F0907F0175F0007407121C0F158274FB021C26
:200222000FAF82AE83ADF0FC908010EFF0EEA3F0EDA3F0ECA3F0908010E0FCA3E0FDA3E034
:20024200FEA3E0FF907F08ECF0EDA3F0EEA3F0EFA3F0907F0175F0007408121C0F1582746D
:20026200FB021C0FAF82AE83ADF0FC908014EFF0EEA3F0EDA3F0ECA3F0908014E0FCA3E053
:20028200FDA3E0FEA3E0FF907F08ECF0EDA3F0EEA3F0EFA3F0907F0175F0007409121C0FB7
:2002A200158274FB021C0FAF82AE83ADF0FC908018EFF0EEA3F0EDA3F0ECA3F0908018E07F
:2002C200FCA3E0FDA3E0FEA3E0FF907F08ECF0EDA3F0EEA3F0EFA3F0907F0175F000740A34
:2002E200121C0F158274FB021C0FAFF0AE83E58290801EF0EEA3F0EFA3F0907F0175F000BF
:20030200740B121C0F158274F8121C0F907F08E0FEA3E0FF908021EEF0EFA3F090801CE0CB
:20032200FCA3E0FDC3EC9EED9F5008908021ECF0EDA3F090801EE0FDA3E0FEA3E0FF908063
:200342001EE0F5F0A3E045F06064908021E0FBA3E0FC79007A00C3E99BEA9C5034C003C0EA
:2003620004907F0075F00074F9121C0FE92DF521EA3EF5228F23907F08E0852182852283F3
:200382008523F0121C0F09B900010AD004D00380C590801EE0FDA3E0FEA3E0FFEB2DFBECC0
:2003A2003EFC8F028B828C838AF0E4121C0F908021E0FEA3E08E82F58322907F01E4F5F0A4
:2003C200121C0F1582F5F074F8121C0F907F08E0F58222907F0175F0007401121C0F15826B
:2003E20074F8121C0F907F08E0F58222907F0175F0007402121C0F158274F8121C0F907F4B
:2004020008E0F58222907F0175F0007403121C0F158274F8121C0F907F08E0F58222907F51
:200422000175F0007404121C0F158274F8121C0F907F08E0FEA3E08E82F58322907F0175B8
:20044200F0007405121C0F158274F8121C0F907F08E0FEA3E08E82F58322907F0175F0001D
:200462007406121C0F158274F8121C0F907F08E0FEA3E08E82F58322907F0175F000740771
:20048200121C0F1582F4121C0F907F08E0FEA3E08E82F58322907F0175F0007408121C0F05
:2004A200158274F8121C0F907F08E0FCA3E0FDA3E0FEA3E08C828D838EF022907F0175F050
:2004C200007409121C0F158274F8121C0F907F08E0FCA3E0FDA3E0FEA3E08C828D838EF00D
:2004E20022907F0175F000740A121C0F158274F8121C0F907F08E0FCA3E0FDA3E0FEA3E0F1
:200502008C828D838EF022E582908029F0908023E0907F10F0908024E0907F18F090802509
:20052200E0907F20F0908029E0FF907F0175F000EF121C0FA3E4121C0F908026E0907F0315
:20054200121C0F908027E0907F04121C0F908028E0907F05121C0F907F00740D021C0FE5EA
:2005620082908030F090802AE0907F10F090802BE0907F18F090802CE0907F20F0908030F1
:20058200E0FF907F0175F000EF121C0FA37401121C0F90802DE0907F03121C0F90802EE0FA
:2005A200907F04121C0F90802FE0907F05121C0F907F00740D021C0FE58290803AF090800B
:2005C20031E0FEA3E0FF907F10EEF0EFA3F0908033E0FEA3E0FF907F18EEF0EFA3F09080CF
:2005E20035E0FEA3E0FF907F20EEF0EFA3F090803AE0FF907F0175F000EF121C0FA37404F0
:20060200121C0F908037E0907F03121C0F908038E0907F04121C0F908039E0907F05121C42
:200622000F907F00740D021C0FE582908044F090803BE0FEA3E0FF907F10EEF0EFA3F09087
:20064200803DE0FEA3E0FF907F18EEF0EFA3F090803FE0FEA3E0FF907F20EEF0EFA3F09026
:200662008044E0FF907F0175F000EF121C0FA37405121C0F908041E0907F03121C0F90804B
:2006820042E0907F04121C0F908043E0907F05121C0F907F00740D021C0FE58290804EF0F0
:2006A200908045E0FEA3E0FF907F10EEF0EFA3F0908047E0FEA3E0FF907F18EEF0EFA3F0C6
:2006C200908049E0FEA3E0FF907F20EEF0EFA3F090804EE0FF907F0175F000EF121C0FA34F
:2006E2007406121C0F90804BE0907F03121C0F90804CE0907F04121C0F90804DE0907F05DA
:20070200121C0F907F00740D021C0FE582908058F090804FE0FEA3E0FF907F10EEF0EFA3D0
:20072200F0908051E0FEA3E0FF907F18EEF0EFA3F0908053E0FEA3E0FF907F20EEF0EFA31D
:20074200F0908058E0FF907F0175F000EF121C0FA37407121C0F908055E0907F03121C0FD0
:20076200908056E0907F04121C0F908057E0907F05121C0F907F00740D021C0FE582908015
:2007820068F0908059E0FCA3E0FDA3E0FEA3E0FF907F10ECF0EDA3F0EEA3F0EFA3F09080A9
:2007A2005DE0FCA3E0FDA3E0FEA3E0FF907F18ECF0EDA3F0EEA3F0EFA3F0908061E0FCA305
:2007C200E0FDA3E0FEA3E0FF907F20ECF0EDA3F0EEA3F0EFA3F0908068E0FF907F0175F0DD
:2007E20000EF121C0FA37408121C0F908065E0907F03121C0F908066E0907F04121C0F9095
:200802008067E0907F05121C0F907F00740D021C0FE582908078F0908069E0FCA3E0FDA3AA
:20082200E0FEA3E0FF907F10ECF0EDA3F0EEA3F0EFA3F090806DE0FCA3E0FDA3E0FEA3E0FB
:20084200FF907F18ECF0EDA3F0EEA3F0EFA3F0908071E0FCA3E0FDA3E0FEA3E0FF907F2002
:20086200ECF0EDA3F0EEA3F0EFA3F0908078E0FF907F0175F000EF121C0FA37409121C0FB2
:20088200908075E0907F03121C0F908076E0907F04121C0F908077E0907F05121C0F907F25
:2008A20000740D021C0FE582908088F0908079E0FCA3E0FDA3E0FEA3E0FF907F10ECF0EDC9
:2008C200A3F0EEA3F0EFA3F090807DE0FCA3E0FDA3E0FEA3E0FF907F18ECF0EDA3F0EEA380
:2008E200F0EFA3F0908081E0FCA3E0FDA3E0FEA3E0FF907F20ECF0EDA3F0EEA3F0EFA3F006
:20090200908088E0FF907F0175F000EF121C0FA3740A121C0F908085E0907F03121C0F900B
:200922008086E0907F04121C0F908087E0907F05121C0F907F00740D021C0FE58290808AF9
:20094200F0E0907F08F0908089E0907F10F0907F01E4F5F0121C0F1582F5F074EB121C0F08
:20096200907F08E0F58222E58290808CF0E0907F08F090808BE0907F10F0907F0175F0000C
:200982007401121C0F158274EB121C0F907F08E0F58222AF83E58290808FF0EFA3F0908026
:2009A2008FE0FEA3E0FF907F08EEF0EFA3F090808DE0FEA3E0FF907F10EEF0EFA3F0907F44
:2009C2000175F0007404121C0F158274EB121C0F907F08E0FEA3E08E82F58322AF83E5820C
:2009E200908093F0EFA3F0908093E0FEA3E0FF907F08EEF0EFA3F0908091E0FEA3E0FF90D5
:200A02007F10EEF0EFA3F0907F0175F0007405121C0F158274EB121C0F907F08E0FEA3E00F
:200A22008E82F58322AF83E582908097F0EFA3F0908097E0FEA3E0FF907F08EEF0EFA3F0DA
:200A4200908095E0FEA3E0FF907F10EEF0EFA3F0907F0175F0007406121C0F158274EB12DC
:200A62001C0F907F08E0FEA3E08E82F58322AF83E58290809BF0EFA3F090809BE0FEA3E065
:200A8200FF907F08EEF0EFA3F0908099E0FEA3E0FF907F10EEF0EFA3F0907F0175F000746D
:200AA20007121C0F158274EB121C0F907F08E0FEA3E08E82F58322AF82AE83ADF0FC908090
:200AC200A1EFF0EEA3F0EDA3F0ECA3F09080A1E0FCA3E0FDA3E0FEA3E0FF907F08ECF0ED24
:200AE200A3F0EEA3F0EFA3F090809DE0FCA3E0FDA3E0FEA3E0FF907F10ECF0EDA3F0EEA346
:200B0200F0EFA3F0907F0175F0007408121C0F158274EB121C0F907F08E0FCA3E0FDA3E00A
:200B2200FEA3E08C828D838EF022AF82AE83ADF0FC9080A9EFF0EEA3F0EDA3F0ECA3F090D1
:200B420080A9E0FCA3E0FDA3E0FEA3E0FF907F08ECF0EDA3F0EEA3F0EFA3F09080A5E0FC04
:200B6200A3E0FDA3E0FEA3E0FF907F10ECF0EDA3F0EEA3F0EFA3F0907F0175F0007409126E
:200B82001C0F158274EB121C0F907F08E0FCA3E0FDA3E0FEA3E08C828D838EF022AF82AEE1
:200BA20083ADF0FC9080B1EFF0EEA3F0EDA3F0ECA3F09080B1E0FCA3E0FDA3E0FEA3E0FFD7
:200BC200907F08ECF0EDA3F0EEA3F0EFA3F09080ADE0FCA3E0FDA3E0FEA3E0FF907F10EC76
:200BE200F0EDA3F0EEA3F0EFA3F0907F0175F000740A121C0F158274EB121C0F907F08E026
:200C0200FCA3E0FDA3E0FEA3E08C828D838EF022E5829080B9F09080B5E0FCA3E0FDA3E0D0
:200C2200FEA3E0FF907F10ECF0EDA3F0EEA3F0EFA3F09080B9E0FF907F0175F000EF121C7A
:200C42000FA37401121C0F907F007415121C0F907F08E0F58222E5829080BEF09080BAE0FA
:200C6200FCA3E0FDA3E0FEA3E0FF907F10ECF0EDA3F0EEA3F0EFA3F09080BEE0FF907F01B8
:200C820075F000EF121C0FA37401121C0F907F007415121C0F907F08E0F58222E582908090
:200CA200C3F09080BFE0FCA3E0FDA3E0FEA3E0FF907F10ECF0EDA3F0EEA3F0EFA3F09080C3
:200CC200C3E0FF907F0175F000EF121C0FA37402121C0F907F007415121C0F907F08E0FEAF
:200CE200A3E08E82F58322E5829080C8F09080C4E0FCA3E0FDA3E0FEA3E0FF907F10ECF068
:200D0200EDA3F0EEA3F0EFA3F09080C8E0FF907F0175F000EF121C0FA37402121C0F907F91
:200D2200007415121C0F907F08E0FEA3E08E82F58322E5829080CDF09080C9E0FCA3E0FD60
:200D4200A3E0FEA3E0FF907F10ECF0EDA3F0EEA3F0EFA3F09080CDE0FF907F0175F000EFF0
:200D6200121C0FA37402121C0F907F007415121C0F907F08E0FEA3E08E82F58322E58290F0
:200D820080D2F09080CEE0FCA3E0FDA3E0FEA3E0FF907F10ECF0EDA3F0EEA3F0EFA3F090C4
:200DA20080D2E0FF907F0175F000EF121C0FA37402121C0F907F007415121C0F907F08E03D
:200DC200FEA3E08E82F58322E5829080D7F09080D3E0FCA3E0FDA3E0FEA3E0FF907F10EC5B
:200DE200F0EDA3F0EEA3F0EFA3F09080D7E0FF907F0175F000EF121C0FA37404121C0F902F
:200E02007F007415121C0F907F08E0FCA3E0FDA3E0FEA3E08C828D838EF022E5829080DC03
:200E2200F09080D8E0FCA3E0FDA3E0FEA3E0FF907F10ECF0EDA3F0EEA3F0EFA3F09080DC0F
:200E4200E0FF907F0175F000EF121C0FA37404121C0F907F007415121C0F907F08E0FCA34D
:200E6200E0FDA3E0FEA3E08C828D838EF022E5829080E1F09080DDE0FCA3E0FDA3E0FEA31C
:200E8200E0FF907F10ECF0EDA3F0EEA3F0EFA3F09080E1E0FF907F0175F000EF121C0FA3DF
:200EA2007404121C0F907F007415121C0F907F08E0FCA3E0FDA3E0FEA3E08C828D838EF093
:200EC20022E5829080E7F09080E6E0907F08F09080E2E0FCA3E0FDA3E0FEA3E0FF907F1053
:200EE200ECF0EDA3F0EEA3F0EFA3F09080E7E0FF907F0175F000EF121C0FA37401121C0FC5
:200F0200907F007416021C0FE5829080EDF09080ECE0907F08F09080E8E0FCA3E0FDA3E0FB
:200F2200FEA3E0FF907F10ECF0EDA3F0EEA3F0EFA3F09080EDE0FF907F0175F000EF121C43
:200F42000FA37401121C0F907F007416021C0FE5829080F4F09080F2E0FEA3E0FF907F0891
:200F6200EEF0EFA3F09080EEE0FCA3E0FDA3E0FEA3E0FF907F10ECF0EDA3F0EEA3F0EFA324
:200F8200F09080F4E0FF907F0175F000EF121C0FA37402121C0F907F007416021C0FE58258
:200FA2009080FBF09080F9E0FEA3E0FF907F08EEF0EFA3F09080F5E0FCA3E0FDA3E0FEA3CF
:200FC200E0FF907F10ECF0EDA3F0EEA3F0EFA3F09080FBE0FF907F0175F000EF121C0FA384
:200FE2007402121C0F907F007416021C0FE582908102F0908100E0FEA3E0FF907F08EEF0A6
:20100200EFA3F09080FCE0FCA3E0FDA3E0FEA3E0FF907F10ECF0EDA3F0EEA3F0EFA3F090D3
:201022008102E0FF907F0175F000EF121C0FA37402121C0F907F007416021C0FE582908117
:2010420009F0908107E0FEA3E0FF907F08EEF0EFA3F0908103E0FCA3E0FDA3E0FEA3E0FF33
:20106200907F10ECF0EDA3F0EEA3F0EFA3F0908109E0FF907F0175F000EF121C0FA374023D
:20108200121C0F907F007416021C0FE582908112F090810EE0FCA3E0FDA3E0FEA3E0FF90C3
:2010A2007F08ECF0EDA3F0EEA3F0EFA3F090810AE0FCA3E0FDA3E0FEA3E0FF907F10ECF0D3
:2010C200EDA3F0EEA3F0EFA3F0908112E0FF907F0175F000EF121C0FA37404121C0F907F81
:2010E200007416021C0FE58290811BF0908117E0FCA3E0FDA3E0FEA3E0FF907F08ECF0ED4D
:20110200A3F0EEA3F0EFA3F0908113E0FCA3E0FDA3E0FEA3E0FF907F10ECF0EDA3F0EEA3A8
:20112200F0EFA3F090811BE0FF907F0175F000EF121C0FA37404121C0F907F007416021C80
:201142000FE582908124F0908120E0FCA3E0FDA3E0FEA3E0FF907F08ECF0EDA3F0EEA3F06E
:20116200EFA3F090811CE0FCA3E0FDA3E0FEA3E0FF907F10ECF0EDA3F0EEA3F0EFA3F09051
:201182008124E0FF907F0175F000EF121C0FA37404121C0F907F007416021C0FE582908192
:2011A2002CF0E0FF907F0175F000EF121C0F908125E0907F02121C0F908126E0907F0312F2
:2011C2001C0F908127E0907F04121C0F908128E0907F05121C0F908129E0907F06121C0FA4
:2011E20090812AE0907F07121C0F90812BE0907F08121C0F907F00740F021C0FE5829081D8
:2012020030F090812DE0907F10F090812EE0907F18F090812FE0907F20F0908130E0FF905A
:201222007F0175F000EF121C0FA3E4121C0FF582F5F07410021C0FE582908134F0908131EC
:20124200E0907F10F0908132E0907F18F0908133E0907F20F0908134E0FF907F0175F00087
:20126200EF121C0FA37401121C0F907F00C4021C0FE58290813BF0908135E0FEA3E0FF9012
:201282007F10EEF0EFA3F0908137E0FEA3E0FF907F18EEF0EFA3F0908139E0FEA3E0FF90F4
:2012A2007F20EEF0EFA3F090813BE0FF907F0175F000EF121C0FA37404121C0F907F007486
:2012C20010021C0FE582908142F090813CE0FEA3E0FF907F10EEF0EFA3F090813EE0FEA329
:2012E200E0FF907F18EEF0EFA3F0908140E0FEA3E0FF907F20EEF0EFA3F0908142E0FF9084
:201302007F0175F000EF121C0FA37405121C0F907F007410021C0FE582908149F09081439C
:20132200E0FEA3E0FF907F10EEF0EFA3F0908145E0FEA3E0FF907F18EEF0EFA3F090814737
:20134200E0FEA3E0FF907F20EEF0EFA3F0908149E0FF907F0175F000EF121C0FA374061293
:201362001C0F907F007410021C0FE582908150F090814AE0FEA3E0FF907F10EEF0EFA3F08E
:2013820090814CE0FEA3E0FF907F18EEF0EFA3F090814EE0FEA3E0FF907F20EEF0EFA3F0B9
:2013A200908150E0FF907F0175F000EF121C0FA37407121C0F907F007410021C0FE5829038
:2013C200815DF0908151E0FCA3E0FDA3E0FEA3E0FF907F10ECF0EDA3F0EEA3F0EFA3F0906E
:2013E2008155E0FCA3E0FDA3E0FEA3E0FF907F18ECF0EDA3F0EEA3F0EFA3F0908159E0FCEA
:20140200A3E0FDA3E0FEA3E0FF907F20ECF0EDA3F0EEA3F0EFA3F090815DE0FF907F0175E7
:20142200F000EF121C0FA37408121C0F907F0023021C0FE58290816AF090815EE0FCA3E033
:20144200FDA3E0FEA3E0FF907F10ECF0EDA3F0EEA3F0EFA3F0908162E0FCA3E0FDA3E0FEBC
:20146200A3E0FF907F18ECF0EDA3F0EEA3F0EFA3F0908166E0FCA3E0FDA3E0FEA3E0FF90FC
:201482007F20ECF0EDA3F0EEA3F0EFA3F090816AE0FF907F0175F000EF121C0FA37409121F
:2014A2001C0F907F007410021C0FE582908177F090816BE0FCA3E0FDA3E0FEA3E0FF907F76
:2014C20010ECF0EDA3F0EEA3F0EFA3F090816FE0FCA3E0FDA3E0FEA3E0FF907F18ECF0EDCC
:2014E200A3F0EEA3F0EFA3F0908173E0FCA3E0FDA3E0FEA3E0FF907F20ECF0EDA3F0EEA355
:20150200F0EFA3F0908177E0FF907F0175F000EF121C0FA3740A121C0F907F007410021C40
:201522000FE582908179F0908178E0FF908179E0FE907F0175F000EE121C0FA3E4121C0F85
:20154200907F08EFF0907F007411021C0FE58290817BF090817AE0FF90817BE0FE907F010B
:2015620075F000EE121C0FA37401121C0F907F08EFF0907F007411021C0FE58290817DF0E8
:2015820090817CE0FF90817DE0FE907F0175F000EE121C0FA37402121C0F907F08EFF090F5
:2015A2007F007411021C0FE58290817FF090817EE0FF90817FE0FE907F0175F000EE121CA4
:2015C2000FA37403121C0F907F08EFF0907F007411021C0FE582908182F0908180E0FEA3F0
:2015E200E0FF908182E0FD907F0175F000ED121C0FA37404121C0F907F08EEF0EFA3F0909C
:201602007F007411021C0FE582908185F0908183E0FEA3E0FF908185E0FD907F0175F000CE
:20162200ED121C0FA37405121C0F907F08EEF0EFA3F0907F007411021C0FE582908188F0FD
:20164200908186E0FEA3E0FF908188E0FD907F0175F000ED121C0FA37406121C0F907F080B
:20166200EEF0EFA3F0907F007411021C0FE58290818BF0908189E0FEA3E0FF90818BE0FDE1
:20168200907F0175F000ED121C0FA37407121C0F907F08EEF0EFA3F0907F007411021C0F16
:2016A200E582908190F090818CE0FCA3E0FDA3E0FEA3E0FF908190E0FB907F0175F000EB58
:2016C200121C0FA37408121C0F907F08ECF0EDA3F0EEA3F0EFA3F0907F007411021C0FE553
:2016E20082908195F0908191E0FCA3E0FDA3E0FEA3E0FF908195E0FB907F0175F000EB12DC
:201702001C0FA37409121C0F907F08ECF0EDA3F0EEA3F0EFA3F0907F007411021C0FE582A1
:2017220090819AF0908196E0FCA3E0FDA3E0FEA3E0FF90819AE0FB907F0175F000EB121CF2
:201742000FA3740A121C0F907F08ECF0EDA3F0EEA3F0EFA3F0907F007411021C0FE58290EC
:20176200819EF090819BE0FDA3E0FEA3E0FF90819BE0F5F0A3E045F06018C007C006C005D9
:201782001200A1D005D006D0078D828E838FF01200AC90819EE0FF907F0175F000EF121C95
:2017A2000FA3740B121C0F907F007411021C0FE5829081A4F0E0FF907F0175F000EF121C7B
:2017C2000F90819FE0FEA3E0FF907F08EEF0EFA3F09081A1E0FEA3E0FF907F10EEF0EFA3D0
:2017E200F09081A3E0907F02121C0F907F007412021C0FAF83E5829081A7F0EFA3F012007E
:2018020062AF829081A7E0FDA3E0FEED2DFDEE33FE907F0175F000EF121C0F1582740A121F
:201822001C0F9081A5E0FBA3E0FCC3EB9410EC6480948040030218CA9081257401F0908162
:2018420026E4F0908127F0908128F090812914F090812AF090812BF08F82C007C006C00543
:20186200C004C00312119ED003D004D005D006D00790819FE4F0A3F09081A1F0A3F0908198
:20188200A3F08F82C007C006C005C004C0031217B11200A1D003D0048B828C831201C9900D
:2018A2001CB675F0801200ACD005D006D00790819BE4F0A3F0A3F08F82C007C006C0051214
:2018C200175FD005D006D0079081A9E4F0A3F0A3F0A3F09081A7E0FBA3E0FC79007A00C3FF
:2018E200E99DEA64808EF063F08095F040012289009081AD740158F0E9C39BF508EA9CF596
:20190200099081A9E0F50AA3E0F50BA3E0F50CA3E0F50DE4F50EF50FC3E50E9DE50F648081
:201922008EF063F08095F040030219ED9081ADE070030219C1C005C0069080C9E50AF0E56F
:201942000BA3F0E50CA3F0E50DA3F0758200C007C005C004C003C002C001120D34A882AE26
:2019620083D001D002D003D004D005D007908045E50EC39BF0E50F9CA3F0908047E508F0FF
:20198200E509A3F0908049E8F0EEA3F090804B7480F090804CF090804DF08F82C007C0069C
:2019A200C005C004C003C002C00112069CD001D002D003D004D005D006D007D006D005909B
:2019C20081ADE0B4010092009081ADE433F0050AE4B50A0C050BB50B07050CB50C02050D70
:2019E200050EE4B50E02050F02191A9081A9E50AF0E50BA3F0E50CA3F0E50DA3F009B900F9
:201A0200010A0218E1907F0175F0007480121C0FA3E4121C0FF582F5F07414121C0FA3E4AC
:201A2200121C0FA3F5F07402121C0F907F007414121C0F9081A5E4F0A3F09001001217F58C
:201A4200E4F51A751B40F51CF51D7A01FBC3E4951AE4951BE4951C7480851DF063F08095BB
:201A6200F04003021C049081AEE4F004A3F0E4A3F0A3F0F510F511F512F513C3E511940272
:201A8200E5129400E513648094804003021BC6C002C0039080957401F0E4A3F0900000C04D
:201AA20003C002120A27A882A983D002D003E828F8E933F9E824FFF514E934FFF5159081B9
:201AC200AEE0F516A3E0F517A3E0F518A3E0F519A814E515F93395E0FAFB9081AEE825168D
:201AE200F0E93517A3F0EA3518A3F0EB3519A3F09081AEE0F516A3E0F517A3E0F518A3E04A
:201B0200F519D003D00230E703021BB1C3E5179402E5189400E519648094804003021BB13B
:201B2200C002C0039081B3E4F07402A3F0E4A3F0A3F08510828511838512F0E513121C2A6C
:201B4200A882A983AAF0FBE51628F8E51739F9E5183AFAE5193BFB9080C9E8F0E9A3F0EAD3
:201B6200A3F0EBA3F0758200C003C002C001C000120D34E5828583F0D000D001D002D0035D
:201B82002401FEE435F0FF9080FCE8F0E9A3F0EAA3F0EBA3F0908100EEF0EFA3F075820055
:201BA200C003C002120FEFD002D003D003D0020510E4B5100C0511B511070512B5120205B2
:201BC20013021A7D151A74FFB51A0C151BB51B07151CB51C02151DE51A7006E51B54036071
:201BE20003021A4F9081A5EAF0EBA3F0900100C003C0021217F5D002D0030ABA00010B02BC
:0D1C02001A4F907F0075F00074FD021C0F5A
:041CB6002F31360094
:06003500E478FFF6D8FD9F
:200013007900E94400601B7A00901CBA78B775A081E493F2A308B8000205A0D9F4DAF27586
:02003300A0FF2C
:1B1C0F0020F71130F6138883A88220F509F6A8837583002280FEF280F5F022D4
:201C2A00A882A983AAF0FB88F09081B3E0A4FCADF089F0E0A42DFDE435F0FE88F0A3E0A489
:201C4A002DFDE5F03EFEE433FF89F0E0A42EFEE5F03FFF88F0A3E0A42EFEE5F03FFF8AF095
:201C6A009081B3E0A42EFEE5F03FFF8BF0E0A42FFF8AF0A3E0A42FFF89F0A3E0A42FFF8881
:0C1C8A00F0A3E0A42F8EF08D838C82224A
:20003B007800E84400600A790075A080E4F309D8FC78B7E84401600C7902908000E4F0A30B
:04005B00D8FCD9FAFA
:0D000600758123121CB2E582600302000325
:1C1C960020F71430F6148883A88220F507E6A88375830022E280F7E49322E0225D
:041CB2007582002215
:00000001FF
