:03000000020006F5
:03005F0002000399
:03000300021A08D6
:20006200907F0075F00074F7121C10907F08E0F58222E582908000F0E0FF907F0175F00016
:20008200EF121C10158274FC121C10907F08E0FCA3E0FDA3E0FEA3E08C828D838EF0229027
:2000A2007F0075F00074FA021C10AFF0AE83E582908001F0EEA3F0EFA3F0907F0175F0000E
:2000C200740B121C10908001E0FDA3E0FEA3E0FF7C00EC2DF9E43EFA8F0389828A838BF0A1
:2000E200121C97FB6013907F08EBF0907F0075F00074FB121C100C80D922E582908004F0C6
:20010200E0907F08F0907F01E4F5F0121C101582F5F074FB021C10E582908005F0E0907F6B
:2001220008F0907F0175F0007401121C10158274FB021C10E582908006F0E0907F08F09085
:200142007F0175F0007402121C10158274FB021C10E582908007F0E0907F08F0907F0175F6
:20016200F0007403121C10158274FB021C10AF83E582908008F0EFA3F0908008E0FEA3E008
:20018200FF907F08EEF0EFA3F0907F0175F0007404121C101582F4021C10AF83E58290805A
:2001A2000AF0EFA3F090800AE0FEA3E0FF907F08EEF0EFA3F0907F0175F0007405121C10A4
:2001C200158274FB021C10AF83E58290800CF0EFA3F090800CE0FEA3E0FF907F08EEF0EF62
:2001E200A3F0907F0175F0007406121C10158274FB021C10AF83E58290800EF0EFA3F09050
:20020200800EE0FEA3E0FF907F08EEF0EFA3F0907F0175F0007407121C10158274FB021C25
:2002220010AF82AE83ADF0FC908010EFF0EEA3F0EDA3F0ECA3F0908010E0FCA3E0FDA3E033
:20024200FEA3E0FF907F08ECF0EDA3F0EEA3F0EFA3F0907F0175F0007408121C101582746C
:20026200FB021C10AF82AE83ADF0FC908014EFF0EEA3F0EDA3F0ECA3F0908014E0FCA3E052
:20028200FDA3E0FEA3E0FF907F08ECF0EDA3F0EEA3F0EFA3F0907F0175F0007409121C10B6
:2002A200158274FB021C10AF82AE83ADF0FC908018EFF0EEA3F0EDA3F0ECA3F0908018E07E
:2002C200FCA3E0FDA3E0FEA3E0FF907F08ECF0EDA3F0EEA3F0EFA3F0907F0175F000740A34
:2002E200121C10158274FB021C10AFF0AE83E58290801EF0EEA3F0EFA3F0907F0175F000BD
:20030200740B121C10158274F8121C10907F08E0FEA3E0FF908021EEF0EFA3F090801CE0C9
:20032200FCA3E0FDC3EC9EED9F5008908021ECF0EDA3F090801EE0FDA3E0FEA3E0FF908063
:200342001EE0F5F0A3E045F06064908021E0FBA3E0FC79007A00C3E99BEA9C5034C003C0EA
:2003620004907F0075F00074F9121C10E92DF521EA3EF5228F23907F08E0852182852283F2
:200382008523F0121C1009B900010AD004D00380C590801EE0FDA3E0FEA3E0FFEB2DFBECBF
:2003A2003EFC8F028B828C838AF0E4121C10908021E0FEA3E08E82F58322907F01E4F5F0A3
:2003C200121C101582F5F074F8121C10907F08E0F58222907F0175F0007401121C10158268
:2003E20074F8121C10907F08E0F58222907F0175F0007402121C10158274F8121C10907F48
:2004020008E0F58222907F0175F0007403121C10158274F8121C10907F08E0F58222907F4F
:200422000175F0007404121C10158274F8121C10907F08E0FEA3E08E82F58322907F0175B6
:20044200F0007405121C10158274F8121C10907F08E0FEA3E08E82F58322907F0175F0001B
:200462007406121C10158274F8121C10907F08E0FEA3E08E82F58322907F0175F00074076F
:20048200121C101582F4121C10907F08E0FEA3E08E82F58322907F0175F0007408121C1002
:2004A200158274F8121C10907F08E0FCA3E0FDA3E0FEA3E08C828D838EF022907F0175F04F
:2004C200007409121C10158274F8121C10907F08E0FCA3E0FDA3E0FEA3E08C828D838EF00B
:2004E20022907F0175F000740A121C10158274F8121C10907F08E0FCA3E0FDA3E0FEA3E0EF
:200502008C828D838EF022E582908029F0908023E0907F10F0908024E0907F18F090802509
:20052200E0907F20F0908029E0FF907F0175F000EF121C10A3E4121C10908026E0907F0313
:20054200121C10908027E0907F04121C10908028E0907F05121C10907F00740D021C10E5E6
:2005620082908030F090802AE0907F10F090802BE0907F18F090802CE0907F20F0908030F1
:20058200E0FF907F0175F000EF121C10A37401121C1090802DE0907F03121C1090802EE0F7
:2005A200907F04121C1090802FE0907F05121C10907F00740D021C10E58290803AF0908008
:2005C20031E0FEA3E0FF907F10EEF0EFA3F0908033E0FEA3E0FF907F18EEF0EFA3F09080CF
:2005E20035E0FEA3E0FF907F20EEF0EFA3F090803AE0FF907F0175F000EF121C10A37404EF
:20060200121C10908037E0907F03121C10908038E0907F04121C10908039E0907F05121C3F
:2006220010907F00740D021C10E582908044F090803BE0FEA3E0FF907F10EEF0EFA3F09085
:20064200803DE0FEA3E0FF907F18EEF0EFA3F090803FE0FEA3E0FF907F20EEF0EFA3F09026
:200662008044E0FF907F0175F000EF121C10A37405121C10908041E0907F03121C10908048
:2006820042E0907F04121C10908043E0907F05121C10907F00740D021C10E58290804EF0ED
:2006A200908045E0FEA3E0FF907F10EEF0EFA3F0908047E0FEA3E0FF907F18EEF0EFA3F0C6
:2006C200908049E0FEA3E0FF907F20EEF0EFA3F090804EE0FF907F0175F000EF121C10A34E
:2006E2007406121C1090804BE0907F03121C1090804CE0907F04121C1090804DE0907F05D7
:20070200121C10907F00740D021C10E582908058F090804FE0FEA3E0FF907F10EEF0EFA3CE
:20072200F0908051E0FEA3E0FF907F18EEF0EFA3F0908053E0FEA3E0FF907F20EEF0EFA31D
:20074200F0908058E0FF907F0175F000EF121C10A37407121C10908055E0907F03121C10CD
:20076200908056E0907F04121C10908057E0907F05121C10907F00740D021C10E582908012
:2007820068F0908059E0FCA3E0FDA3E0FEA3E0FF907F10ECF0EDA3F0EEA3F0EFA3F09080A9
:2007A2005DE0FCA3E0FDA3E0FEA3E0FF907F18ECF0EDA3F0EEA3F0EFA3F0908061E0FCA305
:2007C200E0FDA3E0FEA3E0FF907F20ECF0EDA3F0EEA3F0EFA3F0908068E0FF907F0175F0DD
:2007E20000EF121C10A37408121C10908065E0907F03121C10908066E0907F04121C109091
:200802008067E0907F05121C10907F00740D021C10E582908078F0908069E0FCA3E0FDA3A8
:20082200E0FEA3E0FF907F10ECF0EDA3F0EEA3F0EFA3F090806DE0FCA3E0FDA3E0FEA3E0FB
:20084200FF907F18ECF0EDA3F0EEA3F0EFA3F0908071E0FCA3E0FDA3E0FEA3E0FF907F2002
:20086200ECF0EDA3F0EEA3F0EFA3F0908078E0FF907F0175F000EF121C10A37409121C10B0
:20088200908075E0907F03121C10908076E0907F04121C10908077E0907F05121C10907F22
:2008A20000740D021C10E582908088F0908079E0FCA3E0FDA3E0FEA3E0FF907F10ECF0EDC8
:2008C200A3F0EEA3F0EFA3F090807DE0FCA3E0FDA3E0FEA3E0FF907F18ECF0EDA3F0EEA380
:2008E200F0EFA3F0908081E0FCA3E0FDA3E0FEA3E0FF907F20ECF0EDA3F0EEA3F0EFA3F006
:20090200908088E0FF907F0175F000EF121C10A3740A121C10908085E0907F03121C109008
:200922008086E0907F04121C10908087E0907F05121C10907F00740D021C10E58290808AF6
:20094200F0E0907F08F0908089E0907F10F0907F01E4F5F0121C101582F5F074EB121C1006
:20096200907F08E0F58222E58290808CF0E0907F08F090808BE0907F10F0907F0175F0000C
:200982007401121C10158274EB121C10907F08E0F58222AF83E58290808FF0EFA3F0908024
:2009A2008FE0FEA3E0FF907F08EEF0EFA3F090808DE0FEA3E0FF907F10EEF0EFA3F0907F44
:2009C2000175F0007404121C10158274EB121C10907F08E0FEA3E08E82F58322AF83E5820A
:2009E200908093F0EFA3F0908093E0FEA3E0FF907F08EEF0EFA3F0908091E0FEA3E0FF90D5
:200A02007F10EEF0EFA3F0907F0175F0007405121C10158274EB121C10907F08E0FEA3E00D
:200A22008E82F58322AF83E582908097F0EFA3F0908097E0FEA3E0FF907F08EEF0EFA3F0DA
:200A4200908095E0FEA3E0FF907F10EEF0EFA3F0907F0175F0007406121C10158274EB12DB
:200A62001C10907F08E0FEA3E08E82F58322AF83E58290809BF0EFA3F090809BE0FEA3E064
:200A8200FF907F08EEF0EFA3F0908099E0FEA3E0FF907F10EEF0EFA3F0907F0175F000746D
:200AA20007121C10158274EB121C10907F08E0FEA3E08E82F58322AF82AE83ADF0FC90808E
:200AC200A1EFF0EEA3F0EDA3F0ECA3F09080A1E0FCA3E0FDA3E0FEA3E0FF907F08ECF0ED24
:200AE200A3F0EEA3F0EFA3F090809DE0FCA3E0FDA3E0FEA3E0FF907F10ECF0EDA3F0EEA346
:200B0200F0EFA3F0907F0175F0007408121C10158274EB121C10907F08E0FCA3E0FDA3E008
:200B2200FEA3E08C828D838EF022AF82AE83ADF0FC9080A9EFF0EEA3F0EDA3F0ECA3F090D1
:200B420080A9E0FCA3E0FDA3E0FEA3E0FF907F08ECF0EDA3F0EEA3F0EFA3F09080A5E0FC04
:200B6200A3E0FDA3E0FEA3E0FF907F10ECF0EDA3F0EEA3F0EFA3F0907F0175F0007409126E
:200B82001C10158274EB121C10907F08E0FCA3E0FDA3E0FEA3E08C828D838EF022AF82AEDF
:200BA20083ADF0FC9080B1EFF0EEA3F0EDA3F0ECA3F09080B1E0FCA3E0FDA3E0FEA3E0FFD7
:200BC200907F08ECF0EDA3F0EEA3F0EFA3F09080ADE0FCA3E0FDA3E0FEA3E0FF907F10EC76
:200BE200F0EDA3F0EEA3F0EFA3F0907F0175F000740A121C10158274EB121C10907F08E024
:200C0200FCA3E0FDA3E0FEA3E08C828D838EF022E5829080B9F09080B5E0FCA3E0FDA3E0D0
:200C2200FEA3E0FF907F10ECF0EDA3F0EEA3F0EFA3F09080B9E0FF907F0175F000EF121C7A
:200C420010A37401121C10907F007415121C10907F08E0F58222E5829080BEF09080BAE0F7
:200C6200FCA3E0FDA3E0FEA3E0FF907F10ECF0EDA3F0EEA3F0EFA3F09080BEE0FF907F01B8
:200C820075F000EF121C10A37401121C10907F007415121C10907F08E0F58222E58290808D
:200CA200C3F09080BFE0FCA3E0FDA3E0FEA3E0FF907F10ECF0EDA3F0EEA3F0EFA3F09080C3
:200CC200C3E0FF907F0175F000EF121C10A37402121C10907F007415121C10907F08E0FEAC
:200CE200A3E08E82F58322E5829080C8F09080C4E0FCA3E0FDA3E0FEA3E0FF907F10ECF068
:200D0200EDA3F0EEA3F0EFA3F09080C8E0FF907F0175F000EF121C10A37402121C10907F8F
:200D2200007415121C10907F08E0FEA3E08E82F58322E5829080CDF09080C9E0FCA3E0FD5F
:200D4200A3E0FEA3E0FF907F10ECF0EDA3F0EEA3F0EFA3F09080CDE0FF907F0175F000EFF0
:200D6200121C10A37402121C10907F007415121C10907F08E0FEA3E08E82F58322E58290ED
:200D820080D2F09080CEE0FCA3E0FDA3E0FEA3E0FF907F10ECF0EDA3F0EEA3F0EFA3F090C4
:200DA20080D2E0FF907F0175F000EF121C10A37402121C10907F007415121C10907F08E03A
:200DC200FEA3E08E82F58322E5829080D7F09080D3E0FCA3E0FDA3E0FEA3E0FF907F10EC5B
:200DE200F0EDA3F0EEA3F0EFA3F09080D7E0FF907F0175F000EF121C10A37404121C10902D
:200E02007F007415121C10907F08E0FCA3E0FDA3E0FEA3E08C828D838EF022E5829080DC02
:200E2200F09080D8E0FCA3E0FDA3E0FEA3E0FF907F10ECF0EDA3F0EEA3F0EFA3F09080DC0F
:200E4200E0FF907F0175F000EF121C10A37404121C10907F007415121C10907F08E0FCA34A
:200E6200E0FDA3E0FEA3E08C828D838EF022E5829080E1F09080DDE0FCA3E0FDA3E0FEA31C
:200E8200E0FF907F10ECF0EDA3F0EEA3F0EFA3F09080E1E0FF907F0175F000EF121C10A3DE
:200EA2007404121C10907F007415121C10907F08E0FCA3E0FDA3E0FEA3E08C828D838EF091
:200EC20022E5829080E7F09080E6E0907F08F09080E2E0FCA3E0FDA3E0FEA3E0FF907F1053
:200EE200ECF0EDA3F0EEA3F0EFA3F09080E7E0FF907F0175F000EF121C10A37401121C10C3
:200F0200907F007416021C10E5829080EDF09080ECE0907F08F09080E8E0FCA3E0FDA3E0FA
:200F2200FEA3E0FF907F10ECF0EDA3F0EEA3F0EFA3F09080EDE0FF907F0175F000EF121C43
:200F420010A37401121C10907F007416021C10E5829080F4F09080F2E0FEA3E0FF907F088E
:200F6200EEF0EFA3F09080EEE0FCA3E0FDA3E0FEA3E0FF907F10ECF0EDA3F0EEA3F0EFA324
:200F8200F09080F4E0FF907F0175F000EF121C10A37402121C10907F007416021C10E58255
:200FA2009080FBF09080F9E0FEA3E0FF907F08EEF0EFA3F09080F5E0FCA3E0FDA3E0FEA3CF
:200FC200E0FF907F10ECF0EDA3F0EEA3F0EFA3F09080FBE0FF907F0175F000EF121C10A383
:200FE2007402121C10907F007416021C10E582908102F0908100E0FEA3E0FF907F08EEF0A4
:20100200EFA3F09080FCE0FCA3E0FDA3E0FEA3E0FF907F10ECF0EDA3F0EEA3F0EFA3F090D3
:201022008102E0FF907F0175F000EF121C10A37402121C10907F007416021C10E582908114
:2010420009F0908107E0FEA3E0FF907F08EEF0EFA3F0908103E0FCA3E0FDA3E0FEA3E0FF33
:20106200907F10ECF0EDA3F0EEA3F0EFA3F0908109E0FF907F0175F000EF121C10A374023C
:20108200121C10907F007416021C10E582908112F090810EE0FCA3E0FDA3E0FEA3E0FF90C1
:2010A2007F08ECF0EDA3F0EEA3F0EFA3F090810AE0FCA3E0FDA3E0FEA3E0FF907F10ECF0D3
:2010C200EDA3F0EEA3F0EFA3F0908112E0FF907F0175F000EF121C10A37404121C10907F7F
:2010E200007416021C10E58290811BF0908117E0FCA3E0FDA3E0FEA3E0FF907F08ECF0ED4C
:20110200A3F0EEA3F0EFA3F0908113E0FCA3E0FDA3E0FEA3E0FF907F10ECF0EDA3F0EEA3A8
:20112200F0EFA3F090811BE0FF907F0175F000EF121C10A37404121C10907F007416021C7E
:2011420010E582908124F0908120E0FCA3E0FDA3E0FEA3E0FF907F08ECF0EDA3F0EEA3F06D
:20116200EFA3F090811CE0FCA3E0FDA3E0FEA3E0FF907F10ECF0EDA3F0EEA3F0EFA3F09051
:201182008124E0FF907F0175F000EF121C10A37404121C10907F007416021C10E58290818F
:2011A2002CF0E0FF907F0175F000EF121C10908125E0907F02121C10908126E0907F0312F0
:2011C2001C10908127E0907F04121C10908128E0907F05121C10908129E0907F06121C10A0
:2011E20090812AE0907F07121C1090812BE0907F08121C10907F00740F021C10E5829081D5
:2012020030F090812DE0907F10F090812EE0907F18F090812FE0907F20F0908130E0FF905A
:201222007F0175F000EF121C10A3E4121C10F582F5F07410021C10E582908134F0908131E9
:20124200E0907F10F0908132E0907F18F0908133E0907F20F0908134E0FF907F0175F00087
:20126200EF121C10A37401121C10907F00C4021C10E58290813BF0908135E0FEA3E0FF900F
:201282007F10EEF0EFA3F0908137E0FEA3E0FF907F18EEF0EFA3F0908139E0FEA3E0FF90F4
:2012A2007F20EEF0EFA3F090813BE0FF907F0175F000EF121C10A37404121C10907F007484
:2012C20010021C10E582908142F090813CE0FEA3E0FF907F10EEF0EFA3F090813EE0FEA328
:2012E200E0FF907F18EEF0EFA3F0908140E0FEA3E0FF907F20EEF0EFA3F0908142E0FF9084
:201302007F0175F000EF121C10A37405121C10907F007410021C10E582908149F090814399
:20132200E0FEA3E0FF907F10EEF0EFA3F0908145E0FEA3E0FF907F18EEF0EFA3F090814737
:20134200E0FEA3E0FF907F20EEF0EFA3F0908149E0FF907F0175F000EF121C10A374061292
:201362001C10907F007410021C10E582908150F090814AE0FEA3E0FF907F10EEF0EFA3F08C
:2013820090814CE0FEA3E0FF907F18EEF0EFA3F090814EE0FEA3E0FF907F20EEF0EFA3F0B9
:2013A200908150E0FF907F0175F000EF121C10A37407121C10907F007410021C10E5829035
:2013C200815DF0908151E0FCA3E0FDA3E0FEA3E0FF907F10ECF0EDA3F0EEA3F0EFA3F0906E
:2013E2008155E0FCA3E0FDA3E0FEA3E0FF907F18ECF0EDA3F0EEA3F0EFA3F0908159E0FCEA
:20140200A3E0FDA3E0FEA3E0FF907F20ECF0EDA3F0EEA3F0EFA3F090815DE0FF907F0175E7
:20142200F000EF121C10A37408121C10907F0023021C10E58290816AF090815EE0FCA3E030
:20144200FDA3E0FEA3E0FF907F10ECF0EDA3F0EEA3F0EFA3F0908162E0FCA3E0FDA3E0FEBC
:20146200A3E0FF907F18ECF0EDA3F0EEA3F0EFA3F0908166E0FCA3E0FDA3E0FEA3E0FF90FC
:201482007F20ECF0EDA3F0EEA3F0EFA3F090816AE0FF907F0175F000EF121C10A37409121E
:2014A2001C10907F007410021C10E582908177F090816BE0FCA3E0FDA3E0FEA3E0FF907F74
:2014C20010ECF0EDA3F0EEA3F0EFA3F090816FE0FCA3E0FDA3E0FEA3E0FF907F18ECF0EDCC
:2014E200A3F0EEA3F0EFA3F0908173E0FCA3E0FDA3E0FEA3E0FF907F20ECF0EDA3F0EEA355
:20150200F0EFA3F0908177E0FF907F0175F000EF121C10A3740A121C10907F007410021C3E
:2015220010E582908179F0908178E0FF908179E0FE907F0175F000EE121C10A3E4121C1082
:20154200907F08EFF0907F007411021C10E58290817BF090817AE0FF90817BE0FE907F010A
:2015620075F000EE121C10A37401121C10907F08EFF0907F007411021C10E58290817DF0E5
:2015820090817CE0FF90817DE0FE907F0175F000EE121C10A37402121C10907F08EFF090F3
:2015A2007F007411021C10E58290817FF090817EE0FF90817FE0FE907F0175F000EE121CA3
:2015C20010A37403121C10907F08EFF0907F007411021C10E582908182F0908180E0FEA3ED
:2015E200E0FF908182E0FD907F0175F000ED121C10A37404121C10907F08EEF0EFA3F0909A
:201602007F007411021C10E582908185F0908183E0FEA3E0FF908185E0FD907F0175F000CD
:20162200ED121C10A37405121C10907F08EEF0EFA3F0907F007411021C10E582908188F0FA
:20164200908186E0FEA3E0FF908188E0FD907F0175F000ED121C10A37406121C10907F0809
:20166200EEF0EFA3F0907F007411021C10E58290818BF0908189E0FEA3E0FF90818BE0FDE0
:20168200907F0175F000ED121C10A37407121C10907F08EEF0EFA3F0907F007411021C1013
:2016A200E582908190F090818CE0FCA3E0FDA3E0FEA3E0FF908190E0FB907F0175F000EB58
:2016C200121C10A37408121C10907F08ECF0EDA3F0EEA3F0EFA3F0907F007411021C10E550
:2016E20082908195F0908191E0FCA3E0FDA3E0FEA3E0FF908195E0FB907F0175F000EB12DC
:201702001C10A37409121C10907F08ECF0EDA3F0EEA3F0EFA3F0907F007411021C10E5829E
:2017220090819AF0908196E0FCA3E0FDA3E0FEA3E0FF90819AE0FB907F0175F000EB121CF2
:2017420010A3740A121C10907F08ECF0EDA3F0EEA3F0EFA3F0907F007411021C10E58290E9
:20176200819EF090819BE0FDA3E0FEA3E0FF90819BE0F5F0A3E045F06018C007C006C005D9
:201782001200A1D005D006D0078D828E838FF01200AC90819EE0FF907F0175F000EF121C95
:2017A20010A3740B121C10907F007411021C10E5829081A4F0E0FF907F0175F000EF121C78
:2017C2001090819FE0FEA3E0FF907F08EEF0EFA3F09081A1E0FEA3E0FF907F10EEF0EFA3CF
:2017E200F09081A3E0907F02121C10907F007412021C10AF83E5829081A7F0EFA3F012007C
:2018020062AF828F060E9081A7E0FCA3E0FDEC2CFAED33FB907F0175F000EF121C10158216
:20182200740A121C10A3EE121C101582740A121C109081257401F0908126E4F0908127F0FA
:20184200908128F090812914F090812AF090812BF08E82C007C006C005C004C003C002120B
:20186200119ED002D003D004D005D00690819FE4F0A3F09081A1F0A3F09081A3F08E82C0D3
:2018820006C005C004C003C0021217B11200A19081A5E0F8A3E0F9888289831201C9901CFD
:2018A200B775F0801200ACD002D003D004D005D00690819BE4F0A3F0A3F08E82C005C00469
:2018C200C003C00212175FD002D003D004D005D0079081A9E4F0A3F0A3F0A3F08C06F9FC06
:2018E200C3E99AEC64808BF063F08095F040012289009081AD740158F0E9C39EF508EC9DC6
:20190200F5099081A9E0F50AA3E0F50BA3E0F50CA3E0F50DE4F50EF50FC3E50E9AE50F640F
:20192200808BF063F08095F040030219EE9081ADE070030219C2C002C0039080C9E50AF0DB
:20194200E50BA3F0E50CA3F0E50DA3F0758200C007C006C005C004C002C001120D34A882EC
:20196200AB83D001D002D004D005D006D007908045E50EC39EF0E50F9DA3F0908047E5083D
:20198200F0E509A3F0908049E8F0EBA3F090804B7480F090804CF090804DF08F82C007C0B5
:2019A20006C005C004C003C002C00112069CD001D002D003D004D005D006D007D003D0022B
:2019C2009081ADE0B4010092009081ADE433F0050AE4B50A0C050BB50B07050CB50C0205ED
:2019E2000D050EE4B50E02050F02191B9081A9E50AF0E50BA3F0E50CA3F0E50DA3F009B9EB
:201A020000010C0218E2907F0175F0007480121C10A3E4121C10F582F5F07414121C10A38A
:201A2200E4121C10A3F5F07402121C10907F007414121C109081A5E4F0A3F090010012179A
:201A4200F5E4F51A751B40F51CF51D7A01FBC3E4951AE4951BE4951C7480851DF063F0805B
:201A620095F04003021C059081AEE4F004A3F0E4A3F0A3F0F510F511F512F513C3E51194DE
:201A820002E5129400E513648094804003021BC7C002C0039080957401F0E4A3F09000000A
:201AA200C003C002120A27A882A983D002D003E828F8E933F9E824FFF514E934FFF515907A
:201AC20081AEE0F516A3E0F517A3E0F518A3E0F519A814E515F93395E0FAFB9081AEE82522
:201AE20016F0E93517A3F0EA3518A3F0EB3519A3F09081AEE0F516A3E0F517A3E0F518A314
:201B0200E0F519D003D00230E703021BB2C3E5179402E5189400E519648094804003021B0B
:201B2200B2C002C0039081B3E4F07402A3F0E4A3F0A3F08510828511838512F0E513121CE4
:201B42002BA882A983AAF0FBE51628F8E51739F9E5183AFAE5193BFB9080C9E8F0E9A3F092
:201B6200EAA3F0EBA3F0758200C003C002C001C000120D34E5828583F0D000D001D002D076
:201B8200032401FEE435F0FF9080FCE8F0E9A3F0EAA3F0EBA3F0908100EEF0EFA3F0758252
:201BA20000C003C002120FEFD002D003D003D0020510E4B5100C0511B511070512B51202B7
:201BC2000513021A7E151A74FFB51A0C151BB51B07151CB51C02151DE51A7006E51B5403CB
:201BE2006003021A509081A5EAF0EBA3F0900100C003C0021217F5D002D0030ABA00010B5D
:0E1C0200021A50907F0075F00074FD021C1055
:041CB7002F31360093
:06003500E478FFF6D8FD9F
:200013007900E94400601B7A00901CBB78B775A081E493F2A308B8000205A0D9F4DAF27585
:02003300A0FF2C
:1B1C100020F71130F6138883A88220F509F6A8837583002280FEF280F5F022D3
:201C2B00A882A983AAF0FB88F09081B3E0A4FCADF089F0E0A42DFDE435F0FE88F0A3E0A488
:201C4B002DFDE5F03EFEE433FF89F0E0A42EFEE5F03FFF88F0A3E0A42EFEE5F03FFF8AF094
:201C6B009081B3E0A42EFEE5F03FFF8BF0E0A42FFF8AF0A3E0A42FFF89F0A3E0A42FFF8880
:0C1C8B00F0A3E0A42F8EF08D838C822249
:20003B007800E84400600A790075A080E4F309D8FC78B7E84401600C7902908000E4F0A30B
:04005B00D8FCD9FAFA
:0D000600758123121CB3E582600302000324
:1C1C970020F71430F6148883A88220F507E6A88375830022E280F7E49322E0225C
:041CB3007582002214
:00000001FF
