:03000000020006F5
:03005F0002000399
:0300030002148C58
:20006200907F0075F00074F71214F4907F08E0F58222E582908000F0E0FF907F0175F0003A
:20008200EF1214F4158274FC1214F4907F08E0FCA3E0FDA3E0FEA3E08C828D838EF022906F
:2000A2007F0075F00074FA0214F4AFF0AE83E582908001F0EEA3F0EFA3F0907F0175F00032
:2000C200740B1214F4908001E0FDA3E0FEA3E0FF7C00EC2DF9E43EFA8F0389828A838BF0C5
:2000E20012160EFB6013907F08EBF0907F0075F00074FB1214F40C80D922E582908004F079
:20010200E0907F08F0907F01E4F5F01214F41582F5F074FB0214F4E582908005F0E0907FB3
:2001220008F0907F0175F00074011214F4158274FB0214F4E582908006F0E0907F08F090CD
:200142007F0175F00074021214F4158274FB0214F4E582908007F0E0907F08F0907F01753E
:20016200F00074031214F4158274FB0214F4AF83E582908008F0EFA3F0908008E0FEA3E050
:20018200FF907F08EEF0EFA3F0907F0175F00074041214F41582F40214F4AF83E5829080A2
:2001A2000AF0EFA3F090800AE0FEA3E0FF907F08EEF0EFA3F0907F0175F00074051214F4C8
:2001C200158274FB0214F4AF83E58290800CF0EFA3F090800CE0FEA3E0FF907F08EEF0EF86
:2001E200A3F0907F0175F00074061214F4158274FB0214F4AF83E58290800EF0EFA3F09098
:20020200800EE0FEA3E0FF907F08EEF0EFA3F0907F0175F00074071214F4158274FB021451
:20022200F4AF82AE83ADF0FC908010EFF0EEA3F0EDA3F0ECA3F0908010E0FCA3E0FDA3E04F
:20024200FEA3E0FF907F08ECF0EDA3F0EEA3F0EFA3F0907F0175F00074081214F415827490
:20026200FB0214F4AF82AE83ADF0FC908014EFF0EEA3F0EDA3F0ECA3F0908014E0FCA3E076
:20028200FDA3E0FEA3E0FF907F08ECF0EDA3F0EEA3F0EFA3F0907F0175F00074091214F4DA
:2002A200158274FB0214F4AF82AE83ADF0FC908018EFF0EEA3F0EDA3F0ECA3F0908018E0A2
:2002C200FCA3E0FDA3E0FEA3E0FF907F08ECF0EDA3F0EEA3F0EFA3F0907F0175F000740A34
:2002E2001214F4158274FB0214F4AFF0AE83E58290801EF0EEA3F0EFA3F0907F0175F00005
:20030200740B1214F4158274F81214F4907F08E0FEA3E0FF908021EEF0EFA3F090801CE011
:20032200FCA3E0FDC3EC9EED9F5008908021ECF0EDA3F090801EE0FDA3E0FEA3E0FF908063
:200342001EE0F5F0A3E045F06064908021E0FBA3E0FC79007A00C3E99BEA9C5034C003C0EA
:2003620004907F0075F00074F91214F4E92DF509EA3EF50A8F0B907F08E0850982850A838E
:20038200850BF01214F409B900010AD004D00380C590801EE0FDA3E0FEA3E0FFEB2DFBECFB
:2003A2003EFC8F028B828C838AF0E41214F4908021E0FEA3E08E82F58322907F01E4F5F0C7
:2003C2001214F41582F5F074F81214F4907F08E0F58222907F0175F00074011214F41582D4
:2003E20074F81214F4907F08E0F58222907F0175F00074021214F4158274F81214F4907FB4
:2004020008E0F58222907F0175F00074031214F4158274F81214F4907F08E0F58222907F97
:200422000175F00074041214F4158274F81214F4907F08E0FEA3E08E82F58322907F0175FE
:20044200F00074051214F4158274F81214F4907F08E0FEA3E08E82F58322907F0175F00063
:2004620074061214F4158274F81214F4907F08E0FEA3E08E82F58322907F0175F0007407B7
:200482001214F41582F41214F4907F08E0FEA3E08E82F58322907F0175F00074081214F46E
:2004A200158274F81214F4907F08E0FCA3E0FDA3E0FEA3E08C828D838EF022907F0175F073
:2004C2000074091214F4158274F81214F4907F08E0FCA3E0FDA3E0FEA3E08C828D838EF053
:2004E20022907F0175F000740A1214F4158274F81214F4907F08E0FCA3E0FDA3E0FEA3E037
:200502008C828D838EF022E582908029F0908023E0907F10F0908024E0907F18F090802509
:20052200E0907F20F0908029E0FF907F0175F000EF1214F4A3E41214F4908026E0907F035B
:200542001214F4908027E0907F041214F4908028E0907F051214F4907F00740D0214F4E576
:2005620082908030F090802AE0907F10F090802BE0907F18F090802CE0907F20F0908030F1
:20058200E0FF907F0175F000EF1214F4A374011214F490802DE0907F031214F490802EE063
:2005A200907F041214F490802FE0907F051214F4907F00740D0214F4E58290803AF0908074
:2005C20031E0FEA3E0FF907F10EEF0EFA3F0908033E0FEA3E0FF907F18EEF0EFA3F09080CF
:2005E20035E0FEA3E0FF907F20EEF0EFA3F090803AE0FF907F0175F000EF1214F4A3740413
:200602001214F4908037E0907F031214F4908038E0907F041214F4908039E0907F051214B3
:20062200F4907F00740D0214F4E582908044F090803BE0FEA3E0FF907F10EEF0EFA3F090C5
:20064200803DE0FEA3E0FF907F18EEF0EFA3F090803FE0FEA3E0FF907F20EEF0EFA3F09026
:200662008044E0FF907F0175F000EF1214F4A374051214F4908041E0907F031214F49080B4
:2006820042E0907F041214F4908043E0907F051214F4907F00740D0214F4E58290804EF059
:2006A200908045E0FEA3E0FF907F10EEF0EFA3F0908047E0FEA3E0FF907F18EEF0EFA3F0C6
:2006C200908049E0FEA3E0FF907F20EEF0EFA3F090804EE0FF907F0175F000EF1214F4A372
:2006E20074061214F490804BE0907F031214F490804CE0907F041214F490804DE0907F0543
:200702001214F4907F00740D0214F4E582908058F090804FE0FEA3E0FF907F10EEF0EFA316
:20072200F0908051E0FEA3E0FF907F18EEF0EFA3F0908053E0FEA3E0FF907F20EEF0EFA31D
:20074200F0908058E0FF907F0175F000EF1214F4A374071214F4908055E0907F031214F439
:20076200908056E0907F041214F4908057E0907F051214F4907F00740D0214F4E58290807E
:2007820068F0908059E0FCA3E0FDA3E0FEA3E0FF907F10ECF0EDA3F0EEA3F0EFA3F09080A9
:2007A2005DE0FCA3E0FDA3E0FEA3E0FF907F18ECF0EDA3F0EEA3F0EFA3F0908061E0FCA305
:2007C200E0FDA3E0FEA3E0FF907F20ECF0EDA3F0EEA3F0EFA3F0908068E0FF907F0175F0DD
:2007E20000EF1214F4A374081214F4908065E0907F031214F4908066E0907F041214F49021
:200802008067E0907F051214F4907F00740D0214F4E582908078F0908069E0FCA3E0FDA3F0
:20082200E0FEA3E0FF907F10ECF0EDA3F0EEA3F0EFA3F090806DE0FCA3E0FDA3E0FEA3E0FB
:20084200FF907F18ECF0EDA3F0EEA3F0EFA3F0908071E0FCA3E0FDA3E0FEA3E0FF907F2002
:20086200ECF0EDA3F0EEA3F0EFA3F0908078E0FF907F0175F000EF1214F4A374091214F4F8
:20088200908075E0907F031214F4908076E0907F041214F4908077E0907F051214F4907F8E
:2008A20000740D0214F4E582908088F0908079E0FCA3E0FDA3E0FEA3E0FF907F10ECF0EDEC
:2008C200A3F0EEA3F0EFA3F090807DE0FCA3E0FDA3E0FEA3E0FF907F18ECF0EDA3F0EEA380
:2008E200F0EFA3F0908081E0FCA3E0FDA3E0FEA3E0FF907F20ECF0EDA3F0EEA3F0EFA3F006
:20090200908088E0FF907F0175F000EF1214F4A3740A1214F4908085E0907F031214F49074
:200922008086E0907F041214F4908087E0907F051214F4907F00740D0214F4E58290808B61
:20094200F0908089E0907F10F090808AE0907F18F0907F01E4F5F01214F490808BE0907F0F
:20096200021214F4907F0074F61214F4907F08E0F58222E58290808EF090808CE0907F10A6
:20098200F090808DE0907F18F0907F0175F00074011214F490808EE0907F021214F4907F15
:2009A2000074F61214F4907F08E0F58222E582908093F090808FE0FEA3E0FF907F10EEF02B
:2009C200EFA3F0908091E0FEA3E0FF907F18EEF0EFA3F0907F0175F00074041214F49080F4
:2009E20093E0907F021214F4907F0074F61214F4907F08E0FEA3E08E82F58322E58290802B
:200A020098F0908094E0FEA3E0FF907F10EEF0EFA3F0908096E0FEA3E0FF907F18EEF0EFCF
:200A2200A3F0907F0175F00074051214F4908098E0907F021214F4907F0074F61214F49043
:200A42007F08E0FEA3E08E82F58322E58290809DF0908099E0FEA3E0FF907F10EEF0EFA366
:200A6200F090809BE0FEA3E0FF907F18EEF0EFA3F0907F0175F00074061214F490809DE05C
:200A8200907F021214F4907F0074F61214F4907F08E0FEA3E08E82F58322E5829080A2F06B
:200AA20090809EE0FEA3E0FF907F10EEF0EFA3F09080A0E0FEA3E0FF907F18EEF0EFA3F010
:200AC200907F0175F00074071214F49080A2E0907F021214F4907F0074F61214F4907F08A3
:200AE200E0FEA3E08E82F58322E5829080ABF09080A3E0FCA3E0FDA3E0FEA3E0FF907F10A6
:200B0200ECF0EDA3F0EEA3F0EFA3F09080A7E0FCA3E0FDA3E0FEA3E0FF907F18ECF0EDA3CB
:200B2200F0EEA3F0EFA3F0907F0175F00074081214F49080ABE0907F021214F4907F00746C
:200B4200F61214F4907F08E0FCA3E0FDA3E0FEA3E08C828D838EF022E5829080B4F0908023
:200B6200ACE0FCA3E0FDA3E0FEA3E0FF907F10ECF0EDA3F0EEA3F0EFA3F09080B0E0FCA3AB
:200B8200E0FDA3E0FEA3E0FF907F18ECF0EDA3F0EEA3F0EFA3F0907F0175F00074091214D5
:200BA200F49080B4E0907F021214F4907F0074F61214F4907F08E0FCA3E0FDA3E0FEA3E066
:200BC2008C828D838EF022E5829080BDF09080B5E0FCA3E0FDA3E0FEA3E0FF907F10ECF012
:200BE200EDA3F0EEA3F0EFA3F09080B9E0FCA3E0FDA3E0FEA3E0FF907F18ECF0EDA3F0EED7
:200C0200A3F0EFA3F0907F0175F000740A1214F49080BDE0907F021214F4907F0074F6124D
:200C220014F4907F08E0FCA3E0FDA3E0FEA3E08C828D838EF022E5829080BEF0E0907F0859
:200C4200F0907F01E4F5F01214F41582F5F074020214F4E5829080BFF0E0907F08F0907F97
:200C62000175F00074011214F41582040214F4E5829080C0F0E0907F08F0907F0175F00055
:200C820074021214F415820214F4E5829080C1F0E0907F08F0907F0175F00074031214F40C
:200CA2001582140214F4AF83E5829080C2F0EFA3F09080C2E0FEA3E0FF907F08EEF0EFA3E7
:200CC200F0907F0175F00074041214F41582030214F4AF83E5829080C4F0EFA3F09080C4C4
:200CE200E0FEA3E0FF907F08EEF0EFA3F0907F0175F00074051214F4158274020214F4AF4D
:200D020083E5829080C6F0EFA3F09080C6E0FEA3E0FF907F08EEF0EFA3F0907F0175F0007D
:200D220074061214F4158274020214F4AF83E5829080C8F0EFA3F09080C8E0FEA3E0FF905B
:200D42007F08EEF0EFA3F0907F0175F00074071214F4158274020214F4AF82AE83ADF0FC8E
:200D62009080CAEFF0EEA3F0EDA3F0ECA3F09080CAE0FCA3E0FDA3E0FEA3E0FF907F08ECFC
:200D8200F0EDA3F0EEA3F0EFA3F0907F0175F00074081214F4158274020214F4AF82AE835A
:200DA200ADF0FC9080CEEFF0EEA3F0EDA3F0ECA3F09080CEE0FCA3E0FDA3E0FEA3E0FF908E
:200DC2007F08ECF0EDA3F0EEA3F0EFA3F0907F0175F00074091214F4158274020214F4AF59
:200DE20082AE83ADF0FC9080D2EFF0EEA3F0EDA3F0ECA3F09080D2E0FCA3E0FDA3E0FEA302
:200E0200E0FF907F08ECF0EDA3F0EEA3F0EFA3F0907F0175F000740A1214F415827402025F
:200E220014F4AFF0AE83E5829080D6F0EEA3F0EFA3F09080D6E0FDA3E0FEA3E0FF7B007CDB
:200E420000EB2DF8EC3EF98F02888289838AF012160EFA60208A82C007C006C005C004C0AA
:200E620003120C8CD003D004D005D006D0070BBB00CF0C80CC22AF83E5829080DAF0EFA386
:200E8200F09080DAE0FEA3E0FF8E048F05ED33920040068E048F058007C3E49EFCE49FFD8A
:200EA200C3EC9464ED648094805006758220120C719080DAE0FEA3E0FF8E048F05ED339286
:200EC2000040068E048F058007C3E49EFCE49FFDC3EC940AED648094805006758220120C9F
:200EE200719080DAE0FEA3E0FF8E048F05ED20E70E758220C007C006120C71D006D0078E9F
:200F0200828F83020CA8C008858108C082E581240AF581907F0075F00074011214F49016BA
:200F22002E75F080120E24A808088682120C3890163975F080120E24E50824FCF886820825
:200F42008683120E7890164375F080120E24E50824FAF88682088683120E7890164D75F0D0
:200F620080120E24E50824F8F88682088683120E7890165775F080120E24E50824F6F8864E
:200F820082088683120E78907F0075F00074031214F4A80808E660030212A3E50824F8F866
:200FA200E50824FCF9E6C397FD08E60997FE9080DD7408F0E4A3F08D828E8312150FAD820B
:200FC200AE83E5082406F8A60508A606E50824F6F8E50824FAF9E6C397FB08E60997FC9018
:200FE20080DD7408F0E4A3F08B828C8312150FAB82AC83E5082408F8A60308A604E5082484
:20100200FCF8860208E6339208400CE50824FCF88602088604800DE50824FCF8C3E496FA63
:2010220008E496FCE50824F8F8860308E6339208400CE50824F8F88607088606800DE50803
:2010420024F8F8C3E496FF08E496FEEF2AFFEE3CFDE50824FAF8860208E6339208400CE508
:201062000824FAF88602088604800DE50824FAF8C3E496FA08E496FCE50824F6F886030861
:20108200E6339208400CE50824F6F88603088606800DE50824F6F8C3E496FB08E496FEEB04
:2010A2002AFBEE3CFCC3EB9FEC64808DF063F08095F050048D0680048B078C06E508240A47
:2010C200F8A60708A6069080D9E0FA907F0175F000EA1214F41582740C1214F49080D9E07F
:2010E200FAE50824FCF8E5082406F9E726FE09E70836FFE50824FAF8E5082408F9E726FC89
:2011020009E70836FD908031EEF0EFA3F0908033ECF0EDA3F0E508240AF8908035E6F0082C
:20112200E6A3F090803774FFF0908038F0908039F08A82C007C006C005C0041205BAD00452
:20114200D005D006D0079080D9E0FBE50824F6F8E5082408F9E6C397C0E008E60997C0E028
:20116200E5082403F8D0E0F618D0E0F6908031EEF0EFA3F0A8080808908033E6F008E6A3F2
:20118200F0E508240AF8908035E6F008E6A3F090803774FFF0908038F0908039F08B82C0C6
:2011A20007C006C005C0041205BAD004D005D006D0079080D9E0FBE50824F8F8E5082406D4
:2011C200F9E6C397C0E008E60997C0E0E5082405F8D0E0F618D0E0F6E5082404F890803146
:2011E200E6F008E6A3F0A8080808908033E6F008E6A3F0E508240AF8908035E6F008E6A37D
:20120200F090803774FFF0908038F0908039F08B82C007C006C005C0041205BAD004D00524
:201222009080D9E0FBE5082404F8908031E6F008E6A3F0908033ECF0EDA3F0E508240AF891
:20124200908035E6F008E6A3F090803774FFF0908038F0908039F08B82C005C0041205BA6E
:20126200D004D005D006D0079080D9E0FB908031EEF0EFA3F0908033ECF0EDA3F0E5082401
:201282000AF8908035E6F008E6A3F090803774FFF0908038F0908039F08B821205BA02149F
:2012A20007E50824F8F8E50824FCF9E6C397FD08E60997FE9080DD7402F0E4A3F08D828EEE
:2012C2008312150FAD82AE83E50824FCF88603088604ED2BFDEE3CFEE50824F6F8E5082486
:2012E200FAF9E6C397FB08E60997FC9080DD7402F0E4A3F08B828C83C006C00512150FABE2
:2013020082AC83D005D006E50824FAF88602088607EB2AFBEC3FFCA8080886071FC007C02D
:2013220006C005C004C003C003C004C005C006E50824FAF8E6C0E008E6C0E0E50824FCF82B
:20134200E6C0E008E6C0E08F82120F08E58124F8F581D003D004D005D006D007C007C0068F
:20136200C005C004C003C003C004E50824F8F8E6C0E008E6C0E0E50824FAF8E6C0E008E60C
:20138200C0E0C005C0068F82120F08E58124F8F581D003D004D005D006D007C007C006C078
:2013A20005C004C003E50824F6F8E6C0E008E6C0E0C005C006C003C004E50824FCF8E6C0CF
:2013C200E008E6C0E08F82120F08E58124F8F581D003D004D005D006D007E50824F6F8E65D
:2013E200C0E008E6C0E0E50824F8F8E6C0E008E6C0E0C003C004C005C0068F82120F08E577
:201402008124F8F581907F0075F00074011214F490166175F080120E24A808088682120CA6
:201422003890163975F080120E24E50824FCF88682088683120E7890164375F080120E24A2
:20144200E50824FAF88682088683120E7890164D75F080120E24E50824F8F88682088683A0
:20146200120E7890165775F080120E24E50824F6F88682088683120E78907F0075F0007414
:20148200031214F4850881D00822120062AF829080D9EFF0907F0175F000EF1214F41582A3
:2014A200740A1214F49080D9E0907F011214F4A374011214F4907F00740B1214F47480C011
:2014C200E0E4C0E07480C0E0E4C0E07480C0E074FFC0E07480C0E074FFC0E0758204120F24
:1214E20008E58124F8F581907F0075F00074FD0214F409
:20162E0043616C6C20202020543D0020202020202058313D0020202020202059313D0020E2
:1E164E00202020202058323D0020202020202059323D0052657475726E2020543D003E
:06003500E478FFF6D8FD9F
:200013007900E94400601B7A0090166C78E875A080E493F2A308B8000205A0D9F4DAF275AA
:02003300A0FF2C
:1B14F40020F71130F6138883A88220F509F6A8837583002280FEF280F5F022F7
:20003B007800E84400600A790075A080E4F309D8FC78E8E84400600C7901908000E4F0A3DC
:04005B00D8FCD9FAFA
:20150F00AF83E5829080DFF0EFA3F09080DFE0FEA3E0FF30E709C3E49EFCE49FFD80048E80
:20152F00048F059080DDE0FEA3E0FF33E433FB6009C3E49EF9E49FFA80048E018F0290809A
:20154F00E1E9F0EAA3F08C828D83C003121581AE82AF83D0039080DFE0A3E033E4336B6020
:12156F000CC3E49EFCE49FFD8C828D83228E828F832219
:20158100AF83E5829080E3F0EFA3F09080E5E4F0A3F09080E1E0FEA3E0FF7D109080E3E03F
:2015A100FBA3E0FC9080E7235401F0EB2BFBEC33FC9080E3EBF0ECA3F09080E5E0FBA3E085
:2015C100FCEB2BFBEC33FC9080E5EBF0ECA3F09080E7E060089080E5E043E001F09080E576
:2015E100E0FBA3E0FCC3EB9EEC9F40139080E5EBC39EF0EC9FA3F09080E3E043E001F0DD53
:0D1601009B9080E3E0FEA3E08E82F5832243
:0D00060075812112162AE5826003020003B5
:1C160E0020F71430F6148883A88220F507E6A88375830022E280F7E49322E022EB
:04162A0075820022A3
:00000001FF
