:06000000020019020E804F
:01000B0032C2
:03001300020FE7F2
:0300720002001673
:0300160002114E86
:20007500907F0075F00074F7121DAD907F08E0F58222E582908000F0E0FF907F0175F00065
:20009500EF121DAD158274FC121DAD907F08E0FCA3E0FDA3E0FEA3E08C828D838EF02290D8
:2000B5007F0075F00074FA021DADAFF0AE83E582908001F0EEA3F0EFA3F0907F0175F0005D
:2000D500740B121DAD908001E0FDA3E0FEA3E0FF7C00EC2DF9E43EFA8F0389828A838BF0F0
:2000F500121DC8FB6013907F08EBF0907F0075F00074FB121DAD0C80D922E582908004F0E3
:20011500E0907F08F0907F01E4F5F0121DAD1582F5F074FB021DADE582908005F0E0907F1C
:2001350008F0907F0175F0007401121DAD158274FB021DADE582908006F0E0907F08F09036
:200155007F0175F0007402121DAD158274FB021DADE582908007F0E0907F08F0907F0175A7
:20017500F0007403121DAD158274FB021DADAF83E582908008F0EFA3F0908008E0FEA3E0B9
:20019500FF907F08EEF0EFA3F0907F0175F0007404121DAD1582F4021DADAF83E58290800B
:2001B5000AF0EFA3F090800AE0FEA3E0FF907F08EEF0EFA3F0907F0175F0007405121DADF3
:2001D500158274FB021DADAF83E58290800CF0EFA3F090800CE0FEA3E0FF907F08EEF0EFB1
:2001F500A3F0907F0175F0007406121DAD158274FB021DADAF83E58290800EF0EFA3F09001
:20021500800EE0FEA3E0FF907F08EEF0EFA3F0907F0175F0007407121DAD158274FB021D73
:20023500ADAF82AE83ADF0FC908010EFF0EEA3F0EDA3F0ECA3F0908010E0FCA3E0FDA3E083
:20025500FEA3E0FF907F08ECF0EDA3F0EEA3F0EFA3F0907F0175F0007408121DAD158274BB
:20027500FB021DADAF82AE83ADF0FC908014EFF0EEA3F0EDA3F0ECA3F0908014E0FCA3E0A1
:20029500FDA3E0FEA3E0FF907F08ECF0EDA3F0EEA3F0EFA3F0907F0175F0007409121DAD05
:2002B500158274FB021DADAF82AE83ADF0FC908018EFF0EEA3F0EDA3F0ECA3F0908018E0CD
:2002D500FCA3E0FDA3E0FEA3E0FF907F08ECF0EDA3F0EEA3F0EFA3F0907F0175F000740A21
:2002F500121DAD158274FB021DADAFF0AE83E58290801EF0EEA3F0EFA3F0907F0175F0006E
:20031500740B121DAD158274F8121DAD907F08E0FEA3E0FF908021EEF0EFA3F090801CE07A
:20033500FCA3E0FDC3EC9EED9F5008908021ECF0EDA3F090801EE0FDA3E0FEA3E0FF908050
:200355001EE0F5F0A3E045F06064908021E0FBA3E0FC79007A00C3E99BEA9C5034C003C0D7
:2003750004907F0075F00074F9121DADE92DF508EA3EF5098F0A907F08E0850882850983BE
:20039500850AF0121DAD09B900010AD004D00380C590801EE0FDA3E0FEA3E0FFEB2DFBEC27
:2003B5003EFC8F028B828C838AF0E4121DAD908021E0FEA3E08E82F58322907F01E4F5F0F2
:2003D500121DAD1582F5F074F8121DAD907F08E0F58222907F0175F0007401121DAD15827B
:2003F50074F8121DAD907F08E0F58222907F0175F0007402121DAD158274F8121DAD907F5B
:2004150008E0F58222907F0175F0007403121DAD158274F8121DAD907F08E0F58222907F00
:200435000175F0007404121DAD158274F8121DAD907F08E0FEA3E08E82F58322907F017567
:20045500F0007405121DAD158274F8121DAD907F08E0FEA3E08E82F58322907F0175F000CC
:200475007406121DAD158274F8121DAD907F08E0FEA3E08E82F58322907F0175F000740720
:20049500121DAD1582F4121DAD907F08E0FEA3E08E82F58322907F0175F0007408121DAD15
:2004B500158274F8121DAD907F08E0FCA3E0FDA3E0FEA3E08C828D838EF022907F0175F09E
:2004D500007409121DAD158274F8121DAD907F08E0FCA3E0FDA3E0FEA3E08C828D838EF0BC
:2004F50022907F0175F000740A121DAD158274F8121DAD907F08E0FCA3E0FDA3E0FEA3E0A0
:200515008C828D838EF022E582908023F0E0907F08F0907F01E4F5F0121DAD1582F5F074F2
:2005350002021DADE582908024F0E0907F08F0907F0175F0007401121DAD158204021DAD39
:20055500E582908025F0E0907F08F0907F0175F0007402121DAD1582021DADE5829080264C
:20057500F0E0907F08F0907F0175F0007403121DAD158214021DADAF83E582908027F0EFA1
:20059500A3F0908027E0FEA3E0FF907F08EEF0EFA3F0907F0175F0007404121DAD15820342
:2005B500021DADAF83E582908029F0EFA3F0908029E0FEA3E0FF907F08EEF0EFA3F0907FF7
:2005D5000175F0007405121DAD15827402021DADAF83E58290802BF0EFA3F090802BE0FE13
:2005F500A3E0FF907F08EEF0EFA3F0907F0175F0007406121DAD15827402021DADAF83E532
:200615008290802DF0EFA3F090802DE0FEA3E0FF907F08EEF0EFA3F0907F0175F000740790
:20063500121DAD15827402021DADAF82AE83ADF0FC90802FEFF0EEA3F0EDA3F0ECA3F090C7
:20065500802FE0FCA3E0FDA3E0FEA3E0FF907F08ECF0EDA3F0EEA3F0EFA3F0907F0175F08C
:20067500007408121DAD15827402021DADAF82AE83ADF0FC908033EFF0EEA3F0EDA3F0EC2A
:20069500A3F0908033E0FCA3E0FDA3E0FEA3E0FF907F08ECF0EDA3F0EEA3F0EFA3F0907F8B
:2006B5000175F0007409121DAD15827402021DADAF82AE83ADF0FC908037EFF0EEA3F0EDFE
:2006D500A3F0ECA3F0908037E0FCA3E0FDA3E0FEA3E0FF907F08ECF0EDA3F0EEA3F0EFA3C7
:2006F500F0907F0175F000740A121DAD15827402021DADAFF0AE83E58290803BF0EEA3F05A
:20071500EFA3F090803BE0FDA3E0FEA3E0FF7B007C00EB2DF8EC3EF98F02888289838AF0CC
:20073500121DC8FA60208A82C007C006C005C004C003120570D003D004D005D006D0070B93
:20075500BB00CF0C80CC22E58290803EF0E0FF907F0175F000EF121DAD15827404021DADE1
:20077500E582908041F0E0FF907F0175F000EF121DAD90803FE0907F02121DAD908040E051
:20079500907F03121DAD907F007405021DADE582908043F0E0FF907F0175F000EF121DAD39
:2007B500908042E0907F02121DAD907F007406021DADE582908047F0908046E0FF90804776
:2007D500E0FE907F0175F000EE121DAD908044E0907F02121DAD908045E0907F03121DADA3
:2007F500A3E4121DAD907F08EFF0907F007407021DADE58290804BF090804AE0FF90804BEF
:20081500E0FE907F0175F000EE121DAD908048E0907F02121DAD908049E0907F03121DAD5A
:20083500A37401121DAD907F08EFF0907F007407021DADE58290804FF090804EE0FF908060
:200855004FE0FE907F0175F000EE121DAD90804CE0907F02121DAD90804DE0907F03121D70
:20087500ADA37402121DAD907F08EFF0907F007407021DADE582908053F0908052E0FF90EA
:200895008053E0FE907F0175F000EE121DAD908050E0907F02121DAD908051E0907F0312C1
:2008B5001DADA37403121DAD907F08EFF0907F007407021DADE582908058F0908056E0FE14
:2008D500A3E0FF908058E0FD907F0175F000ED121DAD908054E0907F02121DAD908055E088
:2008F500907F03121DADA37404121DAD907F08EEF0EFA3F0907F007407021DADE5829080BA
:200915005DF090805BE0FEA3E0FF90805DE0FD907F0175F000ED121DAD908059E0907F02C8
:20093500121DAD90805AE0907F03121DADA37405121DAD907F08EEF0EFA3F0907F00740795
:20095500021DADE582908062F0908060E0FEA3E0FF908062E0FD907F0175F000ED121DAD90
:2009750090805EE0907F02121DAD90805FE0907F03121DADA37406121DAD907F08EEF0EF0D
:20099500A3F0907F007407021DADE582908067F0908065E0FEA3E0FF908067E0FD907F0152
:2009B50075F000ED121DAD908063E0907F02121DAD908064E0907F03121DADA37407121D25
:2009D500AD907F08EEF0EFA3F0907F007407021DADE58290806EF090806AE0FCA3E0FDA33A
:2009F500E0FEA3E0FF90806EE0FB907F0175F000EB121DAD908068E0907F02121DAD908098
:200A150069E0907F03121DADA37408121DAD907F08ECF0EDA3F0EEA3F0EFA3F0907F007496
:200A350007021DADE582908075F0908071E0FCA3E0FDA3E0FEA3E0FF908075E0FB907F01A2
:200A550075F000EB121DAD90806FE0907F02121DAD908070E0907F03121DADA37409121D6C
:200A7500AD907F08ECF0EDA3F0EEA3F0EFA3F0907F007407021DADE58290807CF09080787D
:200A9500E0FCA3E0FDA3E0FEA3E0FF90807CE0FB907F0175F000EB121DAD908076E0907FCA
:200AB50002121DAD908077E0907F03121DADA3740A121DAD907F08ECF0EDA3F0EEA3F0EF0E
:200AD500A3F0907F007407021DADE582908082F090807FE0FDA3E0FEA3E0FF90807FE0F55C
:200AF500F0A3E045F06018C007C006C0051200B4D005D006D0078D828E838FF01200BF9027
:200B15008082E0FF907F0175F000EF121DAD90807DE0907F02121DAD90807EE0907F0312B3
:200B35001DADA3740B121DAD907F007407021DADE582908085F0E0FF907F0175F000EF1241
:200B55001DAD908083E0907F02121DAD908084E0907F03121DADA3E4121DADF582F5F074C1
:200B750008121DAD907F08E0F58222E582908088F0E0FF907F0175F000EF121DAD90808648
:200B9500E0907F02121DAD908087E0907F03121DADA37401121DAD907F007408121DAD9023
:200BB5007F08E0F58222E58290808BF0E0FF907F0175F000EF121DAD908089E0907F021273
:200BD5001DAD90808AE0907F03121DADA37402121DAD907F007408121DAD907F08E0F58204
:200BF50022E58290808EF0E0FF907F0175F000EF121DAD90808CE0907F02121DAD90808DA4
:200C1500E0907F03121DADA37403121DAD907F007408121DAD907F08E0F58222E58290808D
:200C350091F0E0FF907F0175F000EF121DAD90808FE0907F02121DAD908090E0907F0312EF
:200C55001DADA37404121DAD907F0023121DAD907F08E0FEA3E08E82F58322E58290809483
:200C7500F0E0FF907F0175F000EF121DAD908092E0907F02121DAD908093E0907F03121D1D
:200C9500ADA37405121DAD907F007408121DAD907F08E0FEA3E08E82F58322E58290809703
:200CB500F0E0FF907F0175F000EF121DAD908095E0907F02121DAD908096E0907F03121DD7
:200CD500ADA37406121DAD907F007408121DAD907F08E0FEA3E08E82F58322E58290809ABF
:200CF500F0E0FF907F0175F000EF121DAD908098E0907F02121DAD908099E0907F03121D91
:200D1500ADA37407121DAD907F0004121DAD907F08E0FEA3E08E82F58322E58290809DF002
:200D3500E0FF907F0175F000EF121DAD90809BE0907F02121DAD90809CE0907F03121DAD8D
:200D5500A37408121DAD907F00121DAD907F08E0FCA3E0FDA3E0FEA3E08C828D838EF02263
:200D7500E5829080A0F0E0FF907F0175F000EF121DAD90809EE0907F02121DAD90809FE02E
:200D9500907F03121DADA37409121DAD907F0014121DAD907F08E0FCA3E0FDA3E0FEA3E0DE
:200DB5008C828D838EF022E5829080A3F0E0FF907F0175F000EF121DAD9080A1E0907F0295
:200DD500121DAD9080A2E0907F03121DADA3740A121DAD907F007408121DAD907F08E0FC4B
:200DF500A3E0FDA3E0FEA3E08C828D838EF022E5829080ABF0E0FF907F0175F000EF121D18
:200E1500AD9080A4E0907F02121DAD9080A5E0907F03121DADA3740B121DAD907F00740883
:200E3500121DAD9080A6E0FDA3E0FEA3E0FF9080A9E0FBA3E0FC90801CEBF0ECA3F08D8283
:200E55008E838FF00202FFE5829080ADF0E0FF907F0175F000EF121DAD9080ACE0907F020A
:200E7500121DAD907F007409021DADC021C0E0C0F0C082C083C007C006C005C004C003C0DA
:200E950002C001C000C0D075D000907F0075F0007401121DAD901DE875F080120708907F76
:200EB5000075F0007403121DAD907FFE121DC8FFBF15028014BF1902804BBF2903020F5601
:200ED500BF2D03020F91020FCA9080AEE0FF9080867416F0908087E4F08F82120B80E58264
:200EF500B401009200E433FF9080AEE0FE9080487416F0908049E4F090804AEFF08E82128A
:200F15000807020FCA9080AEE0FF908086741AF0908087E4F08F82120B80E582B40100925A
:200F350000E433FF9080AEE0FE908048741AF0908049E4F090804AEFF08E82120807020F6C
:200F5500CA9080AEE0FF908086742AF0908087E4F08F82120B80E582B401009200E433FF14
:200F75009080AEE0FE908048742AF0908049E4F090804AEFF08E8212080780399080AEE0EC
:200F9500FF908086742EF0908087E4F08F82120B80E582B401009200E433FF9080AEE0FE9C
:200FB500908048742EF0908049E4F090804AEFF08E82120807D0D0D000D001D002D003D0E5
:200FD50004D005D006D007D083D082D0F0D0E0D02132C021C0E0C0F0C082C083C007C006FB
:200FF500C005C004C003C002C001C000C0D075D000907F0075F0007401121DAD901DFB7596
:20101500F080120708907F0075F0007403121DAD907FFE121DC8FFBF1F028014BF23028088
:201035004BBF29030210BDBF2D030210F80211319080AEE0FF9080867420F0908087E4F037
:201055008F82120B80E582B401009201E433FF9080AEE0FE9080487420F0908049E4F090D3
:20107500804AEFF08E821208070211319080AEE0FF9080867424F0908087E4F08F82120BE9
:2010950080E582B401009201E433FF9080AEE0FE9080487424F0908049E4F090804AEFF014
:2010B5008E821208070211319080AEE0FF908086742BF0908087E4F08F82120B80E582B4B0
:2010D50001009201E433FF9080AEE0FE908048742BF0908049E4F090804AEFF08E8212083E
:2010F5000780399080AEE0FF908086742FF0908087E4F08F82120B80E582B401009201E4A9
:2011150033FF9080AEE0FE908048742FF0908049E4F090804AEFF08E82120807D0D0D000FA
:20113500D001D002D003D004D005D006D007D083D082D0F0D0E0D02132120075E582908098
:20115500AEF0E0F58212075C9080AEE0FF90803F7401F0908040E4F08F821207759080AE3E
:20117500E0FF90805E7401F090805F747EF09080607419F0E4A3F08F821209589080AEE0D1
:20119500FF90805E7401F090805FF0908060F0E4A3F08F821209589080AEE0FF90803F744E
:2011B50002F0908040E4F08F821207759080AEE0FF90805E7402F090805F747EF090806033
:2011D5007419F0E4A3F08F821209589080AEE0FF90805E7402F090805F14F0908060F0E45A
:2011F500A3F08F821209589080AEE0FF90803F7403F0908040E4F08F821207759080AEE00F
:20121500FF90805E7403F090805F747EF09080607419F0E4A3F08F821209589080AEE0FF0F
:2012350090805E7403F090805F7401F0908060F0E4A3F08F821209589080AEE0FF90803FA9
:201255007404F0908040E4F08F821207759080AEE0FF90805E7404F090805F747EF090807A
:20127500607419F0E4A3F08F821209589080AEE0FF90805E7404F090805F7401F0908060CA
:20129500F0E4A3F08F821209589080AEE0FF90803F740BF09080407401F08F82120775900F
:2012B50080AEE0FF90805E740BF090805F747EF09080607420F0E4A3F08F821209589080DF
:2012D500AEE0FF90805E740BF090805F747FF09080607401F0E4A3F08F821209589080AEAF
:2012F500E0FF90803F740CF09080407401F08F821207759080AEE0FF90805E740CF090805C
:201315005F747EF09080607412F0E4A3F08F821209589080AEE0FF90805E740CF090805FAC
:20133500747FF09080607403F0E4A3F08F821209589080AEE0FF90803F740FF090804074C0
:2013550001F08F821207759080AEE0FF90805E740FF090805F747EF09080607420F0E4A39E
:20137500F08F821209589080AEE0FF90805E740FF090805F747FF09080607402F0E4A3F0C7
:201395008F821209589080AEE0FF90807D740FF090807EE4F090807F740EF0741EA3F0741B
:2013B50080A3F08F82120ADF9080AEE0FF90805E740FF090805F747DF09080607404F0E46F
:2013D500A3F08F821209589080AEE0FF90803F7410F0908040C4F08F821207759080AEE040
:2013F500FF90805E7410F090805F747EF09080607412F0E4A3F08F821209589080AEE0FF28
:2014150090805E7410F090805F747FF09080607403F0E4A3F08F821209589080AEE0FF9084
:20143500803F7415F09080407402F08F821207759080AEE0FF90805E7415F090805F747E25
:20145500F09080607420F0E4A3F08F821209589080AEE0FF90805E7415F090805F747FF0C2
:201475009080607402F0E4A3F08F821209589080AEE0FF90807D7415F090807EE4F0908071
:201495007F7419F0741EA3F07480A3F08F82120ADF9080AEE0FF90805E7415F090805F741C
:2014B5007DF09080607401F0E4A3F08F821209589080AEE0FF90803F7416F09080407402AE
:2014D500F08F821207759080AEE0FF90805E7416F090805F747EF09080607412F0E4A3F035
:2014F5008F821209589080AEE0FF90805E7416F090805F747FF09080607403F0E4A3F08F9F
:20151500821209589080AEE0FF90803F7419F09080407402F08F821207759080AEE0FF90D6
:20153500805E7419F090805F747EF09080607420F0E4A3F08F821209589080AEE0FF90804E
:201555005E7419F090805F747FF09080607402F0E4A3F08F821209589080AEE0FF90807D4E
:201575007419F090807EE4F090807F7425F0741EA3F07480A3F08F82120ADF9080AEE0FF0A
:2015950090805E7419F090805F747DF09080607405F0E4A3F08F821209589080AEE0FF90FA
:2015B500803F741AF09080407402F08F821207759080AEE0FF90805E741AF090805F747E9A
:2015D500F09080607409F0E4A3F08F821209589080AEE0FF90805E741AF090805F747FF053
:2015F5009080607403F0E4A3F08F821209589080AEE0FF90803F741BF09080407402F08F54
:20161500821207759080AEE0FF90805E741BF090805F747EF09080607409F0E4A3F08F8265
:201635001209589080AEE0FF90805E741BF090805F747FF09080607403F0E4A3F08F8212D5
:2016550009589080AEE0FF90803F741FF09080407403F08F821207759080AEE0FF90805E44
:20167500741FF090805F747EF09080607420F0E4A3F08F821209589080AEE0FF90805E7413
:201695001FF090805F747FF09080607402F0E4A3F08F821209589080AEE0FF90807D741F46
:2016B500F090807EE4F090807F7433F0741EA3F07480A3F08F82120ADF9080AEE0FF908038
:2016D5005E741FF090805F747DF09080607402F0E4A3F08F821209589080AEE0FF90803F07
:2016F5007420F09080407403F08F821207759080AEE0FF90805E7420F090805F747EF0908B
:2017150080607412F0E4A3F08F821209589080AEE0FF90805E7420F090805F747FF0908072
:20173500607403F0E4A3F08F821209589080AEE0FF90803F7423F09080407403F08F821285
:2017550007759080AEE0FF90805E7423F090805F747EF09080607420F0E4A3F08F8212097E
:20177500589080AEE0FF90805E7423F090805F747FF09080607402F0E4A3F08F8212095847
:201795009080AEE0FF90807D7423F090807EE4F090807F743FF0741EA3F07480A3F08F8232
:2017B500120ADF9080AEE0FF90805E7423F090805F747DF09080607406F0E4A3F08F8212C3
:2017D50009589080AEE0FF90803F7424F09080407403F08F821207759080AEE0FF90805EBE
:2017F5007424F090805F747EF09080607409F0E4A3F08F821209589080AEE0FF90805E74A4
:2018150024F090805F747FF09080607403F0E4A3F08F821209589080AEE0FF90803F7425F6
:20183500F09080407403F08F821207759080AEE0FF90805E7425F090805F747EF0908060F8
:201855007409F0E4A3F08F821209589080AEE0FF90805E7425F090805F747FF09080607441
:2018750003F0E4A3F08F821209589080AEE0FF90803F7429F09080407404F08F8212077595
:201895009080AEE0FF90805E7429F090805F747EF09080607420F0E4A3F08F8212095890CB
:2018B50080AEE0FF90805E7429F090805F747FF09080607402F0E4A3F08F821209589080D8
:2018D500AEE0FF90807D7429F090807EE4F090807F744DF0741EA3F07480A3F08F82120AD1
:2018F500DF9080AEE0FF90805E7429F090805F747DF09080607403F0E4A3F08F821209583A
:201915009080AEE0FF90803F742AF09080407404F08F821207759080AEE0FF90805E742A38
:20193500F090805F747EF09080607409F0E4A3F08F821209589080AEE0FF90805E742AF0E0
:2019550090805F747FF09080607403F0E4A3F08F821209589080AEE0FF90803F742BF09043
:2019750080407404F08F821207759080AEE0FF90805E742BF090805F747EF09080607409B3
:20199500F0E4A3F08F821209589080AEE0FF90805E742BF090805F747FF09080607403F084
:2019B500E4A3F08F821209589080AEE0FF90803F742DF09080407404F08F82120775908033
:2019D500AEE0FF90805E742DF090805F747EF09080607420F0E4A3F08F821209589080AE68
:2019F500E0FF90805E742DF090805F747FF09080607402F0E4A3F08F821209589080AEE033
:201A1500FF90807D742DF090807EE4F090807F7457F0741EA3F07480A3F08F82120ADF90A0
:201A350080AEE0FF90805E742DF090805F747DF09080607407F0E4A3F08F8212095890804F
:201A5500AEE0FF90803F742EF09080407404F08F821207759080AEE0FF90805E742EF0907F
:201A7500805F747EF09080607406F0E4A3F08F821209589080AEE0FF90805E742EF090800E
:201A95005F747FF09080607403F0E4A3F08F821209589080AEE0FF90803F742FF09080404E
:201AB5007404F08F821207759080AEE0FF90805E742FF090805F747EF09080607406F0E45D
:201AD500A3F08F821209589080AEE0FF90805E742FF090805F747FF09080607403F0E4A38C
:201AF500F08F821209589080AEE0FF90803F7430F09080407404F08F821207759080AEE0E8
:201B1500FF90805E7430F090805F747EF09080607406F0E4A3F08F821209589080AEE0FFEC
:201B350090805E7430F090805F747FF09080607403F0E4A3F08F821209587E007F007C00F1
:201B55007D000CBC00010DEC4D6003021BF29080AEE0FB908086740CF0908087E4F08B825B
:201B7500C007C006C005C004120B80E582D004D005D006D0076034907F0075F00074011251
:201B95001DAD901E6975F080C007C006C005C004120708D004D005D006D007907F0075F069
:201BB500007403121DAD74FE121DAD0EBE00010F9080AEE0FB908063740BF0908064E4F0D0
:201BD500908065EEF0EFA3F08B82C007C006C005C00412099FD004D005D006D007907FFEDB
:201BF50075F000121DC8FBBB0F028014BB19028075BB2303021CE1BB2D03021D47021B57A9
:201C15009080AEE0FB9080867410F0908087E4F08B82C007C006C005C004120B80AB82D0E4
:201C350004D005D006D007EBB401009202E433FB9080AEE0FA9080487410F0908049E4F032
:201C550090804AEBF08A82C007C006C005C004120807D004D005D006D007907FFEE4F5F0CB
:201C7500121DAD021B579080AEE0FB908086741BF0908087E4F08B82C007C006C005C004C3
:201C9500120B80AB82D004D005D006D007EBB401009202E433FB9080AEE0FA908048741B4A
:201CB500F0908049E4F090804AEBF08A82C007C006C005C004120807D004D005D006D00724
:201CD500907FFEE4F5F0121DAD021B579080AEE0FB9080867425F0908087E4F08B82C007D2
:201CF500C006C005C004120B80AB82D004D005D006D007EBB401009202E433FB9080AEE07C
:201D1500FA9080487425F0908049E4F090804AEBF08A82C007C006C005C004120807D0045A
:201D3500D005D006D007907FFEE4F5F0121DAD021B579080AEE0FB9080867430F09080878C
:201D5500E4F08B82C007C006C005C004120B80AB82D004D005D006D007EBB401009202E43F
:201D750033FB9080AEE0FA9080487430F0908049E4F090804AEBF08A82C007C006C005C01C
:181D950004120807D004D005D006D007907FFEE4F5F0121DAD021B5795
:201DE80052616973656420696E7465727275707420310052616973656420696E7465727219
:201E080075707420320052756E2073637269707400496E74657272757074203100496E74DC
:201E2800203120616E642072756E00496E74657272757074203200496E74203220616E6492
:201E48002072756E00426F746820696E747300426F746820696E747320616E642072756E67
:101E6800005363726970742073746F7070656400D6
:06004800E478FFF6D8FD8C
:200026007900E94400601B7A00901E7878B075A080E493F2A308B8000205A0D9F4DAF275BB
:02004600A0FF19
:1B1DAD0020F71130F6138883A88220F509F6A8837583002280FEF280F5F02235
:20004E007800E84400600A790075A080E4F309D8FC78B0E84400600C7901908000E4F0A301
:04006E00D8FCD9FAE7
:0D001900758121121DE4E5826003020016CE
:1C1DC80020F71430F6148883A88220F507E6A88375830022E280F7E49322E0222A
:041DE40075820022E2
:00000001FF
