:03000000020006F5
:03005F0002000399
:03000300026FE3A6
:2000620090BF0075F00074F71284D290BF08E0F58222E58290C000F0E0FF90BF0175F000EC
:20008200EF1284D2158274FC1284D290BF08E0FCA3E0FDA3E0FEA3E08C828D838EF0229093
:2000A200BF0075F00074FA0284D2AFF0AE83E58290C001F0EEA3F0EFA3F090BF0175F00024
:2000C200740B1284D290C001E0FDA3E0FEA3E0FF7C00EC2DF9E43EFA8F0389828A838BF037
:2000E20012871FFB601390BF08EBF090BF0075F00074FB1284D20C80D922E58290C004F0E9
:20010200E090BF08F090BF01E4F5F01284D21582F5F074FB0284D2E58290C005F0E090BF17
:2001220008F090BF0175F00074011284D2158274FB0284D2E58290C006F0E090BF08F09071
:20014200BF0175F00074021284D2158274FB0284D2E58290C007F0E090BF08F090BF0175A2
:20016200F00074031284D2158274FB0284D2AF83E58290C008F0EFA3F090C008E0FEA3E034
:20018200FF90BF08EEF0EFA3F090BF0175F00074041284D21582F40284D2AF83E58290C046
:2001A2000AF0EFA3F090C00AE0FEA3E0FF90BF08EEF0EFA3F090BF0175F00074051284D2BA
:2001C200158274FB0284D2AF83E58290C00CF0EFA3F090C00CE0FEA3E0FF90BF08EEF0EF78
:2001E200A3F090BF0175F00074061284D2158274FB0284D2AF83E58290C00EF0EFA3F0907C
:20020200C00EE0FEA3E0FF90BF08EEF0EFA3F090BF0175F00074071284D2158274FB0284D3
:20022200D2AF82AE83ADF0FC90C010EFF0EEA3F0EDA3F0ECA3F090C010E0FCA3E0FDA3E0F1
:20024200FEA3E0FF90BF08ECF0EDA3F0EEA3F0EFA3F090BF0175F00074081284D2158274C2
:20026200FB0284D2AF82AE83ADF0FC90C014EFF0EEA3F0EDA3F0ECA3F090C014E0FCA3E0A8
:20028200FDA3E0FEA3E0FF90BF08ECF0EDA3F0EEA3F0EFA3F090BF0175F00074091284D20C
:2002A200158274FB0284D2AF82AE83ADF0FC90C018EFF0EEA3F0EDA3F0ECA3F090C018E0D4
:2002C200FCA3E0FDA3E0FEA3E0FF90BF08ECF0EDA3F0EEA3F0EFA3F090BF0175F000740AB4
:2002E2001284D2158274FB0284D2AFF0AE83E58290C01EF0EEA3F0EFA3F090BF0175F000E9
:20030200740B1284D2158274F81284D290BF08E0FEA3E0FF90C021EEF0EFA3F090C01CE0B5
:20032200FCA3E0FDC3EC9EED9F500890C021ECF0EDA3F090C01EE0FDA3E0FEA3E0FF90C0A3
:200342001EE0F5F0A3E045F0606490C021E0FBA3E0FC79007A00C3E99BEA9C5034C003C0AA
:200362000490BF0075F00074F91284D2E92DF508EA3EF5098F0A90BF08E0850882850983C5
:20038200850AF01284D209B900010AD004D00380C590C01EE0FDA3E0FEA3E0FFEB2DFBEC6E
:2003A2003EFC8F028B828C838AF0E41284D290C021E0FEA3E08E82F5832290BF01E4F5F0F9
:2003C2001284D21582F5F074F81284D290BF08E0F5822290BF0175F00074011284D215826A
:2003E20074F81284D290BF08E0F5822290BF0175F00074021284D2158274F81284D290BF0A
:2004020008E0F5822290BF0175F00074031284D2158274F81284D290BF08E0F5822290BF3B
:200422000175F00074041284D2158274F81284D290BF08E0FEA3E08E82F5832290BF0175E2
:20044200F00074051284D2158274F81284D290BF08E0FEA3E08E82F5832290BF0175F00047
:2004620074061284D2158274F81284D290BF08E0FEA3E08E82F5832290BF0175F00074079B
:200482001284D21582F41284D290BF08E0FEA3E08E82F5832290BF0175F00074081284D204
:2004A200158274F81284D290BF08E0FCA3E0FDA3E0FEA3E08C828D838EF02290BF0175F0A5
:2004C2000074091284D2158274F81284D290BF08E0FCA3E0FDA3E0FEA3E08C828D838EF077
:2004E2002290BF0175F000740A1284D2158274F81284D290BF08E0FCA3E0FDA3E0FEA3E01B
:200502008C828D838EF022E58290C023F0E090BF08F090BF01E4F5F01284D21582F5F074B9
:20052200020284D2E58290C024F0E090BF08F090BF0175F00074011284D21582040284D2E8
:20054200E58290C025F0E090BF08F090BF0175F00074021284D215820284D2E58290C02647
:20056200F0E090BF08F090BF0175F00074031284D21582140284D2AF83E58290C027F0EFDC
:20058200A3F090C027E0FEA3E0FF90BF08EEF0EFA3F090BF0175F00074041284D215820309
:2005A2000284D2AF83E58290C029F0EFA3F090C029E0FEA3E0FF90BF08EEF0EFA3F090BF7E
:2005C2000175F00074051284D2158274020284D2AF83E58290C02BF0EFA3F090C02BE0FE8E
:2005E200A3E0FF90BF08EEF0EFA3F090BF0175F00074061284D2158274020284D2AF83E5AD
:200602008290C02DF0EFA3F090C02DE0FEA3E0FF90BF08EEF0EFA3F090BF0175F0007407A3
:200622001284D2158274020284D2AF82AE83ADF0FC90C02FEFF0EEA3F0EDA3F0ECA3F09082
:20064200C02FE0FCA3E0FDA3E0FEA3E0FF90BF08ECF0EDA3F0EEA3F0EFA3F090BF0175F0DF
:200662000074081284D2158274020284D2AF82AE83ADF0FC90C033EFF0EEA3F0EDA3F0ECE5
:20068200A3F090C033E0FCA3E0FDA3E0FEA3E0FF90BF08ECF0EDA3F0EEA3F0EFA3F090BFDE
:2006A2000175F00074091284D2158274020284D2AF82AE83ADF0FC90C037EFF0EEA3F0EDB9
:2006C200A3F0ECA3F090C037E0FCA3E0FDA3E0FEA3E0FF90BF08ECF0EDA3F0EEA3F0EFA35A
:2006E200F090BF0175F000740A1284D2158274020284D2AFF0AE83E58290C03BF0EEA3F0D5
:20070200EFA3F090C03BE0FDA3E0FEA3E0FF7B007C00EB2DF8EC3EF98F02888289838AF09F
:2007220012871FFA60208A82C007C006C005C004C00312055DD003D004D005D006D0070BF8
:20074200BB00CF0C80CC22E58290C03EF0E0FF90BF0175F000EF1284D2158274040284D25C
:20076200E58290C041F0E0FF90BF0175F000EF1284D290C03FE090BF021284D290C040E00C
:2007820090BF031284D290BF0074050284D2E58290C043F0E0FF90BF0175F000EF1284D2A8
:2007A20090C042E090BF021284D290BF0074060284D2E58290C047F090C046E0FF90C047F1
:2007C200E0FE90BF0175F000EE1284D290C044E090BF021284D290C045E090BF031284D2D2
:2007E200A3E41284D290BF08EFF090BF0074070284D2E58290C04BF090C04AE0FF90C04BAA
:20080200E0FE90BF0175F000EE1284D290C048E090BF021284D290C049E090BF031284D289
:20082200A374011284D290BF08EFF090BF0074070284D2E58290C04FF090C04EE0FF90C01B
:200842004FE0FE90BF0175F000EE1284D290C04CE090BF021284D290C04DE090BF031284C4
:20086200D2A374021284D290BF08EFF090BF0074070284D2E58290C053F090C052E0FF90C0
:20088200C053E0FE90BF0175F000EE1284D290C050E090BF021284D290C051E090BF03123C
:2008A20084D2A374031284D290BF08EFF090BF0074070284D2E58290C058F090C056E0FE83
:2008C200A3E0FF90C058E0FD90BF0175F000ED1284D290C054E090BF021284D290C055E043
:2008E20090BF031284D2A374041284D290BF08EEF0EFA3F090BF0074070284D2E58290C029
:200902005DF090C05BE0FEA3E0FF90C05DE0FD90BF0175F000ED1284D290C059E090BF020F
:200922001284D290C05AE090BF031284D2A374051284D290BF08EEF0EFA3F090BF00740704
:200942000284D2E58290C062F090C060E0FEA3E0FF90C062E0FD90BF0175F000ED1284D28B
:2009620090C05EE090BF021284D290C05FE090BF031284D2A374061284D290BF08EEF0EF3C
:20098200A3F090BF0074070284D2E58290C067F090C065E0FEA3E0FF90C067E0FD90BF0199
:2009A20075F000ED1284D290C063E090BF021284D290C064E090BF031284D2A3740712842D
:2009C200D290BF08EEF0EFA3F090BF0074070284D2E58290C06EF090C06AE0FCA3E0FDA39C
:2009E200E0FEA3E0FF90C06EE0FB90BF0175F000EB1284D290C068E090BF021284D290C053
:200A020069E090BF031284D2A374081284D290BF08ECF0EDA3F0EEA3F0EFA3F090BF0074D1
:200A2200070284D2E58290C075F090C071E0FCA3E0FDA3E0FEA3E0FF90C075E0FB90BF0129
:200A420075F000EB1284D290C06FE090BF021284D290C070E090BF031284D2A37409128474
:200A6200D290BF08ECF0EDA3F0EEA3F0EFA3F090BF0074070284D2E58290C07CF090C078DF
:200A8200E0FCA3E0FDA3E0FEA3E0FF90C07CE0FB90BF0175F000EB1284D290C076E090BF51
:200AA200021284D290C077E090BF031284D2A3740A1284D290BF08ECF0EDA3F0EEA3F0EFBD
:200AC200A3F090BF0074070284D2E58290C082F090C07FE0FDA3E0FEA3E0FF90C07FE0F5E3
:200AE200F0A3E045F06018C007C006C0051200A1D005D006D0078D828E838FF01200AC9060
:200B0200C082E0FF90BF0175F000EF1284D290C07DE090BF021284D290C07EE090BF03122E
:200B220084D2A3740B1284D290BF0074070284D2E58290C085F0E0FF90BF0175F000EF12F0
:200B420084D290C083E090BF021284D290C084E090BF031284D2A3E41284D2F582F5F074A4
:200B6200081284D290BF08E0F58222E58290C088F0E0FF90BF0175F000EF1284D290C08643
:200B8200E090BF021284D290C087E090BF031284D2A374011284D290BF0074081284D29006
:200BA200BF08E0F58222E58290C08BF0E0FF90BF0175F000EF1284D290C089E090BF0212BA
:200BC20084D290C08AE090BF031284D2A374021284D290BF0074081284D290BF08E0F582E7
:200BE20022E58290C08EF0E0FF90BF0175F000EF1284D290C08CE090BF021284D290C08D5F
:200C0200E090BF031284D2A374031284D290BF0074081284D290BF08E0F58222E58290C0FC
:200C220091F0E0FF90BF0175F000EF1284D290C08FE090BF021284D290C090E090BF0312AA
:200C420084D2A374041284D290BF00231284D290BF08E0FEA3E08E82F58322E58290C09432
:200C6200F0E0FF90BF0175F000EF1284D290C092E090BF021284D290C093E090BF03128471
:200C8200D2A374051284D290BF0074081284D290BF08E0FEA3E08E82F58322E58290C09719
:200CA200F0E0FF90BF0175F000EF1284D290C095E090BF021284D290C096E090BF0312842B
:200CC200D2A374061284D290BF0074081284D290BF08E0FEA3E08E82F58322E58290C09AD5
:200CE200F0E0FF90BF0175F000EF1284D290C098E090BF021284D290C099E090BF031284E5
:200D0200D2A374071284D290BF00041284D290BF08E0FEA3E08E82F58322E58290C09DF018
:200D2200E0FF90BF0175F000EF1284D290C09BE090BF021284D290C09CE090BF031284D2BC
:200D4200A374081284D290BF001284D290BF08E0FCA3E0FDA3E0FEA3E08C828D838EF022DE
:200D6200E58290C0A0F0E0FF90BF0175F000EF1284D290C09EE090BF021284D290C09FE0E9
:200D820090BF031284D2A374091284D290BF00141284D290BF08E0FCA3E0FDA3E0FEA3E08D
:200DA2008C828D838EF022E58290C0A3F0E0FF90BF0175F000EF1284D290C0A1E090BF021C
:200DC2001284D290C0A2E090BF031284D2A3740A1284D290BF0074081284D290BF08E0FC2E
:200DE200A3E0FDA3E0FEA3E08C828D838EF022E58290C0ABF0E0FF90BF0175F000EF128444
:200E0200D290C0A4E090BF021284D290C0A5E090BF031284D2A3740B1284D290BF0074088D
:200E22001284D290C0A6E0FDA3E0FEA3E0FF90C0A9E0FBA3E0FC90C01CEBF0ECA3F08D824A
:200E42008E838FF00202ECE58290C0ADF0E0FF90BF0175F000EF1284D290C0ACE090BF02A4
:200E62001284D290BF0074090284D2AFF0AE83E58290C18EF0EEA3F0EFA3F090C18EE0FD1F
:200E8200A3E0FEA3E0FF7C00EC75F004A42DF9EE35F0FA8F0389828A838BF0E41284D2A391
:200EA2001284D2A31284D2A31284D20CBC080040D722AFF0AE83E58290C194F0EEA3F0EF2D
:200EC200A3F090C191E0F50BA3E0F50CA3E0F50D90C194E0F508A3E0F509A3E0F50A790074
:200EE200E975F004A4F8ACF0250BFAEC350CFBAF0DE82508F8EC3509FCAE0A88828C838EC6
:200F0200F012871FF8A312871FFCA312871FFEA312871FFD8A828B838FF0E81284D2A3ECAF
:200F22001284D2A3EE1284D2A3ED1284D209B9080040AD22AFF0AE83E58290C198F0EEA3DC
:200F4200F0EFA3F090C198E0FDA3E0FEA3E0FF741C2DF508E43EF5098F0A850882850983C1
:200F6200850AF012871FF8A312871FFBA312871FF9A312871FFC53047F85088285098385C4
:200F82000AF0E81284D2A3EB1284D2A3E91284D2A3EC1284D27C00EC75F004A42DFBEE3564
:200FA200F0F98F028B8289838AF012871FF8A312871FF9A312871FFAA312871FFBE8494AF8
:200FC2004B700302105D90C197E06048741C2DF508E43EF5098F0A850882850983850AF060
:200FE20012871FF9A312871FFAA312871FF8A312871FFB430380850882850983850AF0E9F2
:201002001284D2A3EA1284D2A3E81284D2A3EB1284D28046741C2DF508E43EF5098F0A85CA
:201022000882850983850AF012871FF9A312871FFAA312871FF8A312871FFB53037F850883
:2010420082850983850AF0E91284D2A3EA1284D2A3E81284D2A3EB0284D2220CBC0800501B
:2010620003020F99741C2DFDE43EFE8D828E838FF012871FF9A312871FFAA312871FFBA349
:2010820012871FFC53047F8D828E838FF0E91284D2A3EA1284D2A3EB1284D2A3EC0284D202
:2010A200AFF0AE83E58290C19BF0EEA3F0EFA3F090C19BE0FDA3E0FEA3E0FF741C2DFDE4AE
:2010C2003EFE8D828E838FF012871FF9A312871FFAA312871FFBA312871FFC30E7047801EC
:2010E20080027800880853047F8D828E838FF0E91284D2A3EA1284D2A3EB1284D2A3EC1212
:2011020084D290C19BE0FDA3E0FEA3E0FF7C00EC75F004A42DFBEE35F0F98F028B82898358
:201122008AF012871FF8A312871FF9A312871FFAA312871FFBE8494A4B6052E508604A7401
:201142001C2DF509E43EF50A8F0B850982850A83850BF012871FF9A312871FFAA312871F88
:20116200F8A312871FFB430380850982850A83850BF0E91284D2A3EA1284D2A3E81284D27E
:20118200A3EB1284D275820122758200220CBC0800500302111175820022AFF0AE83E5828D
:2011A20090C19EF0EEA3F0EFA3F090C19EE0FDA3E0FEA3E0FF8D828E838FF01210A2AF82E8
:2011C20090C19EE0FCA3E0FDA3E0FE90C197E4F08C828D838EF0C007120F36D0078F8222C1
:2011E200AFF0AE83E58290C1A1F0EEA3F0EFA3F090C1A1E0FDA3E0FEA3E0FF8D828E838F50
:20120200F01210A2AF8290C1A1E0FCA3E0FDA3E0FEEFB40100920090C197E433F08C828D58
:20122200838EF0C007120F36D0078F8222AFF0AE83E58290C1A7F0EEA3F0EFA3F090C1A769
:20124200E0FFA3E0FDA3E0FE90C1A4E0F508A3E0F509A3E0F50A7907E975F004A4F8ACF0CD
:20126200C001E82FF9EC3DFA8E0389828A838BF012871FF50BA312871FF50CA312871FF5F0
:201282000DA312871FF50EE82508F8EC3509FCAB0A88828C838BF012871FF50FA312871F4E
:2012A200F510A312871FF511A312871FF512C3E50F950BE510950CE511950DE512950ED075
:2012C20001500475820122C3E50B950FE50C9510E50D9511E50E951250047582FF2219E910
:2012E200600302125A8F828D838EF012871FFCA312871FFDA312871FFEA312871FFF850830
:2013020082850983850AF012871FF8A312871FF9A312871FFAA312871FFBC3E89CE99DEA53
:201322009EEB9F500475820122C3EC98ED99EE9AEF9B50047582FF2275820022AFF0AE83E1
:20134200E58290C1B0F0EEA3F0EFA3F090C1ADE0FDA3E0FEA3E0FF90C1B0E0F50BA3E0F5F9
:201362000CA3E0F50D90C1AAE0F508A3E0F509A3E0F50A750E00E50E75F004A4F8ACF02DBB
:20138200F50FEC3EF5108F11C005C006C007E8250BFEEC350CFDAF0D8E828D838FF01287F2
:2013A2001FFEA312871FFDA312871FFBA312871FFFE82508F8EC3509FCAA0A88828C838A7C
:2013C200F012871FF8A312871FF9A312871FFAA312871FFCE82EFEE93DFDEA3BFBEC3FFFEA
:2013E200850F828510838511F0EE1284D2A3ED1284D2A3EB1284D2A3EF1284D2050EC3E53E
:201402000E9408D007D006D00550030213787C00EC75F004A42DF50FEE35F0F5108F1185DB
:201422000F828510838511F012871FA312871FA312871FA312871F20E7030214E28C007BA9
:201442000008B800010BE828F8EB33FBE828F8EB33FBE82DF8EB3EFB8F02C005C006C00768
:2014620088828B838AF012871FF9A312871FFDA312871FFEA312871FFF09B900090DBD0087
:20148200050EBE00010F88828B838AF0E91284D2A3ED1284D2A3EE1284D2A3EF1284D28516
:2014A2000F828510838511F012871FFEA312871FFDA312871FFBA312871FFF53077F850FD0
:2014C200828510838511F0EE1284D2A3ED1284D2A3EB1284D2A3EF1284D2D007D006D0052A
:2014E2000CBC0700500302141222AFF0AE83E58290C1BCF0EEA3F0EFA3F090C1BCE0F51154
:20150200A3E0F512A3E0F51390C1B3E0F50EA3E0F50FA3E0F51090C1B6E0F508A3E0F50959
:20152200A3E0F50A90C1B9E0F50BA3E0F50CA3E0F50D7900E975F004A4F8ACF02511F514F2
:20154200EC3512F5158513168514828515838516F012871FF517A312871FF518A312871F54
:20156200F519A312871FF51AE8250EFAEC350FFEAF108A828E838FF012871FFAA312871F46
:20158200FEA312871FFFA312871FFDEA2517FAEE3518FEEF3519FFED351AFD851482851516
:2015A200838516F0EA1284D2A3EE1284D2A3EF1284D2A3ED1284D2E82508F517EC3509F59E
:2015C20018850A198517828518838519F012871FF51BA312871FF51CA312871FF51DA31227
:2015E200871FF51EE8250BFDEC350CFCA80D8D828C8388F012871FFDA312871FFCA312875F
:201602001FF8A312871FFFED251BFDEC351CFCE8351DF8EF351EFF8517828518838519F0B5
:20162200ED1284D2A3EC1284D2A3E81284D2A3EF1284D209B90800500302153690C1BCE018
:20164200F51BA3E0F51CA3E0F51D7C00EC75F004A4251BF9E51C35F0FAAB1D89828A838B16
:20166200F012871FA312871FA312871FA312871F20E7030217188C007F0008B800010FE8B1
:2016820028F8EF33FFE828F8EF33FFE8251BF517EF351CF518851D19C004851782851883A0
:2016A2008519F012871FFCA312871FFDA312871FFEA312871FFF0CBC00090DBD00050EBE6F
:2016C20000010F8517828518838519F0EC1284D2A3ED1284D2A3EE1284D2A3EF1284D28964
:2016E200828A838BF012871FFCA312871FFDA312871FFEA312871FFF53077F89828A838BA3
:20170200F0EC1284D2A3ED1284D2A3EE1284D2A3EF1284D2D0040CBC0700500302164E90AC
:20172200C1BCE0FDA3E0FEA3E0FF741C2DFDE43EFE8D828E838FF012871FA312871FA31209
:20174200871FA312871F30E77A850882850983850AF012871FF9A312871FFAA312871FFBFA
:20176200A312871FFC09B900090ABA00050BBB00010C850882850983850AF0E91284D2A316
:20178200EA1284D2A3EB1284D2A3EC1284D28D828E838FF012871FF9A312871FFAA3128727
:2017A2001FFBA312871FFC53047F8D828E838FF0E91284D2A3EA1284D2A3EB1284D2A3EC76
:2017C2001284D27F00EF75F004A42508FCE50935F0FDAE0A8C828D838EF012871FA31287A3
:2017E2001FA312871FA312871F20E7030218918F027B000ABA00010BEA2AFAEB33FBEA2A46
:20180200FAEB33FBEA2508F51BEB3509F51C850A1DC007851B82851C83851DF012871FFA55
:20182200A312871FF8A312871FFBA312871FFF0ABA000908B800050BBB00010F851B828594
:201842001C83851DF0EA1284D2A3E81284D2A3EB1284D2A3EF1284D28C828D838EF01287EB
:201862001FF9A312871FFAA312871FFBA312871FFF53077F8C828D838EF0E91284D2A3EAF6
:201882001284D2A3EB1284D2A3EF1284D2D0070FBF070050030217C722AFF0AE83E5829026
:2018A200C1C5F0EEA3F0EFA3F090C1C5E0FDA3E0FEA3E0FF7C00EC75F004A4FBAAF024C8C1
:2018C200F508EA34C1F509EB2DFBEA3EF98F028B8289838AF012871FF8A312871FF9A3121B
:2018E200871FFAA312871FFB850882850983E8F0E9A3F0EAA3F0EBA3F00CBC080040B7902A
:20190200C1BFE0F50EA3E0F50FA3E0F5107C00EC75F004A4F50885F009C004E508250EF887
:20192200E509350FF9AC10888289838CF012871FF8A312871FF9A312871FFBA312871FFC7B
:20194200E50824C8F508E50934C1F509850882850983E0F50AA3E0F50BA3E0F50CA3E0F550
:201962000DC3E50A98E50B99E50C9BE50D9CD0044003021A03A80AA90BAA0C7480250DFBF8
:20198200850882850983E8F0E9A3F0EAA3F0EBA3F08C030BEB75F004A424C8F974C135F005
:2019A200FA89828A83E0F8A3E0FDA3E0FEA3E0FFE84D4E4F702089828A83E4F0A3F0A3F044
:2019C2007480A3F089828A8374FFF0A3F0A3F0747FA3F00B80BE89828A83E0FBA3E0FDA3F8
:2019E200E0FEA3E0FF1BBBFF091DBDFF051EBEFF011F89828A83EBF0EDA3F0EEA3F0EFA348
:201A0200F00CBC0700500302191190C1C2E0F50AA3E0F50BA3E0F50C7C00EC75F004A4FB1D
:201A2200AAF0250AF511EA350BF512850C13EB24C8F582EA34C1F583E0F514A3E0F515A342
:201A4200E0F516A3E0F517EB250EF8EA350FFAAB1088828A838BF012871FF8A312871FFA7A
:201A6200A312871FFBA312871FFFE514C398F8E5159AFAE5169BFBE5179FFF851182851200
:201A8200838513F0E81284D2A3EA1284D2A3EB1284D2A3EF1284D20CBC08005003021A1CA9
:201AA20022AFF0AE83E58290C1E8F0EEA3F0EFA3F090C1E8E0FDA3E0FEA3E0FF7C00EC75A9
:201AC200F004A42DF9EE35F0FA8F03C005C006C00789828A838BF012871FF8A312871FFDBA
:201AE200A312871FFEA312871FFFE828F8ED33FDEE33FEEF33FF89828A838BF0E81284D2E9
:201B0200A3ED1284D2A3EE1284D2A3EF1284D20CBC0800D007D006D00540A390C1E8E0F595
:201B22000FA3E0F510A3E0F5117900E975F004A4250FF508E51035F0F50985110A8508821C
:201B4200850983850AF012871FF50BA312871FF50CA312871FF50DA312871FF50E20E7031A
:201B6200021BF7A80BAA0CAB0D747F550EFC850882850983850AF0E81284D2A3EA1284D2F8
:201B8200A3EB1284D2A3EC1284D289037C000BBB00010CEB2BFBEC33FCEB2BFBEC33FCEB38
:201BA200250FF50BEC3510F50C85110DC001850B82850C83850DF012871FFBA312871FF9AA
:201BC200A312871FF8A312871FFC0BBB000909B9000508B800010C850B82850C83850DF04E
:201BE200EB1284D2A3E91284D2A3E81284D2A3EC1284D2D00109B907005003021B2D22AFAA
:201C0200F0AE83E58290C1EBF0EEA3F0EFA3F090C1EBE0FDA3E0FEA3E0FF7C01EC75F0041D
:201C2200A42DF50CEE35F0F50D8F0E850C82850D83850EF012871FF508A312871FF509A3C2
:201C420012871FF50AA312871FF50BE50820E003021CE3E50824FFF9E50934FFFAE50A3438
:201C6200FFF8E50B34FFFB850C82850D83850EF0E91284D2A3EA1284D2A3E81284D2A3EBDB
:201C82001284D28C027B001ABAFF011BEA2AFAEB33FBEA2AFAEB33FBEA2DFAEB3EF98F03CF
:201CA200C005C006C0078A8289838BF012871FF8A312871FFDA312871FFEA312871FFF433F
:201CC20007808A8289838BF0E81284D2A3ED1284D2A3EE1284D2A3EF1284D2D007D006D030
:201CE200050CBC08005003021C1E90C1EBE0FDA3E0FEA3E0FF7C00EC75F004A42DF9EE35A4
:201D0200F0FA8F03C005C006C00789828A838BF012871FF8A312871FFDA312871FFEA3124A
:201D2200871FC313FFEE13FEED13FDE81389828A838BF01284D2A3ED1284D2A3EE1284D243
:201D4200A3EF1284D20CBC0800D007D006D00540A622AFF0AE83E58290C1F8F0EEA3F0EF4D
:201D6200A3F090C1FDE4F0A3F090C1FCF090C1F8E0F52AA3E0F52BA3E0F52C90C1EEE0F539
:201D820027A3E0F528A3E0F52990C1F1E0F521A3E0F522A3E0F52390C1F5E0F524A3E0F5B5
:201DA20025A3E0F5267900E975F004A4F8ACF024FFFAEC34C1FBC001E8252AF9EC352BFE27
:201DC200AF2C89828E838FF012871FF9A312871FFEA312871FFFA312871FFD8A828B83E9CC
:201DE200F0EEA3F0EFA3F0EDA3F0E8241FF52DEC34C2F52EE82527F9EC3528FDAF298982C6
:201E02008D838FF012871FF9A312871FFDA312871FFFA312871FFE852D82852E83E9F0ED45
:201E2200A3F0EFA3F0EEA3F0E82521FDEC3522FEAF238D828E838FF0E41284D2A31284D2D6
:201E4200A31284D2A31284D2E8243FF582EC34C2F583E4F0A3F0A3F0A3F0E82524F8EC3577
:201E620025FCAF2688828C838FF0E41284D2A31284D2A31284D2A31284D28A828B83E0FA71
:201E8200A3E0FBA3E0FFA3E0FED001EA4B4F4E600690C1FC7401F0E975F004A4241FF58254
:201EA20074C235F0F583E0FCA3E0FDA3E0FEA3E0FFEC4D4E4F600F89067F0090C1FD7401D8
:201EC2002EF0E43FA3F009B908005003021DA990C1FCE070030220DA90C1FDE0FEA3E0FFFD
:201EE20090C1FDE0F5F0A3E045F070030220DA90E27BEEF0EFA3F090001F1284EDE582853B
:201F020083F090C1FDF0E5F0A3F090C1FCE4F090C1FBF090C1FDE0FEA3E0FFEE4F700302E9
:201F22002084C006C00790C1FBE075F004A4241FF58274C235F0F583E0FAA3E0FBA3E0FCD1
:201F4200A3E0FD90C1FCE0F9C2D575F004E930E704B2D5F404A430D50AF42401C5F0F434AD
:201F620000C5F024AEF58274C035F0F583E0F8A3E0F9A3E0FEA3E0FFE85202E95203EE527F
:201F820004EF5205D007D006EA4B4C4D607A90C21BE0FAA3E0FBA3E0FCA3E0FD53057F9075
:201FA200C21BEAF0EBA3F0ECA3F0EDA3F090C25BE0FAA3E0FBA3E0FCA3E0FD53057F90C2BE
:201FC2005BEAF0EBA3F0ECA3F0EDA3F090C1B374FFF074C1A3F0E4A3F090C1B6E524F0E5C2
:201FE20025A3F0E526A3F090C1B9743FF074C2A3F0E4A3F08521828522838523F0C007C02B
:20200200061214ECD006D00790C23F75F000C007C006121AA3D006D00790C21BE0A3E0A387
:20202200E0A3E030E62990C23FE0FAA3E0FBA3E0FCA3E0FD0ABA00090BBB00050CBC0001B3
:202042000D90C23FEAF0EBA3F0ECA3F0EDA3F090C1FF75F000C007C006121AA3D006D007CB
:2020620090C1FCE02401F0E0C36480949F400B90C1FCE4F090C1FBE004F01EBEFF011F02D9
:202082001F1D90C1F4E0604C90C1F1E0FDA3E0FEA3E0FF90C1F5E0FAA3E0FBA3E0FC90C2A0
:2020A2005F742EF074C1A3F0E4A3F090C262EDF0EEA3F0EFA3F090C265E4F090C266EAF03D
:2020C200EBA3F0ECA3F090C269E4F08D828E838FF01220EA758201228521828522838523A3
:2020E200F0120E6D75820022AFF0AE83E58290C26AF0EEA3F0EFA3F090C2707401F090C2E9
:2021020071F090C26AE0FDA3E0FEA3E0FF90C262E0F53BA3E0F53CA3E0F53D90C266E0F506
:202122002FA3E0F530A3E0F5318D328E338F3490C25FE0F535A3E0F536A3E0F537753A0013
:20214200C005C006C007E53A75F004A4F8AFF024D2F538EF34C2F539E8252FF9EF3530FEAB
:20216200AD3189828E838DF012871FF9A312871FFCA312871FFDA312871FFE853882853930
:2021820083E9F0ECA3F0EDA3F0EEA3F0E82472FDEF34C2FEE82532FCEF3533FAAB348C828A
:2021A2008A838BF012871FF9A312871FFAA312871FFBA312871FFC8D828E83E9F0EAA3F06C
:2021C200EBA3F0ECA3F0E82492F538EF34C2F539E82535F53EEF3536F53F853740853E82DE
:2021E200853F838540F012871FF9A312871FFCA312871FFDA312871FFE853882853983E9BF
:20220200F0ECA3F0EDA3F0EEA3F0E824B2F582EF34C2F583E4F0A3F0A3F0A3F0853E828563
:202222003F838540F012871FFCA312871FFDA312871FFEA312871FFFEC7013ED7010EE702C
:202242000DEF547F7008D007D006D005800BD007D006D00590C270E4F0E53A75F004A42DB7
:20226200FCEE35F0FA8F038C828A838BF012871FF9A312871FFAA312871FFBA312871FFC78
:20228200E9700BEA7008EB7005EC547F600590C271E4F0E53A75F004A4253BFAE53C35F08F
:2022A200FBAC3D8A828B838CF0E41284D2A31284D2A31284D2A31284D2053A74F8253A40EB
:2022C2000302214290C271E0FFBF01047582002290C270E060347F00EF75F004A4253BFC08
:2022E200E53C35F0FDAE3D8C828D838EF074FF1284D2A31284D2A31284D2A3747F1284D223
:202302000FBF080040D27582012290C265E0603390C1EE742EF074C1A3F0E4A3F090C1F13D
:202322007472F074C2A3F0E4A3F090C1F4F090C1F574D2F074C2A3F0E4A3F090C272F5F0EB
:20234200121D5490C270E4F0FFEF75F004A424D2F58274C235F0F583E0FBA3E0FCA3E0FD4D
:20236200A3E0FEEB4C4D4E600690C2707401F00FBF080040D490C2F57407F090C2F7741E04
:20238200F07EF97F0090C292E0FAA3E0A3E0A3E0EA20E0181EBEFF011F90C29275F000C008
:2023A20007C006121C01D006D00780D990C26EEEF0EFA3F090C270E0601A90C2F274D2F063
:2023C20074C2A3F0E4A3F090C26E74F82EF0E43FA3F0800D90C2F27472F074C2A3F0E4A3C4
:2023E200F090C2717401F090C26EE0FEA3E0FF90C271E070030224CEC006C00790C2F2E0E8
:20240200FBA3E0FCA3E0FD90C2F5E075F004A42BFBEC35F0FC8B828C838DF012871FFBA36A
:2024220012871FFCA312871FFDA312871FFA90C2F7E0F9C2D575F004E930E704B2D5F40494
:20244200A430D50AF42401C5F0F43400C5F024AEF58274C035F0F583E0F8A3E0F9A3E0FE2D
:20246200A3E0FFE85203E95204EE5205EF5202D007D006EB4C4D4A600590C271E4F090C20B
:2024820071E070030223F11EBEFF011F90C2F7E014F0E020E7030223F190C2F7741EF090DD
:2024A200C2F5E0FDE0701C90C2F27472F074C2A3F0E4A3F090C2F57407F090C2F7741EF043
:2024C2000223F1ED1490C2F5F00223F1EE4F700302261690C1A47492F074C2A3F0E4A3F07D
:2024E20090C2B2F5F0C007C00612122FAD82D006D007ED20E703022616C006C00790C2B26F
:2025020075F000C007C006121AA3D006D00790C2CEE0FAA3E0FBA3E0FCA3E0FD53057F906D
:20252200C2CEEAF0EBA3F0ECA3F0EDA3F090C2F2E0FBA3E0FCA3E0FD90C2F5E075F004A460
:202542002BFBEC35F0FC8B828C838DF012871FFBA312871FFCA312871FFDA312871FFA9066
:20256200C2F7E0F9C2D575F004E930E704B2D5F404A430D50AF42401C5F0F43400C5F024C2
:20258200AEF58274C035F0F583E0F8A3E0F9A3E0FEA3E0FFE85203E95204EE5205EF5202E8
:2025A200D007D006EB4C4D4A602990C2B2E0FAA3E0FBA3E0FCA3E0FD0ABA00090BBB000522
:2025C2000CBC00010D90C2B2EAF0EBA3F0ECA3F0EDA3F090C2F7E014F0E030E72F90C2F72C
:2025E200741EF090C2F5E0FDE0701B90C2F27472F074C2A3F0E4A3F090C2F57407F090C26A
:20260200F7741EF08006ED1490C2F5F01EBEFF011F0224CE90C1A47492F074C2A3F0E4A357
:20262200F090C2B2F5F0C007C00612122FAD82D006D007ED30E7030229F9EE24FFFCEF34A8
:20264200FFFD90E286741FF0E4A3F08C828D83C007C006C005C004128620AA82D004D005C9
:2026620090E27D741FF0E4A3F08C828D83C00212850DAC82D002D006D00790C2F6ECF08A90
:2026820005EE4F70030228A890C1A47492F074C2A3F0E4A3F090C2B2F5F0C007C006C0054B
:2026A20012122FAC82D005D006D007EC30E703022774C006C007ED75F004A4253BFAE53C70
:2026C20035F0FBAC3D8A828B838CF012871FF541A312871FF542A312871FF543A312871FEB
:2026E200F54490C2F6E0FFC2D575F004EF30E704B2D5F404A430D50AF42401C5F0F4340046
:20270200C5F024AEF58274C035F0F583E0F8A3E0F9A3E0FEA3E0FFE5414200E5424201E5DA
:20272200434206E54442078A828B838CF0E81284D2A3E91284D2A3EE1284D2A3EF1284D2CD
:2027420090C1BF7492F074C2A3F0E4A3F090C1C274B2F074C2A3F0E4A3F090C2B2F5F0C01F
:2027620007C006C00512189BD005D006D007D007D00690C2F6E014F0E030E7071D90C2F642
:20278200741EF0C00590C2B275F000C007C006C005121AA3D005D006D00790C2CEE0F9A348
:2027A200E0FAA3E0FBA3E0FC53047F90C2CEE9F0EAA3F0EBA3F0ECA3F090C2F2E0FCA3E054
:2027C200FAA3E0FB90C2F5E075F004A42CFCEA35F0FA8C828A838BF012871FF541A312875A
:2027E2001FF542A312871FF543A312871FF54490C2F7E0F8C2D575F004E830E704B2D5F4BB
:2028020004A430D50AF42401C5F0F43400C5F024AEF58274C035F0F583E0F8A3E0FBA3E061
:20282200FCA3E0FDE5415200E5425203E5435204E5445205E84B4C4DD005602990C2B2E01A
:20284200F9A3E0FAA3E0FBA3E0FC09B900090ABA00050BBB00010C90C2B2E9F0EAA3F0EB57
:20286200A3F0ECA3F090C2F7E014F0E030E72F90C2F7741EF090C2F5E0FCE0701B90C2F254
:202882007472F074C2A3F0E4A3F090C2F57407F090C2F7741EF08006EC1490C2F5F01EBE0A
:2028A200FF011F02268390C269E070030229F990C1A47492F074C2A3F0E4A3F090C2B2F5F6
:2028C200F012122FE58230E7030229F9853B82853C83853DF012871FFEA312871FFDA31213
:2028E200871FFCA312871FFF0EBE00090DBD00050CBC00010F853B82853C83853DF0EE1226
:2029020084D2A3ED1284D2A3EC1284D2A3EF1284D290C26DE4F090C26DE0FF75F004A42513
:202922003BFCE53C35F0FDAE3D8C828D838EF012871FA312871FA312871FA312871F20E7C4
:20294200030229E27B000FBF00010BEF2FFFEB33FBEF2FFFEB33FBEF253BF541EB353CF5CE
:2029620042853D438541828542838543F012871FF8A312871FFBA312871FF9A312871FFF10
:2029820008B800090BBB000509B900010F8541828542838543F0E81284D2A3EB1284D2A39C
:2029A200E91284D2A3EF1284D28C828D838EF012871FF9A312871FFAA312871FFBA3128796
:2029C2001FFF53077F8C828D838EF0E91284D2A3EA1284D2A3EB1284D2A3EF1284D28006A6
:2029E20090C26D7407F090C26DE02401F0E0FFBF070050030229187582012290C2F87401E3
:202A0200F0E4A3F0A3F0A3F0FEFFEE2EFCEF33FDEC2CFCED33FDEC24AEFCED34C0FD90C2D8
:202A2200F8E0F8A3E0F9A3E0FAA3E0FB8C828D83E8F0E9A3F0EAA3F0EBA3F0E828F8E933BC
:202A4200F9EA33FAEB33FB90C2F8E8F0E9A3F0EAA3F0EBA3F00EBE00010FC3741F9E7480EE
:202A62008FF063F08095F050A190C12E75F000120E6D90C14E75F000120E6D90C16E75F066
:202A820000120E6D90C12E7401F0E4A3F0A3F0A3F090C14E740AF0E4A3F0A3F0A3F07E15E9
:202AA200FFEE4F604290C1EE744EF074C1A3F0E4A3F090C1F1742EF074C1A3F0E4A3F09063
:202AC200C1F4F090C1F5746EF074C1A3F0E4A3F090C12EF5F0C007C006121D54D006D007D7
:202AE2001EBEFF011F80BA22AFF0AE83E58290C2FFF0EEA3F0EFA3F090C2FFE0FDA3E0FE53
:202B0200A3E0FF8D828E838FF012119CAF8290C2FCE0FCA3E0FDA3E0FE8C828D838EF0C01B
:202B22000712119CAE82D007EFB5065290C2FFE0FBA3E0FCA3E0FD90C2FCE0F8A3E0F9A35A
:202B4200E0FA90C1A4E8F0E9A3F0EAA3F08B828C838DF0C007C00612122FAD82D006D0077E
:202B620090C302EDF0EF602AED6027BD010890C30274FFF0801C90C3027401F08014EF706D
:202B82000BEE600890C3027401F0800690C30274FFF090C2FFE0FBA3E0FCA3E0FD90C197C7
:202BA200EFF08B828C838DF0C006120F36D00690C2FCE0FCA3E0FDA3E0FF90C197EEF08C2A
:202BC200828D838FF0120F3690C302E0F58222AFF0AE83E58290C309F0EEA3F0EFA3F090A7
:202BE200C309E0FDA3E0FEA3E0FF8D828E838FF012119CAF8290C303E0FCA3E0FDA3E0FE65
:202C02008C828D838EF0C00712119CAE82D007EFB506028003022CBB90C309E0FBA3E0FCBB
:202C2200A3E0FD90C303E0F545A3E0F546A3E0F54790C306E0F8A3E0F9A3E0FA90C1AAE51B
:202C420045F0E546A3F0E547A3F090C1ADE8F0E9A3F0EAA3F08B828C838DF0C007C00612B9
:202C6200133ED006D00790C309E0FBA3E0FCA3E0FD90C197EFF08B828C838DF0C007C00631
:202C8200120F36D00690C303E0FBA3E0FCA3E0FD90C197EEF08B828C838DF0120F36D00748
:202CA20090C306E0FBA3E0FCA3E0FD90C197EFF08B828C838DF0020F3690C309E0FBA3E07E
:202CC200FCA3E0FD90C303E0F8A3E0F9A3E0FA90C1A4E8F0E9A3F0EAA3F08B828C838DF0F0
:202CE200C007C00612122FAD82D006D007ED20E703022D9790C303E0FBA3E0FCA3E0FD9099
:202D0200C309E0F545A3E0F546A3E0F54790C306E0F8A3E0F9A3E0FA90C1BFE545F0E546CF
:202D2200A3F0E547A3F090C1C2E8F0E9A3F0EAA3F08B828C838DF0C007C00612189BD0069A
:202D4200D00790C309E0FBA3E0FCA3E0FD90C197EFF08B828C838DF0C006120F36D0069081
:202D6200C303E0FBA3E0FCA3E0FD90C197EEF08B828C838DF0C006120F36D00690C306E026
:202D8200FBA3E0FCA3E0FD90C197EEF08B828C838DF0020F3690C309E0FBA3E0FCA3E0FD5B
:202DA20090C303E0F545A3E0F546A3E0F54790C306E0F8A3E0F9A3E0FA90C1BFE545F0E5EB
:202DC20046A3F0E547A3F090C1C2E8F0E9A3F0EAA3F08B828C838DF0C007C00612189BD0BA
:202DE20006D00790C309E0FBA3E0FCA3E0FD90C197EFF08B828C838DF0C007C006120F367A
:202E0200D00690C303E0FBA3E0FCA3E0FD90C197EEF08B828C838DF0120F36D00790C306C4
:202E2200E0FCA3E0FDA3E0FE90C197EFF08C828D838EF0020F36AFF0AE83E58290C312F07D
:202E4200EEA3F0EFA3F090C312E0FDA3E0FEA3E0FF8D828E838FF012119CAF8290C30CE05A
:202E6200FCA3E0FDA3E0FE8C828D838EF0C00712119CAE82D007EFB5060280030230019038
:202E8200C312E0FBA3E0FCA3E0FD90C30CE0F8A3E0F9A3E0FA90C1A4E8F0E9A3F0EAA3F08B
:202EA2008B828C838DF0C007C00612122FAD82D006D007ED20E703022F6090C30CE0FBA356
:202EC200E0FCA3E0FD90C312E0F548A3E0F549A3E0F54A90C30FE0F8A3E0F9A3E0FA90C10B
:202EE200BFE548F0E549A3F0E54AA3F090C1C2E8F0E9A3F0EAA3F08B828C838DF0C007C06D
:202F02000612189BD006D00790C312E0FBA3E0FCA3E0FD90C197EFF08B828C838DF0C007D1
:202F2200C006120F36D00690C30CE0FBA3E0FCA3E0FD90C197EEF08B828C838DF0120F36AD
:202F4200D00790C30FE0FBA3E0FCA3E0FD90C1977401C39FF08B828C838DF0020F3690C37A
:202F620012E0FBA3E0FCA3E0FD90C30CE0F548A3E0F549A3E0F54A90C30FE0F8A3E0F9A30B
:202F8200E0FA90C1BFE548F0E549A3F0E54AA3F090C1C2E8F0E9A3F0EAA3F08B828C838D18
:202FA200F0C007C00612189BD006D00790C312E0FBA3E0FCA3E0FD90C197EFF08B828C83FE
:202FC2008DF0C007C006120F36D00690C30CE0FBA3E0FCA3E0FD90C197EEF08B828C838D10
:202FE200F0120F36D00790C30FE0FBA3E0FCA3E0FD90C197EFF08B828C838DF0020F36903E
:20300200C312E0FBA3E0FCA3E0FD90C30CE0F548A3E0F549A3E0F54A90C30FE0F8A3E0F94A
:20302200A3E0FA90C1AAE548F0E549A3F0E54AA3F090C1ADE8F0E9A3F0EAA3F08B828C838B
:203042008DF0C007C00612133ED006D00790C312E0FBA3E0FCA3E0FD90C197EFF08B828CB5
:20306200838DF0C007C006120F36D00690C30CE0FBA3E0FCA3E0FD90C197EEF08B828C8379
:203082008DF0120F36D00790C30FE0FCA3E0FDA3E0FE90C197EFF08C828D838EF0020F369A
:2030A200AFF0AE83E58290C31BF0EEA3F0EFA3F090C31BE0FDA3E0FEA3E0FF8D828E838F79
:2030C200F012119CAF8290C315E0FCA3E0FDA3E0FE8C828D838EF0C00712119CAE8290C126
:2030E2006E75F000C006120E6D90C31BE0FBA3E0FCA3E0FD90C315E0F54BA3E0F54CA3E091
:20310200F54D90C318E0F8A3E0F9A3E0FA90C1EEE54BF0E54CA3F0E54DA3F090C1F1E8F02D
:20312200E9A3F0EAA3F090C1F47401F090C1F5746EF074C1A3F0E4A3F08B828C838DF012E8
:203142001D54E582D006D007607590C31BE0FBA3E0FCA3E0FD90C197EFF08B828C838DF06B
:20316200C007C006120F36D00690C315E0FBA3E0FCA3E0FD90C197EEF08B828C838DF0C032
:2031820006120F36D006D007EFB5061990C318E0FBA3E0FCA3E0FD90C197E4F08B828C8343
:2031A2008DF0020F3690C318E0FBA3E0FCA3E0FD90C1977401F08B828C838DF0020F369047
:2031C200C31BE0FBA3E0FCA3E0FD90C197EFF08B828C838DF0C006120F36D00690C315E09A
:2031E200FCA3E0FDA3E0FF90C197EEF08C828D838FF0020F36AFF0AE83E58290C324F0EE99
:20320200A3F0EFA3F090C324E0FDA3E0FEA3E0FF8D828E838FF012119CAF8290C31EE0FC64
:20322200A3E0FDA3E0FE8C828D838EF0C00712119CAE8290C16E75F000C006120E6D90C36F
:2032420024E0FBA3E0FCA3E0FD90C31EE0F54EA3E0F54FA3E0F55090C321E0F8A3E0F9A3E0
:20326200E0FA90C25FE54EF0E54FA3F0E550A3F090C262E8F0E9A3F0EAA3F090C26574015E
:20328200F090C266746EF074C1A3F0E4A3F090C26904F08B828C838DF01220EAE582D006D2
:2032A200D007607590C324E0FBA3E0FCA3E0FD90C197EFF08B828C838DF0C007C006120F01
:2032C20036D00690C31EE0FBA3E0FCA3E0FD90C197EEF08B828C838DF0C006120F36D00643
:2032E200D007EFB5061990C321E0FBA3E0FCA3E0FD90C197E4F08B828C838DF0020F3690B8
:20330200C321E0FBA3E0FCA3E0FD90C1977401F08B828C838DF0020F3690C324E0FBA3E0EB
:20332200FCA3E0FD90C197EFF08B828C838DF0C006120F36D00690C31EE0FCA3E0FDA3E06C
:20334200FF90C197EEF08C828D838FF0020F36AFF0AE83E58290C32AF0EEA3F0EFA3F0908B
:20336200C39274FFF0A3F090C396E4F090C16EF5F0120E6D90C32AE0FDA3E0FEA3E0FF8D28
:20338200828E838FF0120E6D90C39775F000120E6D90C327E0FDA3E0FEA3E0FF7B007C005F
:2033A20079007A00C003C004E92DF8EA3EFB8F0488828B838CF012871FF551D004D003E5AF
:2033C20051700302343774D025515024E55124C6401EEB9464EC64809480500DEB242DF5B9
:2033E20082EC34C3F583E551F00BBB00400C803DC003C004E92DF8EA3EFB8F0488828B8396
:203402008CF012871FF551742DB551028006D004D003800CD004D00390C3967401F0800D4C
:20342200742EB5510890C392EBF0ECA3F009B900010A0233A690C394EBF0ECA3F090C392CD
:20344200E0A3E030E70890C392EBF0ECA3F0C374649B74808CF063F08095F0400EEB242D21
:20346200F582EC34C3F583E4F0800590C391E4F08B068C0790C392E0FCA3E0FD74152CFC51
:20348200E43DFD7A007B00C3EA9CEB64808DF063F08095F04003023593C004C00590C32A17
:2034A200E0F8A3E0F9A3E0FD90C1EE744EF074C1A3F0E4A3F090C1F1E8F0E9A3F0EDA3F0F0
:2034C20090C1F4E4F090C1F5746EF074C1A3F0E4A3F0888289838DF0C007C006C005C004D1
:2034E200C003C002121D54D002D003D004D005D006D007C3EA9EEB64808FF063F08095F0D6
:20350200D005D004400302358BC3EA9464EB648094805075C006C007EA242DF582EB34C38D
:20352200F583E0F87900E824D0F8E934FFF93395E0FEFF90C397E8F0E9A3F0EEA3F0EFA3E1
:20354200F090C32AE0F9A3E0FEA3E0FF90C1AA7497F074C3A3F0E4A3F090C1ADE9F0EEA381
:20356200F0EFA3F089828E838FF0C007C006C005C004C003C00212133ED002D003D004D0F5
:2035820005D006D007D007D0060ABA00010B023489C3EA9464EB64809480506190C394E03B
:2035A200FEA3E0FFC3EE9AEF64808BF063F08095F0404AEA242DF582EB34C3F583E0FFBF64
:2035C2003500403990C3977401F0E4A3F0A3F0A3F090C32AE0FDA3E0FEA3E0FF90C1AA7483
:2035E20097F074C3A3F0E4A3F090C1ADEDF0EEA3F0EFA3F08D828E838FF012133E90C39638
:20360200E0604790C32AE0FDA3E0FEA3E0FF741C2DFDE43EFE8D828E838FF012871FF9A3F7
:2036220012871FFAA312871FFBA312871FFC4304808D828E838FF0E91284D2A3EA1284D27D
:20364200A3EB1284D2A3EC0284D222AFF0AE83E58290C3BAF0EEA3F0EFA3F07E3C7F00EE0B
:2036620024C2F582EF34C3F583E4F01EBEFF011FEF30E7EB90C3BAE0FDA3E0FEA3E0FF7B65
:20368200077C00EB2BFAEC33F9EA2AFAE933F9EA2DF8E93EF98F02C005C006C007888289B5
:2036A200838AF012871FF8A312871FF9A312871FFAA312871FFF90C3FFE8F0E9A3F0EAA325
:2036C200F0EFA3F075521F755300D007D006D005C005C006C00790C3FFE0A3E0A3E0A3E039
:2036E200FF90C403E4F0A3F0A3F074405FA3F075543B755500D007D006D005E55424C2F96A
:20370200E55534C3FA89828A83E0F8C364809485400908080889828A83E8F0E55424C2F963
:20372200E55534C3FA89828A83E025E0F889828A83F0C3748F88F063F08095F0502D898241
:203742008A83E0F853000F89828A83E8F0AA540AEAF93395E0FAE924C2F9EA34C3FA8982F5
:203762008A83E0F80889828A83E8F0155474FFB554021555E55520E7030236FD90C403E069
:20378200F5F0A3E042F0A3E042F0A3E045F0600B90C3C2E0FA0A90C3C2EAF0C005C006C082
:2037A2000790C3FFE0F8A3E0F9A3E0FAA3E0FFE828F8E933F9EA33FAEF33FF90C3FFE8F0DC
:2037C200E9A3F0EAA3F0EFA3F0155274FFB552021553D007D006D005E55245536003023635
:2037E200D21BBBFF011CEC20E70302368590C3B7E0FDA3E0FEA3E0FF8D828E838FF0742033
:203802001284D290C3C1E4F090C3BAE0F556A3E0F557A3E0F558741C2556F8E43557F9AC67
:2038220058888289838CF012871FF8A312871FF9A312871FFCA312871FFBE8700BE9700827
:20384200EC7005EB547F600890C3C17401F0807290C3BDE4F0A3F090C3BDE0FCA3E0FBECA7
:203862002CFCEB33FBEC2CFCEB33FBEC2556FCEB3557FAAB588C828A838BF012871FF9A317
:2038820012871FFAA312871FFBA312871FFCE94A4B4C600F90C3C17401F090C3BD7408F099
:2038A200E4A3F090C3BDE02401F0A3E03400F090C3BDE0FBA3E0FCC3EB9407EC648094804C
:2038C200409590C3C1E0604290C3BAE0FCA3E0FAA3E0FB741C2CFCE43AFA8C828A838BF031
:2038E20012871FA312871FA312871FA312871F30E70D8D828E838FF0742D1284D2800B8D19
:20390200828E838FF0742B1284D290C3BF7401F0E4A3F07B3BFC90C3BFE0F556A3E0F557E0
:20392200E5562DF8E5573EF98F02EB24C2F582EC34C3F583C005C006C007E0243088828965
:20394200838AF01284D290C3BF74012556F0E43557A3F0BB1505BC00028008D007D006D073
:20396200058036D007D006D005C003C00490C3BFE0F9A3E0FAE92DF8EA3EFB8F0488828BC0
:20398200838CF0742E1284D290C3BF740129F0E43AA3F0D004D00380717415C39BF9E49CD3
:2039A200FA90E27D7403F0E4A3F089828A83C007C006C005C004C00312850DE5828583F04A
:2039C200D003D004D005D006D00745F0703CC3E49B74808CF063F08095F0502EC003C004CC
:2039E20090C3BFE0F9A3E0FAE92DF8EA3EFB8F0488828B838CF074201284D290C3BF740182
:203A020029F0E43AA3F0D004D0031BBBFF011CEC20E70302391890C3BFE0FBA3E0FCEB2D74
:203A2200FDEC3EFE8D828E838FF0E40284D2AFF0AE83E58290C410F0EEA3F0EFA3F090C4A2
:203A42001375F000120E6D90C43375F000120E6D90C410E0FDA3E0FEA3E0FF8D828E838FF3
:203A6200F0120E6D90C40AE0FCA3E0FDA3E0FEA3E0FF90C413ECF0EDA3F0EEA3F0EFA3F044
:203A820090C40EE0FEA3E0FF90C407E0FBA3E0FCA3E0FDC3E49E74808FF063F08095F040DD
:203AA20003023B7FEE2EFAEF33F9EA2AFAE933F9EA2BF8E93CF98D02C003C004C0058882E1
:203AC20089838AF012871FF8A312871FF9A312871FFAA312871FFD90C433E8F0E9A3F0EAE8
:203AE200A3F0EDA3F090C410E0FBA3E0FCA3E0FD90C1AA7433F074C4A3F0E4A3F090C1ADA1
:203B0200EBF0ECA3F0EDA3F08B828C838DF0C007C006C005C004C00312133ED003D004D07D
:203B22000590C410E0FBA3E0FCA3E0FD90C1EE7413F074C4A3F0E4A3F090C1F1EBF0ECA39C
:203B4200F0EDA3F090C1F4E4F090C1F5746EF074C1A3F0E4A3F08B828C838DF0C005C00461
:203B6200C003121D54D003D004D005D006D0071EBEFF011FD005D004D003023A958B828CF3
:203B8200838DF012871FFBA312871FFCA312871FFDA312871FFF90C433EBF0ECA3F0EDA3F6
:203BA200F0EFA3F090C410E0FDA3E0FEA3E0FF90C1AA7433F074C4A3F0E4A3F090C1ADED8E
:203BC200F0EEA3F0EFA3F08D828E838FF002133EAFF0AE83E58290C45CF0EEA3F0EFA3F024
:203BE20090C47F75F000120E6D90C49F75F000120E6D90C456E0FCA3E0FDA3E0FEA3E0FF10
:203C020090C47FECF0EDA3F0EEA3F0EFA3F090C45CE0FDA3E0FEA3E0FF90C191745FF074C7
:203C2200C4A3F0E4A3F08D828E838FF0120EB490C45F75F00012119CAF8290C4DFE4F0A38F
:203C4200F090C453E0FCA3E0FDA3E0FE8C5D8D5E8E5F90C45AE0F559A3E0F55A90C4DFE06C
:203C6200F55BA3E0F55CC3E55B9559E55C6480855AF063F08095F04003023EB090C1A47445
:203C82007FF074C4A3F0E4A3F090C45FF5F0C007C006C005C00412122FA882D004D005D0CD
:203CA20006D007C3748088F063F08095F04003023DEDC00790C16E75F000C007C006C005F2
:203CC200C004120E6D90C25F747FF074C4A3F0E4A3F090C26274BFF074C4A3F0E4A3F09012
:203CE200C265F090C266746EF074C1A3F0E4A3F090C269F090C45FF5F01220EA90C1EE74D0
:203D02007FF074C4A3F0E4A3F090C1F174BFF074C4A3F0E4A3F090C1F4F090C1F5746EF0FC
:203D220074C1A3F0E4A3F090C4BFF5F0121D5490C1BF74BFF074C4A3F0E4A3F090C1C274CB
:203D42009FF074C4A3F0E4A3F090C45FF5F012189BD004D005D006D007E55B255BF8E55CE4
:203D620033FFE828F8EF33FFE8255DF560EF355EF561855F6290C49FE0F9A3E0FBA3E0FA42
:203D8200A3E0FF8560828561838562F0E91284D2A3EB1284D2A3EA1284D2A3EF1284D29032
:203DA200C25F747FF074C4A3F0E4A3F090C262745FF074C4A3F0E4A3F090C265F090C266A3
:203DC200746EF074C1A3F0E4A3F090C269F090C45FF5F0C007C006C005C0041220EAD00487
:203DE200D005D006D007D007023EA1C007E55B255BFAE55C33FBEA2AFAEB33FBEA2CF56005
:203E0200EB3DF5618E6290C45FE0FAA3E0F8A3E0FBA3E0FF8560828561838562F0EA128403
:203E2200D2A3E81284D2A3EB1284D2A3EF1284D290C4DF7401255BF0E4355CA3F090C4DF78
:203E4200E0F560A3E0F561D007C3E5609559E5616480855AF063F08095F05039E5602560E1
:203E6200FAE56133FBEA2AFAEB33FBEA2CFAEB3DF98E038A8289838BF0E41284D2A31284D1
:203E8200D2A31284D2A31284D2042560F560E43561F56180B490C4DFE560F0E561A3F09085
:203EA200C4DFE02401F0A3E03400F0023C5E8F8222AFF0AE83E58290CE04F0EEA3F0EFA356
:203EC200F090CE04E0FDA3E0FEA3E0FF90CE01E0FAA3E0FBA3E0FC90C191EAF0EBA3F0EC52
:203EE200A3F08D828E838FF0120EB490C1917427F074CEA3F0E4A3F090C12EF5F0120EB4C9
:203F020090CE04E0FDA3E0FEA3E0FF90C315EDF0EEA3F0EFA3F090C3187427F074CEA3F04A
:203F2200E4A3F090CE27F5F01230A27E037F007C017D0090CE04E0F9A3E0FAA3E0FB90C337
:203F420015E9F0EAA3F0EBA3F090C3187427F074CEA3F0E4A3F090CE27F5F0C007C006C07D
:203F620005C0041230A290CE04E0F9A3E0FAA3E0FB90C315E9F0EAA3F0EBA3F090C3187441
:203F820027F074CEA3F0E4A3F090CE27F5F01230A2D004D005D006D0078E02EFC42354E07E
:203FA200CAC423CA6ACA54E0CA6AFBEA24E1FAEB34C4FB90C31EEAF0EBA3F0E4A3F090C393
:203FC200217407F074CEA3F0E4A3F090CE27F5F0C007C006C005C0041231F7D004D005D0D4
:203FE20006D007EC30E03E90CE01E0F9A3E0FAA3E0FB90C30C7407F074CEA3F0E4A3F090CF
:20400200C30FE9F0EAA3F0EBA3F089828A838BF0C007C006C005C004122E38D004D005D05E
:2040220006D007803C90CE01E0F9A3E0FAA3E0FB90C3037407F074CEA3F0E4A3F090C3064C
:20404200E9F0EAA3F0EBA3F089828A838BF0C007C006C005C004122BD1D004D005D006D084
:204062000774022EFEE43FFF0CBC00010DC3EC9417ED648094805003023F3522AFF0AE83A3
:20408200E58290CE4AF0EEA3F0EFA3F090CE47E0FDA3E0FEA3E0FF90C191EDF0EEA3F0EF68
:2040A200A3F090C12E75F000120EB490C191746DF074CEA3F0E4A3F090C12EF5F0120EB47C
:2040C2007E027F007C017D0090CE4AE0F9A3E0FAA3E0FB90C315E9F0EAA3F0EBA3F090C3DA
:2040E20018746DF074CEA3F0E4A3F090CE6DF5F0C007C006C005C0041230A290CE4AE0F95E
:20410200A3E0FAA3E0FB90C315E9F0EAA3F0EBA3F090C318746DF074CEA3F0E4A3F090CE80
:204122006DF5F01230A2D004D005D006D0078E02EFC42354E0CAC423CA6ACA54E0CA6AFB45
:20414200EA24E1FAEB34C4FB90C31EEAF0EBA3F0E4A3F090C321744DF074CEA3F0E4A3F0E5
:2041620090CE6DF5F0C007C006C005C0041231F7D004D005D006D007EC30E03E90CE47E028
:20418200F9A3E0FAA3E0FB90C30C744DF074CEA3F0E4A3F090C30FE9F0EAA3F0EBA3F0890E
:2041A200828A838BF0C007C006C005C004122E38D004D005D006D007803C90CE47E0F9A332
:2041C200E0FAA3E0FB90C303744DF074CEA3F0E4A3F090C306E9F0EAA3F0EBA3F089828A70
:2041E200838BF0C007C006C005C004122BD1D004D005D006D00774022EFEE43FFF0CBC00B9
:20420200010DC3EC9417ED6480948050030240CA22AFF0AE83E58290CE90F0EEA3F0EFA3A6
:20422200F090CE90E0FDA3E0FEA3E0FF90CE017493F074CEA3F0E4A3F08D828E838FF0126B
:204242003EB390CE90E0FDA3E0FEA3E0FF90CE4774B3F074CEA3F0E4A3F08D828E838FF0F6
:2042620012407E90CE8DE0FDA3E0FEA3E0FF90C31E74B3F074CEA3F0E4A3F090C321EDF07C
:20428200EEA3F0EFA3F090CE9375F0000231F7AFF0AE83E58290CED6F0EEA3F0EFA3F090AB
:2042A200CED6E0FDA3E0FEA3E0FF90CE0174D9F074CEA3F0E4A3F08D828E838FF0123EB3EE
:2042C20090CED6E0FDA3E0FEA3E0FF90CE4774F9F074CEA3F0E4A3F08D828E838FF0124089
:2042E2007E90CED3E0FDA3E0FEA3E0FF90C31E74D9F074CEA3F0E4A3F090C321EDF0EEA351
:20430200F0EFA3F090CEF975F0000231F7AFF0AE83E58290CF1CF0EEA3F0EFA3F090CF1C23
:20432200E0FDA3E0FEA3E0FF90CE47741FF074CFA3F0E4A3F08D828E838FF012407E90CF58
:2043420019E0FDA3E0FEA3E0FF90C31E741FF074CFA3F0E4A3F090C321EDF0EEA3F0EFA3BD
:20436200F090C12E75F0000231F7AFF0AE83E58290CF42F0EEA3F0EFA3F090CF42E0FDA351
:20438200E0FEA3E0FF90CE017445F074CFA3F0E4A3F08D828E838FF0123EB390CF3FE0FD49
:2043A200A3E0FEA3E0FF90C31E7445F074CFA3F0E4A3F090C321EDF0EEA3F0EFA3F090C1EC
:2043C2002E75F0000231F790C1917465F074CFA3F0E4A3F090C12EF5F0120EB490C1917498
:2043E200E1F074C4A3F0E4A3F090C12EF5F0120EB490C1917401F074C5A3F0E4A3F090C195
:204402002EF5F0120EB47E027F0090C303742EF074C1A3F0E4A3F090C3067465F074CFA385
:20442200F0E4A3F090CF65F5F0C007C006122BD1D006D007EE24FFFCEF34FFC42354E0CC0C
:20444200C423CC6CCC54E0CC6CFDEC24E1FCED34C4FD7B0090C3157465F074CFA3F0E4A32E
:20446200F08E01EFC42354E0C9C423C969C954E0C969FAE924E1F9EA34C4FA90C318E9F09F
:20448200EAA3F0E4A3F08C828D838BF0C007C0061230A2D006D0070EBE00010FC3EE942F1F
:2044A200EF64809480500302440C90CF8575F000120E6D90CF857404F0E4A3F0A3F0A3F0AF
:2044C20090C1EE742EF074C1A3F0E4A3F090C1F17465F074CFA3F0E4A3F090C1F4F090C1EC
:2044E200F5746EF074C1A3F0E4A3F090CF85F5F0121D5490C19174C1F074CAA3F0E4A3F019
:2045020090C12EF5F0120EB490C19174E1F074CAA3F0E4A3F090CF65F5F0120EB47E027F76
:2045220000EE24FFFCEF34FFC42354E0CCC423CC6CCC54E0CC6CFDEC24C1FCED34CAFD7BDF
:204542000090C3157465F074CFA3F0E4A3F08E01EFC42354E0C9C423C969C954E0C969FA37
:20456200E924C1F9EA34CAFA90C318E9F0EAA3F0E4A3F08C828D838BF0C007C0061230A24E
:20458200D006D007EE24FEFCEF34FFC42354E0CCC423CC6CCC54E0CC6CFDEC24E1F563EDCD
:2045A20034C4F564856365856466756700AA63AB6490C315EAF0EBA3F0E4A3F090C31874FE
:2045C200A5F074CFA3F0E4A3F08565828566838567F0C007C006C005C0041230A2D004D0A3
:2045E20005EC24C1FCED34CAFD90C315ECF0EDA3F0E4A3F090C3187485F074CFA3F0E4A313
:20460200F090CFA5F5F0C005C0041230A2D004D00590C191ECF0EDA3F0E4A3F090CF85F51B
:20462200F0120EB4D006D0070EBE00010FC374199E74808FF063F08095F0400302452322A3
:20464200AFF0AE83E58290CFC6F0EEA3F0EFA3F090CFC5E0FFEF604590CFC6E0FCA3E0FDF1
:20466200A3E0FE90C1EE744EF074C1A3F0E4A3F090C1F1ECF0EDA3F0EEA3F090C1F4E4F04F
:2046820090C1F5746EF074C1A3F0E4A3F08C828D838EF0C007121D54D0071F80B822AFF0EC
:2046A200AE83E58290CFCAF0EEA3F0EFA3F090CFCAE0FDA3E0FEA3E0FF8D828E838FF0128A
:2046C200119CAF8290CFCAE0FCA3E0FDA3E0FE90CFC9E090CFC5F08C828D838EF0C0071263
:2046E2004642D00790CFCAE0FCA3E0FDA3E0FE90C197EFF08C828D838EF0020F36AFF0AE5C
:2047020083E58290CFCEF0EEA3F0EFA3F090C19174D1F074CFA3F0E4A3F090C14EF5F01293
:204722000EB490CFCDE014F0E0FFEF603A90C1EE744EF074C1A3F0E4A3F090C1F174D1F096
:2047420074CFA3F0E4A3F090C1F4F090C1F5746EF074C1A3F0E4A3F090CFD1F5F0C0071290
:204762001D54D0071F80C390CFCEE0FDA3E0FEA3E0FF90C25F74D1F074CFA3F0E4A3F090BD
:20478200C262EDF0EEA3F0EFA3F090C265E4F090C266746EF074C1A3F0E4A3F090C269F014
:2047A2008D828E838FF00220EAAFF0AE83E58290CFF2F0EEA3F0EFA3F090CFF2E0FDA3E020
:2047C200FEA3E0FF8D828E838FF012119CAF8290CFF2E0FCA3E0FDA3E0FE90CFF1E090CF0B
:2047E200CDF08C828D838EF0C0071246FFD00790CFF2E0FCA3E0FDA3E0FE90C197EFF08CE8
:20480200828D838EF0020F36AFF0AE83E58290CFF7F0EEA3F0EFA3F090CFF5E0FF7415C340
:204822009FF090CFF6E070030248F590CFF5E014F090CFF7E0FDA3E0FEA3E0FF8D828E8372
:204842008FF012119CAF8290CFF7E0FCA3E0FDA3E0FE90CFF5E0FB90CFCDF08C828D838EBD
:20486200F0C007C0031246FF90C16E75F000120E6D90CFF7E0FCA3E0FDA3E0FE90C25F745C
:204882004EF074C1A3F0E4A3F090C262ECF0EDA3F0EEA3F090C265E4F090C266746EF0747F
:2048A200C1A3F0E4A3F090C26904F08C828D838EF01220EAD00390CFF5EB04F090CFF7E088
:2048C200FCA3E0FDA3E0FE90CFF5E090CFC5F08C828D838EF0124642D00790CFF7E0FCA3AF
:2048E200E0FDA3E0FE90C197EFF08C828D838EF0020F3690CFF7E0FDA3E0FEA3E0FF8D8269
:204902008E838FF012119CAF8290CFF7E0FCA3E0FDA3E0FE90CFF5E0FB90CFCDF08C828DFC
:20492200838EF0C007C0031246FFD00390CFF7E0FCA3E0FDA3E0FE90CFC5EBF08C828D8370
:204942008EF0124642D00790CFF7E0FCA3E0FDA3E0FE90C197EFF08C828D838EF0020F3689
:20496200AFF0AE83E58290D000F0EEA3F0EFA3F090D02375F000120E6D90C16E75F0001200
:204982000E6D90CFFAE0FDA3E0FEA3E0FF90C25F742EF074C1A3F0E4A3F090C2627423F0A4
:2049A20074D0A3F0E4A3F090C265F090C266746EF074C1A3F0E4A3F090C26904F08D828EEB
:2049C200838FF01220EA90D04375F000120E6D90C2FC7443F074D0A3F0E4A3F090D023F567
:2049E200F0122AEAE582701F90CFFDE0FDA3E0FEA3E0FF90C191EDF0EEA3F0EFA3F090C15A
:204A02002E75F000020EB490CFFDE0FDA3E0FEA3E0FF90C191EDF0EEA3F0EFA3F090C12EC0
:204A220075F000120EB490D000E0FDA3E0FEA3E0FF90C1917403F074D0A3F0E4A3F08D8255
:204A42008E838FF0120EB490C2FC7443F074D0A3F0E4A3F090D023F5F0122AEAE582700345
:204A6200024B4090D023E0FCA3E0A3E0A3E0EC20E003024AFD90CFFDE0FDA3E0FEA3E0FF4B
:204A820090C3157403F074D0A3F0E4A3F090C3187463F074D0A3F0E4A3F08D828E838FF0D8
:204AA2001230A290CFFDE0FDA3E0FEA3E0FF90C191EDF0EEA3F0EFA3F090D06375F00012D8
:204AC2000EB490C3157403F074D0A3F0E4A3F090C3187463F074D0A3F0E4A3F090D003F51D
:204AE200F01230A290C1917403F074D0A3F0E4A3F090D063F5F0120EB4803790C315740337
:204B0200F074D0A3F0E4A3F090C3187463F074D0A3F0E4A3F090D003F5F01230A290C191C7
:204B22007403F074D0A3F0E4A3F090D063F5F0120EB490D02375F000121C01024A4990D036
:204B420000E0FDA3E0FEA3E0FF8D828E838FF01210A2E582603990CFFAE0FDA3E0FEA3E0D6
:204B6200FF90C2FC742EF074C1A3F0E4A3F08D828E838FF0122AEAE582601490CFFDE0FD3C
:204B8200A3E0FEA3E0FF8D828E838FF00211E222AFF0AE83E58290D089F0EEA3F0EFA3F047
:204BA20090D083E0FDA3E0FEA3E0FF8D828E838FF01210A2E5827003024C6890D083E0FD7D
:204BC200A3E0FEA3E0FF90C191748CF074D0A3F0E4A3F08D828E838FF0120EB490D08C75DC
:204BE200F00012119C90D089E0FDA3E0FEA3E0FF90D086E0FAA3E0FBA3E0FC90CFFA748C25
:204C0200F074D0A3F0E4A3F090CFFDEAF0EBA3F0ECA3F08D828E838FF012496290D086E0FF
:204C2200FDA3E0FEA3E0FF90C31EEDF0EEA3F0EFA3F090C321748CF074D0A3F0E4A3F090DF
:204C4200C12EF5F01231F790D086E0FDA3E0FEA3E0FF90C191EDF0EEA3F0EFA3F090D08CD0
:204C620075F000020EB490D089E0FDA3E0FEA3E0FF90D083E0F568A3E0F569A3E0F56A90CD
:204C8200D086E0F8A3E0F9A3E0FC90CFFAE568F0E569A3F0E56AA3F090CFFDE8F0E9A3F0E0
:204CA200ECA3F08D828E838FF0024962AFF0AE83E58290D0B2F0EEA3F0EFA3F090D0ACE0FF
:204CC200FDA3E0FEA3E0FF90C31EEDF0EEA3F0EFA3F090C32174B5F074D0A3F0E4A3F09016
:204CE200C12EF5F01231F790D0ACE0FDA3E0FEA3E0FF90C30C742EF074C1A3F0E4A3F090F8
:204D0200C30F74D5F074D0A3F0E4A3F08D828E838FF0122E3890D0F575F000120E6D90D07A
:204D2200B2E0FDA3E0FEA3E0FF90D0ACE0F56BA3E0F56CA3E0F56D90D0AFE0F8A3E0F9A3C4
:204D4200E0FC90C31EE56BF0E56CA3F0E56DA3F090C321E8F0E9A3F0ECA3F08D828E838F05
:204D6200F01231F790D0AFE0FDA3E0FEA3E0FF90C2FC74F5F074D0A3F0E4A3F08D828E8303
:204D82008FF0122AEAE58270012290D0AFE0FDA3E0FEA3E0FF90C19174F5F074D0A3F0E48D
:204DA200A3F08D828E838FF0120EB490D0AFE0FDA3E0FEA3E0FF90C31574D5F074D0A3F084
:204DC200E4A3F090C3187415F074D1A3F0E4A3F08D828E838FF01230A290D0AFE0FDA3E035
:204DE200FEA3E0FF90D08374D5F074D0A3F0E4A3F090D0867435F074D1A3F0E4A3F08D82EA
:204E02008E838FF0124B9290D0B2E0FDA3E0FEA3E0FF90D0AFE0FAA3E0FBA3E0FC90C31EC8
:204E22007435F074D1A3F0E4A3F090C321EAF0EBA3F0ECA3F08D828E838FF01231F790D004
:204E4200AFE0FDA3E0FEA3E0FF90C303EDF0EEA3F0EFA3F090C3067435F074D1A3F0E4A33A
:204E6200F090D115F5F0122BD190D0AFE0FDA3E0FEA3E0FF90C3157435F074D1A3F0E4A388
:204E8200F090C318EDF0EEA3F0EFA3F090D0B575F0001230A2024D66AFF0AE83E58290D12A
:204EA2005BF0EEA3F0EFA3F090D155E0FDA3E0FEA3E0FF8D828E838FF01210A2E5827003CF
:204EC200024F7090D155E0FDA3E0FEA3E0FF90C191745EF074D1A3F0E4A3F08D828E838FD7
:204EE200F0120EB490D15E75F00012119C90D15BE0FDA3E0FEA3E0FF90D158E0FAA3E0FB5C
:204F0200A3E0FC90D0AC745EF074D1A3F0E4A3F090D0AFEAF0EBA3F0ECA3F08D828E838F5E
:204F2200F0124CAE90D158E0FDA3E0FEA3E0FF90C31EEDF0EEA3F0EFA3F090C321745EF053
:204F420074D1A3F0E4A3F090C12EF5F01231F790D158E0FDA3E0FEA3E0FF90C191EDF0EE1C
:204F6200A3F0EFA3F090D15E75F000020EB490D15BE0FDA3E0FEA3E0FF90D155E0F56EA3FA
:204F8200E0F56FA3E0F57090D158E0F8A3E0F9A3E0FC90D0ACE56EF0E56FA3F0E570A3F039
:204FA20090D0AFE8F0E9A3F0ECA3F08D828E838FF0024CAEAFF0AE83E58290D186F0EEA3D3
:204FC200F0EFA3F090D189E4F0A3F0A3F07480A3F090D18D741FF0E4A3F090D17FE0FFE06B
:204FE200601690D189E4F0A3F0A3F07440A3F090D18D741EF0E4A3F090D180E0FCA3E0FDEA
:20500200A3E0FE90D186E0F9A3E0FAA3E0FB90D17EE075F004A429F510EA35F0F5118B12A6
:2050220090D18DE0F508A3E0F509E50930E70122C00790D183E0F50AA3E0F50BA3E0F50C69
:20504200850A82850B83850CF012871FF8A312871FFFE82CF50DEF3DF50E8E0F8510828521
:2050620011838512F012871FF513A312871FF514A312871FF515A312871FF51690D189E05A
:20508200F9A3E0FAA3E0FBA3E0FFE5135201E5145202E5155203E5165207E94A4B4FD007B9
:2050A20060047B3180027B30850D82850E83850FF0EB1284D2850A82850B83850CF0128772
:2050C2001FFAA312871FFB0ABA00010B850A82850B83850CF0EA1284D2A3EB1284D2EF7043
:2050E20066E50854036002805EC3E4950874808509F063F08095F0504E850A82850B83856F
:205102000CF012871FFAA312871FFBEA2CFAEB3DF98E038A8289838BF074201284D2850AA9
:2051220082850B83850CF012871FFAA312871FFB0ABA00010B850A82850B83850CF0EA12DE
:2051420084D2A3EB1284D290D189E0F8A3E0F9A3E0FAA3E0C313FBEA13FAE913F9E813907B
:20516200D189F0E9A3F0EAA3F0EBA3F0150874FFB50802150902502CAFF0AE83E58290D1E9
:2051820093F0EEA3F0EFA3F090D196E4F0A3F090D190E0FDA3E0FEA3E0FF90D18FE0FC7B11
:2051A20007EB607790D193E0F8A3E0F9A3E0FA90D17EEBF090D17FECF090D180EDF0EEA39A
:2051C200F0EFA3F090D1837496F074D1A3F0E4A3F0888289838AF0C007C006C005C004C0C8
:2051E20003124FB6D003D004D005D006D007EC702790D196E0F9A3E0FAE92DF9EA3EF88FDC
:2052020002898288838AF0747C1284D290D196E02401F0A3E03400F01B808690D193E0FD1D
:20522200A3E0FEA3E0FF90D190E0F9A3E0FAA3E0FB90D17EE4F090D17FECF090D180E9F07B
:20524200EAA3F0EBA3F090D1837496F074D1A3F0E4A3F08D828E838FF0124FB690D190E09D
:20526200FDA3E0FEA3E0FF90D196E0FBA3E0FCEB2DFDEC3EFE8D828E838FF0E40284D2AF14
:20528200F0AE83E58290D19BF0EEA3F0EFA3F090D198E0FDA3E0FEA3E0FFE4F571F572E526
:2052A200712DF8E5723EF98F02888289838AF012871F700122C005C006C00790D19BE0FD31
:2052C200A3E0FEA3E0FF8D828E838FF0C007C006C005C002C001C000121AA3D000D001D055
:2052E20002D005D006D007888289838AF012871FF8B831028008D007D006D005805090D1C2
:205302009BE0F8A3E0F9A3E0FA888289838AF012871FFCA312871FFDA312871FFEA31287EE
:205322001FFF0CBC00090DBD00050EBE00010F888289838AF0EC1284D2A3ED1284D2A3EE64
:205342001284D2A3EF1284D2D007D006D0050571E4B5710205720252A1AF83E58290E04D23
:20536200F0EFA3F090E04DE0FEA3E0FFC3E49E74808FF063F08095F040012290E046E06033
:205382003090E04AE0FBA3E0FCA3E0FD90D18FE4F090D190749EF074D1A3F0E4A3F08B8234
:2053A2008C838DF0C007C00612517AD006D007802990E04AE0FBA3E0FCA3E0FD90C3B7748D
:2053C2009EF074D1A3F0E4A3F08B828C838DF0C007C00612364DD006D00790E048E0FD0EE3
:2053E20090C07DEEF090C07EE4F090C07F749EF074D1A3F0E4A3F08D82120ACC90E291E064
:20540200FFBF0D0050198F057E00ED2DFDEE33FEED2DFDEE33FE74152DFDE43EFE80167CF3
:2054220000EF2FFFEC33FCEF2FFFEC33FCEF24E3FDEC34FFFE90E04DE0FCA3E0FFECB50529
:2054420026EFB5062290E049E0FF90C07D7463F090C07EE4F090C07F749EF074D1A3F0E4FD
:20546200A3F08F82020ACC22E58290E055F090E048E0FF90E291E0FEBE0D00500B8E05ED52
:205482002D25E02415FD8007EE2E25E024E3FD0D90E04FE0FBA3E0FCA3E0FE90C07DEDF0A5
:2054A20090C07EE4F090C07FEBF0ECA3F0EEA3F08F82120ACC90E048E0FF90E291E0FEBE6F
:2054C2000D00500B8E05ED2D25E02415FD8007EE2E25E024E3FD0D90E052E0FBA3E0FCA302
:2054E200E0FE90C07DEDF090C07E7403F090C07FEBF0ECA3F0EEA3F08F82120ACC90E04991
:20550200E0FF90E04FE0FCA3E0FDA3E0FE90C07D7463F090C07EE4F090C07FECF0EDA3F0AD
:20552200EEA3F08F82120ACC90E049E0FF90E052E0FCA3E0FDA3E0FE90C07D7463F090C0D4
:205542007E7403F090C07FECF0EDA3F0EEA3F08F82120ACC90E055E0603E90BF0075F000C8
:2055620074011284D290E04FE0FDA3E0FEA3E0FF8D828E838FF01206F590E052E0FDA3E0DF
:20558200FEA3E0FF8D828E838FF01206F590BF0075F00074030284D222AFF0AE83E5829071
:2055A200E056F0EEA3F0EFA3F090E059E4F0A3F090DF79E07003F582227E007F00EE247934
:2055C200F582EF34DFF583E0FDBD20028039ED603690E056E0FAA3E0FBA3E0FCEE2AFAEF42
:2055E2003BFB8A828B838CF012871FFC6019EDB504028004758200220EBE00010F90E059C6
:20560200EEF0EFA3F080B690E056E0FDA3E0FEA3E0FF90E059E0FBA3E0FCEB2DFDEC3EFEEC
:205622008D828E838FF012871F7018EB2479F582EC34DFF583E0FFBF20028003EF700475F8
:205642008201227582002290E047E070030257037E007F00C3EE940DEF64809480400302A9
:2056620057B490E048E0FD8E04EC2C25E0FC90C06374152CF090C064747EF090C065E4F066
:20568200A3F08D82C007C006C00412098CD00490E048E0FD90C06374162CF090C064747E06
:2056A200F090C065E4F0A3F08D82C00412098CD00490E048E0FD90C06374172CF090C064EB
:2056C200747EF090C065740AF0E4A3F08D82C00412098CD00490E048E0FD90C06374182CFE
:2056E200F090C064747EF090C065745AF0E4A3F08D8212098CD006D0070EBE00010F0256A1
:20570200567E007F00C3EE940DEF6480948040030257B490E048E0FD8E04EC2C25E0FC90DB
:20572200C06374152CF090C064747EF090C065740AF0E4A3F08D82C007C006C00412098C68
:20574200D00490E048E0FD90C06374162CF090C064747EF090C065745AF0E4A3F08D82C036
:205762000412098CD00490E048E0FD90C06374172CF090C064747EF090C065E4F0A3F08D7A
:2057820082C00412098CD00490E048E0FD90C06374182CF090C064747EF090C065E4F0A394
:2057A200F08D8212098CD006D0070EBE00010F0257077E007F00C3EE941AEF6480948050C5
:2057C2006FC3EE940DEF648094805015EE2EFCEF33FDEC2CFCED33FD74152CFCE43DFD8003
:2057E20014EE2EFAEF33FBEA2AFAEB33FBEA24E3FCEB34FFFD8E02EFC42354E0CAC423CA1C
:205802006ACA54E0CA6AFBEA24D6FAEB34D5FB90E04AEAF0EBA3F0E4A3F08C828D83C007B4
:20582200C00612535BD006D0070EBE00890F808622AFF0AE83E58290E268F0EEA3F0EFA393
:20584200F090E26BE4F0A3F0FEFFEE245BF582EF34E0F583E0FD603690E268E0FAA3E0FB11
:20586200A3E0FCEE2AFAEF3BFB8A828B838CF012871FFC6019EDB504028004758200220E5A
:20588200BE00010F90E26BEEF0EFA3F080BC90E26BE0FEA3E0FFEE245BFCEF34E0FD8C820B
:2058A2008D83E0702290E268E0FBA3E0FCA3E0FDEE2BFEEF3CFF8D028E828F838AF01287AB
:2058C2001F70047582012275820022E58290E26EF0E0604990BF0075F00074011284D2901F
:2058E200873F75F0801206F575825B12055D90E26DE0F58212052675825D12055D75825B9B
:2059020012055D90E05B75F0001206F575825D12055D90BF0075F00074031284D290E26D9A
:20592200E0FF600302635D90E05CE06003025D1890DF76E0FEBE02005003025CBE90E05B1E
:20594200E0FDBD2A03025B10BD2B02800FBD2D03025A37BD2F03025BE902635DC007EE1458
:2059620090DF76F0E0FDFB7C0024FFF9EC34FFC42354E0C9C423C969C954E0C969FAE9248E
:2059820016F9EA34D9F87A00ED75F020A42416FD74D935F0FF90C303EDF0EFA3F0E4A3F0A3
:2059A2000BBB00010CECC42354E0CBC423CB6BCB54E0CB6BFCEB2416FBEC34D9FC90C30684
:2059C200EBF0ECA3F0E4A3F0898288838AF0C007122BD1D00790DF76E0FF7D0074012FFBD8
:2059E200E43DC42354E0CBC423CB6BCB54E0CB6BFCEB2416FBEC34D9FC7A001FBFFF011DC6
:205A0200EDC42354E0CFC423CF6FCF54E0CF6FFDEF2416FFED34D9FD90C191EFF0EDA3F0EA
:205A2200E4A3F08B828C838AF0C007120EB4D007D00702635DC007EE1490DF76F0E0FDFBD6
:205A42007C0024FFF9EC34FFC42354E0C9C423C969C954E0C969FAE92416F9EA34D9F87AE2
:205A620000ED75F020A42416FD74D935F0FF90C30CEDF0EFA3F0E4A3F00BBB00010CECC4AE
:205A82002354E0CBC423CB6BCB54E0CB6BFCEB2416FBEC34D9FC90C30FEBF0ECA3F0E4A33C
:205AA200F0898288838AF0C007122E38D00790DF76E0FF7D0074012FFBE43DC42354E0CB67
:205AC200C423CB6BCB54E0CB6BFCEB2416FBEC34D9FC7A001FBFFF011DEDC42354E0CFC451
:205AE20023CF6FCF54E0CF6FFDEF2416FFED34D9FD90C191EFF0EDA3F0E4A3F08B828C8312
:205B02008AF0C007120EB4D007D00702635DC007EE1490DF76F0E0FDFB7C0024FFF9EC34D0
:205B2200FFC42354E0C9C423C969C954E0C969FAE92416F9EA34D9F87A00ED75F020A4247F
:205B420016FD74D935F0FF90C315EDF0EFA3F0E4A3F00BBB00010CECC42354E0CBC423CB2A
:205B62006BCB54E0CB6BFCEB2416FBEC34D9FC90C318EBF0ECA3F0E4A3F0898288838AF0A6
:205B8200C0071230A2D00790DF76E0FF7D0074012FFBE43DC42354E0CBC423CB6BCB54E07E
:205BA200CB6BFCEB2416FBEC34D9FC7A001FBFFF011DEDC42354E0CFC423CF6FCF54E0CF59
:205BC2006FFDEF2416FFED34D9FD90C191EFF0EDA3F0E4A3F08B828C838AF0C007120EB44F
:205BE200D007D00702635DEE1490DF76F0E0FEFC7D0024FFFAED34FFC42354E0CAC423CA32
:205C02006ACA54E0CA6AFBEA2416FAEB34D9F97B00EE75F020A42416F874D935F0FE90C355
:205C22001EE8F0EEA3F0E4A3F00CBC00010DEDC42354E0CCC423CC6CCC54E0CC6CFDEC2466
:205C420016FCED34D9FD90C321ECF0EDA3F0E4A3F08A8289838BF0C0071231F7D00790DF18
:205C620076E0FE7D0074012EFBE43DC42354E0CBC423CB6BCB54E0CB6BFCEB2416FBEC341E
:205C8200D9FC7A001EBEFF011DEDC42354E0CEC423CE6ECE54E0CE6EFDEE2416FEED34D966
:205CA200FD90C191EEF0EDA3F0E4A3F08B828C838AF0C007120EB4D00702635D90E05BE0B9
:205CC200FEE4BE2B0104FDE4BE2D01044205E4BE2A01044205E4BE2F01044D700302635D6A
:205CE20090E05CE4F090E26704F090E26EE0FE90E04F7454F07487A3F07480A3F090E05229
:205D0200745BF074E0A3F0E4A3F08E82C00712546AD00702635D90E26F7401F090DF76E019
:205D2200FEBE0100500302614590877275F080C007125833E582D0077003025DDA90E26F0C
:205D4200E4F090DF76E0FEFC7D001CBCFF011DEDC42354E0CCC423CC6CCC54E0CC6CFDEC28
:205D62002416FCED34D9FD7B00EE75F020A42416FA74D935F0FE90CE01EAF0EEA3F0E4A37D
:205D8200F08C828D838BF0C007123EB3D00790DF76E0FE75F020A42416FC74D935F0FD7BCB
:205DA200007A001EBEFF011AEAC42354E0CEC423CE6ECE54E0CE6EFAEE2416FEEA34D9FA2C
:205DC20090C191EEF0EAA3F0E4A3F08C828D838BF0C007120EB4D00790877675F080C007C9
:205DE200125833E582D0077003025E8990E26FE4F090DF76E0FEFC7D001CBCFF011DEDC4D3
:205E02002354E0CCC423CC6CCC54E0CC6CFDEC2416FCED34D9FD7B00EE75F020A42416FA2A
:205E220074D935F0FE90CE47EAF0EEA3F0E4A3F08C828D838BF0C00712407ED00790DF768D
:205E4200E0FE75F020A42416FC74D935F0FD7B007A001EBEFF011AEAC42354E0CEC423CE21
:205E62006ECE54E0CE6EFAEE2416FEEA34D9FA90C191EEF0EAA3F0E4A3F08C828D838BF016
:205E8200C007120EB4D00790877A75F080C007125833E582D0077003025F3890E26FE4F0B5
:205EA20090DF76E0FEFC7D001CBCFF011DEDC42354E0CCC423CC6CCC54E0CC6CFDEC241661
:205EC200FCED34D9FD7B00EE75F020A42416FA74D935F0FE90CE8DEAF0EEA3F0E4A3F08C4E
:205EE200828D838BF0C007124213D00790DF76E0FE75F020A42416FC74D935F0FD7B007A08
:205F0200001EBEFF011AEAC42354E0CEC423CE6ECE54E0CE6EFAEE2416FEEA34D9FA90C1F3
:205F220091EEF0EAA3F0E4A3F08C828D838BF0C007120EB4D00790877E75F080C007125846
:205F420033E582D0077003025FE790E26FE4F090DF76E0FEFC7D001CBCFF011DEDC4235405
:205F6200E0CCC423CC6CCC54E0CC6CFDEC2416FCED34D9FD7B00EE75F020A42416FA74D9F3
:205F820035F0FE90CED3EAF0EEA3F0E4A3F08C828D838BF0C007124291D00790DF76E0FEFA
:205FA20075F020A42416FC74D935F0FD7B007A001EBEFF011AEAC42354E0CEC423CE6ECE62
:205FC20054E0CE6EFAEE2416FEEA34D9FA90C191EEF0EAA3F0E4A3F08C828D838BF0C0072A
:205FE200120EB4D00790878275F080C007125833E582D007700302609690E26FE4F090DF45
:2060020076E0FEFC7D001CBCFF011DEDC42354E0CCC423CC6CCC54E0CC6CFDEC2416FCED85
:2060220034D9FD7B00EE75F020A42416FA74D935F0FE90CF19EAF0EEA3F0E4A3F08C828D39
:20604200838BF0C00712430FD00790DF76E0FE75F020A42416FC74D935F0FD7B007A001E9A
:20606200BEFF011AEAC42354E0CEC423CE6ECE54E0CE6EFAEE2416FEEA34D9FA90C191EE31
:20608200F0EAA3F0E4A3F08C828D838BF0C007120EB4D00790878675F080C007125833E544
:2060A20082D007700302614590E26FE4F090DF76E0FEFC7D001CBCFF011DEDC42354E0CCB0
:2060C200C423CC6CCC54E0CC6CFDEC2416FCED34D9FD7B00EE75F020A42416FA74D935F019
:2060E200FE90CF3FEAF0EEA3F0E4A3F08C828D838BF0C00712436CD00790DF76E0FE75F010
:2061020020A42416FC74D935F0FD7B007A001EBEFF011AEAC42354E0CEC423CE6ECE54E031
:20612200CE6EFAEE2416FEEA34D9FA90C191EEF0EAA3F0E4A3F08C828D838BF0C007120EDC
:20614200B4D00790DF76E0FEBE0200500302632890878A75F080C007125833E582D00770B7
:206162000302623D90E26FE4F090DF76E014F0E0FEFC7D0024FFFAED34FFC42354E0CAC4BE
:2061820023CA6ACA54E0CA6AFBEA2416FAEB34D9F97B00EE75F020A42416F874D935F0FE36
:2061A20090D083E8F0EEA3F0E4A3F00CBC00010DEDC42354E0CCC423CC6CCC54E0CC6CFD2C
:2061C200EC2416FCED34D9FD90D086ECF0EDA3F0E4A3F08A8289838BF0C007124B92D007CB
:2061E20090DF76E0FE7D0074012EFBE43DC42354E0CBC423CB6BCB54E0CB6BFCEB2416FB4A
:20620200EC34D9FC7A001EBEFF011DEDC42354E0CEC423CE6ECE54E0CE6EFDEE2416FEEDCD
:2062220034D9FD90C191EEF0EDA3F0E4A3F08B828C838AF0C007120EB4D00790878E75F089
:2062420080C007125833E582D007700302632890E26FE4F090DF76E014F0E0FEFC7D002421
:20626200FFFAED34FFC42354E0CAC423CA6ACA54E0CA6AFBEA2416FAEB34D9F97B00EE75E9
:20628200F020A42416F874D935F0FE90D155E8F0EEA3F0E4A3F00CBC00010DEDC42354E042
:2062A200CCC423CC6CCC54E0CC6CFDEC2416FCED34D9FD90D158ECF0EDA3F0E4A3F08A820B
:2062C20089838BF0C007124E9AD00790DF76E0FE7D0074012EFBE43DC42354E0CBC423CB06
:2062E2006BCB54E0CB6BFCEB2416FBEC34D9FC7A001EBEFF011DEDC42354E0CEC423CE6E7F
:20630200CE54E0CE6EFDEE2416FEED34D9FD90C191EEF0EDA3F0E4A3F08B828C838AF0C016
:2063220007120EB4D00790E26FE0602F90E2677401F090E26EE0FE90E04F7493F07487A309
:20634200F07480A3F090E052745BF074E0A3F0E4A3F08E82C00712546AD007BF016B90DFCD
:2063620076E0FEBE32005032EE75F020A42416FD74D935F0FE7C0090C327745BF074E0A3EB
:20638200F0E4A3F08D828E838CF0C007123351D00790DF76E02401F0802F90E2677401F0FD
:2063A20090E26EE0FE90E04F74BDF07487A3F07480A3F090E052745BF074E0A3F0E4A3F049
:2063C2008E82C00712546AD007BF020280012290DF76E0FFBF3200504E90E05BE07D002438
:2063E200BFFEED34FFC42354E0CEC423CE6ECE54E0CE6EFDEE24D6FEED34D5FD7C00EF75BE
:20640200F020A42416FB74D935F0FF90C191EBF0EFA3F0E4A3F08E828D838CF0120EB4906A
:20642200DF76E02401F02290E2677401F090E26EE0FF90E04F74D8F07487A3F07480A3F0E1
:2064420090E052745BF074E0A3F0E4A3F08F8202546A7F00EF245BF582E434E0F583E0FED8
:20646200601990E265E02457F582E434E1F583EEF00F90E265E02401F080D990E266E02499
:2064820051F582E434E2F583EFF090E266E02401F02290E266E014F0E02451F582E434E270
:2064A200F583E0FF90E265E0C39FFE90E270F090E265EEF07E0090E270E0FDEF601DEE242A
:2064C2005BFBE434E0FCED2457F582E434E1F583E08B828C83F00E1F0D80E0EE245BF582B6
:2064E200E434E0F583E4F02290E265E0FF7E0090E266E0FD1DED3395E0FCED2451F582ECD8
:2065020034E2F583E0FD7C00EFC39DFFEE9CFEEF2457F582EE34E1F583E0F58222E58290F0
:20652200E271F090E272E4F090DF76F090E156F090E155F090E271E0601F90BF0075F00026
:2065420074011284D29087F575F0801206F590BF0075F00074031284D290E265E4F090E2AE
:2065620066F090E271E0FF8F758F748F048F038F028F0190E272E0F8B80A03026BA390E1B2
:2065820055E4F090E272F090E27504F090E275E0700302686090E273E4F090E274F090E21C
:2065A20073E0F8600302677390E156E02401F0E02479F582E434DFF583E0F573C394414010
:2065C2000CE57324A5400690E2737401F090E156E02479F582E434DFF583E0F573C3943003
:2065E2004006E57324C65022C00190E156E02479F582E434DFF583E0F573742EB57304D0CE
:20660200018007D001745CB5730690E2737402F0C00190E156E02479F582E434DFF583E00B
:20662200F573743BB57304D001802AD0017428B5730280217429B57302801A742BB5730238
:206642008013742DB57302800C742AB573028005742FB5730690E2737403F0C00190E1565C
:20666200E02479F9E434DFFD89828D83E0D001700690E273740AF090E273E0FDBD0A03028B
:2066820065A090E274E4F0FD90E274E0600302676990E156E02401F00DE02479F582E4346C
:2066A200DFF583E0F573C39441400CE57324A5400690E2747401F090E156E02479F582E404
:2066C20034DFF583E0F573C394304006E57324C65022C00190E156E02479F582E434DFF5FC
:2066E20083E0F573742EB57304D0018007D001745CB5730690E2747402F0C00190E156E024
:206702002479F582E434DFF583E0F573743BB57304D001802AD0017428B573028021742981
:20672200B57302801A742BB573028013742DB57302800C742AB573028005742FB573069032
:20674200E2747403F0C00190E156E02479F9E434DFFE89828E83E0D001600302668A90E2F3
:2067620074740AF002668A90E156E0C39DF00265A0C00190E155E0245BFEE434E0FD90E1FB
:2067820056E02479F582E434DFF583E08E828D83F090E155E02401F0E0245BF582E434E0C5
:2067A200F583E4F0B80104D0018016D001B802028033B80303026844B80A030268520265D3
:2067C2008E90E272E0FEE06003BE010690E2727401F090E274E0FEBE010302658E90E275B4
:2067E200E4F002658EC00190E155E0FD7E0024FFF8EE34FFF9E8245BF582E934E0F583E084
:20680200F9B95C028004D0018014D0011DBDFF011EED245BF582EE34E0F583742DF090E254
:2068220072E0FEE06003BE020690E2727402F090E274E0FEBE020302658E90E275E4F0027A
:20684200658E90E2727403F090E275E4F002658E90E272740AF090E275E4F002658EEF60F7
:206862006E90E272E0FEBE0A02806490BF0075F00074011284D275825BC007C006C004C044
:2068820003C002C00112055DD001D002D003D004D0068E82C004C003C002C0011205267510
:2068A200825D12055D75825B12055D90E05B75F0001206F575825D12055DD001D002D00342
:2068C200D004D00790BF0075F00074031284D290E272E0FEBE022490E26D7401F085758212
:2068E200C007C006C004C003C002C0011258CDD001D002D003D004D006D007BE012890E179
:2069020055E0FEBE012090E26D7402F0857482C007C004C003C002C0011258CDD001D002F8
:20692200D003D004D00790E272E0FEBE012390E155E024FE501BC007C006C004C003C0022A
:20694200C001126454D001D002D003D004D006D007BE035F90E05BE0FEBE3B5790E266E0E2
:206962006051C007C004C003C002C0011264EAAE82D001D002D003D004D007BE2802803347
