:03000000020006F5
:03005F0002000399
:03000300020C38B4
:20006200907F0075F00074F7121757907F08E0F58222E582908000F0E0FF907F0175F000D4
:20008200EF121757158274FC121757907F08E0FCA3E0FDA3E0FEA3E08C828D838EF02290A3
:2000A2007F0075F00074FA021757AFF0AE83E582908001F0EEA3F0EFA3F0907F0175F000CC
:2000C200740B121757908001E0FDA3E0FEA3E0FF7C00EC2DF9E43EFA8F0389828A838BF05F
:2000E200121904FB6013907F08EBF0907F0075F00074FB1217570C80D922E582908004F01A
:20010200E0907F08F0907F01E4F5F01217571582F5F074FB021757E582908005F0E0907FE7
:2001220008F0907F0175F0007401121757158274FB021757E582908006F0E0907F08F09001
:200142007F0175F0007402121757158274FB021757E582908007F0E0907F08F0907F017572
:20016200F0007403121757158274FB021757AF83E582908008F0EFA3F0908008E0FEA3E084
:20018200FF907F08EEF0EFA3F0907F0175F00074041217571582F4021757AF83E5829080D6
:2001A2000AF0EFA3F090800AE0FEA3E0FF907F08EEF0EFA3F0907F0175F000740512175762
:2001C200158274FB021757AF83E58290800CF0EFA3F090800CE0FEA3E0FF907F08EEF0EF20
:2001E200A3F0907F0175F0007406121757158274FB021757AF83E58290800EF0EFA3F090CC
:20020200800EE0FEA3E0FF907F08EEF0EFA3F0907F0175F0007407121757158274FB0217E8
:2002220057AF82AE83ADF0FC908010EFF0EEA3F0EDA3F0ECA3F0908010E0FCA3E0FDA3E0EC
:20024200FEA3E0FF907F08ECF0EDA3F0EEA3F0EFA3F0907F0175F00074081217571582742A
:20026200FB021757AF82AE83ADF0FC908014EFF0EEA3F0EDA3F0ECA3F0908014E0FCA3E010
:20028200FDA3E0FEA3E0FF907F08ECF0EDA3F0EEA3F0EFA3F0907F0175F000740912175774
:2002A200158274FB021757AF82AE83ADF0FC908018EFF0EEA3F0EDA3F0ECA3F0908018E03C
:2002C200FCA3E0FDA3E0FEA3E0FF907F08ECF0EDA3F0EEA3F0EFA3F0907F0175F000740A34
:2002E200121757158274FB021757AFF0AE83E58290801EF0EEA3F0EFA3F0907F0175F00039
:20030200740B121757158274F8121757907F08E0FEA3E0FF908021EEF0EFA3F090801CE045
:20032200FCA3E0FDC3EC9EED9F5008908021ECF0EDA3F090801EE0FDA3E0FEA3E0FF908063
:200342001EE0F5F0A3E045F06064908021E0FBA3E0FC79007A00C3E99BEA9C5034C003C0EA
:2003620004907F0075F00074F9121757E92DF538EA3EF5398F3A907F08E08538828539833D
:20038200853AF012175709B900010AD004D00380C590801EE0FDA3E0FEA3E0FFEB2DFBEC66
:2003A2003EFC8F028B828C838AF0E4121757908021E0FEA3E08E82F58322907F01E4F5F061
:2003C2001217571582F5F074F8121757907F08E0F58222907F0175F00074011217571582A2
:2003E20074F8121757907F08E0F58222907F0175F0007402121757158274F8121757907F82
:2004020008E0F58222907F0175F0007403121757158274F8121757907F08E0F58222907FCB
:200422000175F0007404121757158274F8121757907F08E0FEA3E08E82F58322907F017532
:20044200F0007405121757158274F8121757907F08E0FEA3E08E82F58322907F0175F00097
:200462007406121757158274F8121757907F08E0FEA3E08E82F58322907F0175F0007407EB
:200482001217571582F4121757907F08E0FEA3E08E82F58322907F0175F00074081217573C
:2004A200158274F8121757907F08E0FCA3E0FDA3E0FEA3E08C828D838EF022907F0175F00D
:2004C200007409121757158274F8121757907F08E0FCA3E0FDA3E0FEA3E08C828D838EF087
:2004E20022907F0175F000740A121757158274F8121757907F08E0FCA3E0FDA3E0FEA3E06B
:200502008C828D838EF022E582908029F0908023E0907F10F0908024E0907F18F090802509
:20052200E0907F20F0908029E0FF907F0175F000EF121757A3E4121757908026E0907F038F
:20054200121757908027E0907F04121757908028E0907F05121757907F00740D021757E5DE
:2005620082908030F090802AE0907F10F090802BE0907F18F090802CE0907F20F0908030F1
:20058200E0FF907F0175F000EF121757A3740112175790802DE0907F0312175790802EE031
:2005A200907F0412175790802FE0907F05121757907F00740D021757E58290803AF0908042
:2005C20031E0FEA3E0FF907F10EEF0EFA3F0908033E0FEA3E0FF907F18EEF0EFA3F09080CF
:2005E20035E0FEA3E0FF907F20EEF0EFA3F090803AE0FF907F0175F000EF121757A37404AD
:20060200121757908037E0907F03121757908038E0907F04121757908039E0907F0512177E
:2006220057907F00740D021757E582908044F090803BE0FEA3E0FF907F10EEF0EFA3F090FC
:20064200803DE0FEA3E0FF907F18EEF0EFA3F090803FE0FEA3E0FF907F20EEF0EFA3F09026
:200662008044E0FF907F0175F000EF121757A37405121757908041E0907F03121757908082
:2006820042E0907F04121757908043E0907F05121757907F00740D021757E58290804EF027
:2006A200908045E0FEA3E0FF907F10EEF0EFA3F0908047E0FEA3E0FF907F18EEF0EFA3F0C6
:2006C200908049E0FEA3E0FF907F20EEF0EFA3F090804EE0FF907F0175F000EF121757A30C
:2006E200740612175790804BE0907F0312175790804CE0907F0412175790804DE0907F0511
:20070200121757907F00740D021757E582908058F090804FE0FEA3E0FF907F10EEF0EFA34A
:20072200F0908051E0FEA3E0FF907F18EEF0EFA3F0908053E0FEA3E0FF907F20EEF0EFA31D
:20074200F0908058E0FF907F0175F000EF121757A37407121757908055E0907F0312175707
:20076200908056E0907F04121757908057E0907F05121757907F00740D021757E58290804C
:2007820068F0908059E0FCA3E0FDA3E0FEA3E0FF907F10ECF0EDA3F0EEA3F0EFA3F09080A9
:2007A2005DE0FCA3E0FDA3E0FEA3E0FF907F18ECF0EDA3F0EEA3F0EFA3F0908061E0FCA305
:2007C200E0FDA3E0FEA3E0FF907F20ECF0EDA3F0EEA3F0EFA3F0908068E0FF907F0175F0DD
:2007E20000EF121757A37408121757908065E0907F03121757908066E0907F041217579089
:200802008067E0907F05121757907F00740D021757E582908078F0908069E0FCA3E0FDA324
:20082200E0FEA3E0FF907F10ECF0EDA3F0EEA3F0EFA3F090806DE0FCA3E0FDA3E0FEA3E0FB
:20084200FF907F18ECF0EDA3F0EEA3F0EFA3F0908071E0FCA3E0FDA3E0FEA3E0FF907F2002
:20086200ECF0EDA3F0EEA3F0EFA3F0908078E0FF907F0175F000EF121757A374091217572C
:20088200908075E0907F03121757908076E0907F04121757908077E0907F05121757907F5C
:2008A20000740D021757E582908088F0908079E0FCA3E0FDA3E0FEA3E0FF907F10ECF0ED86
:2008C200A3F0EEA3F0EFA3F090807DE0FCA3E0FDA3E0FEA3E0FF907F18ECF0EDA3F0EEA380
:2008E200F0EFA3F0908081E0FCA3E0FDA3E0FEA3E0FF907F20ECF0EDA3F0EEA3F0EFA3F006
:20090200908088E0FF907F0175F000EF121757A3740A121757908085E0907F031217579042
:200922008086E0907F04121757908087E0907F05121757907F00740D021757E58290808B2F
:20094200F0908089E0907F10F090808AE0907F18F0907F01E4F5F012175790808BE0907FA9
:2009620002121757907F0074F6121757907F08E0F58222E58290808EF090808CE0907F10DA
:20098200F090808DE0907F18F0907F0175F000740112175790808EE0907F02121757907F49
:2009A2000074F6121757907F08E0F58222E582908093F090808FE0FEA3E0FF907F10EEF0C5
:2009C200EFA3F0908091E0FEA3E0FF907F18EEF0EFA3F0907F0175F000740412175790808E
:2009E20093E0907F02121757907F0074F6121757907F08E0FEA3E08E82F58322E58290805F
:200A020098F0908094E0FEA3E0FF907F10EEF0EFA3F0908096E0FEA3E0FF907F18EEF0EFCF
:200A2200A3F0907F0175F0007405121757908098E0907F02121757907F0074F61217579011
:200A42007F08E0FEA3E08E82F58322E58290809DF0908099E0FEA3E0FF907F10EEF0EFA366
:200A6200F090809BE0FEA3E0FF907F18EEF0EFA3F0907F0175F000740612175790809DE0F6
:200A8200907F02121757907F0074F6121757907F08E0FEA3E08E82F58322E5829080A2F09F
:200AA20090809EE0FEA3E0FF907F10EEF0EFA3F09080A0E0FEA3E0FF907F18EEF0EFA3F010
:200AC200907F0175F00074071217579080A2E0907F02121757907F0074F6121757907F0871
:200AE200E0FEA3E08E82F58322E5829080ABF09080A3E0FCA3E0FDA3E0FEA3E0FF907F10A6
:200B0200ECF0EDA3F0EEA3F0EFA3F09080A7E0FCA3E0FDA3E0FEA3E0FF907F18ECF0EDA3CB
:200B2200F0EEA3F0EFA3F0907F0175F00074081217579080ABE0907F02121757907F0074A0
:200B4200F6121757907F08E0FCA3E0FDA3E0FEA3E08C828D838EF022E5829080B4F09080BD
:200B6200ACE0FCA3E0FDA3E0FEA3E0FF907F10ECF0EDA3F0EEA3F0EFA3F09080B0E0FCA3AB
:200B8200E0FDA3E0FEA3E0FF907F18ECF0EDA3F0EEA3F0EFA3F0907F0175F00074091217D2
:200BA200579080B4E0907F02121757907F0074F6121757907F08E0FCA3E0FDA3E0FEA3E037
:200BC2008C828D838EF022E5829080BDF09080B5E0FCA3E0FDA3E0FEA3E0FF907F10ECF012
:200BE200EDA3F0EEA3F0EFA3F09080B9E0FCA3E0FDA3E0FEA3E0FF907F18ECF0EDA3F0EED7
:200C0200A3F0EFA3F0907F0175F000740A1217579080BDE0907F02121757907F0074F61281
:200C22001757907F08E0FCA3E0FDA3E0FEA3E08C828D838EF022120062E582F533FE04FD0D
:200C4200740F5DF50E0E0E53060F907F0175F000E5331217571582740A121757A3E50E12E1
:200C620017571582740A121757A3EE1217571582740A1217577BF67CFF9080BE74F6F07441
:200C8200FFA3F08B0A8C0B74012BF508E43CF5099080BEE0F50CA3E0F50D850C82850D837D
:200CA200C0061217CB85820F85831085F011F512850A82850B831217CB85821385831485EA
:200CC200F015F516D006050CE4B50C02050D850C82850D83C0061217CB85821785831885BD
:200CE200F019F51A8508828509831217CB85821B85831C85F01DF51EC00FC010C011C01299
:200D0200850F828510838511F0E51212165385821F85832085F021F522E58124FCF581C0F4
:200D220013C014C015C0168513828514838515F0E51612165385822385832485F025F526DE
:200D4200E58124FCF581C023C024C025C026851F828520838521F0E522121772A882A98327
:200D6200AAF0FDE58124FCF581E4C0E0C0E074C8C0E07442C0E0888289838AF0ED1216489B
:200D820085822785832885F029F52AE58124FCF581C01BC01CC01DC01E851B82851C8385FD
:200DA2001DF0E51E12165385822B85832C85F02DF52EE58124FCF581C02BC02CC02DC02ECD
:200DC200851F828520838521F0E522121772A882A983AAF0FDE58124FCF581E4C0E0C0E07E
:200DE20074C8C0E07442C0E0888289838AF0ED12164885821F85832085F021F522E581244D
:200E0200FCF581C017C018C019C01A8517828518838519F0E51A12165385822F85833085C3
:200E2200F031F532E58124FCF581C023C024C025C026852F828530838531F0E53212177214
:200E4200A882A983AAF0FDE58124FCF581E4C0E0C0E074C8C0E07442C0E0888289838AF0C1
:200E6200ED12164885822385832485F025F526E58124FCF581C02BC02CC02DC02E852F8224
:200E82008530838531F0E532121772A882A983AAF0FDE58124FCF581E4C0E0C0E074C8C0B7
:200EA200E07442C0E0888289838AF0ED12164885822F85833085F031F532E58124FCF581D6
:200EC200C00FC010C011C01290000075F020744112165385822B85832C85F02DF52EE581F8
:200EE20024FCF581C013C014C015C01690000075F020744112165385821385831485F01503
:200F0200F516E58124FCF581C017C018C019C01A90000075F02074411216538582178583FB
:200F22001885F019F51AE58124FCF581C01BC01CC01DC01E90000075F020744112165385C2
:200F4200821B85831C85F01DF51EE58124FCF581908079E52BF0E52CA3F0E52DA3F0E52E48
:200F6200A3F090807DE513F0E514A3F0E515A3F0E516A3F0908081E527F0E528A3F0E52985
:200F8200A3F0E52AA3F09080857480F0908086F0908087F08533821208A8908079E52BF00F
:200FA200E52CA3F0E52DA3F0E52EA3F090807DE51BF0E51CA3F0E51DA3F0E51EA3F09080F4
:200FC20081E51FF0E520A3F0E521A3F0E522A3F09080857480F0908086F0908087F0853391
:200FE200821208A8908079E517F0E518A3F0E519A3F0E51AA3F090807DE51BF0E51CA3F072
:20100200E51DA3F0E51EA3F0908081E52FF0E530A3F0E531A3F0E532A3F09080857480F09A
:20102200908086F0908087F08533821208A8908079E517F0E518A3F0E519A3F0E51AA3F07D
:2010420090807DE513F0E514A3F0E515A3F0E516A3F0908081E523F0E524A3F0E525A3F0B0
:20106200E526A3F09080857480F0908086F0908087F08533821208A8908079E52BF0E52CB4
:20108200A3F0E52DA3F0E52EA3F090807DE513F0E514A3F0E515A3F0E516A3F0908081E5DE
:2010A20027F0E528A3F0E529A3F0E52AA3F09080857480F0908086F0908087F08533821262
:2010C20008A8907F0175F000E533121757A37404121757907F00740E121757908079E52B0C
:2010E200F0E52CA3F0E52DA3F0E52EA3F090807DE513F0E514A3F0E515A3F0E516A3F09063
:201102008081E527F0E528A3F0E529A3F0E52AA3F09080857480F0908086F0908087F085E2
:201122000E821208A8908079E52BF0E52CA3F0E52DA3F0E52EA3F090807DE51BF0E51CA3C2
:20114200F0E51DA3F0E51EA3F0908081E51FF0E520A3F0E521A3F0E522A3F0908085748099
:20116200F0908086F0908087F0850E821208A8908079E517F0E518A3F0E519A3F0E51AA361
:20118200F090807DE513F0E514A3F0E515A3F0E516A3F0908081E523F0E524A3F0E525A36F
:2011A200F0E526A3F09080857480F0908086F0908087F0850E821208A8907F0175F000E5E8
:2011C2000E121757A3E4121757F582F5F0740E121757908079E517F0E518A3F0E519A3F084
:2011E200E51AA3F090807DE51BF0E51CA3F0E51DA3F0E51EA3F0908081E52FF0E530A3F0E2
:20120200E531A3F0E532A3F09080857480F0908086F0908087F0850E821208A8907F017597
:20122200F000E50E121757A3E4121757F582F5F0740E121757C017C018C019C01A852B8250
:20124200852C83852DF0E52E121772A882AA83ADF0FFE58124FCF581E4C0E0C0E0C0E074E1
:2012620040C0E088828A838DF0EF12184185820F85831085F011F512E58124FCF581C01B0C
:20128200C01CC01DC01E8513828514838515F0E516121772A882AA83ADF0FFE58124FCF5F1
:2012A20081E4C0E0C0E0C0E07440C0E088828A838DF0EF12184185823485833585F036F58D
:2012C20037E58124FCF581C01FC020C021C0228527828528838529F0E52A121772A882AADD
:2012E20083ADF0FFE58124FCF581C023C024C025C02688828A838DF0EF121772A982AA83C9
:20130200ADF0FFE58124FCF581C02FC030C031C03289828A838DF0EF121772A982AA83AD4D
:20132200F0FFE58124FCF581E4C0E0C0E07480C0E003C0E089828A838DF0EF121841A9824B
:20134200AA83ADF0FFE58124FCF581D006908079E52BF0E52CA3F0E52DA3F0E52EA3F090E8
:20136200807DE51BF0E51CA3F0E51DA3F0E51EA3F0908081E51FF0E520A3F0E521A3F0E524
:2013820022A3F09080857480F0908086F0908087F08E82C007C006C005C002C0011208A869
:2013A200D001D002D005D006908079E52BF0E52CA3F0E52DA3F0E52EA3F090807DE513F0F0
:2013C200E514A3F0E515A3F0E516A3F0908081E527F0E528A3F0E529A3F0E52AA3F09080E4
:2013E200857480F0908086F0908087F08E82C006C005C002C0011208A8D001D002D005D04D
:2014020006D007908079E50FF0E510A3F0E511A3F0E512A3F090807DE534F0E535A3F0E5BD
:2014220036A3F0E537A3F0908081E9F0EAA3F0EDA3F0EFA3F09080857480F0908086F090BA
:201442008087F08E82C007C006C005C002C0011208A8D001D002D005D006907F0175F00029
:20146200EE121757A3E4121757F582F5F0740E121757908079E517F0E518A3F0E519A3F001
:20148200E51AA3F090807DE513F0E514A3F0E515A3F0E516A3F0908081E523F0E524A3F077
:2014A200E525A3F0E526A3F09080857480F0908086F0908087F08E82C006C005C002C0014B
:2014C2001208A8D001D002D005D006907F0175F000EE121757A3E4121757F582F5F0740E32
:2014E200121757908079E517F0E518A3F0E519A3F0E51AA3F090807DE51BF0E51CA3F0E54C
:201502001DA3F0E51EA3F0908081E52FF0E530A3F0E531A3F0E532A3F09080857480F090EA
:201522008086F0908087F08E82C006C005C002C0011208A8D001D002D005D006D007908017
:2015420079E50FF0E510A3F0E511A3F0E512A3F090807DE534F0E535A3F0E536A3F0E53784
:20156200A3F0908081E9F0EAA3F0EDA3F0EFA3F09080857480F0908086F0908087F08E8257
:20158200C0061208A8D006907F0175F000EE121757A3E4121757F582F5F0740E1217579013
:2015A2008079E52BF0E52CA3F0E52DA3F0E52EA3F090807DE51BF0E51CA3F0E51DA3F0E5B6
:2015C2001EA3F0908081E51FF0E520A3F0E521A3F0E522A3F09080857480F0908086F09079
:2015E2008087F08E82C0061208A8D006907F0175F000EE121757A3E4121757F582F5F074CA
:201602000E1217579080BEE50CF0E50DA3F09080BEE0FDA3E0FFC3ED940AEF648094805054
:2016220003020C927401250AFBE4350BFCC3EB940AEC648094805003020C7B907F0075F0C6
:061642000074FD021757C1
:0B164800A8811818C6B2E7C60217728E
:201653001216F6BC00030217F9EF60FA30D502B2D1E583B4FF0302180FE582B4FF03021837
:201673000F258340072482400B0217F9248314500302180FF582EA8DF0A4A8F0EA8EF0A4F9
:2016930028F8E435F0F9EB8DF0A428E935F0F9E433CA8FF0A429F9EA35F0FAEBF88EF0A4A6
:2016B30029F9EA35F0FAE433FBEC8DF0A429F9EA35F0FAE43BFBE88FF0A42AFAEB35F0FB4E
:2016D300E433CCFD8EF0A42AFAEB35F0FBE43CFCED8FF0A42BFBEC35F0FC20E70312172410
:0316F3000217D803
:2016F600AA82AB83A2F73392D1F5826002D2F7ACF0E58124F9F8E6FD08E6FE0886F008E657
:0E171600A2F73392D5F5836002D2F7AFF0222E
:06003500E478FFF6D8FD9F
:201724007804EC7011E58224F8500AF582E4C9CACBFCD8EF22EC7820058220E713D58201C4
:1317440022C3E933F9EA33FAEB33FBEC33FCD8EA158222D2
:200013007900E94400601B7A0090199478C175A080E493F2A308B8000205A0D9F4DAF275A6
:02003300A0FF2C
:1B17570020F71130F6138883A88220F509F6A8837583002280FEF280F5F02291
:20003B007800E84400600A790075A080E4F309D8FC78C1E84400600C7901908000E4F0A303
:04005B00D8FCD9FAFA
:201772001216F67900E583B58202800D5003121827E583C3958212194DE5D0C465D020E185
:2017920017EA2DFAEB3EFBEC3FFC5009740112194DEC4480FC0217D8C3EA9DFAEB9EFBEC2D
:1917B2009FFC500FC3E499F9E49AFAE49BFBE49CFCB2D11217240217D8BC
:0D17CB00AC83AB827A007900748E0219297C
:2017D800B98003EA13B34010EA2401FAE43BFBE43CFC50047C800582BC000EBB000BBA0055
:2017F80008E4F5F0F583F58222A2D1E582138CF092F78B838A8222E4F583F58275F080F415
:0F181800A2D11322E4F583F58275F0C0747F220C
:1A182700E582C583F582A2D133A2D592D11392D5ECCFFCEBCEFBEACDFA2249
:201841001216F630D502B2D1BF0009BC000302181C02180FBC00030217F9E583B4FF0BE51D
:2018610082B4FF0302181C0217F9E582B4FF0302180FC395835007247F400B0217F92480CB
:2018810014500302180FF582C3ED9AEE9BEF9C40111582C3EA33F9EB33FAEC33FBE433FCDC
:2018A1008005E4CCCBCAF9C08275F019C3E99DEA9EEB9FEC9400D5F002802D400EE99DF988
:2018C100EA9EFAEB9FFBEC9400FCC3B3E833F8E58233F582E58333F583C3E933F9EA33FAE8
:2018E100EB33FBEC33FC80C4B3E4F938FAE43582FBE43583FCD082500405827C8012172409
:031901000217F0DA
:0D00060075813A121990E582600302000333
:1C19040020F71430F6148883A88220F507E6A88375830022E280F7E49322E022F2
:20192000FCABF0AA83A982749EF582C2D1EC30E716D2D1E9F42401F9EAF43400FAEBF434C6
:0D19400000FBECF43400FC1217240217D851
:20194D006040F82582500274FFF582E824F8501ECCCBCAF9E4CC24F85014CBCAF9E4CB24A2
:20196D00F8500BCAF9E4CA24F8500379002224086010F8C3EC13FCEB13FBEA13FAE913F955
:03198D00D8F1226C
:04199000758200223A
:00000001FF
