:03000000020006F5
:03005F0002000399
:03000300020C2DBF
:20006200907F0075F00074F71213D0907F08E0F58222E582908000F0E0FF907F0175F0005F
:20008200EF1213D0158274FC1213D0907F08E0FCA3E0FDA3E0FEA3E08C828D838EF02290B9
:2000A2007F0075F00074FA0213D0AFF0AE83E582908001F0EEA3F0EFA3F0907F0175F00057
:2000C200740B1213D0908001E0FDA3E0FEA3E0FF7C00EC2DF9E43EFA8F0389828A838BF0EA
:2000E2001213EBFB6013907F08EBF0907F0075F00074FB1213D00C80D922E582908004F0C4
:20010200E0907F08F0907F01E4F5F01213D01582F5F074FB0213D0E582908005F0E0907FFD
:2001220008F0907F0175F00074011213D0158274FB0213D0E582908006F0E0907F08F09017
:200142007F0175F00074021213D0158274FB0213D0E582908007F0E0907F08F0907F017588
:20016200F00074031213D0158274FB0213D0AF83E582908008F0EFA3F0908008E0FEA3E09A
:20018200FF907F08EEF0EFA3F0907F0175F00074041213D01582F40213D0AF83E5829080EC
:2001A2000AF0EFA3F090800AE0FEA3E0FF907F08EEF0EFA3F0907F0175F00074051213D0ED
:2001C200158274FB0213D0AF83E58290800CF0EFA3F090800CE0FEA3E0FF907F08EEF0EFAB
:2001E200A3F0907F0175F00074061213D0158274FB0213D0AF83E58290800EF0EFA3F090E2
:20020200800EE0FEA3E0FF907F08EEF0EFA3F0907F0175F00074071213D0158274FB021377
:20022200D0AF82AE83ADF0FC908010EFF0EEA3F0EDA3F0ECA3F0908010E0FCA3E0FDA3E073
:20024200FEA3E0FF907F08ECF0EDA3F0EEA3F0EFA3F0907F0175F00074081213D0158274B5
:20026200FB0213D0AF82AE83ADF0FC908014EFF0EEA3F0EDA3F0ECA3F0908014E0FCA3E09B
:20028200FDA3E0FEA3E0FF907F08ECF0EDA3F0EEA3F0EFA3F0907F0175F00074091213D0FF
:2002A200158274FB0213D0AF82AE83ADF0FC908018EFF0EEA3F0EDA3F0ECA3F0908018E0C7
:2002C200FCA3E0FDA3E0FEA3E0FF907F08ECF0EDA3F0EEA3F0EFA3F0907F0175F000740A34
:2002E2001213D0158274FB0213D0AFF0AE83E58290801EF0EEA3F0EFA3F0907F0175F0004F
:20030200740B1213D0158274F81213D0907F08E0FEA3E0FF908021EEF0EFA3F090801CE05B
:20032200FCA3E0FDC3EC9EED9F5008908021ECF0EDA3F090801EE0FDA3E0FEA3E0FF908063
:200342001EE0F5F0A3E045F06064908021E0FBA3E0FC79007A00C3E99BEA9C5034C003C0EA
:2003620004907F0075F00074F91213D0E92DF50EEA3EF50F8F10907F08E0850E82850F839A
:200382008510F01213D009B900010AD004D00380C590801EE0FDA3E0FEA3E0FFEB2DFBEC1B
:2003A2003EFC8F028B828C838AF0E41213D0908021E0FEA3E08E82F58322907F01E4F5F0EC
:2003C2001213D01582F5F074F81213D0907F08E0F58222907F0175F00074011213D0158243
:2003E20074F81213D0907F08E0F58222907F0175F00074021213D0158274F81213D0907F23
:2004020008E0F58222907F0175F00074031213D0158274F81213D0907F08E0F58222907FE1
:200422000175F00074041213D0158274F81213D0907F08E0FEA3E08E82F58322907F017548
:20044200F00074051213D0158274F81213D0907F08E0FEA3E08E82F58322907F0175F000AD
:2004620074061213D0158274F81213D0907F08E0FEA3E08E82F58322907F0175F000740701
:200482001213D01582F41213D0907F08E0FEA3E08E82F58322907F0175F00074081213D0DD
:2004A200158274F81213D0907F08E0FCA3E0FDA3E0FEA3E08C828D838EF022907F0175F098
:2004C2000074091213D0158274F81213D0907F08E0FCA3E0FDA3E0FEA3E08C828D838EF09D
:2004E20022907F0175F000740A1213D0158274F81213D0907F08E0FCA3E0FDA3E0FEA3E081
:200502008C828D838EF022E582908023F0E0FF907F0175F000EF1213D0158274040213D065
:20052200E582908026F0E0FF907F0175F000EF1213D0908024E0907F021213D0908025E0C5
:20054200907F031213D0907F0074050213D0E582908028F0E0FF907F0175F000EF1213D05E
:20056200908027E0907F021213D0907F0074060213D0E58290802CF090802BE0FF90802C05
:20058200E0FE907F0175F000EE1213D0908029E0907F021213D090802AE0907F031213D0E3
:2005A200A3E41213D0907F08EFF0907F0074070213D0E582908030F090802FE0FF90803063
:2005C200E0FE907F0175F000EE1213D090802DE0907F021213D090802EE0907F031213D09B
:2005E200A374011213D0907F08EFF0907F0074070213D0E582908034F0908033E0FF9080BA
:2006020034E0FE907F0175F000EE1213D0908031E0907F021213D0908032E0907F031213EE
:20062200D0A374021213D0907F08EFF0907F0074070213D0E582908038F0908037E0FF9020
:200642008038E0FE907F0175F000EE1213D0908035E0907F021213D0908036E0907F031235
:2006620013D0A374031213D0907F08EFF0907F0074070213D0E58290803DF090803BE0FE54
:20068200A3E0FF90803DE0FD907F0175F000ED1213D0908039E0907F021213D090803AE0FC
:2006A200907F031213D0A374041213D0907F08EEF0EFA3F0907F0074070213D0E5829080C4
:2006C20042F0908040E0FEA3E0FF908042E0FD907F0175F000ED1213D090803EE0907F0271
:2006E2001213D090803FE0907F031213D0A374051213D0907F08EEF0EFA3F0907F007407BB
:200702000213D0E582908047F0908045E0FEA3E0FF908047E0FD907F0175F000ED1213D004
:20072200908043E0907F021213D0908044E0907F031213D0A374061213D0907F08EEF0EF4D
:20074200A3F0907F0074070213D0E58290804CF090804AE0FEA3E0FF90804CE0FD907F01DF
:2007620075F000ED1213D0908048E0907F021213D0908049E0907F031213D0A3740712136F
:20078200D0907F08EEF0EFA3F0907F0074070213D0E582908053F090804FE0FCA3E0FDA389
:2007A200E0FEA3E0FF908053E0FB907F0175F000EB1213D090804DE0907F021213D09080F1
:2007C2004EE0907F031213D0A374081213D0907F08ECF0EDA3F0EEA3F0EFA3F0907F0074D5
:2007E200070213D0E58290805AF0908056E0FCA3E0FDA3E0FEA3E0FF90805AE0FB907F0130
:2008020075F000EB1213D0908054E0907F021213D0908055E0907F031213D0A374091213B6
:20082200D0907F08ECF0EDA3F0EEA3F0EFA3F0907F0074070213D0E582908061F090805DCC
:20084200E0FCA3E0FDA3E0FEA3E0FF908061E0FB907F0175F000EB1213D090805BE0907F3C
:20086200021213D090805CE0907F031213D0A3740A1213D0907F08ECF0EDA3F0EEA3F0EF33
:20088200A3F0907F0074070213D0E582908067F0908064E0FDA3E0FEA3E0FF908064E0F5E9
:2008A200F0A3E045F06018C007C006C0051200A1D005D006D0078D828E838FF01200AC90A2
:2008C2008067E0FF907F0175F000EF1213D0908062E0907F021213D0908063E0907F031228
:2008E20013D0A3740B1213D0907F0074070213D0E58290806AF0E0FF907F0175F000EF1267
:2009020013D0908068E0907F021213D0908069E0907F031213D0A3E41213D0F582F5F074E8
:20092200081213D0907F08E0F58222E58290806DF0E0FF907F0175F000EF1213D090806BA1
:20094200E0907F021213D090806CE0907F031213D0A374011213D0907F0074081213D0902F
:200962007F08E0F58222E582908070F0E0FF907F0175F000EF1213D090806EE0907F0212E5
:2009820013D090806FE0907F031213D0A374021213D0907F0074081213D0907F08E0F58210
:2009A20022E582908073F0E0FF907F0175F000EF1213D0908071E0907F021213D090807218
:2009C200E0907F031213D0A374031213D0907F0074081213D0907F08E0F58222E582908098
:2009E20076F0E0FF907F0175F000EF1213D0908074E0907F021213D0908075E0907F031264
:200A020013D0A374041213D0907F00231213D0907F08E0FEA3E08E82F58322E582908079A8
:200A2200F0E0FF907F0175F000EF1213D0908077E0907F021213D0908078E0907F03121380
:200A4200D0A374051213D0907F0074081213D0907F08E0FEA3E08E82F58322E58290807C1E
:200A6200F0E0FF907F0175F000EF1213D090807AE0907F021213D090807BE0907F0312133A
:200A8200D0A374061213D0907F0074081213D0907F08E0FEA3E08E82F58322E58290807FDA
:200AA200F0E0FF907F0175F000EF1213D090807DE0907F021213D090807EE0907F031213F4
:200AC200D0A374071213D0907F00041213D0907F08E0FEA3E08E82F58322E582908082F01E
:200AE200E0FF907F0175F000EF1213D0908080E0907F021213D0908081E0907F031213D0CE
:200B0200A374081213D0907F001213D0907F08E0FCA3E0FDA3E0FEA3E08C828D838EF02286
:200B2200E582908085F0E0FF907F0175F000EF1213D0908083E0907F021213D0908084E0A2
:200B4200907F031213D0A374091213D0907F00141213D0907F08E0FCA3E0FDA3E0FEA3E0E8
:200B62008C828D838EF022E582908088F0E0FF907F0175F000EF1213D0908086E0907F0207
:200B82001213D0908087E0907F031213D0A3740A1213D0907F0074081213D0907F08E0FC57
:200BA200A3E0FDA3E0FEA3E08C828D838EF022E582908090F0E0FF907F0175F000EF121392
:200BC200D0908089E0907F021213D090808AE0907F031213D0A3740B1213D0907F007408A1
:200BE2001213D090808BE0FDA3E0FEA3E0FF90808EE0FBA3E0FC90801CEBF0ECA3F08D82F6
:200C02008E838FF00202ECE582908092F0E0FF907F0175F000EF1213D0908091E0907F028F
:200C22001213D0907F0074090213D0120062AF828F060E8F82C007C006120509D006D00799
:200C42009080247401F0908025E4F08F82C007C006120522D006D0079080437401F09080A4
:200C620044747FF09080457406F0E4A3F08F82C007C006120705D006D0079080627401F0D5
:200C8200908063E4F0908064740BF07414A3F07480A3F08F82C007C00612088CD0068E825C
:200CA200C006120509D0069080247401F0908025E4F08E82C006120522D006908043740127
:200CC200F0908044747FF09080457406F0E4A3F08E82C006120705D0069080627401F09084
:200CE2008063E4F0908064740BF07414A3F07480A3F08E82C00612088CD006D007908093EA
:200D02007401F0E4A3F0A3F0A3F090809704F0E4A3F0A3F0A3F09083B314F0A3F09083B374
:200D2200E0FCA3E0FD9083B8E0FAA3E0FBC3EC9AED64808BF063F08095F040030213C59098
:200D420083B5E4F0A3F09083B5E0FCA3E0FD9083B3E0FAA3E0FBC3EC9AED64808BF063F0C8
:200D62008095F04003020DF3C006EC2CFAED33FBEA2AFAEB33FBEA2423F508EB3482F50940
:200D8200EA2493F582EB3480F583E0F50AA3E0F50BA3E0F50CA3E0F50D0CBC00010DEC2CC9
:200DA200FCED33FDEC2CFCED33FDEC2493F582ED3480F583E0F8A3E0FCA3E0FDA3E0FEE874
:200DC200250AF8EC350BFCED350CFDEE350DFE850882850983E8F0ECA3F0EDA3F0EEA3F0F1
:200DE2009083B5E02401F0A3E03400F0D006020D489080937401F0E4A3F0A3F0A3F09083A8
:200E0200B3E0FCA3E0FD0CBC00010DEC2CFCED33FDEC2CFCED33FDEC2493F582ED3480F5D9
:200E2200837401F0E4A3F0A3F0A3F09083B5F0A3F09083B5E0FCA3E0FD9083B3E0FAA3E099
:200E4200FBC3EC9AED64808BF063F08095F0505974012CFAE43DFBEA2AFAEB33FBEA2AFA13
:200E6200EB33FBEA2493FAEB3480FBEC2CFCED33FDEC2CFCED33FDEC2423F582ED3482F57E
:200E820083E0F8A3E0F9A3E0FCA3E0FD8A828B83E8F0E9A3F0ECA3F0EDA3F09083B5E02441
:200EA20001F0A3E03400F080889083B57402F0E4A3F09083B3E0FCA3E0FD9083B8E0FAA381
:200EC200E0FBEAC39CFCEB9DFD9083B5E0FAA3E0FBC3EC9AED64808BF063F08095F04055C9
:200EE2009080317401F09080327403F09080337420F08E82C007C0061205F5D006D00790F4
:200F020080627401F09080637403F0908064740CF07414A3F07480A3F08F82C007C0061278
:200F2200088CD006D0079083B5E02401F0A3E03400F0020EB49083B5E4F0A3F09083B3E071
:200F4200FCA3E0FD0CBC00010D9083B5E0FAA3E0FBC3EC9AED64808BF063F08095F05003DD
:200F620002136C9080627401F09080637403F09080647413F07414A3F07480A3F08F82C0DF
:200F820007C00612088CD006D0079083B5E0FCA3E0FDEC2CFCED33FDEC2CFCED33FDEC2499
:200FA20093F582ED3480F583E0A3E0FBA3E0FCA3E0FDC3EB94CAEC949AED943B501F90804E
:200FC200317401F09080327403F09080337420F08F82C007C0061205F5D006D0079083B5EA
:200FE200E0FCA3E0FDEC2CFCED33FDEC2CFCED33FDEC2493F582ED3480F583E0A3E0FBA3FD
:20100200E0FCA3E0FDC3EB94E1EC94F5ED9405501F9080317401F09080327403F090803353
:201022007420F08F82C007C0061205F5D006D0079083B5E0FCA3E0FDEC2CFCED33FDEC2C66
:20104200FCED33FDEC2493F582ED3480F583E0FAA3E0FBA3E0FCA3E0FDC3EA9480EB949615
:20106200EC9498ED9400501F9080317401F09080327403F09080337420F08F82C007C006B2
:201082001205F5D006D0079083B5E0FCA3E0FDEC2CFCED33FDEC2CFCED33FDEC2493F582F5
:2010A200ED3480F583E0FAA3E0FBA3E0FCA3E0FDC3EA9440EB9442EC940FED9400501F906D
:2010C20080317401F09080327403F09080337420F08F82C007C0061205F5D006D00790831E
:2010E200B5E0FCA3E0FDEC2CFCED33FDEC2CFCED33FDEC2493F582ED3480F583E0FAA3E0EB
:20110200FBA3E0FCA3E0FDC3EA94A0EB9486EC9401ED9400501F9080317401F09080327420
:2011220003F09080337420F08F82C007C0061205F5D006D0079083B5E0FCA3E0FDEC2CFC64
:20114200ED33FDEC2CFCED33FDEC2493F582ED3480F583E0FAA3E0FBA3E0FCA3E0FDC3EA08
:201162009410EB9427EC9400ED9400501F9080317401F09080327403F09080337420F08F0E
:2011820082C007C0061205F5D006D0079083B5E0FCA3E0FDEC2CFCED33FDEC2CFCED33FDFF
:2011A200EC2493F582ED3480F583E0FAA3E0FBA3E0FCA3E0FDC3EA94E8EB9403EC9400ED8B
:2011C2009400501F9080317401F09080327403F09080337420F08F82C007C0061205F5D07A
:2011E20006D0079083B5E0FCA3E0FDEC2CFCED33FDEC2CFCED33FDEC2493F582ED3480F5DA
:2012020083E0FAA3E0FBA3E0FCA3E0FDC3EA9464EB9400EC9400ED9400501F9080317401A8
:20122200F09080327403F09080337420F08F82C007C0061205F5D006D0079083B5E0FCA3AE
:20124200E0FDEC2CFCED33FDEC2CFCED33FDEC2493F582ED3480F583E0FAA3E0FBA3E0FC43
:20126200A3E0FDC3EA940AEB9400EC9400ED9400501F9080317401F09080327403F0908053
:20128200337420F08F82C007C0061205F5D006D0079083B5E0FCA3E0FDEC2CFCED33FDECFD
:2012A2002CFCED33FDEC2493F582ED3480F583E0FAA3E0FBA3E0FCA3E0FD9080547401F094
:2012C2009080557403F0908056EAF0EBA3F0ECA3F0EDA3F08F82C007C0061207E6D006D040
:2012E200079083B5E0FCA3E0FDEC2CFCED33FDEC2CFCED33FDEC2493F582ED3480F583E04C
:20130200FAA3E0A3E0A3E0EA20E0299080627401F09080637403F09080647413F07414A36E
:20132200F07480A3F08E82C007C00612088CD006D00780279080627401F09080637403F0EC
:201342009080647416F07414A3F07480A3F08E82C007C00612088CD006D0079083B5E0243F
:2013620001F0A3E03400F0020F3E9080627401F09080637403F09080647419F07414A3F0C7
:201382007480A3F08F82C007C00612088CD0069080627401F09080637403F09080647419F8
:2013A200F07414A3F07480A3F08E82C00612088CD006D0079083B3E02401F0A3E03400F00E
:0E13C200020D1F907F0075F00074FD0213D025
:12140B0000202020202020002020005B5D000A001F00EE
:06003500E478FFF6D8FD9F
:200013007902E94400601B7A0190141B78B875A083E493F2A308B8000205A0D9F4DAF27527
:02003300A0FF2C
:1B13D00020F71130F6138883A88220F509F6A8837583002280FEF280F5F0221C
:20003B007800E84400600A790075A080E4F309D8FC78B8E84403600C7904908000E4F0A306
:04005B00D8FCD9FAFA
:0D000600758110121407E5826003020003EB
:1C13EB0020F71430F6148883A88220F507E6A88375830022E280F7E49322E02211
:0414070075820022C8
:00000001FF
