:03000000020006F5
:03005F0002000399
:030003000239239C
:20006200907F0075F00074F71258EB907F08E0F58222E582908000F0E0FF907F0175F000FF
:20008200EF1258EB158274FC1258EB907F08E0FCA3E0FDA3E0FEA3E08C828D838EF02290F9
:2000A2007F0075F00074FA0258EBAFF0AE83E582908001F0EEA3F0EFA3F0907F0175F000F7
:2000C200740B1258EB908001E0FDA3E0FEA3E0FF7C00EC2DF9E43EFA8F0389828A838BF08A
:2000E200125BACFB6013907F08EBF0907F0075F00074FB1258EB0C80D922E582908004F05B
:20010200E0907F08F0907F01E4F5F01258EB1582F5F074FB0258EBE582908005F0E0907F3D
:2001220008F0907F0175F00074011258EB158274FB0258EBE582908006F0E0907F08F09057
:200142007F0175F00074021258EB158274FB0258EBE582908007F0E0907F08F0907F0175C8
:20016200F00074031258EB158274FB0258EBAF83E582908008F0EFA3F0908008E0FEA3E0DA
:20018200FF907F08EEF0EFA3F0907F0175F00074041258EB1582F40258EBAF83E58290802C
:2001A2000AF0EFA3F090800AE0FEA3E0FF907F08EEF0EFA3F0907F0175F00074051258EB8D
:2001C200158274FB0258EBAF83E58290800CF0EFA3F090800CE0FEA3E0FF907F08EEF0EF4B
:2001E200A3F0907F0175F00074061258EB158274FB0258EBAF83E58290800EF0EFA3F09022
:20020200800EE0FEA3E0FF907F08EEF0EFA3F0907F0175F00074071258EB158274FB0258D2
:20022200EBAF82AE83ADF0FC908010EFF0EEA3F0EDA3F0ECA3F0908010E0FCA3E0FDA3E058
:20024200FEA3E0FF907F08ECF0EDA3F0EEA3F0EFA3F0907F0175F00074081258EB15827455
:20026200FB0258EBAF82AE83ADF0FC908014EFF0EEA3F0EDA3F0ECA3F0908014E0FCA3E03B
:20028200FDA3E0FEA3E0FF907F08ECF0EDA3F0EEA3F0EFA3F0907F0175F00074091258EB9F
:2002A200158274FB0258EBAF82AE83ADF0FC908018EFF0EEA3F0EDA3F0ECA3F0908018E067
:2002C200FCA3E0FDA3E0FEA3E0FF907F08ECF0EDA3F0EEA3F0EFA3F0907F0175F000740A34
:2002E2001258EB158274FB0258EBAFF0AE83E58290801EF0EEA3F0EFA3F0907F0175F0008F
:20030200740B1258EB158274F81258EB907F08E0FEA3E0FF908021EEF0EFA3F090801CE09B
:20032200FCA3E0FDC3EC9EED9F5008908021ECF0EDA3F090801EE0FDA3E0FEA3E0FF908063
:200342001EE0F5F0A3E045F06064908021E0FBA3E0FC79007A00C3E99BEA9C5034C003C0EA
:2003620004907F0075F00074F91258EBE92DF523EA3EF5248F25907F08E0852382852483D1
:200382008525F01258EB09B900010AD004D00380C590801EE0FDA3E0FEA3E0FFEB2DFBECA6
:2003A2003EFC8F028B828C838AF0E41258EB908021E0FEA3E08E82F58322907F01E4F5F08C
:2003C2001258EB1582F5F074F81258EB907F08E0F58222907F0175F00074011258EB158223
:2003E20074F81258EB907F08E0F58222907F0175F00074021258EB158274F81258EB907F03
:2004020008E0F58222907F0175F00074031258EB158274F81258EB907F08E0F58222907F21
:200422000175F00074041258EB158274F81258EB907F08E0FEA3E08E82F58322907F017588
:20044200F00074051258EB158274F81258EB907F08E0FEA3E08E82F58322907F0175F000ED
:2004620074061258EB158274F81258EB907F08E0FEA3E08E82F58322907F0175F000740741
:200482001258EB1582F41258EB907F08E0FEA3E08E82F58322907F0175F00074081258EBBD
:2004A200158274F81258EB907F08E0FCA3E0FDA3E0FEA3E08C828D838EF022907F0175F038
:2004C2000074091258EB158274F81258EB907F08E0FCA3E0FDA3E0FEA3E08C828D838EF0DD
:2004E20022907F0175F000740A1258EB158274F81258EB907F08E0FCA3E0FDA3E0FEA3E0C1
:200502008C828D838EF022E582908023F0E0FF907F0175F000EF1258EB158274040258EBA5
:20052200E582908026F0E0FF907F0175F000EF1258EB908024E0907F021258EB908025E005
:20054200907F031258EB907F0074050258EBE582908028F0E0FF907F0175F000EF1258EB3E
:20056200908027E0907F021258EB907F0074060258EBE58290802CF090802BE0FF90802C45
:20058200E0FE907F0175F000EE1258EB908029E0907F021258EB90802AE0907F031258EBC3
:2005A200A3E41258EB907F08EFF0907F0074070258EBE582908030F090802FE0FF908030A3
:2005C200E0FE907F0175F000EE1258EB90802DE0907F021258EB90802EE0907F031258EB7B
:2005E200A374011258EB907F08EFF0907F0074070258EBE582908034F0908033E0FF9080FA
:2006020034E0FE907F0175F000EE1258EB908031E0907F021258EB908032E0907F031258E9
:20062200EBA374021258EB907F08EFF0907F0074070258EBE582908038F0908037E0FF9045
:200642008038E0FE907F0175F000EE1258EB908035E0907F021258EB908036E0907F031275
:2006620058EBA374031258EB907F08EFF0907F0074070258EBE58290803DF090803BE0FE34
:20068200A3E0FF90803DE0FD907F0175F000ED1258EB908039E0907F021258EB90803AE03C
:2006A200907F031258EBA374041258EB907F08EEF0EFA3F0907F0074070258EBE5829080A4
:2006C20042F0908040E0FEA3E0FF908042E0FD907F0175F000ED1258EB90803EE0907F0211
:2006E2001258EB90803FE0907F031258EBA374051258EB907F08EEF0EFA3F0907F0074079B
:200702000258EBE582908047F0908045E0FEA3E0FF908047E0FD907F0175F000ED1258EB44
:20072200908043E0907F021258EB908044E0907F031258EBA374061258EB907F08EEF0EF2D
:20074200A3F0907F0074070258EBE58290804CF090804AE0FEA3E0FF90804CE0FD907F017F
:2007620075F000ED1258EB908048E0907F021258EB908049E0907F031258EBA3740712580A
:20078200EB907F08EEF0EFA3F0907F0074070258EBE582908053F090804FE0FCA3E0FDA30E
:2007A200E0FEA3E0FF908053E0FB907F0175F000EB1258EB90804DE0907F021258EB908031
:2007C2004EE0907F031258EBA374081258EB907F08ECF0EDA3F0EEA3F0EFA3F0907F007415
:2007E200070258EBE58290805AF0908056E0FCA3E0FDA3E0FEA3E0FF90805AE0FB907F01D0
:2008020075F000EB1258EB908054E0907F021258EB908055E0907F031258EBA37409125851
:20082200EB907F08ECF0EDA3F0EEA3F0EFA3F0907F0074070258EBE582908061F090805D51
:20084200E0FCA3E0FDA3E0FEA3E0FF908061E0FB907F0175F000EB1258EB90805BE0907FDC
:20086200021258EB90805CE0907F031258EBA3740A1258EB907F08ECF0EDA3F0EEA3F0EF13
:20088200A3F0907F0074070258EBE582908067F0908064E0FDA3E0FEA3E0FF908064E0F589
:2008A200F0A3E045F06018C007C006C0051200A1D005D006D0078D828E838FF01200AC90A2
:2008C2008067E0FF907F0175F000EF1258EB908062E0907F021258EB908063E0907F031268
:2008E20058EBA3740B1258EB907F0074070258EBE58290806AF0E0FF907F0175F000EF1247
:2009020058EB908068E0907F021258EB908069E0907F031258EBA3E41258EBF582F5F07468
:20092200081258EB907F08E0F58222E58290806DF0E0FF907F0175F000EF1258EB90806BE1
:20094200E0907F021258EB90806CE0907F031258EBA374011258EB907F0074081258EB90AF
:200962007F08E0F58222E582908070F0E0FF907F0175F000EF1258EB90806EE0907F021285
:2009820058EB90806FE0907F031258EBA374021258EB907F0074081258EB907F08E0F58290
:2009A20022E582908073F0E0FF907F0175F000EF1258EB908071E0907F021258EB90807258
:2009C200E0907F031258EBA374031258EB907F0074081258EB907F08E0F58222E582908078
:2009E20076F0E0FF907F0175F000EF1258EB908074E0907F021258EB908075E0907F0312A4
:200A020058EBA374041258EB907F00231258EB907F08E0FEA3E08E82F58322E58290807988
:200A2200F0E0FF907F0175F000EF1258EB908077E0907F021258EB908078E0907F0312587B
:200A4200EBA374051258EB907F0074081258EB907F08E0FEA3E08E82F58322E58290807C43
:200A6200F0E0FF907F0175F000EF1258EB90807AE0907F021258EB90807BE0907F03125835
:200A8200EBA374061258EB907F0074081258EB907F08E0FEA3E08E82F58322E58290807FFF
:200AA200F0E0FF907F0175F000EF1258EB90807DE0907F021258EB90807EE0907F031258EF
:200AC200EBA374071258EB907F00041258EB907F08E0FEA3E08E82F58322E582908082F043
:200AE200E0FF907F0175F000EF1258EB908080E0907F021258EB908081E0907F031258EBAE
:200B0200A374081258EB907F001258EB907F08E0FCA3E0FDA3E0FEA3E08C828D838EF022C6
:200B2200E582908085F0E0FF907F0175F000EF1258EB908083E0907F021258EB908084E0E2
:200B4200907F031258EBA374091258EB907F00141258EB907F08E0FCA3E0FDA3E0FEA3E0C8
:200B62008C828D838EF022E582908088F0E0FF907F0175F000EF1258EB908086E0907F02A7
:200B82001258EB908087E0907F031258EBA3740A1258EB907F0074081258EB907F08E0FCD7
:200BA200A3E0FDA3E0FEA3E08C828D838EF022E582908090F0E0FF907F0175F000EF12584D
:200BC200EB908089E0907F021258EB90808AE0907F031258EBA3740B1258EB907F00740866
:200BE2001258EB90808BE0FDA3E0FEA3E0FF90808EE0FBA3E0FC90801CEBF0ECA3F08D8296
:200C02008E838FF00202ECE582908092F0E0FF907F0175F000EF1258EB908091E0907F022F
:200C22001258EB907F0074090258EBE582908099F0908093E0907F10F0908094E0907F184F
:200C4200F0908095E0907F20F0908099E0FF907F0175F000EF1258EBA3E41258EB9080963B
:200C6200E0907F031258EB908097E0907F041258EB908098E0907F051258EB907F00740DBB
:200C82000258EBE5829080A0F090809AE0907F10F090809BE0907F18F090809CE0907F2010
:200CA200F09080A0E0FF907F0175F000EF1258EBA374011258EB90809DE0907F031258EB99
:200CC20090809EE0907F041258EB90809FE0907F051258EB907F00740D0258EBE5829080D8
:200CE200AAF09080A1E0FEA3E0FF907F10EEF0EFA3F09080A3E0FEA3E0FF907F18EEF0EFC1
:200D0200A3F09080A5E0FEA3E0FF907F20EEF0EFA3F09080AAE0FF907F0175F000EF125833
:200D2200EBA374041258EB9080A7E0907F031258EB9080A8E0907F041258EB9080A9E0902F
:200D42007F051258EB907F00740D0258EBE5829080B4F09080ABE0FEA3E0FF907F10EEF0B0
:200D6200EFA3F09080ADE0FEA3E0FF907F18EEF0EFA3F09080AFE0FEA3E0FF907F20EEF01F
:200D8200EFA3F09080B4E0FF907F0175F000EF1258EBA374051258EB9080B1E0907F03123D
:200DA20058EB9080B2E0907F041258EB9080B3E0907F051258EB907F00740D0258EBE5829C
:200DC2009080BEF09080B5E0FEA3E0FF907F10EEF0EFA3F09080B7E0FEA3E0FF907F18EE73
:200DE200F0EFA3F09080B9E0FEA3E0FF907F20EEF0EFA3F09080BEE0FF907F0175F000EFB6
:200E02001258EBA374061258EB9080BBE0907F031258EB9080BCE0907F041258EB9080BD16
:200E2200E0907F051258EB907F00740D0258EBE5829080C8F09080BFE0FEA3E0FF907F1015
:200E4200EEF0EFA3F09080C1E0FEA3E0FF907F18EEF0EFA3F09080C3E0FEA3E0FF907F2016
:200E6200EEF0EFA3F09080C8E0FF907F0175F000EF1258EBA374071258EB9080C5E0907F69
:200E8200031258EB9080C6E0907F041258EB9080C7E0907F051258EB907F00740D0258EBE5
:200EA200E5829080D8F09080C9E0FCA3E0FDA3E0FEA3E0FF907F10ECF0EDA3F0EEA3F0EFCE
:200EC200A3F09080CDE0FCA3E0FDA3E0FEA3E0FF907F18ECF0EDA3F0EEA3F0EFA3F09080AB
:200EE200D1E0FCA3E0FDA3E0FEA3E0FF907F20ECF0EDA3F0EEA3F0EFA3F09080D8E0FF90DB
:200F02007F0175F000EF1258EBA374081258EB9080D5E0907F031258EB9080D6E0907F042D
:200F22001258EB9080D7E0907F051258EB907F00740D0258EBE5829080E8F09080D9E0FC41
:200F4200A3E0FDA3E0FEA3E0FF907F10ECF0EDA3F0EEA3F0EFA3F09080DDE0FCA3E0FDA3A2
:200F6200E0FEA3E0FF907F18ECF0EDA3F0EEA3F0EFA3F09080E1E0FCA3E0FDA3E0FEA3E038
:200F8200FF907F20ECF0EDA3F0EEA3F0EFA3F09080E8E0FF907F0175F000EF1258EBA3741B
:200FA200091258EB9080E5E0907F031258EB9080E6E0907F041258EB9080E7E0907F05125A
:200FC20058EB907F00740D0258EBE5829080F8F09080E9E0FCA3E0FDA3E0FEA3E0FF907F31
:200FE20010ECF0EDA3F0EEA3F0EFA3F09080EDE0FCA3E0FDA3E0FEA3E0FF907F18ECF0ED34
:20100200A3F0EEA3F0EFA3F09080F1E0FCA3E0FDA3E0FEA3E0FF907F20ECF0EDA3F0EEA3BC
:20102200F0EFA3F09080F8E0FF907F0175F000EF1258EBA3740A1258EB9080F5E0907F032F
:201042001258EB9080F6E0907F041258EB9080F7E0907F051258EB907F00740D0258EBE5E1
:2010620082908100F0E0FF907F0175F000EF1258EB9080F9E0907F021258EB9080FAE0908A
:201082007F031258EB9080FBE0907F041258EB9080FCE0907F051258EB9080FDE0907F06CD
:2010A2001258EB9080FEE0907F071258EB9080FFE0907F081258EB907F00740F0258EBE569
:2010C20082908104F0908101E0907F10F0908102E0907F18F0908103E0907F20F090810454
:2010E200E0FF907F0175F000EF1258EBA3E41258EBF582F5F074100258EBE582908108F0E5
:20110200908105E0907F10F0908106E0907F18F0908107E0907F20F0908108E0FF907F019B
:2011220075F000EF1258EBA374011258EB907F00C40258EBE58290810FF0908109E0FEA36D
:20114200E0FF907F10EEF0EFA3F090810BE0FEA3E0FF907F18EEF0EFA3F090810DE0FEA38D
:20116200E0FF907F20EEF0EFA3F090810FE0FF907F0175F000EF1258EBA374041258EB9047
:201182007F0074100258EBE582908116F0908110E0FEA3E0FF907F10EEF0EFA3F090811264
:2011A200E0FEA3E0FF907F18EEF0EFA3F0908114E0FEA3E0FF907F20EEF0EFA3F09081160B
:2011C200E0FF907F0175F000EF1258EBA374051258EB907F0074100258EBE58290811DF0A7
:2011E200908117E0FEA3E0FF907F10EEF0EFA3F0908119E0FEA3E0FF907F18EEF0EFA3F0D5
:2012020090811BE0FEA3E0FF907F20EEF0EFA3F090811DE0FF907F0175F000EF1258EBA348
:2012220074061258EB907F0074100258EBE582908124F090811EE0FEA3E0FF907F10EEF0ED
:20124200EFA3F0908120E0FEA3E0FF907F18EEF0EFA3F0908122E0FEA3E0FF907F20EEF052
:20126200EFA3F0908124E0FF907F0175F000EF1258EBA374071258EB907F0074100258EBD2
:20128200E582908131F0908125E0FCA3E0FDA3E0FEA3E0FF907F10ECF0EDA3F0EEA3F0EF33
:2012A200A3F0908129E0FCA3E0FDA3E0FEA3E0FF907F18ECF0EDA3F0EEA3F0EFA3F0908169
:2012C2002DE0FCA3E0FDA3E0FEA3E0FF907F20ECF0EDA3F0EEA3F0EFA3F0908131E0FF9041
:2012E2007F0175F000EF1258EBA374081258EB907F00230258EBE58290813EF0908132E00F
:20130200FCA3E0FDA3E0FEA3E0FF907F10ECF0EDA3F0EEA3F0EFA3F0908136E0FCA3E0FD2B
:20132200A3E0FEA3E0FF907F18ECF0EDA3F0EEA3F0EFA3F090813AE0FCA3E0FDA3E0FEA357
:20134200E0FF907F20ECF0EDA3F0EEA3F0EFA3F090813EE0FF907F0175F000EF1258EBA394
:2013620074091258EB907F0074100258EBE58290814BF090813FE0FCA3E0FDA3E0FEA3E05E
:20138200FF907F10ECF0EDA3F0EEA3F0EFA3F0908143E0FCA3E0FDA3E0FEA3E0FF907F18F4
:2013A200ECF0EDA3F0EEA3F0EFA3F0908147E0FCA3E0FDA3E0FEA3E0FF907F20ECF0EDA37A
:2013C200F0EEA3F0EFA3F090814BE0FF907F0175F000EF1258EBA3740A1258EB907F00742B
:2013E200100258EBE58290814DF090814CE0FF90814DE0FE907F0175F000EE1258EBA3E42A
:201402001258EB907F08EFF0907F0074110258EBE58290814FF090814EE0FF90814FE0FE73
:20142200907F0175F000EE1258EBA374011258EB907F08EFF0907F0074110258EBE58290BF
:201442008151F0908150E0FF908151E0FE907F0175F000EE1258EBA374021258EB907F080B
:20146200EFF0907F0074110258EBE582908153F0908152E0FF908153E0FE907F0175F000FE
:20148200EE1258EBA374031258EB907F08EFF0907F0074110258EBE582908156F0908154A6
:2014A200E0FEA3E0FF908156E0FD907F0175F000ED1258EBA374041258EB907F08EEF0EF7B
:2014C200A3F0907F0074110258EBE582908159F0908157E0FEA3E0FF908159E0FD907F01BE
:2014E20075F000ED1258EBA374051258EB907F08EEF0EFA3F0907F0074110258EBE582908B
:20150200815CF090815AE0FEA3E0FF90815CE0FD907F0175F000ED1258EBA374061258EBBE
:20152200907F08EEF0EFA3F0907F0074110258EBE58290815FF090815DE0FEA3E0FF9081B3
:201542005FE0FD907F0175F000ED1258EBA374071258EB907F08EEF0EFA3F0907F00741118
:201562000258EBE582908164F0908160E0FCA3E0FDA3E0FEA3E0FF908164E0FB907F0175B3
:20158200F000EB1258EBA374081258EB907F08ECF0EDA3F0EEA3F0EFA3F0907F0074110299
:2015A20058EBE582908169F0908165E0FCA3E0FDA3E0FEA3E0FF908169E0FB907F0175F076
:2015C20000EB1258EBA374091258EB907F08ECF0EDA3F0EEA3F0EFA3F0907F0074110258F0
:2015E200EBE58290816EF090816AE0FCA3E0FDA3E0FEA3E0FF90816EE0FB907F0175F0007F
:20160200EB1258EBA3740A1258EB907F08ECF0EDA3F0EEA3F0EFA3F0907F0074110258EBC3
:20162200E582908172F090816FE0FDA3E0FEA3E0FF90816FE0F5F0A3E045F06018C007C072
:2016420006C0051200A1D005D006D0078D828E838FF01200AC908172E0FF907F0175F00054
:20166200EF1258EBA3740B1258EB907F0074110258EBE582908178F0E0FF907F0175F000A0
:20168200EF1258EB908173E0FEA3E0FF907F08EEF0EFA3F0908175E0FEA3E0FF907F10EEB6
:2016A200F0EFA3F0908177E0907F021258EB907F0074120258EBE58290817BF0908179E0C1
:2016C200907F10F090817AE0907F18F0907F01E4F5F01258EB90817BE0907F021258EB90E7
:2016E2007F0074F61258EB907F08E0F58222E58290817EF090817CE0907F10F090817DE04A
:20170200907F18F0907F0175F00074011258EB90817EE0907F021258EB907F0074F61258B9
:20172200EB907F08E0F58222E582908183F090817FE0FEA3E0FF907F10EEF0EFA3F09081C1
:2017420081E0FEA3E0FF907F18EEF0EFA3F0907F0175F00074041258EB908183E0907F0258
:201762001258EB907F0074F61258EB907F08E0FEA3E08E82F58322E582908188F09081849D
:20178200E0FEA3E0FF907F10EEF0EFA3F0908186E0FEA3E0FF907F18EEF0EFA3F0907F01DA
:2017A20075F00074051258EB908188E0907F021258EB907F0074F61258EB907F08E0FEA3AF
:2017C200E08E82F58322E58290818DF0908189E0FEA3E0FF907F10EEF0EFA3F090818BE093
:2017E200FEA3E0FF907F18EEF0EFA3F0907F0175F00074061258EB90818DE0907F021258A3
:20180200EB907F0074F61258EB907F08E0FEA3E08E82F58322E582908192F090818EE0FE74
:20182200A3E0FF907F10EEF0EFA3F0908190E0FEA3E0FF907F18EEF0EFA3F0907F0175F0A8
:201842000074071258EB908192E0907F021258EB907F0074F61258EB907F08E0FEA3E08EF9
:2018620082F58322E58290819BF0908193E0FCA3E0FDA3E0FEA3E0FF907F10ECF0EDA3F0C9
:20188200EEA3F0EFA3F0908197E0FCA3E0FDA3E0FEA3E0FF907F18ECF0EDA3F0EEA3F0EF49
:2018A200A3F0907F0175F00074081258EB90819BE0907F021258EB907F0074F61258EB90FD
:2018C2007F08E0FCA3E0FDA3E0FEA3E08C828D838EF022E5829081A4F090819CE0FCA3E049
:2018E200FDA3E0FEA3E0FF907F10ECF0EDA3F0EEA3F0EFA3F09081A0E0FCA3E0FDA3E0FEDA
:20190200A3E0FF907F18ECF0EDA3F0EEA3F0EFA3F0907F0175F00074091258EB9081A4E0E1
:20192200907F021258EB907F0074F61258EB907F08E0FCA3E0FDA3E0FEA3E08C828D838E4E
:20194200F022E5829081ADF09081A5E0FCA3E0FDA3E0FEA3E0FF907F10ECF0EDA3F0EEA33D
:20196200F0EFA3F09081A9E0FCA3E0FDA3E0FEA3E0FF907F18ECF0EDA3F0EEA3F0EFA3F054
:20198200907F0175F000740A1258EB9081ADE0907F021258EB907F0074F61258EB907F0814
:2019A200E0FCA3E0FDA3E0FEA3E08C828D838EF0229081AFE0FF907F0175F000EF1258EBAF
:2019C2001582740A1258EB9081AFE0FF9080F97401F09080FAE4F09080FBF09080FCF09029
:2019E20080FD14F09080FEF09080FFF08F821210619081AFE0FF908117E4F0A3F09081197B
:201A0200F0A3F090811BF0A3F08F821211DC1200A19081CDE0FCA3E0FDA3E0FEA3E08C8283
:201A22008D838EF01202A990801C7463F0E4A3F0900000F5F01202ECAE82AF83C007C0068B
:201A42001200A19081C9E0FAA3E0FBA3E0FCA3E08A828B838CF01202A990801C7463F0E473
:201A6200A3F0900000F5F01202ECAC82AD83D006D007C3EC9EED64808FF063F08095F0401C
:201A8200048C068D07C007C0061200A19081D1E0FAA3E0FBA3E0FCA3E0FDC005C004C00355
:201AA200C002E4C0E0C0E0C0E0C0E08A828B838CF0ED125906A982E58124FCF581D002D041
:201AC20003D004D005D006D007E96025C006C0078A008B018C06EDB2E7FF888289838EF0EF
:201AE200C007C0061202A9D006D007D007D00680128A828B838CF0EDC007C0061202A9D011
:201B020006D00790801C7463F0E4A3F0900000F5F0C007C0061202ECAC82AD838C088D09F2
:201B22001200A19081D5E0F8A3E0F9A3E0FAA3E0FBC003C002C001C000E4C0E0C0E0C0E0F1
:201B4200C0E0888289838AF0EB125906AD82E58124FCF581D000D001D002D003D006D007D9
:201B6200ED6025C006C007880489058A06EBB2E7FF8C828D838EF0C007C0061202A9D0067B
:201B8200D007D007D0068012888289838AF0EBC007C0061202A9D006D00790801C7463F0C8
:201BA200E4A3F0900000F5F0C007C0061202ECAC82AD83D006D007EE2508FAEF3509FB74EE
:201BC200162AF508E43BF509EE2CFCEF3DFD74162CFCE43DFDC007C006C005C0041200A1D1
:201BE200905CBC75F0801200ACD004D005D006D007C006C0079081CDE0F8A3E0F9A3E0FE02
:201C0200A3E0FF888289838EF0C007C006C005C0041202A9D004D005D006D0079081D1E0C1
:201C2200F8A3E0F9A3E0FEA3E0FFC006C005C004E4C0E0C0E0C0E0C0E0888289838EF0EFF5
:201C4200125906AF82E58124FCF581D004D005D006EFD007D0066044C004C005905CC1757A
:201C6200F080C007C006C005C0041200ACD004D0059081D1E0F8A3E0F9A3E0FCA3E0B2E7A4
:201C8200FD888289838CF0C005C0041202A9D004D005D006D007D005D0048040C004C00525
:201CA200905CCE75F080C007C006C005C0041200ACD004D0059081D1E0F8A3E0F9A3E0FC51
:201CC200A3E0FD888289838CF0C005C0041202A9D004D005D006D007D005D004905CDB756F
:201CE200F080C007C006C005C0041200ACD004D005D006D0079081E9E4F0A3F074062EF847
:201D0200E43FF9C004C0059081E9E0FCA3E0FD88028903C3EC9AED9BD005D00450387582B7
:201D2200E2C007C006C005C004C001C000120153758294120153758280120153D000D00153
:201D4200D004D005D006D0079081E9E02401F0A3E03400F080AD905CE475F080C007C00626
:201D6200C005C0041200AC9081AFE0FB908173E4F0A3F09081757404F0E4A3F090817704A3
:201D8200F08B821216749081AFE0FB90816FE4F0A3F0A3F08B821216229081AFE0FB908190
:201DA20073E508F0E509A3F090817574FEF004A3F09081777401F08B821216741200A190F8
:201DC20081CDE0F8A3E0F9A3E0FAA3E0888289838AF01202A9905CE775F0801200AC90818B
:201DE200AFE0FB90816FE4F0A3F0A3F08B821216229081AFE0FB908173E4F0A3F09081757A
:201E02007404F0E4A3F090817704F08B821216741200A19081C9E0F8A3E0F9A3E0FAA3E0DB
:201E2200888289838AF01202A99081AFE0FB90816FE4F0A3F0A3F08B821216221200A190A4
:201E42005CEC75F0801200AC9081CDE0F8A3E0F9A3E0FAA3E0888289838AF01202A9908105
:201E6200D5E0F8A3E0F9A3E0FAA3E0FBE4C0E0C0E0C0E0C0E0888289838AF0EB125906AB41
:201E820082E58124FCF581D004D005D006D007EB6033905CF175F080C007C006C005C00416
:201EA2001200AC9081D5E0F8A3E0F9A3E0FAA3E0B2E7888289838AF01202A9D004D005D0C9
:201EC20006D007802F905CFE75F080C007C006C005C0041200AC9081D5E0F8A3E0F9A3E014
:201EE200FAA3E0888289838AF01202A9D004D005D006D007905D0B75F080C007C006C00591
:201F0200C0041200ACD004D005D006D0079081E9E4F0A3F074062EFEE43FFF9081E9E0FAEA
:201F2200A3E0FB8E008F01C3EA98EB9950307582E2C007C006C005C00412015375829412C8
:201F42000153758280120153D004D005D006D0079081E9E02401F0A3E03400F080BD905C39
:201F6200E475F080C005C0041200AC9081AFE0FFC3E49508FBE49509FE908173EBF0EEA301
:201F8200F090817574F6F074FFA3F09081777401F08F821216749081AFE0FF90816FE4F0DC
:201FA200A3F0A3F08F82121622D004D0059081AFE0FF908173ECF0EDA3F090817574FEF08E
:201FC20004A3F09081777401F08F821216741200A19081CDE0FCA3E0FDA3E0FEA3E08C82CF
:201FE2008D838EF01202A9905CE775F0801200AC9081AFE0FF90816FE4F0A3F0A3F08F82F4
:202002001216229081AFE0FF908173E4F0A3F09081757404F0E4A3F090817704F08F8212E6
:2020220016741200A19081C9E0FCA3E0FDA3E0FEA3E08C828D838EF01202A99081AFE0FF2F
:2020420090816FE4F0A3F0A3F08F820216229081AEE0FF907F0175F000EF1258EBA374014A
:202062001258EB907F00740B1258EB908233E0FEA3E0FF8E828F83C007C006125A3385822C
:202082000A85830B85F00CF50D9081E1E50AF0E50BA3F0E50CA3F0E50DA3F0908237E0F820
:2020A200A3E0F988828983125A33A882A983ACF0FD9081E5E8F0E9A3F0ECA3F0EDA3F09025
:2020C20081C5E0C0E0A3E0C0E0A3E0C0E0A3E0C0E0888289838CF0ED125AE9AA82AB83ACF5
:2020E200F0FDE58124FCF5819081B9EAF0EBA3F0ECA3F0EDA3F0E4C0E0C0E0C0E07440C09C
:20210200E0850A82850B83850CF0E50D125AE9AA82AB83ACF0FDE58124FCF581C002C0037D
:20212200C004C005900FDB75F0497440125AE9AA82AB83ACF0FDE58124FCF581D006D00747
:202142009081B1EAF0EBA3F0ECA3F0EDA3F09081E9E4F0A3F0908235E0FCA3E0FDC3EE9C13
:20216200EF64808DF063F08095F040129081EFEEF0EFA3F09081F1ECF0EDA3F08010908104
:20218200EFECF0EDA3F09081F1EEF0EFA3F0908231E070030226707582001200749081EBE9
:2021A200E4F0A3F01200A19081EBE0FEA3E0FF8E828F831201F6905D1475F0801200AC9048
:2021C20081EFE0FEA3E0FF8E828F831201F69081AEE0FF908062741AF0908063E4F090801D
:2021E20064F0A3F0A3F08F8212088C9081AEE0FF908062741BF0908063E4F0908064F0A3CF
:20220200F0A3F08F8212088C9081AEE0FF908062741CF0908063E4F0908064F0A3F0A3F021
:202222008F8212088C9081AEE0FF908062741DF0908063E4F0908064F0A3F0A3F08F821260
:20224200088C9081AEE0FF908062741EF0908063E4F0908064F0A3F0A3F08F8212088C903E
:2022620081EDE4F0A3F09081EDE0FEA3E0FF9081F1E0FCA3E0FDC3EE9CEF9D40030225E6A2
:202282009081E9E0FEA3E0FF8E828F83125A74AC82AD83AEF0FF9081B1E0C0E0A3E0C0E080
:2022A200A3E0C0E0A3E0C0E08C828D838EF0EF125289AC82AD83AEF0FFE58124FCF58190D7
:2022C20081B5ECF0EDA3F0EEA3F0EFA3F08C828D838EF0EF12538DAC82AD83AEF0FF9081DE
:2022E200CDE0F8A3E0F9A3E0FAA3E0FBC003C002C001C000C004C005C006C007888289838E
:202302008AF0EB125289AC82AD83AEF0FFE58124FCF581D000D001D002D003C007C006C0DF
:2023220005C0049081B5E0C0E0A3E0C0E0A3E0C0E0A3E0C0E0888289838AF0EB125289A813
:2023420082A983AAF0FBE58124FCF5819081C9E0C0E0A3E0C0E0A3E0C0E0A3E0C0E088826F
:2023620089838AF0EB125AE9A882A983AAF0FBE58124FCF581888289838AF0EB12538D85BC
:20238200820A85830B85F00CF50D9081D1E0F8A3E0F9A3E0FAA3E0FBC00AC00BC00CC00DBA
:2023A200888289838AF0EB125289A882A983AAF0FBE58124FCF581D004D005D006D007C0B6
:2023C20000C001C002C0038C828D838EF0EF125936AC82AD83AEF0FFE58124FCF581908181
:2023E200BDECF0EDA3F0EEA3F0EFA3F09081B5E0FCA3E0FDA3E0FEA3E08C828D838EF012EB
:2024020053BCAC82AD83AEF0FF9081CDE0F8A3E0F9A3E0FAA3E0FBC003C002C001C000C0BD
:2024220004C005C006C007888289838AF0EB125289AC82AD83AEF0FFE58124FCF581D00015
:20244200D001D002D003C007C006C005C0049081B5E0C0E0A3E0C0E0A3E0C0E0A3E0C0E03F
:20246200888289838AF0EB125289A882A983AAF0FBE58124FCF5819081C9E0C0E0A3E0C06E
:20248200E0A3E0C0E0A3E0C0E0888289838AF0EB125AE9A882A983AAF0FBE58124FCF5815D
:2024A200888289838AF0EB1253BC85820A85830B85F00CF50D9081D5E0F8A3E0F9A3E0FA20
:2024C200A3E0FBC00AC00BC00CC00D888289838AF0EB125289A882A983AAF0FBE58124FC75
:2024E200F581D004D005D006D007C000C001C002C0038C828D838EF0EF125936AC82AD837E
:20250200AEF0FFE58124FCF5819081C1ECF0EDA3F0EEA3F0EFA3F09081AEE0F50A9081B987
:20252200E0F8A3E0F9A3E0FAA3E0FBC003C002C001C000C000C001C002C0038C828D838E92
:20254200F0EF12528985820E85830F85F010F511E58124FCF581D000D001D002D0039081A3
:20256200BDE0FCA3E0FDA3E0FEA3E0FFC000C001C002C0038C828D838EF0EF125289AC8291
:20258200AD83AEF0FFE58124FCF5819080E9E50EF0E50FA3F0E510A3F0E511A3F09080EDFF
:2025A200ECF0EDA3F0EEA3F0EFA3F09080F1E4F0A3F0A3F0A3F09080F514F09080F6F0909D
:2025C20080F7F0850A82120FCC9081E9E02401F0A3E03400F09081EDE02401F0A3E0340054
:2025E200F00222689081EBE02401F0A3E03400F09081EBE0FEA3E0FF9081EFE0FCA3E0FD0D
:20260200C3EC9EED9F40030221A6758200120074AC82AD83AEF0FF9081B0E0FBBB1A028068
:202622000FBB1B02801ABB1C028025BB1D408030908209ECF0EDA3F0EEA3F0EFA3F0802EA9
:20264200908211ECF0EDA3F0EEA3F0EFA3F0801E908219ECF0EDA3F0EEA3F0EFA3F0800E40
:20266200908221ECF0EDA3F0EEA3F0EFA3F0908232E07001227582001200749081EBE4F0C2
:20268200A3F01200A19081EBE0FEA3E0FF8E828F831201F6905D1475F0801200AC9081EFC7
:2026A200E0FEA3E0FF8E828F831201F69081AEE0FF908062741AF0908063E4F0908064F054
:2026C200A3F0A3F08F8212088C9081AEE0FF908062741BF0908063E4F0908064F0A3F0A3AB
:2026E200F08F8212088C9081AEE0FF908062741CF0908063E4F0908064F0A3F0A3F08F82BF
:2027020012088C9081AEE0FF908062741DF0908063E4F0908064F0A3F0A3F08F8212088CF8
:202722009081AEE0FF908062741EF0908063E4F0908064F0A3F0A3F08F8212088C9081ED7F
:20274200E4F0A3F09081EDE0FEA3E0FF9081F1E0FCA3E0FDC3EE9CEF9D4003022BBE90813C
:20276200E9E0FEA3E0FF8E828F83125A74AC82AD83AEF0FF9081B1E0C0E0A3E0C0E0A3E029
:20278200C0E0A3E0C0E08C828D838EF0EF125289AC82AD83AEF0FFE58124FCF5819081B53F
:2027A200ECF0EDA3F0EEA3F0EFA3F09081CDE0F8A3E0F9A3E0FAA3E0FB9081A5ECF0EDA369
:2027C200F0EEA3F0EFA3F09081A9E4F0A3F0A3F0A3F075820BC003C002C001C00012194446
:2027E200AC82AD83AEF0FFD000D001D002D0039081A5E8F0E9A3F0EAA3F0EBA3F09081A9D7
:20280200ECF0EDA3F0EEA3F0EFA3F0758203121944AC82AD83AEF0FF9081D1E0F50EA3E0AB
:20282200F50FA3E0F510A3E0F5119081CDE0F50AA3E0F50BA3E0F50CA3E0F50D9081B5E092
:20284200F8A3E0F9A3E0FAA3E0FB9081A5E50AF0E50BA3F0E50CA3F0E50DA3F09081A9E844
:20286200F0E9A3F0EAA3F0EBA3F0758203C007C006C005C00412194485820A85830B85F0D7
:202882000CF50D9081C9E0F8A3E0F9A3E0FAA3E0FB9081A5E50AF0E50BA3F0E50CA3F0E57E
:2028A2000DA3F09081A9E8F0E9A3F0EAA3F0EBA3F0758204121944A882A983AAF0FB908107
:2028C200A5E8F0E9A3F0EAA3F0EBA3F09081A9E4F0A3F0A3F0A3F075820B121944A882A977
:2028E20083AAF0FB9081A5E50EF0E50FA3F0E510A3F0E511A3F09081A9E8F0E9A3F0EAA3F2
:20290200F0EBA3F0758203121944A882A983AAF0FBD004D005D006D007C000C001C002C09A
:20292200038C828D838EF0EF125936AC82AD83AEF0FFE58124FCF5819081BDECF0EDA3F045
:20294200EEA3F0EFA3F09081CDE0FCA3E0FDA3E0FEA3E0FF9081B5E0F8A3E0F9A3E0FAA3FB
:20296200E0FB9081A5E8F0E9A3F0EAA3F0EBA3F09081A9E4F0A3F0A3F0A3F075820CC00764
:20298200C006C005C004121944A882A983AAF0FBD004D005D006D0079081A5ECF0EDA3F024
:2029A200EEA3F0EFA3F09081A9E8F0E9A3F0EAA3F0EBA3F0758203121944AC82AD83AEF0A4
:2029C200FF9081D5E0F50EA3E0F50FA3E0F510A3E0F5119081CDE0F50AA3E0F50BA3E0F5DD
:2029E2000CA3E0F50D9081B5E0F8A3E0F9A3E0FAA3E0FB9081A5E50AF0E50BA3F0E50CA383
:202A0200F0E50DA3F09081A9E8F0E9A3F0EAA3F0EBA3F0758203C007C006C005C0041219FB
:202A22004485820A85830B85F00CF50D9081C9E0F8A3E0F9A3E0FAA3E0FB9081A5E50AF0EB
:202A4200E50BA3F0E50CA3F0E50DA3F09081A9E8F0E9A3F0EAA3F0EBA3F075820412194475
:202A6200A882A983AAF0FB9081A5E8F0E9A3F0EAA3F0EBA3F09081A9E4F0A3F0A3F0A3F01D
:202A820075820C121944A882A983AAF0FB9081A5E50EF0E50FA3F0E510A3F0E511A3F09016
:202AA20081A9E8F0E9A3F0EAA3F0EBA3F0758203121944A882A983AAF0FBD004D005D006C8
:202AC200D007C000C001C002C0038C828D838EF0EF125936AC82AD83AEF0FFE58124FCF575
:202AE200819081C1ECF0EDA3F0EEA3F0EFA3F09081AEE0F50E9081B9E0F8A3E0F9A3E0FAE5
:202B0200A3E0FBC003C002C001C000C000C001C002C0038C828D838EF0EF12528985820AA0
:202B220085830B85F00CF50DE58124FCF581D000D001D002D0039081BDE0FCA3E0FDA3E00E
:202B4200FEA3E0FFC000C001C002C0038C828D838EF0EF125289AC82AD83AEF0FFE58124F0
:202B6200FCF5819080E9E50AF0E50BA3F0E50CA3F0E50DA3F09080EDECF0EDA3F0EEA3F0A3
:202B8200EFA3F09080F1E4F0A3F0A3F0A3F09080F514F09080F6F09080F7F0850E82120FF7
:202BA200CC9081E9E02401F0A3E03400F09081EDE02401F0A3E03400F00227469081EBE0CC
:202BC2002401F0A3E03400F09081EBE0FEA3E0FF9081EFE0FCA3E0FDC3EC9EED9F40030261
:202BE2002684758200120074AC82AD83AEF0FF9081B0E0FBBB1A02800FBB1B028019BB1C67
:202C0200028023BB1D3D802D90820DECF0EDA3F0EEA3F0EFA3F022908215ECF0EDA3F0EE3A
:202C2200A3F0EFA3F02290821DECF0EDA3F0EEA3F0EFA3F022908225ECF0EDA3F0EEA3F097
:202C4200EFA3F0229081AFE0FF907F0175F000EF1258EB1582740A1258EB9081AFE0FF90DD
:202C620080F97401F09080FAE4F09080FBF09080FCF09080FD14F09080FEF09080FFF08F02
:202C8200821210619081AFE0FF908117E4F0A3F0908119F0A3F090811BF0A3F08F8212116F
:202CA200DC1200A1905CEC75F0801200AC905D1675F0801200AC9081C5E0FCA3E0FDA3E0AD
:202CC200FEA3E08C828D838EF01202A99081D9E0FCA3E0FDA3E0FEA3E0FFC007C006C0057D
:202CE200C004C004C005C006C007900000E4F5F0125906AB82E58124FCF581D004D005D08C
:202D020006D007EB6021905D1B75F0801200AC9081D9E0F8A3E0F9A3E0FAA3E08882898369
:202D22008AF01202A9804AE4C0E0C0E0C0E0C0E08C828D838EF0EF125906AF82E58124FC79
:202D4200F581EF6023905D2375F0801200AC9081D9E0FCA3E0FDA3E0FEA3E0B2E78C828D58
:202D6200838EF01202A98009905CE775F0801200AC905D2B75F0801200AC9081AFE0FF90AA
:202D82008173E4F0A3F090817574FCF074FFA3F0908177E4F08F821216749081AFE0FF90B2
:202DA200816FE4F0A3F0A3F08F821216229081D9E0F5F0A3E042F0A3E042F0A3E0547F4518
:202DC200F07003022F231200A1905CEC75F0801200AC905D1675F0801200AC9081C5E0FCB4
:202DE200A3E0FDA3E0FEA3E08C828D838EF01202A99081D9E0FCA3E0FDA3E0FEA3E0FFC0EB
:202E020007C006C005C004C004C005C006C007900000E4F5F0125906AB82E58124FCF58151
:202E2200D004D005D006D007EB604B905D1B75F0801200AC9081D9E0C0E0A3E0C0E0A3E0E9
:202E4200C0E0A3E0C0E0902EE175F0657442125289A882A983AAF0FBE58124FCF5818882B0
:202E620089838AF0EB1202A97582C21201537582B01201538074E4C0E0C0E0C0E0C0E08C12
:202E8200828D838EF0EF125906AF82E58124FCF581EF604D905D2375F0801200AC9081D95A
:202EA200E0C0E0A3E0C0E0A3E0C0E0A3E0C0E0902EE175F0657442125289AC82AD83AEF01F
:202EC200FFE58124FCF581EFB2E78C828D838EF01202A97582C21201537582B01201538068
:202EE20009905CE775F0801200AC905D2B75F0801200AC9081AFE0FF908173E4F0A3F0907C
:202F02008175F0A3F0908177F08F821216749081AFE0FF90816FE4F0A3F0A3F08F821216BF
:202F2200229081DDE0F5F0A3E042F0A3E042F0A3E0547F45F070030230971200A1905CBC2E
:202F420075F0801200AC905D1675F0801200AC9081C9E0FCA3E0FDA3E0FEA3E08C828D83CE
:202F62008EF01202A99081DDE0FCA3E0FDA3E0FEA3E0FFC007C006C005C004C004C005C068
:202F820006C007900000E4F5F0125906AB82E58124FCF581D004D005D006D007EB604B90F3
:202FA2005D1B75F0801200AC9081DDE0C0E0A3E0C0E0A3E0C0E0A3E0C0E0902EE175F065B4
:202FC2007442125289A882A983AAF0FBE58124FCF581888289838AF0EB1202A97582C21262
:202FE20001537582B01201538074E4C0E0C0E0C0E0C0E08C828D838EF0EF125906AF82E504
:203002008124FCF581EF604D905D2375F0801200AC9081DDE0C0E0A3E0C0E0A3E0C0E0A3F1
:20302200E0C0E0902EE175F0657442125289AC82AD83AEF0FFE58124FCF581EFB2E78C8275
:203042008D838EF01202A97582C21201537582B01201538009905CE775F0801200AC905D0B
:203062002B75F0801200AC9081AFE0FF908173E4F0A3F0908175F0A3F0908177F08F821252
:2030820016749081AFE0FF90816FE4F0A3F0A3F08F821216221200A1905CBC75F0801200DE
:2030A200AC905D1675F0801200AC9081C9E0FCA3E0FDA3E0FEA3E08C828D838EF01202A929
:2030C200905CE775F0801200AC905D2B75F0801200AC9081AFE0FF908173E4F0A3F0908122
:2030E200757404F0E4A3F0908177F08F821216749081AFE0FF90816FE4F0A3F0A3F08F822B
:203102000216229081AEE0FF907F0175F000EF1258EBA374011258EB907F00740B1258EBCC
:20312200908233E0FEA3E0FF8E828F83C007C006125A3385821285831385F014F5159081C2
:20314200E1E512F0E513A3F0E514A3F0E515A3F0908237E0F8A3E0F988828983125A33A807
:2031620082A983ACF0FD9081E5E8F0E9A3F0ECA3F0EDA3F09081B9E8F0E9A3F0ECA3F0ED33
:20318200A3F0E4C0E0C0E0C0E07440C0E08512828513838514F0E515125AE9AA82AB83AC70
:2031A200F0FDE58124FCF581C002C003C004C005900FDB75F0497440125AE9AA82AB83ACDF
:2031C200F0FDE58124FCF581D006D0079081B1EAF0EBA3F0ECA3F0EDA3F09081E9E4F0A3CD
:2031E200F0908235E0FCA3E0FDC3EE9CEF64808DF063F08095F040129081EFEEF0EFA3F093
:203202009081F1ECF0EDA3F080109081EFECF0EDA3F09081F1EEF0EFA3F0908231E070036A
:203222000235717582001200749081EBE4F0A3F01200A19081EBE0FEA3E0FF8E828F8312C1
:2032420001F6905D1475F0801200AC9081EFE0FEA3E0FF8E828F831201F69081AEE0FF9018
:203262008062741AF0908063E4F0908064F0A3F0A3F08F8212088C9081AEE0FF90806274E0
:203282001BF0908063E4F0908064F0A3F0A3F08F8212088C9081AEE0FF908062741CF09079
:2032A2008063E4F0908064F0A3F0A3F08F8212088C9081AEE0FF908062741DF0908063E42C
:2032C200F0908064F0A3F0A3F08F8212088C9081AEE0FF908062741EF0908063E4F09080D2
:2032E20064F0A3F0A3F08F8212088C9081EDE4F0A3F09081EDE0FEA3E0FF9081F1E0FCA357
:20330200E0FDC3EE9CEF9D40030235289081E9E0FEA3E0FF8E828F83125A74AC82AD83AEEB
:20332200F0FF9081B1E0C0E0A3E0C0E0A3E0C0E0A3E0C0E08C828D838EF0EF125289AC824B
:20334200AD83AEF0FFE58124FCF5819081B5ECF0EDA3F0EEA3F0EFA3F09081C5E0F8A3E04C
:20336200F9A3E0FAA3E0FBC004C005C006C007888289838AF0EB125289AC82AD83AEF0FFDE
:20338200E58124FCF5819081D9E0C0E0A3E0C0E0A3E0C0E0A3E0C0E08C828D838EF0EF12BF
:2033A2005936AC82AD83AEF0FFE58124FCF5818C828D838EF0EF1253BCAC82AD83AEF0FFDE
:2033C2009081BDECF0EDA3F0EEA3F0EFA3F09081C9E0FCA3E0FDA3E0FEA3E0FF9081B5E0DF
:2033E200C0E0A3E0C0E0A3E0C0E0A3E0C0E08C828D838EF0EF125289AC82AD83AEF0FFE56A
:203402008124FCF5819081DDE0C0E0A3E0C0E0A3E0C0E0A3E0C0E08C828D838EF0EF1259C6
:2034220036AC82AD83AEF0FFE58124FCF5818C828D838EF0EF1253BCAC82AD83AEF0FF9026
:2034420081C1ECF0EDA3F0EEA3F0EFA3F09081AEE0F5129081B9E0F516A3E0F517A3E0F567
:2034620018A3E0F5199081BDE0F8A3E0F9A3E0FAA3E0FBC007C006C005C004C016C017C001
:2034820018C019888289838AF0EB125289A882A983AAF0FBE58124FCF581D004D005D0066B
:2034A200D007C003C002C001C000C016C017C018C0198C828D838EF0EF125289AC82AD83F9
:2034C200AEF0FFE58124FCF581D000D001D002D0039080E9E8F0E9A3F0EAA3F0EBA3F09033
:2034E20080EDECF0EDA3F0EEA3F0EFA3F09080F1E4F0A3F0A3F0A3F09080F514F09080F661
:20350200F09080F7F0851282120FCC9081E9E02401F0A3E03400F09081EDE02401F0A3E0B0
:203522003400F00232F49081EBE02401F0A3E03400F09081EBE0FEA3E0FF9081EFE0FCA3CA
:20354200E0FDC3EC9EED9F4003023232758200120074AC82AD83AEF0FF9081B0E0FBBB1E1D
:203562000E908229ECF0EDA3F0EEA3F0EFA3F0908232E07001227582001200749081EBE48D
:20358200F0A3F01200A19081EBE0FEA3E0FF8E828F831201F6905D1475F0801200AC9081B7
:2035A200EFE0FEA3E0FF8E828F831201F69081AEE0FF908062741AF0908063E4F090806446
:2035C200F0A3F0A3F08F8212088C9081AEE0FF908062741BF0908063E4F0908064F0A3F04F
:2035E200A3F08F8212088C9081AEE0FF908062741CF0908063E4F0908064F0A3F0A3F08F8F
:203602008212088C9081AEE0FF908062741DF0908063E4F0908064F0A3F0A3F08F821208F3
:203622008C9081AEE0FF908062741EF0908063E4F0908064F0A3F0A3F08F8212088C9081D1
:20364200EDE4F0A3F09081EDE0FEA3E0FF9081F1E0FCA3E0FDC3EE9CEF9D40030238D99099
:2036620081E9E0FEA3E0FF8E828F83125A74AC82AD83AEF0FF9081B1E0C0E0A3E0C0E0A379
:20368200E0C0E0A3E0C0E08C828D838EF0EF125289AC82AD83AEF0FFE58124FCF581908105
:2036A200B5ECF0EDA3F0EEA3F0EFA3F09081C5E0F8A3E0F9A3E0FAA3E0FB9081A5E8F0E958
:2036C200A3F0EAA3F0EBA3F09081A9ECF0EDA3F0EEA3F0EFA3F0758203121944AC82AD837A
:2036E200AEF0FF9081D9E0F8A3E0F9A3E0FAA3E0FB9081A5ECF0EDA3F0EEA3F0EFA3F0904D
:2037020081A9E8F0E9A3F0EAA3F0EBA3F0758201121944AC82AD83AEF0FF9081A5ECF0ED4D
:20372200A3F0EEA3F0EFA3F09081A9E4F0A3F0A3F0A3F075820C121944AC82AD83AEF0FF3D
:203742009081BDECF0EDA3F0EEA3F0EFA3F09081C9E0FCA3E0FDA3E0FEA3E0FF9081B5E05B
:20376200F8A3E0F9A3E0FAA3E0FB9081A5ECF0EDA3F0EEA3F0EFA3F09081A9E8F0E9A3F0B5
:20378200EAA3F0EBA3F0758203121944AC82AD83AEF0FF9081DDE0F8A3E0F9A3E0FAA3E086
:2037A200FB9081A5ECF0EDA3F0EEA3F0EFA3F09081A9E8F0E9A3F0EAA3F0EBA3F0758201F6
:2037C200121944AC82AD83AEF0FF9081A5ECF0EDA3F0EEA3F0EFA3F09081A9E4F0A3F0A3A4
:2037E200F0A3F075820C121944AC82AD83AEF0FF9081C1ECF0EDA3F0EEA3F0EFA3F0908195
:20380200AEE0F5169081B9E0F512A3E0F513A3E0F514A3E0F5159081BDE0F8A3E0F9A3E013
:20382200FAA3E0FBC007C006C005C004C012C013C014C015888289838AF0EB125289A88218
:20384200A983AAF0FBE58124FCF581D004D005D006D007C003C002C001C000C012C013C0E8
:2038620014C0158C828D838EF0EF125289AC82AD83AEF0FFE58124FCF581D000D001D0027B
:20388200D0039080E9E8F0E9A3F0EAA3F0EBA3F09080EDECF0EDA3F0EEA3F0EFA3F090809F
:2038A200F1E4F0A3F0A3F0A3F09080F514F09080F6F09080F7F0851682120FCC9081E9E0AE
:2038C2002401F0A3E03400F09081EDE02401F0A3E03400F00236479081EBE02401F0A3E09D
:2038E2003400F09081EBE0FEA3E0FF9081EFE0FCA3E0FDC3EC9EED9F40030235857582001B
:20390200120074AC82AD83AEF0FF9081B0E0FBBB1E0E90822DECF0EDA3F0EEA3F0EFA3F003
:20392200229082337432F0E4A3F0908235741CF0E4A3F09082377464F0E4A3F09081C5F085
:20394200A3F07416A3F07443A3F09081C9E4F0A3F07460A3F07442A3F09081D9E4F0A3F029
:203962007480A3F0743FA3F09081DDE4F0A3F07480A3F0743FA3F09082317401F09082326A
:20398200F0120062AF829081AEEFF08F069081AFEE04F08F821205099081AEE0FF908024B8
:2039A2007401F0908025E4F08F821205229081AEE0FF9080247402F0908025E4F08F8212E9
:2039C20005229081AEE0FF9080247403F0908025E4F08F821205229081AEE0FF90802474EC
:2039E20004F0908025E4F08F821205229081AEE0FF9080247405F0908025E4F08F82120512
:203A0200229081AEE0FF9080247406F0908025E4F08F821205229081AEE0FF9080247407A6
:203A2200F0908025E4F08F821205229081AEE0FF9080247408F0908025E4F08F82120522B0
:203A42009081AEE0FF9080437401F0908044747EF0908045740AF0E4A3F08F8212070590DF
:203A620081AEE0FF9080437402F0908044747EF0908045740AF0E4A3F08F821207059081CD
:203A8200AEE0FF9080437403F0908044747EF0908045740AF0E4A3F08F821207059081AE7F
:203AA200E0FF9080437404F0908044747EF0908045740AF0E4A3F08F821207059081AEE02C
:203AC200FF9080437405F0908044747EF0908045740AF0E4A3F08F821207059081AEE0FFEC
:203AE2009080437406F0908044747EF0908045740AF0E4A3F08F821207059081AEE0FF903A
:203B020080437407F0908044747EF0908045740AF0E4A3F08F821207059081AEE0FF908028
:203B2200437408F0908044747EF0908045741EF0E4A3F08F821207059081AEE0FF90804330
:203B42007401F0908044F0908045F0E4A3F08F821207059081AEE0FF9080437402F0908068
:203B62004414F0908045F0E4A3F08F821207059081AEE0FF9080437403F09080447401F0FF
:203B8200908045F0E4A3F08F821207059081AEE0FF9080437404F09080447401F0908045D1
:203BA200F0E4A3F08F821207059081AEE0FF9080437405F09080447401F0908045F0E4A38E
:203BC200F08F821207059081AEE0FF9080437406F09080447401F0908045F0E4A3F08F82E3
:203BE2001207059081AEE0FF9080437407F09080447401F0908045F0E4A3F08F82120705A5
:203C02009081AEE0FF9080437408F09080447401F0908045F0E4A3F08F821207059081AEE2
:203C2200E0FF9080247415F09080257401F08F821205229081AEE0FF9080247416F09080B6
:203C4200257401F08F821205229081AEE0FF9080437415F0908044747EF09080457432F003
:203C6200E4A3F08F821207059081AEE0FF9080437416F0908044747EF09080457432F0E42C
:203C8200A3F08F821207059081AEE0FF9080437415F0908044747FF09080457401F0E4A37E
:203CA200F08F821207059081AEE0FF9080437416F0908044747FF09080457404F0E4A3F00D
:203CC2008F821207059081AEE0FF9080627415F0908063E4F0908064742DF0745DA3F07406
:203CE20080A3F08F8212088C9081AEE0FF908233E0FDA3E0FE9080437416F0908044E4F0C2
:203D0200908045EDF0EEA3F08F821207059081AEE0FF9080247417F09080257402F08F82C6
:203D22001205229081AEE0FF9080247418F09080257402F08F821205229081AEE0FF908067
:203D4200437417F0908044747EF09080457432F0E4A3F08F821207059081AEE0FF908043EB
:203D62007418F0908044747EF09080457432F0E4A3F08F821207059081AEE0FF9080437499
:203D820017F0908044747FF09080457401F0E4A3F08F821207059081AEE0FF908043741806
:203DA200F0908044747FF09080457404F0E4A3F08F821207059081AEE0FF9080627417F0EC
:203DC200908063E4F0908064743DF0745DA3F07480A3F08F8212088C9081AEE0FF908235FE
:203DE200E0FDA3E0FE9080437418F0908044E4F0908045EDF0EEA3F08F821207059081AECB
:203E0200E0FF908024740AF09080257403F08F821205229081AEE0FF908024740BF09080E8
:203E2200257403F08F821205229081AEE0FF908043740AF0908044747EF09080457432F02A
:203E4200E4A3F08F821207059081AEE0FF908043740BF0908044747EF09080457432F0E455
:203E6200A3F08F821207059081AEE0FF908043740AF0908044747FF09080457401F0E4A3A7
:203E8200F08F821207059081AEE0FF908043740BF0908044747FF09080457404F0E4A3F036
:203EA2008F821207059081AEE0FF908062740AF0908063E4F0908064744EF0745DA3F0740E
:203EC20080A3F08F8212088C9081AEE0FF9081C5E0FBA3E0FCA3E0FDA3E08B828C838DF0AC
:203EE200C007125A40AD82AE83D007908043740BF0908044E4F0908045EDF0EEA3F08F8268
:203F02001207059081AEE0FF908024740CF09080257404F08F821205229081AEE0FF9080AA
:203F220024740DF09080257404F08F821205229081AEE0FF908043740CF0908044747EF06C
:203F42009080457432F0E4A3F08F821207059081AEE0FF908043740DF0908044747EF090A6
:203F620080457432F0E4A3F08F821207059081AEE0FF908043740CF0908044747FF0908096
:203F8200457401F0E4A3F08F821207059081AEE0FF908043740DF0908044747FF0908045E1
:203FA2007404F0E4A3F08F821207059081AEE0FF908062740CF0908063E4F0908064745CE6
:203FC200F0745DA3F07480A3F08F8212088C9081AEE0FF9081C9E0FBA3E0FCA3E0FDA3E078
:203FE2008B828C838DF0C007125A40AD82AE83D007908043740DF0908044E4F0908045ED4E
:20400200F0EEA3F08F821207059081AEE0FF9080247410F09080257405F08F821205229040
:2040220081AEE0FF9080247411F09080257405F08F821205229081AEE0FF9080437410F07A
:20404200908044747EF09080457432F0E4A3F08F821207059081AEE0FF9080437411F090A1
:204062008044747EF09080457432F0E4A3F08F821207059081AEE0FF9080437410F0908092
:2040820044747FF09080457401F0E4A3F08F821207059081AEE0FF9080437411F0908044DD
:2040A200747FF09080457404F0E4A3F08F821207059081AEE0FF9080627410F0908063E4DD
:2040C200F09080647469F0745DA3F07480A3F08F8212088C9081AEE0FF9080437411F09015
:2040E2008044E4F09080457464F0E4A3F08F821207059081AEE0FF908024740EF0908025EA
:204102007406F08F821205229081AEE0FF908024740FF09080257406F08F821205229081AA
:20412200AEE0FF908043740EF0908044747EF09080457432F0E4A3F08F821207059081AEA5
:20414200E0FF908043740FF0908044747EF09080457432F0E4A3F08F821207059081AEE052
:20416200FF908043740EF0908044747FF09080457401F0E4A3F08F821207059081AEE0FF44
:20418200908043740FF0908044747FF09080457404F0E4A3F08F821207059081AEE0FF908F
:2041A2008062740EF0908063E4F0908064747DF0745DA3F07480A3F08F8212088C9081AEAC
:2041C200E0FF908237E0FDA3E0FE908043740FF0908044E4F0908045EDF0EEA3F08F821293
:2041E20007059081AEE0FF9080247412F09080257407F08F821205229081AEE0FF908024AD
:204202007413F09080257407F08F821205229081AEE0FF9080247414F09080257407F08FC2
:20422200821205229081AEE0FF9080437412F0908044747EF09080457432F0E4A3F08F82B1
:204242001207059081AEE0FF9080437413F0908044747EF09080457419F0E4A3F08F821234
:2042620007059081AEE0FF9080437414F0908044747EF09080457419F0E4A3F08F8212071E
:20428200059081AEE0FF9080437412F0908044747FF09080457401F0E4A3F08F8212070519
:2042A2009081AEE0FF9080437413F0908044747FF09080457403F0E4A3F08F82120705906B
:2042C20081AEE0FF9080437414F0908044747FF09080457403F0E4A3F08F82120705908159
:2042E200AEE0FF9080627412F0908063E4F0908064748AF0745DA3F07480A3F08F82120888
:204302008C9081AEE0FF9080437413F0908044E4F090804504F0E4A3F08F8212070590817F
:20432200AEE0FF9080437414F0908044E4F090804504F0E4A3F08F821207059081AEE0FF6E
:20434200908024741FF09080257408F08F821205229081AEE0FF908043741FF0908044747D
:204362007EF09080457422F0E4A3F08F821207059081AEE0FF9080247420F0908025740845
:20438200F08F821205229081AEE0FF9080437420F0908044747EF09080457420F0E4A3F0E6
:2043A2008F821207059081AEE0FF9080247421F09080257408F08F821205229081AEE0FFEC
:2043C2009080437421F0908044747EF09080457422F0E4A3F08F821207059081AEE0FF901E
:2043E2008024741AF0908025741FF08F821205229081AEE0FF908043741AF0908044747EE2
:20440200F09080457432F0E4A3F08F821207059081AEE0FF908043741AF0908044747FF073
:204422009080457402F0E4A3F08F821207059081AEE0FF908062741AF0908063E4F0908034
:2044420064749CF0745DA3F07480A3F08F8212088C9081AEE0FF908043741AF0908044741D
:204462007DF09080457404F0E4A3F08F821207059081AEE0FF908024741BF0908025741F51
:20448200F08F821205229081AEE0FF908043741BF0908044747EF09080457432F0E4A3F0D8
:2044A2008F821207059081AEE0FF908043741BF0908044747FF09080457402F0E4A3F08F63
:2044C200821207059081AEE0FF908062741BF0908063E4F090806474ADF0745DA3F0748087
:2044E200A3F08F8212088C9081AEE0FF908043741BF0908044747DF09080457404F0E4A387
:20450200F08F821207059081AEE0FF908024741CF09080257421F08F821205229081AEE085
:20452200FF908043741CF0908044747EF09080457432F0E4A3F08F821207059081AEE0FF42
:20454200908043741CF0908044747FF09080457402F0E4A3F08F821207059081AEE0FF90C0
:204562008062741CF0908063E4F090806474BDF0745DA3F07480A3F08F8212088C9081AE9A
:20458200E0FF908043741CF0908044747DF09080457404F0E4A3F08F821207059081AEE030
:2045A200FF908024741DF09080257421F08F821205229081AEE0FF908043741DF09080447B
:2045C200747EF09080457432F0E4A3F08F821207059081AEE0FF908043741DF0908044742C
:2045E2007FF09080457402F0E4A3F08F821207059081AEE0FF908062741DF0908063E4F011
:2046020090806474CDF0745DA3F07480A3F08F8212088C9081AEE0FF908043741DF09080CF
:2046220044747DF09080457404F0E4A3F08F821207059081AEE0FF908024741EF090802567
:204642007420F08F821205229081AEE0FF908043741EF0908044747EF09080457464F0E4E0
:20466200A3F08F821207059081AEE0FF908043741EF0908044747FF09080457402F0E4A38A
:20468200F08F821207059081AEE0FF908062741EF0908063E4F090806474DDF0745DA3F007
:2046A2007480A3F08F8212088C9081AEE0FF908043741EF0908044747DF09080457404F055
:2046C200E4A3F08F8212070590820974FFF0A3F0A3F0A3F090820DF0A3F0A3F0A3F0908221
:2046E20011F0A3F0A3F0A3F0908215F0A3F0A3F0A3F0908219F0A3F0A3F0A3F090821DF03B
:20470200A3F0A3F0A3F0908221F0A3F0A3F0A3F0908225F0A3F0A3F0A3F0908229F0A3F064
:20472200A3F0A3F090822DF0A3F0A3F0A3F0907F0075F00074FE1258EB9081AEE0907F017F
:204742001258EB1582740A1258EB9081AEE0FF90807A7416F090807BE4F08F82120A5DE528
:20476200828583F0908233F0E5F0A3F09081AEE0FF90807A7418F090807BE4F08F82120AF0
:204782005DE5828583F0908235F0E5F0A3F09081AEE0FF908086740BF0908087E4F08F829D
:2047A200120B69AC82AD83AEF0FF9081C5ECF0EDA3F0EEA3F0EFA3F09081AEE0FF9080860D
:2047C200740DF0908087E4F08F82120B69AC82AD83AEF0FF9081C9ECF0EDA3F0EEA3F0EFC3
:2047E200A3F09081AEE0FF9080867411F0908087E4F08F82120B69AC82AD83AEF0FFE4C0DA
:20480200E0C0E074C8C0E07442C0E08C828D838EF0EF125AE9AC82AD83AEF0FFE58124FC83
:20482200F5819081D9ECF0EDA3F0EEA3F0EFA3F09081AEE0FF9080867411F0908087E4F0A3
:204842008F82120B69AC82AD83AEF0FFE4C0E0C0E074C8C0E07442C0E08C828D838EF0EFE3
:20486200125AE9AC82AD83AEF0FFE58124FCF5819081DDECF0EDA3F0EEA3F0EFA3F090818C
:20488200CDE4F0A3F0A3F0A3F0907FFEF5F0125BACFB9081B0F09081F3E4F0BB1A02801BBB
:2048A200BB1B03024925BB1C030249ABBB1D03024A31BB1E03024A99024C8F9081C5E0F839
:2048C200A3E0F9A3E0FAA3E0FBC007C006C005C0049081C9E0C0E0A3E0C0E0A3E0C0E0A306
:2048E200E0C0E0888289838AF0EB12527EA882A983AAF0FBE58124FCF581D004D005D00673
:20490200D0079081CDE8F0E9A3F0EAA3F0EBA3F09081DDECF0EDA3F0EEA3F0EFB2E7A3F0AB
:20492200024C8F9081C5E0F8A3E0F9A3E0FAA3E0FBC007C006C005C0049081C9E0C0E0A360
:20494200E0C0E0A3E0C0E0A3E0C0E0888289838AF0EB12527EA882A983AAF0FBE58124FCC1
:20496200F581D004D005D006D0079081CDE8F0E9A3F0EAA3F0EBA3F09081D9E0F8A3E0F9FE
:20498200A3E0FAA3E0FB9081D9E8F0E9A3F0EAA3F0EBB2E7A3F09081DDECF0EDA3F0EEA36D
:2049A200F0EFB2E7A3F0024C8F9081C5E0F8A3E0F9A3E0FAA3E0FBC007C006C005C0049042
:2049C20081C9E0C0E0A3E0C0E0A3E0C0E0A3E0C0E0888289838AF0EB125936A882A983AA86
:2049E200F0FBE58124FCF581D004D005D006D0079081CDE8F0E9A3F0EAA3F0EBA3F090813A
:204A0200D9E0F8A3E0F9A3E0FAA3E0FB9081D9E8F0E9A3F0EAA3F0EBB2E7A3F09081DDECC0
:204A2200F0EDA3F0EEA3F0EFB2E7A3F0024C8F9081C5E0F8A3E0F9A3E0FAA3E0FBC007C0DF
:204A420006C005C0049081C9E0C0E0A3E0C0E0A3E0C0E0A3E0C0E0888289838AF0EB12591C
:204A620036A882A983AAF0FBE58124FCF581D004D005D006D0079081CDE8F0E9A3F0EAA302
:204A8200F0EBA3F09081DDECF0EDA3F0EEA3F0EFB2E7A3F0024C8F9081F37401F09081D990
:204AA200E0C0E0A3E0C0E0A3E0C0E0A3E0C0E090000075F0C87442125289AC82AD83AEF0AF
:204AC200FFE58124FCF5819081D9ECF0EDA3F0EEA3F0EFA3F09081DDE4F0A3F0A3F0A3F015
:204AE2009081D9E0FCA3E0FDA3E0FEA3E0FFC007C006C005C004E4C0E0C0E0C0E0C0E08C65
:204B0200828D838EF0EF125906AB82E58124FCF581D004D005D006D007EB601B9081DDEC64
:204B2200F0EDA3F0EEA3F0EFB2E7A3F09081D9E4F0A3F0A3F0A3F09081D9E0FCA3E0FDA307
:204B4200E0FEA3E0FFC007C006C005C004C004C005C006C00790000075F034744312590676
:204B6200AB82E58124FCF581D004D005D006D007EB6034E4C0E0C0E074B4C0E07443C0E0F2
:204B82008C828D838EF0EF12527EAC82AD83AEF0FFE58124FCF5819081D9ECF0EDA3F0EE7B
:204BA200A3F0EFA3F080909081DDE0FCA3E0FDA3E0FEA3E0FFC007C006C005C004C004C0E7
:204BC20005C006C00790000075F0347443125906AB82E58124FCF581D004D005D006D00771
:204BE200EB6034E4C0E0C0E074B4C0E07443C0E08C828D838EF0EF12527EA882A983AAF094
:204C0200FBE58124FCF5819081DDE8F0E9A3F0EAA3F0EBA3F08090C007C006C005C00490A8
:204C220081D9E0C0E0A3E0C0E0A3E0C0E0A3E0C0E090FA3575F08E743C125289A882A9838A
:204C4200AAF0FBE58124FCF581D004D005D006D0079081D9E8F0E9A3F0EAA3F0EBA3F0C072
:204C620004C005C006C00790FA3575F08E743C125289AC82AD83AEF0FFE58124FCF5819006
:204C820081DDECF0EDA3F0EEA3F0EFA3F09081C9E0FCA3E0FDA3E0FEA3E0FFC007C006C0CF
:204CA20005C0049081D9E0C0E0A3E0C0E0A3E0C0E0A3E0C0E08C828D838EF0EF125289A836
:204CC20082A983AAF0FBE58124FCF581D004D005D006D0079081D1E8F0E9A3F0EAA3F0EB9F
:204CE200A3F09081DDE0C0E0A3E0C0E0A3E0C0E0A3E0C0E08C828D838EF0EF125289AC82A2
:204D0200AD83AEF0FFE58124FCF5819081D5ECF0EDA3F0EEA3F0EFA3F09081AEE0FF9080D5
:204D22007A740FF090807BE4F08F82120A5DE5828583F0908237F0E5F0A3F09081AEE0FFFD
:204D420090807A7413F090807BE4F08F82120A5DAE82908231EEF09081AEE0FF90807A747A
:204D620014F090807BE4F08F82120A5DAE82908232EEF09081F3E06008122C46123105805A
:204D8200061219B31220509081AEE0FF908062741AF0908063E4F090806474EBF0745DA39F
:204DA200F07480A3F08F8212088C908209E0FCA3E0FDA3E0FEA3E0FF20E74A9081AEE0FB5E
:204DC200908054741AF09080557403F0908056ECF0EDA3F0EEA3F0EFA3F08B821207E690C2
:204DE20081AEE0FF908062741AF09080637403F090806474F9F0745DA3F07480A3F08F820C
:204E020012088C80249081AEE0FF908062741AF09080637403F090806474FBF0745DA3F0A7
:204E22007480A3F08F8212088C90820DE0FCA3E0FDA3E0FEA3E0FF20E7269081AEE0FB905D
:204E42008054741AF09080557403F0908056ECF0EDA3F0EEA3F0EFA3F08B821207E68024BD
:204E62009081AEE0FF908062741AF09080637403F090806474FEF0745DA3F07480A3F08F78
:204E82008212088C9081AEE0FF908062741BF0908063E4F09080647400F0745EA3F07480E1
:204EA200A3F08F8212088C908211E0FCA3E0FDA3E0FEA3E0FF20E74A9081AEE0FB908054D5
:204EC200741BF09080557403F0908056ECF0EDA3F0EEA3F0EFA3F08B821207E69081AEE015
:204EE200FF908062741BF09080637403F090806474F9F0745DA3F07480A3F08F8212088C73
:204F020080249081AEE0FF908062741BF09080637403F090806474FBF0745DA3F07480A3B4
:204F2200F08F8212088C908215E0FCA3E0FDA3E0FEA3E0FF20E7269081AEE0FB90805474A3
:204F42001BF09080557403F0908056ECF0EDA3F0EEA3F0EFA3F08B821207E680249081AE44
:204F6200E0FF908062741BF09080637403F090806474FEF0745DA3F07480A3F08F82120899
:204F82008C9081AEE0FF908062741CF0908063E4F0908064740DF0745EA3F07480A3F08F4C
:204FA2008212088C908219E0FCA3E0FDA3E0FEA3E0FF20E74A9081AEE0FB908054741CF06E
:204FC2009080557403F0908056ECF0EDA3F0EEA3F0EFA3F08B821207E69081AEE0FF908084
:204FE20062741CF09080637403F090806474F9F0745DA3F07480A3F08F8212088C8024904C
:2050020081AEE0FF908062741CF09080637403F090806474FBF0745DA3F07480A3F08F82E5
:2050220012088C90821DE0FCA3E0FDA3E0FEA3E0FF20E7269081AEE0FB908054741CF090FF
:2050420080557403F0908056ECF0EDA3F0EEA3F0EFA3F08B821207E680249081AEE0FF906F
:205062008062741CF09080637403F090806474FEF0745DA3F07480A3F08F8212088C908169
:20508200AEE0FF908062741DF0908063E4F0908064741AF0745EA3F07480A3F08F8212083E
:2050A2008C908221E0FCA3E0FDA3E0FEA3E0FF20E74A9081AEE0FB908054741DF09080559B
:2050C2007403F0908056ECF0EDA3F0EEA3F0EFA3F08B821207E69081AEE0FF908062741DF5
:2050E200F09080637403F090806474F9F0745DA3F07480A3F08F8212088C80249081AEE02E
:20510200FF908062741DF09080637403F090806474FBF0745DA3F07480A3F08F8212088C4C
:20512200908225E0FCA3E0FDA3E0FEA3E0FF20E7269081AEE0FB908054741DF09080557452
:2051420003F0908056ECF0EDA3F0EEA3F0EFA3F08B821207E680249081AEE0FF9080627461
:205162001DF09080637403F090806474FEF0745DA3F07480A3F08F8212088C9081AEE0FF30
:20518200908062741EF0908063E4F09080647427F0745EA3F07480A3F08F8212088C90821E
:2051A20029E0FCA3E0FDA3E0FEA3E0FF20E74A9081AEE0FB908054741EF09080557403F0C8
:2051C200908056ECF0EDA3F0EEA3F0EFA3F08B821207E69081AEE0FF908062741EF090805A
:2051E200637403F090806474F9F0745DA3F07480A3F08F8212088C80249081AEE0FF90801E
:2052020062741EF09080637403F090806474FBF0745DA3F07480A3F08F8212088C90822D1A
:20522200E0FCA3E0FDA3E0FEA3E0FF20E7279081AEE0FB908054741EF09080557403F09003
:205242008056ECF0EDA3F0EEA3F0EFA3F08B821207E60247309081AEE0FF908062741EF000
:1C5262009080637403F090806474FEF0745DA3F07480A3F08F8212088C02473065
:205CBC0079203D2000202A20636F73287429202D2000202A20636F73287429202B200020F2
:205CDC002A20636F73282000202900202A20740078203D2000202A2073696E287429202DEF
:205CFC002000202A2073696E287429202B2000202A2073696E2820002F0073696E280020C7
:205D1C002A2074202B2000202A2074202D20002900506F696E74732070657220706173730F
:205D3C00004E756D626572206F662070617373657300537461746F72207261646975730015
:205D5C00526F746F72207261646975730044726177696E6720666163746F722078313030D5
:205D7C000044726177696E672073697A65005374616E64617264207C20456E67696E65001D
:205D9C004879706F74726F63686F69640A3F0A3F004F7468657220696E6E65720A3F0A3F89
:205DBC000045706974726F63686F69640A3F0A3F004F74686572206F757465720A3F0A3FD8
:205DDC00004C697373616A6F75730A3F0A3F004879706F74726F63686F69640A000A003F09
:205DFC000A003F004F7468657220696E6E65720A0045706974726F63686F69640A004F74AF
:205E1C00686572206F757465720A004C697373616A6F75730A00FFFFFFFFFFFFFFFFFFFF11
:205E3C00FFFFFFFFFFFFFFFFFFFFFFFFFFFFFFFFFFFFFFFFFFFFFFFFFFFFFFFFFFFF010162
:065E5C0032001C0064008E
:0B527E00A8811818C6B2E7C602593616
:2052890012532CBC0003025AA1EF60FA30D502B2D1E583B4FF03025AB7E582B4FF03025A3B
:2052A900B7258340072482400B025AA12483145003025AB7F582EA8DF0A4A8F0EA8EF0A40A
:2052C90028F8E435F0F9EB8DF0A428E935F0F9E433CA8FF0A429F9EA35F0FAEBF88EF0A434
:2052E90029F9EA35F0FAE433FBEC8DF0A429F9EA35F0FAE43BFBE88FF0A42AFAEB35F0FBDC
:20530900E433CCFD8EF0A42AFAEB35F0FBE43CFCED8FF0A42BFBEC35F0FC20E70312535A2B
:03532900025A80A5
:20532C00AA82AB83A2F73392D1F5826002D2F7ACF0E58124F9F8E6FD08E6FE0886F008E6E4
:0E534C00A2F73392D5F5836002D2F7AFF022BC
:06003500E478FFF6D8FD9F
:20535A007804EC7011E58224F8500AF582E4C9CACBFCD8EF22EC7820058220E713D5820152
:13537A0022C3E933F9EA33FAEB33FBEC33FCD8EA15822260
:20538D00AC82AD83AEF0FF8CF0ED42F0EE42F0EF547F45F0700990000075F080743F229000
:0F53AD0081F47401F08C828D838EF0EF0253E84F
:200013007930E94400601B7A01905E32780975A082E493F2A308B8000205A0D9F4DAF27548
:02003300A0FF2C
:2053BC00AC82AD83AEF0FF8CF0ED42F0EE42F0EF547F45F07007900000E4F5F0229081F42D
:0C53DC00E4F08C828D838EF0EF0253E829
:2053E800AF82AE83ADF0FC9081F5EFF0EEA3F0EDA3F0ECA3F09081F4E0FFE0605D9081F5BE
:20540800E0FBA3E0FCA3E0FDA3E08B828C838DF0C00712598FAB82AC83ADF0FE74DBC0E0E7
:20542800740FC0E074C9C0E0743FC0E08B828C838DF0EE125936AB82AC83ADF0FEE5812468
:20544800FCF581D0079081F9EBF0ECA3F0EDA3F0EEA3F0908205E4F0806B9081F5E0FBA33C
:20546800E0FCA3E0FDA3E0FEC007C006C005C004C003E4C0E0C0E0C0E0C0E08B828C838D61
:20548800F0EE125906AA82E58124FCF581D003D004D005D006D007EA60189081F9EBF0EC31
:2054A800A3F0EDA3F0EEB2E7A3F09082057401F080139081F9EBF0ECA3F0EDA3F0EEA3F043
:2054C800908205E4F09081F9E0FBA3E0FCA3E0FDA3E0FEC007C006C005C004C003C003C018
:2054E80004C005C006900C0075F0497446125906AA82E58124FCF581D003D004D005D00626
:20550800D007EA600F9082077422F0E4A3F0900000F5F022C007C003C004C005C00690F944
:205528008375F0A2743E125289AB82AC83ADF0FEE58124FCF581E4C0E0C0E0C0E0743FC010
:20554800E08B828C838DF0EE125936AB82AC83ADF0FEE58124FCF5818B828C838DF0EE12AF
:205568005A40AD82AE83D007ED30E00A908205E0B40100E433F08D828E83C007125A33AB67
:2055880082AC83ADF0FED007908201EBF0ECA3F0EDA3F0EEA3F0EF6030E4C0E0C0E0C0E02F
:2055A800743FC0E08B828C838DF0EE12527EAC82AD83AEF0FFE58124FCF581908201ECF041
:2055C800EDA3F0EEA3F0EFA3F09081F5E0FCA3E0FDA3E0FEA3E08C828D838EF012598FAC98
:2055E80082AD83AEF0FFC007C006C005C004125A40125A33A882A983AAF0FBD004D005D08F
:2056080006D007C003C002C001C000C000C001C002C0038C828D838EF0EF12527E85821A0B
:2056280085831B85F01CF51DE58124FCF581908201E0F51EA3E0F51FA3E0F520A3E0F521D2
:20564800C01EC01FC020C02190000075F0497440125289AC82AD83AEF0FFE58124FCF581EE
:20566800D000D001D002D003C004C005C006C007888289838AF0EB12527EAC82AD83AEF06D
:20568800FFE58124FCF581C01AC01BC01CC01D8C828D838EF0EF125936AC82AD83AEF0FF72
:2056A800E58124FCF581C007C006C005C004C01EC01FC020C02190AA2275F07D743A125202
:2056C80089A882A983AAF0FBE58124FCF581D004D005D006D007C000C001C002C0038C82E8
:2056E8008D838EF0EF12527EAC82AD83AEF0FFE58124FCF5819081FDECF0EDA3F0EEA3F061
:20570800EFA3F0C007C006C005C004C004C005C006C0078C828D838EF0EF12528985821E36
:2057280085831F85F020F521E58124FCF581C01EC01FC020C02190FFF375F07F743312599D
:2057480006AB82E58124FCF581D004D005D006D007EB70030258BDC007C006C005C004C071
:205768001EC01FC020C021909C5B75F02E7436125289A882A983AAF0FBE58124FCF5817457
:2057880022C0E074B2C0E0744FC0E074B9C0E0888289838AF0EB125936A882A983AAF0FB42
:2057A800E58124FCF581C01EC01FC020C021888289838AF0EB125289A882A983AAF0FBE52F
:2057C8008124FCF581743EC0E07487C0E07408C0E0743CC0E0888289838AF0EB125936A88D
:2057E80082A983AAF0FBE58124FCF581C01EC01FC020C021888289838AF0EB125289A88252
:20580800A983AAF0FBE58124FCF58174A4C0E074AAC0E0742AC0E074BEC0E0888289838A9D
:20582800F0EB125936A882A983AAF0FBE58124FCF581C01EC01FC020C021888289838AF0EF
:20584800EB125289A882A983AAF0FBE58124FCF581D004D005D006D007C007C006C005C019
:2058680004C000C001C002C0038C828D838EF0EF125289A882A983AAF0FBE58124FCF581B7
:20588800D004D005D006D007C000C001C002C0038C828D838EF0EF125936AC82AD83AEF07C
:2058A800FFE58124FCF5819081FDECF0EDA3F0EEA3F0EFA3F0908205E060129081FDE0FC25
:2058C800A3E0FDA3E0FEA3E0B2E7FF800E9081FDE0FCA3E0FDA3E0FEA3E0FF8C828D838EFD
:0358E800F0EF22BC
:1B58EB0020F71130F6138883A88220F509F6A8837583002280FEF280F5F022BC
:20590600FFA8811818125A08D2D133E6400730E70B7582002220E70675820122C2D1125952
:10592600EAE97003F5822220D101B3E433F582223D
:20003B007800E84400600A790075A080E4F309D8FC7809E84402600C7903908000E4F0A3B7
:04005B00D8FCD9FAFA
:2059360012532C7900E583B58202800D5003125ACFE583C39582125C08E5D0C465D020E124
:2059560017EA2DFAEB3EFBEC3FFC50097401125C08EC4480FC025A80C3EA9DFAEB9EFBEC3E
:195976009FFC500FC3E499F9E49AFAE49BFBE49CFCB2D112535A025A8059
:20598F00C022858122AC82AD83AEF0FFE5812404F581E52204F8A60408A60508A60608A62D
:2059AF0007A92209870409870509870609870719191953077FA70409A70509A70609A707BF
:1B59CF00A9220987040987050987060987078C828D838EF0EF852281D02222D5
:2059EA007901AA82E68F82B5821318E6B5F00E18E6B5830918E68A82B58202790022B480B4
:205A0A000FE5F0700AE5837006E58270027F00EFB6801518B6001018B6000B18B60006081B
:095A2A0008087600220808082291
:0D5A3300AC83AB827A007900748E025BD1E7
:205A4000125C4B700AE582458345F0700122E430D112F4700BE5F0F47006E58330E70122D5
:145A600090800022700AE5F07006E58320E70122907FFF2279
:0C5A7400E4AC83AB82FAF9748E025BFE96
:205A8000B98003EA13B34010EA2401FAE43BFBE43CFC50047C800582BC000EBB000BBA006A
:205AA00008E4F5F0F583F58222A2D1E582138CF092F78B838A8222E4F583F58275F080F42A
:0F5AC000A2D11322E4F583F58275F0C0747F2222
:1A5ACF00E582C583F582A2D133A2D592D11392D5ECCFFCEBCEFBEACDFA225F
:205AE90012532C30D502B2D1BF0009BC0003025AC4025AB7BC0003025AA1E583B4FF0BE501
:205B090082B4FF03025AC4025AA1E582B4FF03025AB7C395835007247F400B025AA1248036
:205B2900145003025AB7F582C3ED9AEE9BEF9C40111582C3EA33F9EB33FAEC33FBE433FC07
:205B49008005E4CCCBCAF9C08275F019C3E99DEA9EEB9FEC9400D5F002802D400EE99DF99D
:205B6900EA9EFAEB9FFBEC9400FCC3B3E833F8E58233F582E58333F583C3E933F9EA33FAFD
:205B8900EB33FBEC33FC80C4B3E4F938FAE43582FBE43583FCD082500405827C8012535AAC
:035BA900025A9805
:0D000600758125125CB8E5826003020003DD
:1C5BAC0020F71430F6148883A88220F507E6A88375830022E280F7E49322E02208
:205BC800FCABF0AA83A982749EF582C2D1EC30E716D2D1E9F42401F9EAF43400FAEBF434DC
:0D5BE80000FBECF43400FC12535A025A800A
:135BF500FCABF0AA83A982749EC2D1F58212535A025A80F7
:205C08006040F82582500274FFF582E824F8501ECCCBCAF9E4CC24F85014CBCAF9E4CB24A4
:205C2800F8500BCAF9E4CA24F8500379002224086010F8C3EC13FCEB13FBEA13FAE913F957
:035C4800D8F1226E
:205C4B00125CA6C3749E958240397900125C0830D126E9F42401F582EAF43400F583EBF4C8
:205C6B003400F5F0ECF43400700AE582458345F0700122E430E70F22EC20E71489828A8330
:1B5C8B008BF02230D10AE4F582F583F5F074802274FFF582F583F5F0747F222C
:125CA600AA82AB83A2F73392D1F5826002D2F7ACF02203
:045CB80075820022CF
:00000001FF
