:03000000020006F5
:03005F0002000399
:030003000219B32C
:20006200907F0075F00074F71242DE907F08E0F58222E582908000F0E0FF907F0175F00022
:20008200EF1242DE158274FC1242DE907F08E0FCA3E0FDA3E0FEA3E08C828D838EF022903F
:2000A2007F0075F00074FA0242DEAFF0AE83E582908001F0EEA3F0EFA3F0907F0175F0001A
:2000C200740B1242DE908001E0FDA3E0FEA3E0FF7C00EC2DF9E43EFA8F0389828A838BF0AD
:2000E20012459FFB6013907F08EBF0907F0075F00074FB1242DE0C80D922E582908004F0A1
:20010200E0907F08F0907F01E4F5F01242DE1582F5F074FB0242DEE582908005F0E0907F83
:2001220008F0907F0175F00074011242DE158274FB0242DEE582908006F0E0907F08F0909D
:200142007F0175F00074021242DE158274FB0242DEE582908007F0E0907F08F0907F01750E
:20016200F00074031242DE158274FB0242DEAF83E582908008F0EFA3F0908008E0FEA3E020
:20018200FF907F08EEF0EFA3F0907F0175F00074041242DE1582F40242DEAF83E582908072
:2001A2000AF0EFA3F090800AE0FEA3E0FF907F08EEF0EFA3F0907F0175F00074051242DEB0
:2001C200158274FB0242DEAF83E58290800CF0EFA3F090800CE0FEA3E0FF907F08EEF0EF6E
:2001E200A3F0907F0175F00074061242DE158274FB0242DEAF83E58290800EF0EFA3F09068
:20020200800EE0FEA3E0FF907F08EEF0EFA3F0907F0175F00074071242DE158274FB02420B
:20022200DEAF82AE83ADF0FC908010EFF0EEA3F0EDA3F0ECA3F0908010E0FCA3E0FDA3E065
:20024200FEA3E0FF907F08ECF0EDA3F0EEA3F0EFA3F0907F0175F00074081242DE15827478
:20026200FB0242DEAF82AE83ADF0FC908014EFF0EEA3F0EDA3F0ECA3F0908014E0FCA3E05E
:20028200FDA3E0FEA3E0FF907F08ECF0EDA3F0EEA3F0EFA3F0907F0175F00074091242DEC2
:2002A200158274FB0242DEAF82AE83ADF0FC908018EFF0EEA3F0EDA3F0ECA3F0908018E08A
:2002C200FCA3E0FDA3E0FEA3E0FF907F08ECF0EDA3F0EEA3F0EFA3F0907F0175F000740A34
:2002E2001242DE158274FB0242DEAFF0AE83E58290801EF0EEA3F0EFA3F0907F0175F000D5
:20030200740B1242DE158274F81242DE907F08E0FEA3E0FF908021EEF0EFA3F090801CE0E1
:20032200FCA3E0FDC3EC9EED9F5008908021ECF0EDA3F090801EE0FDA3E0FEA3E0FF908063
:200342001EE0F5F0A3E045F06064908021E0FBA3E0FC79007A00C3E99BEA9C5034C003C0EA
:2003620004907F0075F00074F91242DEE92DF556EA3EF5578F58907F08E0855682855783F5
:200382008558F01242DE09B900010AD004D00380C590801EE0FDA3E0FEA3E0FFEB2DFBEC96
:2003A2003EFC8F028B828C838AF0E41242DE908021E0FEA3E08E82F58322907F01E4F5F0AF
:2003C2001242DE1582F5F074F81242DE907F08E0F58222907F0175F00074011242DE15828C
:2003E20074F81242DE907F08E0F58222907F0175F00074021242DE158274F81242DE907F6C
:2004020008E0F58222907F0175F00074031242DE158274F81242DE907F08E0F58222907F67
:200422000175F00074041242DE158274F81242DE907F08E0FEA3E08E82F58322907F0175CE
:20044200F00074051242DE158274F81242DE907F08E0FEA3E08E82F58322907F0175F00033
:2004620074061242DE158274F81242DE907F08E0FEA3E08E82F58322907F0175F000740787
:200482001242DE1582F41242DE907F08E0FEA3E08E82F58322907F0175F00074081242DE26
:2004A200158274F81242DE907F08E0FCA3E0FDA3E0FEA3E08C828D838EF022907F0175F05B
:2004C2000074091242DE158274F81242DE907F08E0FCA3E0FDA3E0FEA3E08C828D838EF023
:2004E20022907F0175F000740A1242DE158274F81242DE907F08E0FCA3E0FDA3E0FEA3E007
:200502008C828D838EF022E582908023F0E0FF907F0175F000EF1242DE158274040242DEEB
:20052200E582908026F0E0FF907F0175F000EF1242DE908024E0907F021242DE908025E04B
:20054200907F031242DE907F0074050242DEE582908028F0E0FF907F0175F000EF1242DEA7
:20056200908027E0907F021242DE907F0074060242DEE58290802CF090802BE0FF90802C8B
:20058200E0FE907F0175F000EE1242DE908029E0907F021242DE90802AE0907F031242DE2C
:2005A200A3E41242DE907F08EFF0907F0074070242DEE582908030F090802FE0FF908030E9
:2005C200E0FE907F0175F000EE1242DE90802DE0907F021242DE90802EE0907F031242DEE4
:2005E200A374011242DE907F08EFF0907F0074070242DEE582908034F0908033E0FF908040
:2006020034E0FE907F0175F000EE1242DE908031E0907F021242DE908032E0907F03124245
:20062200DEA374021242DE907F08EFF0907F0074070242DEE582908038F0908037E0FF9098
:200642008038E0FE907F0175F000EE1242DE908035E0907F021242DE908036E0907F0312BB
:2006620042DEA374031242DE907F08EFF0907F0074070242DEE58290803DF090803BE0FE9D
:20068200A3E0FF90803DE0FD907F0175F000ED1242DE908039E0907F021242DE90803AE082
:2006A200907F031242DEA374041242DE907F08EEF0EFA3F0907F0074070242DEE58290800D
:2006C20042F0908040E0FEA3E0FF908042E0FD907F0175F000ED1242DE90803EE0907F0234
:2006E2001242DE90803FE0907F031242DEA374051242DE907F08EEF0EFA3F0907F00740704
:200702000242DEE582908047F0908045E0FEA3E0FF908047E0FD907F0175F000ED1242DE8A
:20072200908043E0907F021242DE908044E0907F031242DEA374061242DE907F08EEF0EF96
:20074200A3F0907F0074070242DEE58290804CF090804AE0FEA3E0FF90804CE0FD907F01A2
:2007620075F000ED1242DE908048E0907F021242DE908049E0907F031242DEA37407124289
:20078200DE907F08EEF0EFA3F0907F0074070242DEE582908053F090804FE0FCA3E0FDA33E
:2007A200E0FEA3E0FF908053E0FB907F0175F000EB1242DE90804DE0907F021242DE908077
:2007C2004EE0907F031242DEA374081242DE907F08ECF0EDA3F0EEA3F0EFA3F0907F00745B
:2007E200070242DEE58290805AF0908056E0FCA3E0FDA3E0FEA3E0FF90805AE0FB907F01F3
:2008020075F000EB1242DE908054E0907F021242DE908055E0907F031242DEA374091242D0
:20082200DE907F08ECF0EDA3F0EEA3F0EFA3F0907F0074070242DEE582908061F090805D81
:20084200E0FCA3E0FDA3E0FEA3E0FF908061E0FB907F0175F000EB1242DE90805BE0907FFF
:20086200021242DE90805CE0907F031242DEA3740A1242DE907F08ECF0EDA3F0EEA3F0EF7C
:20088200A3F0907F0074070242DEE582908067F0908064E0FDA3E0FEA3E0FF908064E0F5AC
:2008A200F0A3E045F06018C007C006C0051200A1D005D006D0078D828E838FF01200AC90A2
:2008C2008067E0FF907F0175F000EF1242DE908062E0907F021242DE908063E0907F0312AE
:2008E20042DEA3740B1242DE907F0074070242DEE58290806AF0E0FF907F0175F000EF12B0
:2009020042DE908068E0907F021242DE908069E0907F031242DEA3E41242DEF582F5F074F4
:20092200081242DE907F08E0F58222E58290806DF0E0FF907F0175F000EF1242DE90806B27
:20094200E0907F021242DE90806CE0907F031242DEA374011242DE907F0074081242DE903B
:200962007F08E0F58222E582908070F0E0FF907F0175F000EF1242DE90806EE0907F0212A8
:2009820042DE90806FE0907F031242DEA374021242DE907F0074081242DE907F08E0F5821C
:2009A20022E582908073F0E0FF907F0175F000EF1242DE908071E0907F021242DE9080729E
:2009C200E0907F031242DEA374031242DE907F0074081242DE907F08E0F58222E5829080E1
:2009E20076F0E0FF907F0175F000EF1242DE908074E0907F021242DE908075E0907F0312EA
:200A020042DEA374041242DE907F00231242DE907F08E0FEA3E08E82F58322E582908079F1
:200A2200F0E0FF907F0175F000EF1242DE908077E0907F021242DE908078E0907F031242D7
:200A4200DEA374051242DE907F0074081242DE907F08E0FEA3E08E82F58322E58290807C96
:200A6200F0E0FF907F0175F000EF1242DE90807AE0907F021242DE90807BE0907F03124291
:200A8200DEA374061242DE907F0074081242DE907F08E0FEA3E08E82F58322E58290807F52
:200AA200F0E0FF907F0175F000EF1242DE90807DE0907F021242DE90807EE0907F0312424B
:200AC200DEA374071242DE907F00041242DE907F08E0FEA3E08E82F58322E582908082F096
:200AE200E0FF907F0175F000EF1242DE908080E0907F021242DE908081E0907F031242DE17
:200B0200A374081242DE907F001242DE907F08E0FCA3E0FDA3E0FEA3E08C828D838EF0220C
:200B2200E582908085F0E0FF907F0175F000EF1242DE908083E0907F021242DE908084E028
:200B4200907F031242DEA374091242DE907F00141242DE907F08E0FCA3E0FDA3E0FEA3E031
:200B62008C828D838EF022E582908088F0E0FF907F0175F000EF1242DE908086E0907F02CA
:200B82001242DE908087E0907F031242DEA3740A1242DE907F0074081242DE907F08E0FC63
:200BA200A3E0FDA3E0FEA3E08C828D838EF022E582908090F0E0FF907F0175F000EF124263
:200BC200DE908089E0907F021242DE90808AE0907F031242DEA3740B1242DE907F007408DC
:200BE2001242DE90808BE0FDA3E0FEA3E0FF90808EE0FBA3E0FC90801CEBF0ECA3F08D82B9
:200C02008E838FF00202ECE582908092F0E0FF907F0175F000EF1242DE908091E0907F0252
:200C22001242DE907F0074090242DEE582908099F0908093E0907F10F0908094E0907F1895
:200C4200F0908095E0907F20F0908099E0FF907F0175F000EF1242DEA3E41242DE90809681
:200C6200E0907F031242DE908097E0907F041242DE908098E0907F051242DE907F00740D24
:200C82000242DEE5829080A0F090809AE0907F10F090809BE0907F18F090809CE0907F2033
:200CA200F09080A0E0FF907F0175F000EF1242DEA374011242DE90809DE0907F031242DE02
:200CC20090809EE0907F041242DE90809FE0907F051242DE907F00740D0242DEE582908041
:200CE200AAF09080A1E0FEA3E0FF907F10EEF0EFA3F09080A3E0FEA3E0FF907F18EEF0EFC1
:200D0200A3F09080A5E0FEA3E0FF907F20EEF0EFA3F09080AAE0FF907F0175F000EF124249
:200D2200DEA374041242DE9080A7E0907F031242DE9080A8E0907F041242DE9080A9E090A5
:200D42007F051242DE907F00740D0242DEE5829080B4F09080ABE0FEA3E0FF907F10EEF0F6
:200D6200EFA3F09080ADE0FEA3E0FF907F18EEF0EFA3F09080AFE0FEA3E0FF907F20EEF01F
:200D8200EFA3F09080B4E0FF907F0175F000EF1242DEA374051242DE9080B1E0907F031283
:200DA20042DE9080B2E0907F041242DE9080B3E0907F051242DE907F00740D0242DEE58228
:200DC2009080BEF09080B5E0FEA3E0FF907F10EEF0EFA3F09080B7E0FEA3E0FF907F18EE73
:200DE200F0EFA3F09080B9E0FEA3E0FF907F20EEF0EFA3F09080BEE0FF907F0175F000EFB6
:200E02001242DEA374061242DE9080BBE0907F031242DE9080BCE0907F041242DE9080BDA2
:200E2200E0907F051242DE907F00740D0242DEE5829080C8F09080BFE0FEA3E0FF907F105B
:200E4200EEF0EFA3F09080C1E0FEA3E0FF907F18EEF0EFA3F09080C3E0FEA3E0FF907F2016
:200E6200EEF0EFA3F09080C8E0FF907F0175F000EF1242DEA374071242DE9080C5E0907FAF
:200E8200031242DE9080C6E0907F041242DE9080C7E0907F051242DE907F00740D0242DE71
:200EA200E5829080D8F09080C9E0FCA3E0FDA3E0FEA3E0FF907F10ECF0EDA3F0EEA3F0EFCE
:200EC200A3F09080CDE0FCA3E0FDA3E0FEA3E0FF907F18ECF0EDA3F0EEA3F0EFA3F09080AB
:200EE200D1E0FCA3E0FDA3E0FEA3E0FF907F20ECF0EDA3F0EEA3F0EFA3F09080D8E0FF90DB
:200F02007F0175F000EF1242DEA374081242DE9080D5E0907F031242DE9080D6E0907F0496
:200F22001242DE9080D7E0907F051242DE907F00740D0242DEE5829080E8F09080D9E0FCAA
:200F4200A3E0FDA3E0FEA3E0FF907F10ECF0EDA3F0EEA3F0EFA3F09080DDE0FCA3E0FDA3A2
:200F6200E0FEA3E0FF907F18ECF0EDA3F0EEA3F0EFA3F09080E1E0FCA3E0FDA3E0FEA3E038
:200F8200FF907F20ECF0EDA3F0EEA3F0EFA3F09080E8E0FF907F0175F000EF1242DEA3743E
:200FA200091242DE9080E5E0907F031242DE9080E6E0907F041242DE9080E7E0907F0512C3
:200FC20042DE907F00740D0242DEE5829080F8F09080E9E0FCA3E0FDA3E0FEA3E0FF907F77
:200FE20010ECF0EDA3F0EEA3F0EFA3F09080EDE0FCA3E0FDA3E0FEA3E0FF907F18ECF0ED34
:20100200A3F0EEA3F0EFA3F09080F1E0FCA3E0FDA3E0FEA3E0FF907F20ECF0EDA3F0EEA3BC
:20102200F0EFA3F09080F8E0FF907F0175F000EF1242DEA3740A1242DE9080F5E0907F0375
:201042001242DE9080F6E0907F041242DE9080F7E0907F051242DE907F00740D0242DEE56D
:2010620082908100F0E0FF907F0175F000EF1242DE9080F9E0907F021242DE9080FAE090D0
:201082007F031242DE9080FBE0907F041242DE9080FCE0907F051242DE9080FDE0907F0636
:2010A2001242DE9080FEE0907F071242DE9080FFE0907F081242DE907F00740F0242DEE5F5
:2010C20082908104F0908101E0907F10F0908102E0907F18F0908103E0907F20F090810454
:2010E200E0FF907F0175F000EF1242DEA3E41242DEF582F5F074100242DEE582908108F04E
:20110200908105E0907F10F0908106E0907F18F0908107E0907F20F0908108E0FF907F019B
:2011220075F000EF1242DEA374011242DE907F00C40242DEE58290810FF0908109E0FEA3D6
:20114200E0FF907F10EEF0EFA3F090810BE0FEA3E0FF907F18EEF0EFA3F090810DE0FEA38D
:20116200E0FF907F20EEF0EFA3F090810FE0FF907F0175F000EF1242DEA374041242DE908D
:201182007F0074100242DEE582908116F0908110E0FEA3E0FF907F10EEF0EFA3F090811287
:2011A200E0FEA3E0FF907F18EEF0EFA3F0908114E0FEA3E0FF907F20EEF0EFA3F09081160B
:2011C200E0FF907F0175F000EF1242DEA374051242DE907F0074100242DEE58290811DF010
:2011E200908117E0FEA3E0FF907F10EEF0EFA3F0908119E0FEA3E0FF907F18EEF0EFA3F0D5
:2012020090811BE0FEA3E0FF907F20EEF0EFA3F090811DE0FF907F0175F000EF1242DEA36B
:2012220074061242DE907F0074100242DEE582908124F090811EE0FEA3E0FF907F10EEF033
:20124200EFA3F0908120E0FEA3E0FF907F18EEF0EFA3F0908122E0FEA3E0FF907F20EEF052
:20126200EFA3F0908124E0FF907F0175F000EF1242DEA374071242DE907F0074100242DE3B
:20128200E582908131F0908125E0FCA3E0FDA3E0FEA3E0FF907F10ECF0EDA3F0EEA3F0EF33
:2012A200A3F0908129E0FCA3E0FDA3E0FEA3E0FF907F18ECF0EDA3F0EEA3F0EFA3F0908169
:2012C2002DE0FCA3E0FDA3E0FEA3E0FF907F20ECF0EDA3F0EEA3F0EFA3F0908131E0FF9041
:2012E2007F0175F000EF1242DEA374081242DE907F00230242DEE58290813EF0908132E078
:20130200FCA3E0FDA3E0FEA3E0FF907F10ECF0EDA3F0EEA3F0EFA3F0908136E0FCA3E0FD2B
:20132200A3E0FEA3E0FF907F18ECF0EDA3F0EEA3F0EFA3F090813AE0FCA3E0FDA3E0FEA357
:20134200E0FF907F20ECF0EDA3F0EEA3F0EFA3F090813EE0FF907F0175F000EF1242DEA3B7
:2013620074091242DE907F0074100242DEE58290814BF090813FE0FCA3E0FDA3E0FEA3E0A4
:20138200FF907F10ECF0EDA3F0EEA3F0EFA3F0908143E0FCA3E0FDA3E0FEA3E0FF907F18F4
:2013A200ECF0EDA3F0EEA3F0EFA3F0908147E0FCA3E0FDA3E0FEA3E0FF907F20ECF0EDA37A
:2013C200F0EEA3F0EFA3F090814BE0FF907F0175F000EF1242DEA3740A1242DE907F007471
:2013E200100242DEE58290814DF090814CE0FF90814DE0FE907F0175F000EE1242DEA3E470
:201402001242DE907F08EFF0907F0074110242DEE58290814FF090814EE0FF90814FE0FEB9
:20142200907F0175F000EE1242DEA374011242DE907F08EFF0907F0074110242DEE5829028
:201442008151F0908150E0FF908151E0FE907F0175F000EE1242DEA374021242DE907F0851
:20146200EFF0907F0074110242DEE582908153F0908152E0FF908153E0FE907F0175F00021
:20148200EE1242DEA374031242DE907F08EFF0907F0074110242DEE582908156F09081540F
:2014A200E0FEA3E0FF908156E0FD907F0175F000ED1242DEA374041242DE907F08EEF0EFC1
:2014C200A3F0907F0074110242DEE582908159F0908157E0FEA3E0FF908159E0FD907F01E1
:2014E20075F000ED1242DEA374051242DE907F08EEF0EFA3F0907F0074110242DEE58290F4
:20150200815CF090815AE0FEA3E0FF90815CE0FD907F0175F000ED1242DEA374061242DE04
:20152200907F08EEF0EFA3F0907F0074110242DEE58290815FF090815DE0FEA3E0FF9081D6
:201542005FE0FD907F0175F000ED1242DEA374071242DE907F08EEF0EFA3F0907F0074115E
:201562000242DEE582908164F0908160E0FCA3E0FDA3E0FEA3E0FF908164E0FB907F0175D6
:20158200F000EB1242DEA374081242DE907F08ECF0EDA3F0EEA3F0EFA3F0907F00741102DF
:2015A20042DEE582908169F0908165E0FCA3E0FDA3E0FEA3E0FF908169E0FB907F0175F099
:2015C20000EB1242DEA374091242DE907F08ECF0EDA3F0EEA3F0EFA3F0907F00741102424C
:2015E200DEE58290816EF090816AE0FCA3E0FDA3E0FEA3E0FF90816EE0FB907F0175F0008C
:20160200EB1242DEA3740A1242DE907F08ECF0EDA3F0EEA3F0EFA3F0907F0074110242DE2C
:20162200E582908172F090816FE0FDA3E0FEA3E0FF90816FE0F5F0A3E045F06018C007C072
:2016420006C0051200A1D005D006D0078D828E838FF01200AC908172E0FF907F0175F00054
:20166200EF1242DEA3740B1242DE907F0074110242DEE582908178F0E0FF907F0175F00009
:20168200EF1242DE908173E0FEA3E0FF907F08EEF0EFA3F0908175E0FEA3E0FF907F10EED9
:2016A200F0EFA3F0908177E0907F021242DE907F0074120242DEE58290817BF0908179E007
:2016C200907F10F090817AE0907F18F0907F01E4F5F01242DE90817BE0907F021242DE902D
:2016E2007F0074F61242DE907F08E0F58222E58290817EF090817CE0907F10F090817DE06D
:20170200907F18F0907F0175F00074011242DE90817EE0907F021242DE907F0074F6124215
:20172200DE907F08E0F58222E582908183F090817FE0FEA3E0FF907F10EEF0EFA3F09081CE
:2017420081E0FEA3E0FF907F18EEF0EFA3F0907F0175F00074041242DE908183E0907F027B
:201762001242DE907F0074F61242DE907F08E0FEA3E08E82F58322E582908188F0908184E3
:20178200E0FEA3E0FF907F10EEF0EFA3F0908186E0FEA3E0FF907F18EEF0EFA3F0907F01DA
:2017A20075F00074051242DE908188E0907F021242DE907F0074F61242DE907F08E0FEA318
:2017C200E08E82F58322E58290818DF0908189E0FEA3E0FF907F10EEF0EFA3F090818BE093
:2017E200FEA3E0FF907F18EEF0EFA3F0907F0175F00074061242DE90818DE0907F021242DC
:20180200DE907F0074F61242DE907F08E0FEA3E08E82F58322E582908192F090818EE0FEA4
:20182200A3E0FF907F10EEF0EFA3F0908190E0FEA3E0FF907F18EEF0EFA3F0907F0175F0A8
:201842000074071242DE908192E0907F021242DE907F0074F61242DE907F08E0FEA3E08E62
:2018620082F58322E58290819BF0908193E0FCA3E0FDA3E0FEA3E0FF907F10ECF0EDA3F0C9
:20188200EEA3F0EFA3F0908197E0FCA3E0FDA3E0FEA3E0FF907F18ECF0EDA3F0EEA3F0EF49
:2018A200A3F0907F0175F00074081242DE90819BE0907F021242DE907F0074F61242DE9066
:2018C2007F08E0FCA3E0FDA3E0FEA3E08C828D838EF022E5829081A4F090819CE0FCA3E049
:2018E200FDA3E0FEA3E0FF907F10ECF0EDA3F0EEA3F0EFA3F09081A0E0FCA3E0FDA3E0FEDA
:20190200A3E0FF907F18ECF0EDA3F0EEA3F0EFA3F0907F0175F00074091242DE9081A4E004
:20192200907F021242DE907F0074F61242DE907F08E0FCA3E0FDA3E0FEA3E08C828D838E94
:20194200F022E5829081ADF09081A5E0FCA3E0FDA3E0FEA3E0FF907F10ECF0EDA3F0EEA33D
:20196200F0EFA3F09081A9E0FCA3E0FDA3E0FEA3E0FF907F18ECF0EDA3F0EEA3F0EFA3F054
:20198200907F0175F000740A1242DE9081ADE0907F021242DE907F0074F61242DE907F087D
:2019A200E0FCA3E0FDA3E0FEA3E08C828D838EF022120062AF828F06EE04F51E8F82C007F0
:2019C200120509D0079080247401F0908025E4F08F82C007120522D0079080247402F0905A
:2019E2008025E4F08F82C007120522D0079080247403F0908025E4F08F82C007120522D0FF
:201A0200079080247404F0908025E4F08F82C007120522D0079080247405F0908025E4F08A
:201A22008F82C007120522D0079080247406F0908025E4F08F82C007120522D007908024F9
:201A42007407F0908025E4F08F82C007120522D0079080247408F0908025E4F08F82C007A7
:201A6200120522D0079080437401F0908044747EF0908045740CF0E4A3F08F82C007120739
:201A820005D0079080437402F0908044747EF0908045740CF0E4A3F08F82C007120705D077
:201AA200079080437403F0908044747EF0908045740CF0E4A3F08F82C007120705D0079094
:201AC20080437404F0908044747EF0908045740CF0E4A3F08F82C007120705D00790804347
:201AE2007405F0908044747EF0908045740CF0E4A3F08F82C007120705D00790804374066F
:201B0200F0908044747EF0908045740CF0E4A3F08F82C007120705D0079080437407F09046
:201B22008044747EF0908045740CF0E4A3F08F82C007120705D0079080437408F0908044E1
:201B4200747EF09080457410F0E4A3F08F82C007120705D0079080437401F0908044F09008
:201B62008045F0E4A3F08F82C007120705D0079080437402F090804414F0908045F0E4A38D
:201B8200F08F82C007120705D0079080437403F09080447401F0908045F0E4A3F08F82C086
:201BA20007120705D0079080437404F09080447401F0908045F0E4A3F08F82C00712070501
:201BC200D0079080437405F09080447401F0908045F0E4A3F08F82C007120705D00790801E
:201BE200437406F09080447401F0908045F0E4A3F08F82C007120705D0079080437407F036
:201C02009080447401F0908045F0E4A3F08F82C007120705D0079080437408F090804474F9
:201C220001F0908045F0E4A3F08F82C007120705D0079080247415F09080257401F08F82D0
:201C4200C007120522D0079080247416F09080257401F08F82C007120522D00790804374B4
:201C620015F0908044747EF09080457432F0E4A3F08F82C007120705D0079080437416F02B
:201C8200908044747EF09080457432F0E4A3F08F82C007120705D0079080437415F0908001
:201CA20044747FF09080457401F0E4A3F08F82C007120705D0079080437416F09080447468
:201CC2007FF09080457404F0E4A3F08F82C007120705D0079080627415F0908063E4F090D0
:201CE200806474AFF07446A3F07480A3F08F82C00712088CD0079080437416F0908044E4BD
:201D0200F09080457432F0E4A3F08F82C007120705D0079080247417F09080257402F08FC9
:201D220082C007120522D0079080247418F09080257402F08F82C007120522D007908043C2
:201D42007417F0908044747EF09080457432F0E4A3F08F82C007120705D0079080437418C2
:201D6200F0908044747EF09080457432F0E4A3F08F82C007120705D0079080437417F090AE
:201D82008044747FF09080457401F0E4A3F08F82C007120705D0079080437418F090804479
:201DA200747FF09080457404F0E4A3F08F82C007120705D0079080627417F0908063E4F009
:201DC20090806474BFF07446A3F07480A3F08F82C00712088CD0079080437418F09080441E
:201DE200E4F0908045741CF0E4A3F08F82C007120705D007908024740AF09080257403F0B6
:201E02008F82C007120522D007908024740BF09080257403F08F82C007120522D0079080A1
:201E220043740AF0908044747EF09080457432F0E4A3F08F82C007120705D00790804374C3
:201E42000BF0908044747EF09080457432F0E4A3F08F82C007120705D007908043740AF05F
:201E6200908044747FF09080457401F0E4A3F08F82C007120705D007908043740BF0908059
:201E820044747FF09080457404F0E4A3F08F82C007120705D007908062740AF0908063E4E1
:201EA200F090806474D0F07446A3F07480A3F08F82C00712088CD007908043740BF090808D
:201EC20044E4F09080457496F0E4A3F08F82C007120705D007908024740CF0908025740404
:201EE200F08F82C007120522D007908024740DF09080257404F08F82C007120522D007904E
:201F02008043740CF0908044747EF09080457432F0E4A3F08F82C007120705D007908043D4
:201F2200740DF0908044747EF09080457432F0E4A3F08F82C007120705D007908043740CF6
:201F4200F0908044747FF09080457401F0E4A3F08F82C007120705D007908043740DF09006
:201F62008044747FF09080457404F0E4A3F08F82C007120705D007908062740CF090806362
:201F8200E4F090806474DEF07446A3F07480A3F08F82C00712088CD007908043740DF09038
:201FA2008044E4F09080457438F0E4A3F08F82C007120705D0079080247410F09080257401
:201FC20005F08F82C007120522D0079080247411F09080257405F08F82C007120522D007F3
:201FE2009080437410F0908044747EF09080457432F0E4A3F08F82C007120705D0079080A3
:20200200437411F0908044747EF09080457432F0E4A3F08F82C007120705D00790804374DA
:2020220010F0908044747FF09080457401F0E4A3F08F82C007120705D0079080437411F0A1
:20204200908044747FF09080457404F0E4A3F08F82C007120705D0079080627410F0908050
:2020620063E4F090806474EBF07446A3F07480A3F08F82C00712088CD0079080437411F073
:20208200908044E4F09080457464F0E4A3F08F82C007120705D007908024740EF0908025DA
:2020A2007406F08F82C007120522D007908024740FF09080257406F08F82C007120522D0A5
:2020C20007908043740EF0908044747EF09080457432F0E4A3F08F82C007120705D007903D
:2020E2008043740FF0908044747EF09080457432F0E4A3F08F82C007120705D007908043F0
:20210200740EF0908044747FF09080457401F0E4A3F08F82C007120705D007908043740F40
:20212200F0908044747FF09080457404F0E4A3F08F82C007120705D007908062740EF09001
:202142008063E4F090806474FFF07446A3F07480A3F08F82C00712088CD007908043740FF0
:20216200F0908044E4F09080457464F0E4A3F08F82C007120705D0079080247412F090802A
:20218200257407F08F82C007120522D0079080247413F09080257407F08F82C00712052269
:2021A200D0079080247414F09080257407F08F82C007120522D0079080437412F0908044F5
:2021C200747EF09080457432F0E4A3F08F82C007120705D0079080437413F0908044747EDC
:2021E200F09080457419F0E4A3F08F82C007120705D0079080437414F0908044747EF09046
:2022020080457419F0E4A3F08F82C007120705D0079080437412F0908044747FF0908045E1
:202222007401F0E4A3F08F82C007120705D0079080437413F0908044747FF0908045740326
:20224200F0E4A3F08F82C007120705D0079080437414F0908044747FF09080457403F0E4A6
:20226200A3F08F82C007120705D0079080627412F0908063E4F0908064740CF07447A3F09B
:202282007480A3F08F82C00712088CD0079080437413F0908044E4F090804504F0E4A3F0AE
:2022A2008F82C007120705D0079080437414F0908044E4F090804504F0E4A3F08F82C007C4
:2022C200120705D007908024741AF09080257408F08F82C007120522D007908043741AF0FB
:2022E200908044747EF09080457419F0E4A3F08F82C007120705D007908043741AF09080AF
:2023020044747FF09080457402F0E4A3F08F82C007120705D007908062741AF0908063E44E
:20232200F0908064741EF07447A3F07480A3F08F82C00712088CD007908043741AF09080AA
:2023420044747DF09080457404F0E4A3F08F82C007120705D007908024741BF090802574F9
:2023620008F08F82C007120522D007908043741BF0908044747EF09080457419F0E4A3F02A
:202382008F82C007120705D007908043741BF0908044747FF09080457402F0E4A3F08F8222
:2023A200C007120705D007908062741BF0908063E4F0908064742FF07447A3F07480A3F04B
:2023C2008F82C00712088CD007908043741BF0908044747DF09080457404F0E4A3F08F825A
:2023E200C007120705D007908024741CF09080257408F08F82C007120522D007908043741B
:202402001CF0908044747EF09080457419F0E4A3F08F82C007120705D007908043741CF08F
:20242200908044747FF09080457402F0E4A3F08F82C007120705D007908062741CF0908062
:2024420063E4F0908064743FF07447A3F07480A3F08F82C00712088CD007908043741CF02F
:20246200908044747DF09080457404F0E4A3F08F82C007120705D007908024741DF090805F
:20248200257408F08F82C007120522D007908043741DF0908044747EF09080457419F0E401
:2024A200A3F08F82C007120705D007908043741DF0908044747FF09080457402F0E4A3F07D
:2024C2008F82C007120705D007908062741DF0908063E4F0908064744FF07447A3F074808A
:2024E200A3F08F82C00712088CD007908043741DF0908044747DF09080457404F0E4A3F0B5
:202502008F82C007120705D0079081C074FFF0A3F0A3F0A3F09081C4F0A3F0A3F0A3F090F1
:2025220081C8F0A3F0A3F0A3F09081CCF0A3F0A3F0A3F09081D0F0A3F0A3F0A3F09081D4B2
:20254200F0A3F0A3F0A3F09081D8F0A3F0A3F0A3F09081DCF0A3F0A3F0A3F0907F0075F034
:202562000074FE1242DEA3EF1242DE1582740A1242DE90807A7416F090807BE4F08F82C076
:2025820007120A5D85822F858330D00790807A7418F090807BE4F08F82C007120A5D8582B7
:2025A20010858311D007908086740BF0908087E4F08F82C007120B6985820885830985F0B6
:2025C2000AF50BD007908086740DF0908087E4F08F82C007120B6985820C85830D85F00E9D
:2025E200F50FD0079080867411F0908087E4F08F82C007120B69A882A983ABF0FEE4C0E0B7
:20260200C0E074C8C0E07442C0E0888289838BF0EE1244DC85821285831385F014F515E589
:202622008124FCF581D0079081B8E512F0E513A3F0E514A3F0E515A3F09080867411F090BB
:202642008087E4F08F82C007120B69A982AA83ABF0FEE4C0E0C0E074C8C0E07442C0E0896F
:20266200828A838BF0EE1244DC85821685831785F018F519E58124FCF581D0079081BCE5D2
:2026820016F0E517A3F0E518A3F0E519A3F09081B4E4F0A3F0A3F0A3F0907FFEF5F01245E7
:2026A2009FF51A741AB51A0474018001E4F51B701A741BB51A02805F741CB51A0302277952
:2026C200741DB51A030227C4022821C007C00CC00DC00EC00F850882850983850AF0E50BD1
:2026E200123C71A882A983AAF0FBE58124FCF581D0079081B4E8F0E9A3F0EAA3F0EBA3F047
:202702009081BCE516F0E517A3F0E518A3F0E519B2E7A3F0022821C007C00CC00DC00EC07D
:202722000F850882850983850AF0E50B123C71A882A983AAF0FBE58124FCF581D00790816B
:20274200B4E8F0E9A3F0EAA3F0EBA3F09081B8E512F0E513A3F0E514A3F0E515B2E7A3F087
:202762009081BCE516F0E517A3F0E518A3F0E519B2E7A3F0022821C007C00CC00DC00EC01D
:202782000F850882850983850AF0E50B124329A882A983AAF0FBE58124FCF581D00790814C
:2027A200B4E8F0E9A3F0EAA3F0EBA3F09081BCE516F0E517A3F0E518A3F0E519B2E7A3F013
:2027C200805DC007C00CC00DC00EC00F850882850983850AF0E50B124329A882A983AAF020
:2027E200FBE58124FCF581D0079081B4E8F0E9A3F0EAA3F0EBA3F09081B8E512F0E513A3AA
:20280200F0E514A3F0E515B2E7A3F09081BCE516F0E517A3F0E518A3F0E519B2E7A3F0C053
:20282200079081B8E0C0E0A3E0C0E0A3E0C0E0A3E0C0E0850C82850D83850EF0E50F123CF0
:202842007C85821F85832085F021F522E58124FCF5819081BCE0C0E0A3E0C0E0A3E0C0E070
:20286200A3E0C0E0850C82850D83850EF0E50F123C7C85821685831785F018F519E5812469
:20288200FCF581D00790807A740FF090807BE4F08F82C007120A5D858212858313D00790A5
:2028A200807A7413F090807BE4F08F82C007120A5DAC82D0078C1C90807A7414F090807BBB
:2028C200E4F08F82C007120A5DAC828C1D907F0175F000E51E1242DE1582740A1242DE9079
:2028E20080F97401F09080FAE4F09080FBF09080FCF09080FD14F09080FEF09080FFF08590
:202902001E82121061908117E4F0A3F0908119F0A3F090811BF0A3F0851E821211DC120071
:20292200A19081B4E0FBA3E0FCA3E0FDA3E08B828C838DF01202A990801C7463F0E4A3F012
:20294200900000F5F01202ECAD82AE838D238E241200A1850C82850D83850EF0E50F1202D8
:20296200A990801C7463F0E4A3F0900000F5F01202ECAD82AE83D0078D258E26C3E52595CE
:2029820023E52664808524F063F08095F04006852523852624C0071200A1E4C0E0C0E0C0F2
:2029A200E0C0E0851F828520838521F0E5221242F9AA82E58124FCF581D007EA6021C00231
:2029C200A81FA920AA21E522B2E7888289838AF0C007C0021202A9D002D007D0028016858E
:2029E2001F828520838521F0E522C007C0021202A9D002D00790801C7463F0E4A3F0900086
:202A020000F5F0C007C0021202ECAB82AE83D002C006C003C0021200A1E4C0E0C0E0C0E054
:202A2200C0E08516828517838518F0E5191242F9858225E58124FCF581D002D003D006D06D
:202A420007E525602EC003C006A816A917AB18E519B2E7FE888289838BF0C007C006C00395
:202A6200C0021202A9D002D003D006D007D006D003801E8516828517838518F0E519C007AE
:202A8200C006C003C0021202A9D002D003D006D00790801C7463F0E4A3F0900000F5F0C03B
:202AA20007C006C003C0021202ECA882A983D002D003D006E5232BFBE5243EFE74162BFBCE
:202AC200E43EFEE52328F8E52439F9741628F527E439F528C006C003C0021200A190475F35
:202AE20075F0801200AC9081B4E0F8A3E0F9A3E0FCA3E0888289838CF01202A9D002D00322
:202B0200D006D007EA603BC003C00690476475F080C007C006C0031200ACD003D006A81F5A
:202B2200A920AA21E522B2E7FE888289838AF0C006C0031202A9D003D006D007D006D00362
:202B4200802390477175F080C007C006C0031200AC851F828520838521F0E5221202A9D01D
:202B620003D006D00790477E75F080C007C006C0031200ACD003D006D00774062523F9E43C
:202B82003524FAE4F529F52AC003C00689008A06C3E52998E52A9ED006D00350307582E205
:202BA200C007C006C003C002C001120153758294120153758280120153D001D002D003D0C6
:202BC20006D0070529E4B529BF052A80BB90478775F080C007C006C0031200AC908173E444
:202BE200F0A3F09081757404F0E4A3F090817704F0851E8212167490816FE4F0A3F0A3F034
:202C0200851E82121622D003D006908173EBF0EEA3F090817574FEF004A3F090817774013E
:202C2200F0851E82C006C0031216741200A1D0039081B4E0F8A3E0F9A3E0FAA3E0FD8882B2
:202C420089838AF0C005C003C002C001C0001202A990478A75F0801200AC90816FE4F0A369
:202C6200F0A3F0851E82121622908173E4F0A3F09081757404F0E4A3F090817704F0851EF1
:202C8200821216741200A1850C82850D83850EF0E50F1202A990816FE4F0A3F0A3F0851EE8
:202CA200821216221200A190478F75F0801200ACD000D001D002D003D005888289838AF0DF
:202CC200EDC0031202A9D003D006D007E525603BC003C00690479475F080C007C006C00337
:202CE2001200ACD003D006A816A917AA18E519B2E7FE888289838AF0C006C0031202A9D0F0
:202D020003D006D007D006D00380239047A175F080C007C006C0031200AC8516828517830E
:202D22008518F0E5191202A9D003D006D0079047AE75F080C007C006C0031200ACD003D0AE
:202D420006D00774062523F9E43524FAE4F529F52AC003C00689008A06C3E52998E52A9EC9
:202D6200D006D00350307582E2C007C006C003C002C001120153758294120153758280129C
:202D82000153D001D002D003D006D0070529E4B529BF052A80BB90478775F080C007C006D1
:202DA200C0031200ACD003D006C3E49BFBE49EFE908173EBF0EEA3F090817574F6F074FFF7
:202DC200A3F09081777401F0851E8212167490816FE4F0A3F0A3F0851E8212162290817343
:202DE200E527F0E528A3F090817574FEF004A3F09081777401F0851E821216741200A190C5
:202E020081B4E0F9A3E0FAA3E0FBA3E089828A838BF01202A990478A75F0801200AC9081BF
:202E22006FE4F0A3F0A3F0851E82121622908173E4F0A3F09081757404F0E4A3F0908177E0
:202E420004F0851E821216741200A1850C82850D83850EF0E50F1202A990816FE4F0A3F0C5
:202E6200A3F0851E82121622D007907F0175F000EF1242DEA374011242DE907F00740B12F7
:202E820042DE852F82853083C00712445A85822B85832C85F02DF52E851282851383124476
:202EA2005AA882AA83ABF0FEC008C009C00AC00B88828A838BF0EE1244DC858212858313BA
:202EC20085F014F515E58124FCF581E4C0E0C0E0C0E07440C0E0852B82852C83852DF0E55C
:202EE2002E1244DCA882AC83ADF0FEE58124FCF581C000C004C005C006900FDB75F04974D5
:202F0200401244DC85820885830985F00AF50BE58124FCF581D0079081AEE4F0A3F0C3E5FD
:202F22002F9510E53064808511F063F08095F040169081B0E52FF0E530A3F09081B2E51069
:202F4200F0E511A3F080149081B0E510F0E511A3F09081B2E52FF0E530A3F0E51C7003024E
:202F62003383758200C007120074D0079081B4E0F52BA3E0F52CA3E0F52DA3E0F52E9081B9
:202F8200B2E0F9A3E0FA9081B0E0F52FA3E0F530852F2985302AE4F527F528C007C002C098
:202FA200011200A18527828528831201F69047B775F0801200AC852982852A831201F6D088
:202FC20001D002D007908062741AF0908063E4F0908064F0A3F0A3F08F82C007C002C00129
:202FE20012088CD001D002D007908062741BF0908063E4F0908064F0A3F0A3F08F82C00715
:20300200C002C00112088CD001D002D007908062741CF0908063E4F0908064F0A3F0A3F048
:203022008F82C007C002C00112088CD001D002D007908062741DF0908063E4F0908064F075
:20304200A3F0A3F08F82C007C002C00112088CD001D002D0079081AEE0F525A3E0F526E492
:20306200F523F524C3E52399E5249A40030232FBC001C002852582852683C007124467A89B
:2030820082A983AAF0FEC002C001C008C009C00AC00B888289838AF0EE123C7C858231853A
:2030A200833285F033F534E58124FCF581D001D0028531828532838533F0E534123D80A83F
:2030C20082A983AAF0FEC002C001C000C001C002C006852B82852C83852DF0E52E123C7C37
:2030E20085823585833685F037F538E58124FCF581D001D002C031C032C033C034852B82E0
:20310200852C83852DF0E52E123C7CA882A983AAF0FEE58124FCF581C002C001C00CC00DF4
:20312200C00EC00F888289838AF0EE1244DC85823985833A85F03BF53CE58124FCF581D011
:2031420001D002853982853A83853BF0E53C123D80A882A983AAF0FEC002C001C000C00186
:20316200C002C006851F828520838521F0E522123C7CAB82AC83ADF0FEE58124FCF581C05D
:2031820003C004C005C0068535828536838537F0E53812432985823585833685F037F538C7
:2031A200E58124FCF581D001D0028531828532838533F0E534123DAFA882A983AAF0FEC08F
:2031C20002C001C000C001C002C006852B82852C83852DF0E52E123C7C8582318583328545
:2031E200F033F534E58124FCF581D001D002853982853A83853BF0E53C123DAFA882A9833B
:20320200AAF0FEC002C001C000C001C002C0068516828517838518F0E519123C7CAB82AC1E
:2032220083ADF0FEE58124FCF581C003C004C005C0068531828532838533F0E534124329AF
:20324200AB82AC83ADF0FEE58124FCF581C012C013C014C0158B828C838DF0EE123C7C8555
:20326200823985833A85F03BF53CE58124FCF581D001D002C012C013C014C01585358285C0
:2032820036838537F0E538123C7CA882A983AAF0FEE58124FCF581D0079080E9E539F0E533
:2032A2003AA3F0E53BA3F0E53CA3F09080EDE8F0E9A3F0EAA3F0EEA3F09080F1E4F0A3F021
:2032C200A3F0A3F09080F514F09080F6F09080F7F08F82C007C002C001120FCCD001D002E5
:2032E200D0070525E4B5250205260523E4B523020524D002D0010230669081AEE525F0E5F8
:2033020026A3F00527E4B527020528C3E52F9527E53095284003022F9D758200C007120091
:2033220074AB82AC83ADF0FED007E51B7015741BB51A02801E741CB51A028027741DB51A5E
:203342004080309081C0EBF0ECA3F0EDA3F0EEA3F0802E9081C8EBF0ECA3F0EDA3F0EEA35D
:20336200F0801E9081D0EBF0ECA3F0EDA3F0EEA3F0800E9081D8EBF0ECA3F0EDA3F0EEA39F
:20338200F0E51D7003023891758200C007120074D0079081B4E0F53DA3E0F53EA3E0F53F9C
:2033A200A3E0F5409081B2E0F9A3E0FA9081B0E0F539A3E0F53A853935853A36E4F531F5D2
:2033C20032C007C002C0011200A18531828532831201F69047B775F0801200AC853582854F
:2033E20036831201F6D001D002D007908062741AF0908063E4F0908064F0A3F0A3F08F82BD
:20340200C007C002C00112088CD001D002D007908062741BF0908063E4F0908064F0A3F011
:20342200A3F08F82C007C002C00112088CD001D002D007908062741CF0908063E4F0908033
:2034420064F0A3F0A3F08F82C007C002C00112088CD001D002D007908062741DF09080630F
:20346200E4F0908064F0A3F0A3F08F82C007C002C00112088CD001D002D0079081AEE0F5DD
:203482002FA3E0F530E4F52BF52CC3E52B99E52C9A4003023806C001C002852F82853083A3
:2034A200C007124467A882A983AAF0FEC002C001C008C009C00AC00B888289838AF0EE125F
:2034C2003C7C85824185834285F043F544E58124FCF581D001D0029081A5E541F0E542A37A
:2034E200F0E543A3F0E544A3F09081A9E4F0A3F0A3F0A3F075820B121944A882A983AAF0BB
:20350200FE9081A5E53DF0E53EA3F0E53FA3F0E540A3F09081A9E8F0E9A3F0EAA3F0EEA3A2
:20352200F0758203C002C00112194485824585834685F047F548D001D0029081A5E53DF0AF
:20354200E53EA3F0E53FA3F0E540A3F09081A9E541F0E542A3F0E543A3F0E544A3F075824C
:2035620003121944A882A983AAF0FE9081A5E8F0E9A3F0EAA3F0EEA3F09081A9E50CF0E561
:203582000DA3F0E50EA3F0E50FA3F0758204C002C001121944AB82AC83ADF0FE9081A5EBF7
:2035A200F0ECA3F0EDA3F0EEA3F09081A9E4F0A3F0A3F0A3F075820B121944AB82AC83ADD8
:2035C200F0FE9081A5E51FF0E520A3F0E521A3F0E522A3F09081A9EBF0ECA3F0EDA3F0EE04
:2035E200A3F0758203121944AB82AC83ADF0FEC003C004C005C0068545828546838547F06E
:20360200E54812432985824585834685F047F548E58124FCF581D001D0029081A5E541F0FF
:20362200E542A3F0E543A3F0E544A3F09081A9E4F0A3F0A3F0A3F075820C121944A882A9CB
:2036420083AAF0FE9081A5E53DF0E53EA3F0E53FA3F0E540A3F09081A9E8F0E9A3F0EAA3C5
:20366200F0EEA3F0758203C002C00112194485824985834A85F04BF54CD001D0029081A5EF
:20368200E53DF0E53EA3F0E53FA3F0E540A3F09081A9E541F0E542A3F0E543A3F0E544A3E0
:2036A200F0758203121944A882A983AAF0FE9081A5E8F0E9A3F0EAA3F0EEA3F09081A9E51A
:2036C2000CF0E50DA3F0E50EA3F0E50FA3F0758204C002C001121944AB82AC83ADF0FE90E6
:2036E20081A5EBF0ECA3F0EDA3F0EEA3F09081A9E4F0A3F0A3F0A3F075820C121944AB8261
:20370200AC83ADF0FE9081A5E516F0E517A3F0E518A3F0E519A3F09081A9EBF0ECA3F0ED8B
:20372200A3F0EEA3F0758203121944AB82AC83ADF0FEC003C004C005C006854982854A835F
:20374200854BF0E54C124329AB82AC83ADF0FEE58124FCF581C012C013C014C0158B828C1E
:20376200838DF0EE123C7C85824985834A85F04BF54CE58124FCF581D001D002C012C013A8
:20378200C014C0158545828546838547F0E548123C7CA882A983AAF0FEE58124FCF581D077
:2037A200079080E9E549F0E54AA3F0E54BA3F0E54CA3F09080EDE8F0E9A3F0EAA3F0EEA341
:2037C200F09080F1E4F0A3F0A3F0A3F09080F514F09080F6F09080F7F08F82C007C002C019
:2037E20001120FCCD001D002D007052FE4B52F0205307401252BF52BE4352CF52CD002D03F
:203802000102348C9081AEE52FF0E530A3F074012531F531E43532F532C3E5399531E53A4F
:20382200953240030233C3758200C007120074AB82AC83ADF0FED007E51B7015741BB51A8F
:2038420002801E741CB51A028027741DB51A4080309081C4EBF0ECA3F0EDA3F0EEA3F080BE
:203862002E9081CCEBF0ECA3F0EDA3F0EEA3F0801E9081D4EBF0ECA3F0EDA3F0EEA3F08082
:203882000E9081DCEBF0ECA3F0EDA3F0EEA3F0908062741AF0908063E4F090806474B9F008
:2038A2007447A3F07480A3F08F82C00712088CD0079081C0E0FBA3E0FCA3E0FDA3E0FE2090
:2038C200E748908054741AF09080557403F0908056EBF0ECA3F0EDA3F0EEA3F08F82C00770
:2038E2001207E6D007908062741AF09080637403F090806474C7F07447A3F07480A3F08F23
:2039020082C00712088CD0078023908062741AF09080637403F090806474C9F07447A3F083
:203922007480A3F08F82C00712088CD0079081C4E0FBA3E0FCA3E0FDA3E0FE20E72590803D
:2039420054741AF09080557403F0908056EBF0ECA3F0EDA3F0EEA3F08F82C0071207E6D05F
:20396200078023908062741AF09080637403F090806474CCF07447A3F07480A3F08F82C087
:203982000712088CD007908062741BF0908063E4F090806474CEF07447A3F07480A3F08F5F
:2039A20082C00712088CD0079081C8E0FBA3E0FCA3E0FDA3E0FE20E748908054741BF09049
:2039C20080557403F0908056EBF0ECA3F0EDA3F0EEA3F08F82C0071207E6D0079080627454
:2039E2001BF09080637403F090806474C7F07447A3F07480A3F08F82C00712088CD0078097
:203A020023908062741BF09080637403F090806474C9F07447A3F07480A3F08F82C0071256
:203A2200088CD0079081CCE0FBA3E0FCA3E0FDA3E0FE20E725908054741BF09080557403F6
:203A4200F0908056EBF0ECA3F0EDA3F0EEA3F08F82C0071207E6D0078023908062741BF071
:203A62009080637403F090806474CCF07447A3F07480A3F08F82C00712088CD0079080622A
:203A8200741CF0908063E4F090806474DBF07447A3F07480A3F08F82C00712088CD00790F0
:203AA20081D0E0FBA3E0FCA3E0FDA3E0FE20E748908054741CF09080557403F0908056EB08
:203AC200F0ECA3F0EDA3F0EEA3F08F82C0071207E6D007908062741CF09080637403F0906A
:203AE200806474C7F07447A3F07480A3F08F82C00712088CD0078023908062741CF09080E6
:203B0200637403F090806474C9F07447A3F07480A3F08F82C00712088CD0079081D4E0FB4E
:203B2200A3E0FCA3E0FDA3E0FE20E725908054741CF09080557403F0908056EBF0ECA3F067
:203B4200EDA3F0EEA3F08F82C0071207E6D0078023908062741CF09080637403F0908064D1
:203B620074CCF07447A3F07480A3F08F82C00712088CD007908062741DF0908063E4F0901F
:203B8200806474E8F07447A3F07480A3F08F82C00712088CD0079081D8E0FBA3E0FCA3E003
:203BA200FDA3E0FE20E748908054741DF09080557403F0908056EBF0ECA3F0EDA3F0EEA3B4
:203BC200F08F82C0071207E6D007908062741DF09080637403F090806474C7F07447A3F08B
:203BE2007480A3F08F82C00712088CD0078023908062741DF09080637403F090806474C9C6
:203C0200F07447A3F07480A3F08F82C00712088CD0079081DCE0FBA3E0FCA3E0FDA3E0FE40
:203C220020E726908054741DF09080557403F0908056EBF0ECA3F0EDA3F0EEA3F08F82C012
:203C4200071207E6D00702255D908062741DF09080637403F090806474CCF07447A3F074CE
:0F3C620080A3F08F82C00712088CD00702255D67
:2046AF00506F696E7473207065722070617373004E756D626572206F662070617373657323
:2046CF0000537461746F722072616469757300526F746F722072616469757300447261775A
:2046EF00696E6720666163746F7220783130300044726177696E672073697A6500537461D6
:20470F006E64617264207C20456E67696E65004879706F74726F63686F69640A3F0A3F00E1
:20472F004F7468657220696E6E65720A3F0A3F004F74686572206F757465720A3F0A3F00B7
:20474F0045706974726F63686F69640A3F0A3F0079203D2000202A20636F73287429202D87
:20476F002000202A20636F73287429202B2000202A20636F73282000202900202A2074000D
:20478F0078203D2000202A2073696E287429202D2000202A2073696E287429202B2000202B
:2047AF002A2073696E2820002F004879706F74726F63686F69640A000A003F0A003F004FF8
:2047CF007468657220696E6E65720A004F74686572206F757465720A0045706974726F63A0
:0647EF00686F69640A0016
:0B3C7100A8811818C6B2E7C60243295C
:203C7C00123D1FBC0003024494EF60FA30D502B2D1E583B4FF030244AAE582B4FF030244DD
:203C9C00AA258340072482400B02449424831450030244AAF582EA8DF0A4A8F0EA8EF0A480
:203CBC0028F8E435F0F9EB8DF0A428E935F0F9E433CA8FF0A429F9EA35F0FAEBF88EF0A457
:203CDC0029F9EA35F0FAE433FBEC8DF0A429F9EA35F0FAE43BFBE88FF0A42AFAEB35F0FBFF
:203CFC00E433CCFD8EF0A42AFAEB35F0FBE43CFCED8FF0A42BFBEC35F0FC20E703123D4D72
:033D1C00024473EB
:203D1F00AA82AB83A2F73392D1F5826002D2F7ACF0E58124F9F8E6FD08E6FE0886F008E607
:0E3D3F00A2F73392D5F5836002D2F7AFF022DF
:06003500E478FFF6D8FD9F
:203D4D007804EC7011E58224F8500AF582E4C9CACBFCD8EF22EC7820058220E713D5820175
:133D6D0022C3E933F9EA33FAEB33FBEC33FCD8EA15822283
:203D8000AC82AD83AEF0FF8CF0ED42F0EE42F0EF547F45F0700990000075F080743F229023
:0F3DA00081E07401F08C828D838EF0EF023DDBA9
:200013007900E94400601B7A009047F578F575A081E493F2A308B8000205A0D9F4DAF275E2
:02003300A0FF2C
:203DAF00AC82AD83AEF0FF8CF0ED42F0EE42F0EF547F45F07007900000E4F5F0229081E064
:0C3DCF00E4F08C828D838EF0EF023DDB6F
:203DDB00AF82AE83ADF0FC9081E1EFF0EEA3F0EDA3F0ECA3F09081E0E0FFE0605D9081E11D
:203DFB00E0FBA3E0FCA3E0FDA3E08B828C838DF0C007124382AB82AC83ADF0FE74DBC0E02E
:203E1B00740FC0E074C9C0E0743FC0E08B828C838DF0EE124329AB82AC83ADF0FEE58124AE
:203E3B00FCF581D0079081E5EBF0ECA3F0EDA3F0EEA3F09081F1E4F0806B9081E1E0FBA39C
:203E5B00E0FCA3E0FDA3E0FEC007C006C005C004C003E4C0E0C0E0C0E0C0E08B828C838D84
:203E7B00F0EE1242F9AA82E58124FCF581D003D004D005D006D007EA60189081E5EBF0EC8C
:203E9B00A3F0EDA3F0EEB2E7A3F09081F17401F080139081E5EBF0ECA3F0EDA3F0EEA3F08F
:203EBB009081F1E4F09081E5E0FBA3E0FCA3E0FDA3E0FEC007C006C005C004C003C003C064
:203EDB0004C005C006900C0075F04974461242F9AA82E58124FCF581D003D004D005D0066D
:203EFB00D007EA600F9081F37422F0E4A3F0900000F5F022C007C003C004C005C00690F97D
:203F1B008375F0A2743E123C7CAB82AC83ADF0FEE58124FCF581E4C0E0C0E0C0E0743FC056
:203F3B00E08B828C838DF0EE124329AB82AC83ADF0FEE58124FCF5818B828C838DF0EE12F5
:203F5B004426AD82AE83D007ED30E00A9081F1E0B40100E433F08D828E83C00712445AABBE
:203F7B0082AC83ADF0FED0079081EDEBF0ECA3F0EDA3F0EEA3F0EF6030E4C0E0C0E0C0E067
:203F9B00743FC0E08B828C838DF0EE123C71AC82AD83AEF0FFE58124FCF5819081EDECF09C
:203FBB00EDA3F0EEA3F0EFA3F09081E1E0FCA3E0FDA3E0FEA3E08C828D838EF0124382ACF2
:203FDB0082AD83AEF0FFC007C006C005C00412442612445AA882A983AAF0FBD004D005D0D1
:203FFB0006D007C003C002C001C000C000C001C002C0038C828D838EF0EF123C7185824D1F
:20401B0085834E85F04FF550E58124FCF5819081EDE0F551A3E0F552A3E0F553A3E0F554A5
:20403B00C051C052C053C05490000075F0497440123C7CAC82AD83AEF0FFE58124FCF58168
:20405B00D000D001D002D003C004C005C006C007888289838AF0EB123C71AC82AD83AEF0B3
:20407B00FFE58124FCF581C04DC04EC04FC0508C828D838EF0EF124329AC82AD83AEF0FFEC
:20409B00E58124FCF581C007C006C005C004C051C052C053C05490AA2275F07D743A123C6F
:2040BB007CA882A983AAF0FBE58124FCF581D004D005D006D007C000C001C002C0038C8218
:2040DB008D838EF0EF123C71AC82AD83AEF0FFE58124FCF5819081E9ECF0EDA3F0EEA3F0BB
:2040FB00EFA3F0C007C006C005C004C004C005C006C0078C828D838EF0EF123C7C8582514A
:20411B0085835285F053F554E58124FCF581C051C052C053C05490FFF375F07F7433124272
:20413B00F9AB82E58124FCF581D004D005D006D007EB70030242B0C007C006C005C004C0C4
:20415B0051C052C053C054909C5B75F02E7436123C7CA882A983AAF0FBE58124FCF58174D1
:20417B0022C0E074B2C0E0744FC0E074B9C0E0888289838AF0EB124329A882A983AAF0FB88
:20419B00E58124FCF581C051C052C053C054888289838AF0EB123C7CA882A983AAF0FBE5A9
:2041BB008124FCF581743EC0E07487C0E07408C0E0743CC0E0888289838AF0EB124329A8D3
:2041DB0082A983AAF0FBE58124FCF581C051C052C053C054888289838AF0EB123C7CA882CC
:2041FB00A983AAF0FBE58124FCF58174A4C0E074AAC0E0742AC0E074BEC0E0888289838AC1
:20421B00F0EB124329A882A983AAF0FBE58124FCF581C051C052C053C054888289838AF069
:20423B00EB123C7CA882A983AAF0FBE58124FCF581D004D005D006D007C007C006C005C05F
:20425B0004C000C001C002C0038C828D838EF0EF123C7CA882A983AAF0FBE58124FCF581FD
:20427B00D004D005D006D007C000C001C002C0038C828D838EF0EF124329AC82AD83AEF0C2
:20429B00FFE58124FCF5819081E9ECF0EDA3F0EEA3F0EFA3F09081F1E060129081E9E0FC85
:2042BB00A3E0FDA3E0FEA3E0B2E7FF800E9081E9E0FCA3E0FDA3E0FEA3E0FF8C828D838E34
:0342DB00F0EF22DF
:1B42DE0020F71130F6138883A88220F509F6A8837583002280FEF280F5F022DF
:2042F900FFA88118181243FBD2D133E6400730E70B7582002220E70675820122C2D11243B0
:10431900DDE97003F5822220D101B3E433F582226D
:20003B007800E84400600A790075A080E4F309D8FC78F5E84401600C7902908000E4F0A3CD
:04005B00D8FCD9FAFA
:20432900123D1F7900E583B58202800D50031244C2E583C395821245FBE5D0C465D020E1B1
:2043490017EA2DFAEB3EFBEC3FFC500974011245FBEC4480FC024473C3EA9DFAEB9EFBECA8
:194369009FFC500FC3E499F9E49AFAE49BFBE49CFCB2D1123D4D024473C2
:20438200C055858155AC82AD83AEF0FFE5812404F581E55504F8A60408A60508A60608A6B7
:2043A20007A95509870409870509870609870719191953077FA70409A70509A70609A707AF
:1B43C200A9550987040987050987060987078C828D838EF0EF855581D055225F
:2043DD007901AA82E68F82B5821318E6B5F00E18E6B5830918E68A82B58202790022B480D7
:2043FD000FE5F0700AE5837006E58270027F00EFB6801518B6001018B6000B18B60006083F
:09441D00080876002208080822B4
:2044260012463E700AE582458345F0700122E430D112F4700BE5F0F47006E58330E7012228
:1444460090800022700AE5F07006E58320E70122907FFF22A9
:0D445A00AC83AB827A007900748E0245C4F9
:0C446700E4AC83AB82FAF9748E0245F1DC
:20447300B98003EA13B34010EA2401FAE43BFBE43CFC50047C800582BC000EBB000BBA008D
:2044930008E4F5F0F583F58222A2D1E582138CF092F78B838A8222E4F583F58275F080F44D
:0F44B300A2D11322E4F583F58275F0C0747F2245
:1A44C200E582C583F582A2D133A2D592D11392D5ECCFFCEBCEFBEACDFA2282
:2044DC00123D1F30D502B2D1BF0009BC00030244B70244AABC0003024494E583B4FF0BE5B0
:2044FC0082B4FF030244B7024494E582B4FF030244AAC395835007247F400B0244942480E6
:20451C001450030244AAF582C3ED9AEE9BEF9C40111582C3EA33F9EB33FAEC33FBE433FC4D
:20453C008005E4CCCBCAF9C08275F019C3E99DEA9EEB9FEC9400D5F002802D400EE99DF9C0
:20455C00EA9EFAEB9FFBEC9400FCC3B3E833F8E58233F582E58333F583C3E933F9EA33FA20
:20457C00EB33FBEC33FC80C4B3E4F938FAE43582FBE43583FCD082500405827C80123D4DF2
:03459C0002448B4B
:0D0006007581581246ABE5826003020003CD
:1C459F0020F71430F6148883A88220F507E6A88375830022E280F7E49322E0222B
:2045BB00FCABF0AA83A982749EF582C2D1EC30E716D2D1E9F42401F9EAF43400FAEBF434FF
:0D45DB0000FBECF43400FC123D4D02447373
:1345E800FCABF0AA83A982749EC2D1F582123D4D02447360
:2045FB006040F82582500274FFF582E824F8501ECCCBCAF9E4CC24F85014CBCAF9E4CB24C8
:20461B00F8500BCAF9E4CA24F8500379002224086010F8C3EC13FCEB13FBEA13FAE913F97A
:03463B00D8F12291
:20463E00124699C3749E9582403979001245FB30D126E9F42401F582EAF43400F583EBF432
:20465E003400F5F0ECF43400700AE582458345F0700122E430E70F22EC20E71489828A8353
:1B467E008BF02230D10AE4F582F583F5F074802274FFF582F583F5F0747F224F
:12469900AA82AB83A2F73392D1F5826002D2F7ACF02226
:0446AB0075820022F2
:00000001FF
