:03000000020006F5
:03005F0002000399
:03000300020C38B4
:20006200907F0075F00074F71217CE907F08E0F58222E582908000F0E0FF907F0175F0005D
:20008200EF1217CE158274FC1217CE907F08E0FCA3E0FDA3E0FEA3E08C828D838EF02290B5
:2000A2007F0075F00074FA0217CEAFF0AE83E582908001F0EEA3F0EFA3F0907F0175F00055
:2000C200740B1217CE908001E0FDA3E0FEA3E0FF7C00EC2DF9E43EFA8F0389828A838BF0E8
:2000E200121A83FB6013907F08EBF0907F0075F00074FB1217CE0C80D922E582908004F023
:20010200E0907F08F0907F01E4F5F01217CE1582F5F074FB0217CEE582908005F0E0907FF9
:2001220008F0907F0175F00074011217CE158274FB0217CEE582908006F0E0907F08F09013
:200142007F0175F00074021217CE158274FB0217CEE582908007F0E0907F08F0907F017584
:20016200F00074031217CE158274FB0217CEAF83E582908008F0EFA3F0908008E0FEA3E096
:20018200FF907F08EEF0EFA3F0907F0175F00074041217CE1582F40217CEAF83E5829080E8
:2001A2000AF0EFA3F090800AE0FEA3E0FF907F08EEF0EFA3F0907F0175F00074051217CEEB
:2001C200158274FB0217CEAF83E58290800CF0EFA3F090800CE0FEA3E0FF907F08EEF0EFA9
:2001E200A3F0907F0175F00074061217CE158274FB0217CEAF83E58290800EF0EFA3F090DE
:20020200800EE0FEA3E0FF907F08EEF0EFA3F0907F0175F00074071217CE158274FB021771
:20022200CEAF82AE83ADF0FC908010EFF0EEA3F0EDA3F0ECA3F0908010E0FCA3E0FDA3E075
:20024200FEA3E0FF907F08ECF0EDA3F0EEA3F0EFA3F0907F0175F00074081217CE158274B3
:20026200FB0217CEAF82AE83ADF0FC908014EFF0EEA3F0EDA3F0ECA3F0908014E0FCA3E099
:20028200FDA3E0FEA3E0FF907F08ECF0EDA3F0EEA3F0EFA3F0907F0175F00074091217CEFD
:2002A200158274FB0217CEAF82AE83ADF0FC908018EFF0EEA3F0EDA3F0ECA3F0908018E0C5
:2002C200FCA3E0FDA3E0FEA3E0FF907F08ECF0EDA3F0EEA3F0EFA3F0907F0175F000740A34
:2002E2001217CE158274FB0217CEAFF0AE83E58290801EF0EEA3F0EFA3F0907F0175F0004B
:20030200740B1217CE158274F81217CE907F08E0FEA3E0FF908021EEF0EFA3F090801CE057
:20032200FCA3E0FDC3EC9EED9F5008908021ECF0EDA3F090801EE0FDA3E0FEA3E0FF908063
:200342001EE0F5F0A3E045F06064908021E0FBA3E0FC79007A00C3E99BEA9C5034C003C0EA
:2003620004907F0075F00074F91217CEE92DF525EA3EF5268F27907F08E085258285268325
:200382008527F01217CE09B900010AD004D00380C590801EE0FDA3E0FEA3E0FFEB2DFBEC02
:2003A2003EFC8F028B828C838AF0E41217CE908021E0FEA3E08E82F58322907F01E4F5F0EA
:2003C2001217CE1582F5F074F81217CE907F08E0F58222907F0175F00074011217CE15823D
:2003E20074F81217CE907F08E0F58222907F0175F00074021217CE158274F81217CE907F1D
:2004020008E0F58222907F0175F00074031217CE158274F81217CE907F08E0F58222907FDD
:200422000175F00074041217CE158274F81217CE907F08E0FEA3E08E82F58322907F017544
:20044200F00074051217CE158274F81217CE907F08E0FEA3E08E82F58322907F0175F000A9
:2004620074061217CE158274F81217CE907F08E0FEA3E08E82F58322907F0175F0007407FD
:200482001217CE1582F41217CE907F08E0FEA3E08E82F58322907F0175F00074081217CED7
:2004A200158274F81217CE907F08E0FCA3E0FDA3E0FEA3E08C828D838EF022907F0175F096
:2004C2000074091217CE158274F81217CE907F08E0FCA3E0FDA3E0FEA3E08C828D838EF099
:2004E20022907F0175F000740A1217CE158274F81217CE907F08E0FCA3E0FDA3E0FEA3E07D
:200502008C828D838EF022E582908029F0908023E0907F10F0908024E0907F18F090802509
:20052200E0907F20F0908029E0FF907F0175F000EF1217CEA3E41217CE908026E0907F03A1
:200542001217CE908027E0907F041217CE908028E0907F051217CE907F00740D0217CEE502
:2005620082908030F090802AE0907F10F090802BE0907F18F090802CE0907F20F0908030F1
:20058200E0FF907F0175F000EF1217CEA374011217CE90802DE0907F031217CE90802EE0CC
:2005A200907F041217CE90802FE0907F051217CE907F00740D0217CEE58290803AF09080DD
:2005C20031E0FEA3E0FF907F10EEF0EFA3F0908033E0FEA3E0FF907F18EEF0EFA3F09080CF
:2005E20035E0FEA3E0FF907F20EEF0EFA3F090803AE0FF907F0175F000EF1217CEA3740436
:200602001217CE908037E0907F031217CE908038E0907F041217CE908039E0907F05121719
:20062200CE907F00740D0217CEE582908044F090803BE0FEA3E0FF907F10EEF0EFA3F0900E
:20064200803DE0FEA3E0FF907F18EEF0EFA3F090803FE0FEA3E0FF907F20EEF0EFA3F09026
:200662008044E0FF907F0175F000EF1217CEA374051217CE908041E0907F031217CE90801D
:2006820042E0907F041217CE908043E0907F051217CE907F00740D0217CEE58290804EF0C2
:2006A200908045E0FEA3E0FF907F10EEF0EFA3F0908047E0FEA3E0FF907F18EEF0EFA3F0C6
:2006C200908049E0FEA3E0FF907F20EEF0EFA3F090804EE0FF907F0175F000EF1217CEA395
:2006E20074061217CE90804BE0907F031217CE90804CE0907F041217CE90804DE0907F05AC
:200702001217CE907F00740D0217CEE582908058F090804FE0FEA3E0FF907F10EEF0EFA35C
:20072200F0908051E0FEA3E0FF907F18EEF0EFA3F0908053E0FEA3E0FF907F20EEF0EFA31D
:20074200F0908058E0FF907F0175F000EF1217CEA374071217CE908055E0907F031217CEA2
:20076200908056E0907F041217CE908057E0907F051217CE907F00740D0217CEE5829080E7
:2007820068F0908059E0FCA3E0FDA3E0FEA3E0FF907F10ECF0EDA3F0EEA3F0EFA3F09080A9
:2007A2005DE0FCA3E0FDA3E0FEA3E0FF907F18ECF0EDA3F0EEA3F0EFA3F0908061E0FCA305
:2007C200E0FDA3E0FEA3E0FF907F20ECF0EDA3F0EEA3F0EFA3F0908068E0FF907F0175F0DD
:2007E20000EF1217CEA374081217CE908065E0907F031217CE908066E0907F041217CE90AD
:200802008067E0907F051217CE907F00740D0217CEE582908078F0908069E0FCA3E0FDA336
:20082200E0FEA3E0FF907F10ECF0EDA3F0EEA3F0EFA3F090806DE0FCA3E0FDA3E0FEA3E0FB
:20084200FF907F18ECF0EDA3F0EEA3F0EFA3F0908071E0FCA3E0FDA3E0FEA3E0FF907F2002
:20086200ECF0EDA3F0EEA3F0EFA3F0908078E0FF907F0175F000EF1217CEA374091217CE3E
:20088200908075E0907F031217CE908076E0907F041217CE908077E0907F051217CE907FF7
:2008A20000740D0217CEE582908088F0908079E0FCA3E0FDA3E0FEA3E0FF907F10ECF0ED0F
:2008C200A3F0EEA3F0EFA3F090807DE0FCA3E0FDA3E0FEA3E0FF907F18ECF0EDA3F0EEA380
:2008E200F0EFA3F0908081E0FCA3E0FDA3E0FEA3E0FF907F20ECF0EDA3F0EEA3F0EFA3F006
:20090200908088E0FF907F0175F000EF1217CEA3740A1217CE908085E0907F031217CE90DD
:200922008086E0907F041217CE908087E0907F051217CE907F00740D0217CEE58290808BCA
:20094200F0908089E0907F10F090808AE0907F18F0907F01E4F5F01217CE90808BE0907F32
:20096200021217CE907F0074F61217CE907F08E0F58222E58290808EF090808CE0907F10EC
:20098200F090808DE0907F18F0907F0175F00074011217CE90808EE0907F021217CE907F5B
:2009A2000074F61217CE907F08E0F58222E582908093F090808FE0FEA3E0FF907F10EEF04E
:2009C200EFA3F0908091E0FEA3E0FF907F18EEF0EFA3F0907F0175F00074041217CE908017
:2009E20093E0907F021217CE907F0074F61217CE907F08E0FEA3E08E82F58322E582908071
:200A020098F0908094E0FEA3E0FF907F10EEF0EFA3F0908096E0FEA3E0FF907F18EEF0EFCF
:200A2200A3F0907F0175F00074051217CE908098E0907F021217CE907F0074F61217CE90AC
:200A42007F08E0FEA3E08E82F58322E58290809DF0908099E0FEA3E0FF907F10EEF0EFA366
:200A6200F090809BE0FEA3E0FF907F18EEF0EFA3F0907F0175F00074061217CE90809DE07F
:200A8200907F021217CE907F0074F61217CE907F08E0FEA3E08E82F58322E5829080A2F0B1
:200AA20090809EE0FEA3E0FF907F10EEF0EFA3F09080A0E0FEA3E0FF907F18EEF0EFA3F010
:200AC200907F0175F00074071217CE9080A2E0907F021217CE907F0074F61217CE907F080C
:200AE200E0FEA3E08E82F58322E5829080ABF09080A3E0FCA3E0FDA3E0FEA3E0FF907F10A6
:200B0200ECF0EDA3F0EEA3F0EFA3F09080A7E0FCA3E0FDA3E0FEA3E0FF907F18ECF0EDA3CB
:200B2200F0EEA3F0EFA3F0907F0175F00074081217CE9080ABE0907F021217CE907F0074B2
:200B4200F61217CE907F08E0FCA3E0FDA3E0FEA3E08C828D838EF022E5829080B4F0908046
:200B6200ACE0FCA3E0FDA3E0FEA3E0FF907F10ECF0EDA3F0EEA3F0EFA3F09080B0E0FCA3AB
:200B8200E0FDA3E0FEA3E0FF907F18ECF0EDA3F0EEA3F0EFA3F0907F0175F00074091217D2
:200BA200CE9080B4E0907F021217CE907F0074F61217CE907F08E0FCA3E0FDA3E0FEA3E0D2
:200BC2008C828D838EF022E5829080BDF09080B5E0FCA3E0FDA3E0FEA3E0FF907F10ECF012
:200BE200EDA3F0EEA3F0EFA3F09080B9E0FCA3E0FDA3E0FEA3E0FF907F18ECF0EDA3F0EED7
:200C0200A3F0EFA3F0907F0175F000740A1217CE9080BDE0907F021217CE907F0074F61293
:200C220017CE907F08E0FCA3E0FDA3E0FEA3E08C828D838EF022120062E582F50904F508BE
:200C4200907F0175F000E5091217CE1582740A1217CEA3E5081217CE1582740A1217CEA3F6
:200C6200E5091217CEA374011217CE907F00740B1217CEA3E5081217CEA374011217CE90D3
:200C82007F00740B1217CEE4F50AF50B850A82850B8312194AA882A983AAF0FBC000C00175
:200CA200C002C003900FDB75F049744012116CA882A983AAF0FBE58124FCF581C003C002D6
:200CC200C001C000E4C0E0C0E07434C0E0C4C0E0888289838AF0EB1219C085820C85830D33
:200CE20085F00EF50FE58124FCF581D000D001D002D003C003C002C001C000E4C0E0C0E0FF
:200D020074B4C0E07442C0E0888289838AF0EB1219C0AC82AD83AEF0FFE58124FCF581D086
:200D220000D001D002D003C007C006C005C004E4C0E0C0E07470C0E07442C0E08882898311
:200D42008AF0EB1219C085821085831185F012F513E58124FCF581850C82850D83850EF0DB
:200D6200E50F12129F85821485831585F016F517D004D005D006D0078C828D838EF0EFC04A
:200D820007C006C005C00412129FA882A983AAF0FBC000C001C002C003900000E4F5F0747A
:200DA2004012116CA882A983AAF0FBE58124FCF581C000C001C002C00385148285158385B8
:200DC20016F0E51712181985821485831585F016F517E58124FCF581850C82850D83850E46
:200DE200F0E50F12127085820C85830D85F00EF50FD004D005D006D0078C828D838EF0EFE9
:200E0200C007C006C005C004121270A882A983AAF0FBC000C001C002C003900000E4F5F0DC
:200E2200744012116CA882A983AAF0FBE58124FCF581C000C001C002C003850C82850D8358
:200E4200850EF0E50F12116185820C85830D85F00EF50FE58124FCF5818510828511838535
:200E620012F0E51312129FA882A983AAF0FB881889198A1AEBB2E7F51BE4C0E0C0E074486E
:200E8200C0E07442C0E08514828515838516F0E51712116C85821485831585F016F517E558
:200EA2008124FCF581E4C0E0C0E07448C0E07442C0E0850C82850D83850EF0E50F12116C15
:200EC20085820C85830D85F00EF50FE58124FCF581E4C0E0C0E07448C0E07442C0E08518F2
:200EE20082851983851AF0E51B12116CA882A983AAF0FBE58124FCF581908079E514F0E5F1
:200F020015A3F0E516A3F0E517A3F090807DE50CF0E50DA3F0E50EA3F0E50FA3F090808179
:200F2200E8F0E9A3F0EAA3F0EBA3F09080857480F0908086F0908087F08509821208A88583
:200F420010828511838512F0E513121270A882A983AAF0FBE4C0E0C0E0C0E07440C0E08846
:200F62008289838AF0EB12181985821885831985F01AF51BE58124FCF581D004D005D006DF
:200F8200D0078C828D838EF0EFC007C006C005C00412129FA882A983AAF0FBC000C001C0E8
:200FA20002C003851882851983851AF0E51B12116C85821885831985F01AF51BE58124FCA7
:200FC200F5818510828511838512F0E513121270A882A983AAF0FBE4C0E0C0E0C0E07440F3
:200FE200C0E0888289838AF0EB121819A882A983AAF0FBE58124FCF581D004D005D006D05B
:20100200078C828D838EF0EFC003C002C001C000121270AC82AD83AEF0FFD000D001D00234
:20102200D003C004C005C006C007888289838AF0EB12116CAC82AD83AEF0FFE58124FCF545
:2010420081EFB2E7FF8510828511838512F0E513C007C006C005C00412129F8582148583DB
:201062001585F016F517E4C0E0C0E07448C0E07442C0E0851882851983851AF0E51B1211FA
:201082006CA882A983AAF0FBE58124FCF581D004D005D006D007C003C002C001C000E4C0FB
:2010A200E0C0E07448C0E07442C0E08C828D838EF0EF12116C85821885831985F01AF51B03
:2010C200E58124FCF581E4C0E0C0E07448C0E07442C0E08514828515838516F0E51712115A
:2010E2006CAC82AD83AEF0FFE58124FCF581D000D001D002D003908079E8F0E9A3F0EAA3DB
:20110200F0EBA3F090807DE518F0E519A3F0E51AA3F0E51BA3F0908081ECF0EDA3F0EEA3B1
:20112200F0EFA3F09080857480F0908086F0908087F08508821208A8050AE4B50A02050B20
:1F114200C37468950A7481850BF063F08095F04003020C8E907F0075F00074FD0217CED8
:0B116100A8811818C6B2E7C6021819D2
:20116C0012120FBC0003021978EF60FA30D502B2D1E583B4FF0302198EE582B4FF0302190C
:20118C008E258340072482400B021978248314500302198EF582EA8DF0A4A8F0EA8EF0A465
:2011AC0028F8E435F0F9EB8DF0A428E935F0F9E433CA8FF0A429F9EA35F0FAEBF88EF0A492
:2011CC0029F9EA35F0FAE433FBEC8DF0A429F9EA35F0FAE43BFBE88FF0A42AFAEB35F0FB3A
:2011EC00E433CCFD8EF0A42AFAEB35F0FBE43CFCED8FF0A42BFBEC35F0FC20E70312123DE8
:03120C000219576D
:20120F00AA82AB83A2F73392D1F5826002D2F7ACF0E58124F9F8E6FD08E6FE0886F008E642
:0E122F00A2F73392D5F5836002D2F7AFF0221A
:06003500E478FFF6D8FD9F
:20123D007804EC7011E58224F8500AF582E4C9CACBFCD8EF22EC7820058220E713D58201B0
:13125D0022C3E933F9EA33FAEB33FBEC33FCD8EA158222BE
:20127000AC82AD83AEF0FF8CF0ED42F0EE42F0EF547F45F0700990000075F080743F22905E
:0F12900080BE7401F08C828D838EF0EF0212CB42
:200013007900E94400601B7A00901B8078D375A080E493F2A308B8000205A0D9F4DAF275A6
:02003300A0FF2C
:20129F00AC82AD83AEF0FF8CF0ED42F0EE42F0EF547F45F07007900000E4F5F0229080BEC2
:0C12BF00E4F08C828D838EF0EF0212CBE5
:2012CB00AF82AE83ADF0FC9080BFEFF0EEA3F0EDA3F0ECA3F09080BEE0FFE0605D9080BFC1
:2012EB00E0FBA3E0FCA3E0FDA3E08B828C838DF0C007121872AB82AC83ADF0FE74DBC0E0A4
:20130B00740FC0E074C9C0E0743FC0E08B828C838DF0EE121819AB82AC83ADF0FEE5812424
:20132B00FCF581D0079080C3EBF0ECA3F0EDA3F0EEA3F09080CFE4F0806B9080BFE0FBA340
:20134B00E0FCA3E0FDA3E0FEC007C006C005C004C003E4C0E0C0E0C0E0C0E08B828C838DBF
:20136B00F0EE1217E9AA82E58124FCF581D003D004D005D006D007EA60189080C3EBF0EC25
:20138B00A3F0EDA3F0EEB2E7A3F09080CF7401F080139080C3EBF0ECA3F0EDA3F0EEA3F010
:2013AB009080CFE4F09080C3E0FBA3E0FCA3E0FDA3E0FEC007C006C005C004C003C003C0E5
:2013CB0004C005C006900C0075F04974461217E9AA82E58124FCF581D003D004D005D006E3
:2013EB00D007EA600F9080D17422F0E4A3F0900000F5F022C007C003C004C005C00690F9DB
:20140B008375F0A2743E12116CAB82AC83ADF0FEE58124FCF581E4C0E0C0E0C0E0743FC0CC
:20142B00E08B828C838DF0EE121819AB82AC83ADF0FEE58124FCF5818B828C838DF0EE126B
:20144B001916AD82AE83D007ED30E00A9080CFE0B40100E433F08D828E83C00712194AAB92
:20146B0082AC83ADF0FED0079080CBEBF0ECA3F0EDA3F0EEA3F0EF6030E4C0E0C0E0C0E0C5
:20148B00743FC0E08B828C838DF0EE121161AC82AD83AEF0FFE58124FCF5819080CBECF035
:2014AB00EDA3F0EEA3F0EFA3F09080BFE0FCA3E0FDA3E0FEA3E08C828D838EF0121872AC8B
:2014CB0082AD83AEF0FFC007C006C005C00412191612194AA882A983AAF0FBD004D005D082
:2014EB0006D007C003C002C001C000C000C001C002C0038C828D838EF0EF12116185821CC6
:20150B0085831D85F01EF51FE58124FCF5819080CBE0F520A3E0F521A3E0F522A3E0F5235A
:20152B00C020C021C022C02390000075F049744012116CAC82AD83AEF0FFE58124FCF581A2
:20154B00D000D001D002D003C004C005C006C007888289838AF0EB121161AC82AD83AEF029
:20156B00FFE58124FCF581C01CC01DC01EC01F8C828D838EF0EF121819AC82AD83AEF0FF26
:20158B00E58124FCF581C007C006C005C004C020C021C022C02390AA2275F07D743A121199
:2015AB006CA882A983AAF0FBE58124FCF581D004D005D006D007C000C001C002C0038C8263
:2015CB008D838EF0EF121161AC82AD83AEF0FFE58124FCF5819080C7ECF0EDA3F0EEA3F054
:2015EB00EFA3F0C007C006C005C004C004C005C006C0078C828D838EF0EF12116C858220F1
:20160B0085832185F022F523E58124FCF581C020C021C022C02390FFF375F07F743312172F
:20162B00E9AB82E58124FCF581D004D005D006D007EB70030217A0C007C006C005C004C04A
:20164B0020C021C022C023909C5B75F02E743612116CA882A983AAF0FBE58124FCF581740B
:20166B0022C0E074B2C0E0744FC0E074B9C0E0888289838AF0EB121819A882A983AAF0FBFE
:20168B00E58124FCF581C020C021C022C023888289838AF0EB12116CA882A983AAF0FBE5E3
:2016AB008124FCF581743EC0E07487C0E07408C0E0743CC0E0888289838AF0EB121819A849
:2016CB0082A983AAF0FBE58124FCF581C020C021C022C023888289838AF0EB12116CA88206
:2016EB00A983AAF0FBE58124FCF58174A4C0E074AAC0E0742AC0E074BEC0E0888289838AFC
:20170B00F0EB121819A882A983AAF0FBE58124FCF581C020C021C022C023888289838AF0A3
:20172B00EB12116CA882A983AAF0FBE58124FCF581D004D005D006D007C007C006C005C0D5
:20174B0004C000C001C002C0038C828D838EF0EF12116CA882A983AAF0FBE58124FCF58173
:20176B00D004D005D006D007C000C001C002C0038C828D838EF0EF121819AC82AD83AEF038
:20178B00FFE58124FCF5819080C7ECF0EDA3F0EEA3F0EFA3F09080CFE060129080C7E0FC29
:2017AB00A3E0FDA3E0FEA3E0B2E7FF800E9080C7E0FCA3E0FDA3E0FEA3E0FF8C828D838E92
:0317CB00F0EF221A
:1B17CE0020F71130F6138883A88220F509F6A8837583002280FEF280F5F0221A
:2017E900FFA88118181218EBD2D133E6400730E70B7582002220E70675820122C2D1121851
:10180900CDE97003F5822220D101B3E433F58222B8
:20003B007800E84400600A790075A080E4F309D8FC78D3E84400600C7901908000E4F0A3F1
:04005B00D8FCD9FAFA
:2018190012120F7900E583B58202800D50031219A6E583C39582121ACCE5D0C465D020E1C8
:2018390017EA2DFAEB3EFBEC3FFC50097401121ACCEC4480FC021957C3EA9DFAEB9EFBEC84
:191859009FFC500FC3E499F9E49AFAE49BFBE49CFCB2D112123D0219577F
:20187200C024858124AC82AD83AEF0FFE5812404F581E52404F8A60408A60508A60608A685
:2018920007A92409870409870509870609870719191953077FA70409A70509A70609A7071B
:1B18B200A9240987040987050987060987078C828D838EF0EF852481D024222D
:2018CD007901AA82E68F82B5821318E6B5F00E18E6B5830918E68A82B58202790022B48012
:2018ED000FE5F0700AE5837006E58270027F00EFB6801518B6001018B6000B18B60006087A
:09190D00080876002208080822EF
:20191600121B0F700AE582458345F0700122E430D112F4700BE5F0F47006E58330E70122BD
:1419360090800022700AE5F07006E58320E70122907FFF22E4
:0D194A00AC83AB827A007900748E021AA87B
:20195700B98003EA13B34010EA2401FAE43BFBE43CFC50047C800582BC000EBB000BBA00D4
:2019770008E4F5F0F583F58222A2D1E582138CF092F78B838A8222E4F583F58275F080F494
:0F199700A2D11322E4F583F58275F0C0747F228C
:1A19A600E582C583F582A2D133A2D592D11392D5ECCFFCEBCEFBEACDFA22C9
:2019C00012120F30D502B2D1BF0009BC000302199B02198EBC0003021978E583B4FF0BE507
:2019E00082B4FF0302199B021978E582B4FF0302198EC395835007247F400B021978248049
:201A000014500302198EF582C3ED9AEE9BEF9C40111582C3EA33F9EB33FAEC33FBE433FCDB
:201A20008005E4CCCBCAF9C08275F019C3E99DEA9EEB9FEC9400D5F002802D400EE99DF907
:201A4000EA9EFAEB9FFBEC9400FCC3B3E833F8E58233F582E58333F583C3E933F9EA33FA67
:201A6000EB33FBEC33FC80C4B3E4F938FAE43582FBE43583FCD082500405827C8012123D74
:031A800002196FD9
:0D000600758127121B7CE582600302000358
:1C1A830020F71430F6148883A88220F507E6A88375830022E280F7E49322E02272
:201A9F00FCABF0AA83A982749EF582C2D1EC30E716D2D1E9F42401F9EAF43400FAEBF43446
:0D1ABF0000FBECF43400FC12123D0219573C
:201ACC006040F82582500274FFF582E824F8501ECCCBCAF9E4CC24F85014CBCAF9E4CB2422
:201AEC00F8500BCAF9E4CA24F8500379002224086010F8C3EC13FCEB13FBEA13FAE913F9D5
:031B0C00D8F122EB
:201B0F00121B6AC3749E958240397900121ACC30D126E9F42401F582EAF43400F583EBF440
:201B2F003400F5F0ECF43400700AE582458345F0700122E430E70F22EC20E71489828A83AD
:1B1B4F008BF02230D10AE4F582F583F5F074802274FFF582F583F5F0747F22A9
:121B6A00AA82AB83A2F73392D1F5826002D2F7ACF02280
:041B7C00758200224C
:00000001FF
